:1000000000000120F902000021030000D90D0000CA
:100010002503000027030000290300000000000062
:100020000000000000000000000000002B030000A2
:100030002D030000000000002F030000310300002A
:1000400091330000330300004934000019340000EC
:100050002534000033030000252D0000A1390000E5
:10006000DD3B0000353C00008D3C000041380000C5
:10007000330300001938000033030000330300008D
:10008000953D0000E1030000893600003D3400008A
:100090004D3B0000653B00007D3B0000953B0000B0
:1000A000AD3B0000C53B0000E53C00003D3D0000CD
:1000B0005534000085320000000000000000000000
:1000C0003303000011350000CD350000313400004D
:1000D000F138000069310000330300000000000027
:1000E0000000000000000000000000000000000010
:1000F0000000000000000000000000000000000000
:1001000000000000000000000000000000000000EF
:1001100000000000000000000000000000000000DF
:1001200000000000000000000000000000000000CF
:1001300000000000000000000000000000000000BF
:1001400000000000000000000000000000000000AF
:10015000000000000000000000000000000000009F
:10016000000000000000000000000000000000008F
:10017000000000000000000000000000000000007F
:10018000000000000000000000000000000000006F
:10019000000000000000000000000000000000005F
:1001A000000000000000000000000000000000004F
:1001B000000000000000000000000000000000003F
:1001C000000000000000000000000000000000002F
:1001D000000000000000000000000000000000001F
:1001E000000000000000000000000000000000000F
:1001F00000000000000000000000000000000000FF
:100200000348044B834202D0034B03B118477047A5
:10021000740000207400002000000000054806491A
:100220000B1AD90F01EBA301491002D0034B03B104
:100230001847704774000020740000200000000080
:1002400010B5064C237843B9FFF7DAFF044B13B11E
:100250000448AFF300800123237010BD000100208B
:10026000000000001C8A000008B5044B1BB10449C3
:100270000448AFF30080BDE80840CFE7000000006D
:10028000040100201C8A0000A3F5803A704700BFDB
:10029000154B002B08BF114B9D46FFF7F5FF0021C2
:1002A0008B460F461148124A121A05F0ADFA0C4B54
:1002B000002B00D098470B4B002B00D09847002014
:1002C000002104000D000B4805F0A0F905F0CEF95F
:1002D0002000290003F0DCFD05F09EF90000080075
:1002E00000000000000000000000012000010020CC
:1002F000F0140020415600000649074A074B9B1A9C
:1003000003DD043BC858D050FBDC04F093FFFFF73B
:10031000BFFF0000808A00000000002000010020D4
:10032000FEE7FEE7FEE7FEE7FEE7FEE7FEE7FEE7A5
:10033000FEE7FEE703F090BD0021084603F050BD44
:1003400008B50846114602F097FC002008BD00BF22
:1003500030B5054685B0002002F05AFC044610B1C5
:10036000204605B030BD281D039004F0CBFE0E4999
:10037000039800942346224604F02EFF10F1360F16
:100380000CD00028ECD048F2115348F2165410F16A
:10039000380F08BF1C46204605B030BD48F2145443
:1003A000204605B030BD00BF4103000008B5043051
:1003B00004F0B4FE02F050FC002008BD72B6024A00
:1003C00013680133136070471C010020034A13684F
:1003D000013B136003B962B6704700BF1C010020E7
:1003E000024A034B10681B68184700BF2001002019
:1003F000280100202DE9F041436888461BB1334AAB
:10040000D468A3423CD2324E0023A8F80030726870
:10041000012702F5805C4FF6FF75083294450DD830
:10042000022FA8F8007006F114064CD0726802F58D
:10043000805C083294454FF00207F1D9136801330C
:10044000EED05388033302EB83039C45E8D3B2F824
:1004500004E0AE4509D014883CB19468611C04D016
:100460000168A14205D01A46D8E79C45D8D91A465A
:10047000E4E7184B42601B8903810120BDE8F0814D
:1004800012699342BFD813F00305BCD1114A048905
:1004900012899442B7D104689A689442B3D10C4847
:1004A0004268934203D902F58052934207D382698E
:1004B000934208D902F58052934204D20125A8F84C
:1004C00000500120DAE70020D8E700BF74000020C8
:1004D00068010020500100202DE9F04F9B4F8BB0A8
:1004E00004464FF6FF783E68002E00F0BA8032785E
:1004F000531E052B00F26E82DFE803F05821210322
:10050000033E002C40F0B4803379012B00F0B6821A
:10051000022B00F0C580002B00F08E8205AD059403
:10052000C5E902442C6148F20E6406943378023B1C
:10053000042B49D8DFE803F0897569624500B6F8F5
:1005400014A0002C40F05682814D0AEB8A0305EB83
:1005500083034FEA8A091C895B6803EB8404B37D3B
:10056000062B00F22C84DFE813F079016601990173
:10057000880145012E010901002C79D1DFF8F0C175
:100580009CF80C30002B00F0AA809CF800308CF80E
:100590000C40013B062B00F21D82DFE813F019032B
:1005A000D502C201AE011B0205039A01002C40F0E6
:1005B0001A823379032B00F28780DFE803F0BA63F5
:1005C000789F05238DF81430624C04F1100654F81E
:1005D000043B284603B19847A642F8D15E495F48DC
:1005E00000243C6000F060FC5D48012100F06CFCE0
:1005F00000287FF478AF0BB0BDE8F08F04238DF8AE
:100600001430F388ADF82030DEE703238DF8143082
:10061000F388ADF820303389ADF82230F3680793C2
:10062000D2E702238DF814303389ADF82030B38837
:10063000ADF82230F3680793B37DA3F10603B3FA54
:1006400083F35B098DF82430BEE701238DF8143065
:100650003389ADF82030B388ADF82230F3680793C2
:10066000B2E73D493D4800F0EDFB064638603EE705
:100670004FF4064405AD0023C5E90033C5E9023354
:100680002B6152E7324D2B78022B00F07C832B7DBF
:10069000022B00F08883334B01221A7000225A602B
:1006A00005AD00240594C5E902442C613DE72E4ABE
:1006B0002E4802210023337191801168012202F03B
:1006C0001BF8002897D03E68264A05AD0023059305
:1006D0005360C5E902332B6148F20D6425E79CF8AD
:1006E0000030072B00F2A282DFE813F0B602A0026E
:1006F000A002D102ED02F300F3009A021A4C1C4B47
:1007000021681A480022327100925D8805EB85034A
:100710000F4D05F8232005EB8305A3882B816B681B
:1007200023600223A380134A6960082301F0B4FF09
:10073000C7E701230C493371002309680E4A00936F
:100740000A48082301F0A8FFBBE700BF64010020AE
:100750006801002038010020600100209001002085
:10076000A001002048010020A40100207400002006
:1007700050010020145D00001C5D0000324641F66F
:100780001D5409EB0A0105EB8101F3880889033345
:1007900003440B81D144F38805EB89051646C3F564
:1007A0007F436A89FD3313446B8105AD41F61D52C9
:1007B00000239442059308BF1C46C5E902332B6110
:1007C0003FF4B3AEC0E2A54BA54A5968A54BA64875
:1007D0001C880623B37500230093042301F05CFFFB
:1007E00010BB04EB840305EB830501232B740BB0D2
:1007F000BDE8F08F9948B3699A4903604FF0000B48
:10080000C0F804B0FFF7F6FD002800F0AF82022325
:10081000B37504239448CDF800B02146F21801F0D6
:100820003BFF00283FF4E7AEB37D3A68022B48F265
:100830000D64AFD9A5E7032A0CBF05230623B375C2
:10084000002300938848211D042306F1080201F0CB
:1008500023FF0028E8D10BB0BDE8F08F0223B37569
:1008600000230093042380482146F21801F014FF6E
:100870000028D9D10BB0BDE8F08FF3883269012090
:10088000B0750020009004F10C0177489B0001F046
:1008900003FF0028C8D10BB0BDE8F08F3369724860
:1008A000002B14BF03230123B3750023009304F12D
:1008B0000801042306F10C0201F0EEFE00283FF4CB
:1008C0009AAEB37D3A68022B48F20D647FF662AFB0
:1008D00057E7664A64481168002307228CF8002015
:1008E0000093634ACCF80430082301F0D5FE044697
:1008F000002C3FF480AE3E6857E7BCF802305D4DF7
:1009000003EB830305EB8305EB68002B54D1696887
:10091000554804228CF80020012201F0EDFE044627
:10092000E6E7DCF8042051485388848801680333E3
:1009300001EB8401002003249BB200909B008CF803
:100940000040494801F0A8FE0446D1E701200346D3
:10095000ACF8023000EB800305EB8303DCF80420E5
:1009600059684FEA800E01F58056002A00F01D827A
:100970005388033302EB8302964217D9136801337D
:1009800014D05388033302EB83039E420ED3948822
:10099000444505D014881CB19468013440F00181AD
:1009A0009E4203D91A4613680133EAD1704405EB1D
:1009B0008005EB68002BABD02C4A2B480523022185
:1009C00091808CF8003011680023012201F094FE20
:1009D00004468DE705AD0023059348F20E64C5E992
:1009E00002332B61A1E5244B00225A604FF40644E8
:1009F00005AD40E6B37D1F4D022B08D90AEB8A02F4
:100A000005EB8202F388118903330B4413814FEA0B
:100A10008A09D144F38805EB8905C3F57F436A89C8
:100A2000FD3313446B8105AD002305934FF4064459
:100A3000C5E902332B6178E502233371CDE9064421
:100A400005ADF36805930DF112012846FFF7D2FCBE
:100A5000002840F04D8148F209640CE62C0100208A
:100A6000105D0000AC01002074000020A4010020F3
:100A70001C5D00006801002048010020B44B1B7879
:100A8000002B00F05581DFF8D0E2BEF80490B9F1F8
:100A9000010F11D8AF4D039409EB890205EB8202D7
:100AA000137883B109F101091FFA89F3012BAEF81C
:100AB000049002F11402F3D9A7480822002104F09F
:100AC000A3FE3E68ECE55368DEF8001003F5805C99
:100AD00003F1080A002900F029814B88033301EB58
:100AE00083018C4506D8039BCEF80030DAE79C459D
:100AF000F9D919460B680133F5D04B88033301EB64
:100B000083039C45EFD38C884445F0D0B1F800B006
:100B1000BBF1000FEBD088680130E8D0F388CEF845
:100B20000010A342D6D1002300938C4A8C480423A2
:100B300001F0B2FD002840F03B8109EB890905EB8B
:100B4000890501232B7456E5BCF80200814DDCF8C1
:100B5000042000EB800305EB83034FEA800E596805
:100B600001F58056002A40F0A98001F10802B24246
:100B7000BFF41CAF136801333FF418AF538803333D
:100B800002EB8303B3423FF611AF9488444500F073
:100B9000C8801488002C00F0C4809468013400F0F0
:100BA000C080CCF80420BEE6BCF80220694D93005A
:100BB000134405EB8305062400236968694A009302
:100BC00067488CF80040082301F066FD04468FE674
:100BD0009CF80A304BB15F4DE86800238CF80A306E
:100BE00018B92B7C002B40F0E8809CF80B3053B1F7
:100BF000584D00238CF80B302B6A23B995F824301C
:100C0000002B7FF4A3AE05AD002305938CF80030D4
:100C1000C5E90233ACF80230CCF804302B6184E42F
:100C200001238CF800309CF80A30D3E7013B062BF7
:100C30003FF6D0AE01A252F823F000BFD10B000066
:100C4000490B000023090000FB080000D509000043
:100C5000A90B0000D30800003E4DBCF808302A7DE7
:100C60000133ACF80830B2FA82F22B785209B3FAA9
:100C700083F38CF80B2000225B09ACF802208CF87F
:100C80000C2001228CF80A308CF80020A2E7BCF876
:100C90000200304D344CDCF8042000EB800305EBFF
:100CA000830356885968A38803333344A3800223FF
:100CB0008CF8003000FA03FE01F5805653880333A8
:100CC00002EB830253E7BCF80220224D264902EBD7
:100CD000820305EB83038888188158680C680860D4
:100CE0000220888000215C60197402FA00F35FE73B
:100CF00006991A4A8B88F3800B8833811848009430
:100D00000423BDF8124001F0C7FC002837D1114B75
:100D100004EB840403EB8404012323740BB0BDE8CB
:100D2000F08FB342BFF442AE1A4623E75146D8E6ED
:100D300005AD21460848082204F066FD0594C5E982
:100D400002442C6148F201643E68FFF7EEBB00BF2D
:100D50004801002068010020B0010020105D000063
:100D600074000020145D0000A401002005AD059072
:100D700048F20964C5E902002861FFF7D6BB3E6866
:100D800048F20D6477E4002303EB830305EB830251
:100D90000D485168002205F82320009208230B4AD1
:100DA00001F07AFC8DE40123EEE701F10802E3E5AE
:100DB0003E6848F20D6405AD5DE40346C8E5324681
:100DC00048F20E64DDE400BF74000020145D0000F2
:100DD0004068FFF781BB00BF1EF0040F1CBFEFF39C
:100DE00009800AE0EFF308800549064A884201D8E5
:100DF000904202D88D464FF00000034B1847000088
:100E00000000012000E00020310E0000BFF34F8FF2
:100E10000549064BCA6802F4E0621343CB60BFF396
:100E20004F8F00BFFDE700BF00ED00E00400FA05B2
:100E300008B5034B9A6ADB6AFFF7E8FF08BD00BFFD
:100E400000ED00E010B483B050E8023F1FFAA3FCAD
:100E5000C488A44502BFBFF32F8F00220EE0C489CF
:100E6000A4448489A44528BFACEB040CC3EA0C4C11
:100E700040E802C4002CE7D14FF001028DF80320B6
:100E80000193019C9DF803200C6032B1006800EBD7
:100E9000144003B05DF8044B704702F0FF0318469E
:100EA00003B05DF8044B70470A884B889A4201D022
:100EB0000020704750E8022FC2EA224240E8022395
:100EC000002BF7D101207047034653E8002FA2EB17
:100ED000010043E8000C9CF0000FF6D1704700BF02
:100EE0002DE9F0478368D3F84831C3F340059B07E9
:100EF00088B046D401293DD8254C264B264F1B1BD4
:100F0000A7FB0327172B4FEA171730D9DFF890A05C
:100F100006464FF06409A8462368A2681879196844
:100F20006368B4F814E0CDF800E0511AD21A00EB6F
:100F30008003C9B203EB8303CDE90602CDE90312B6
:100F400009FB01FC9B00BCFBF2FCB3FBF2F3CDF808
:100F500008C00593CDF80480236952460821304625
:100F6000013500F0ADFBAF4204F11804D4D808B04D
:100F7000BDE8F087094A022108B0BDE8F04700F05B
:100F80009FBB0022114608B0BDE8F04700F066BEE6
:100F9000388A0000388A0000ABAAAAAA245D0000A3
:100FA000385D00002DE9F041054680684C4E82B066
:100FB000002480222146A0308DF8034004F024FC58
:100FC0004849286900F0E6FF286900F0D7FF4FF490
:100FD0007A7846F001066868076801AB0DF10301F5
:100FE0003F690122B847019B611CC3B19DF80320F2
:100FF000AB681B2A05D093F8A0001B28EBD1522A1E
:101000001CD02344CCB2092C83F8A020E3D9AB68D0
:10101000002283F8A020042002B0BDE8F0814FF642
:10102000C010B047019B002BD5D108F1FF371FFA44
:1010300087F8B8F1000FCED10D20EDE72344002052
:1010400083F8A000AF6897F8A1305B2B42D107F17D
:10105000A106022302E0802B90B237D016F8014F90
:1010600000EB8002A4F130013B2C01EB4202D9B22B
:1010700003F10103EFD101310A065FFA81FC25D4A7
:101080000CF1A0063E44002202E09AB223061DD4D1
:1010900016F8011B02EB82030CF1010401EB430380
:1010A000303B5FFA84FC0029EFD1FA2A28BFFA22EC
:1010B0003A75AB68FA288ABFFA2298759A75AB68B8
:1010C000002083F8A00002B0BDE8F0810C2002B03F
:1010D000BDE8F08187F8A0000B2002B0BDE8F081E8
:1010E00010630000F86200002DE9F04F804D0B788E
:1010F000EB5C8BB013F0080302910746069200F0F8
:10110000F4800B46C1F10101C81813F8012FAA5C45
:101110001607F9D48346069AD3B205931346029A6A
:101120009B1A0793D946B846029C204604F0A8FCB7
:10113000D8F8083093F819C0069BA0EB0900ACEB77
:10114000030B584573D9079ACDF8049009F1FF3382
:10115000C4F101062344A6EB090AA2EB090E5A7852
:10116000A95C0AEB030406EB0309090703F1010379
:101170000EEB030002D50A2A54D0A3468445EED8CC
:10118000DDF80490029A09EB0B030493D318039340
:101190005C46D8F8100000F0F1FE2CB34FF0000BC5
:1011A00009ABCA46D8F80400029902680193D768CF
:1011B00051442246B8470999019B29B1641A8B44CE
:1011C00012D009EB0B0AEDE7D8F8082011780329B3
:1011D000E8D0D2F848118906FBD5B2F848116FF370
:1011E0004511A2F84811DDE7039B1B78EB5C18075B
:1011F00063D5049C029B1C4406EB040914F8013FD0
:10120000EB5C1B07F8D4D8F810003A4900F0C2FE96
:10121000059B002B88D03849D8F810001A4600F0FA
:10122000B9FE81E7CDE90339DDF80490B1E749461D
:10123000CB464746002834D0029A09F1FF331344C5
:101240004FF0000903E009F10109484529D013F8DE
:10125000012F0A2A01EB0904F5D1386900F08EFE4E
:10126000B9F1000F15D04FF000080DF1240A5E46C9
:101270007868029902683144D56853464A46A847BF
:101280000999E9B1B9EB0109884402D00BEB0806D2
:10129000EEE7631C174938699B4600F07BFE059B0F
:1012A000EBB902993869594400F074FE1149386964
:1012B0000BB0BDE8F04F00F06DBEDDF81090A2E776
:1012C000B8680378032BD3D0D0F848319D06FBD5FE
:1012D000B0F848316FF34513A0F84831C8E7064924
:1012E00038691A4600F056FEDBE79B4613E700BF5D
:1012F00015890000C45D0000545E00000CB470B598
:1013000084B008AB816853F8045B0193D1F848318D
:101310005B07044601D5CB7E4BB9206901AA29465B
:1013200000F0F8FE04B0BDE8704002B07047022241
:101330001B31684604F0CEF9A3682C4A2C490026DC
:10134000DE76206900F026FE206901AA294600F019
:10135000E1FE9DF80030002B3BD0A268D17E99427F
:1013600011D02448029033218DF80C1003F12F0086
:101370006D218DF80D00ADF80E10D3761C49206953
:1013800002AA00F007FE9DF80130002BCAD0A26827
:10139000117F9942C6D01B205B218DF808008DF883
:1013A0000910342003F12F018DF80A008DF80B107D
:1013B0006D2000218DF80C008DF80D1013770C496D
:1013C000206902AA00F0E6FD04B0BDE8704002B05A
:1013D0007047A168054ACB762069054900F0DAFD1F
:1013E0009DF80130002B9DD0D1E700BFE8620000DE
:1013F0005C5E00001B5B313B0CB430B585B008ABC4
:10140000816853F8045B0193D1F848315B070446C7
:1014100002D5CB7E082B09D1206901AA294600F00C
:1014200079FE05B0BDE8304002B0704702221B31A2
:10143000684604F04FF9A368DA7E082A0AD02E49DC
:101440002E4ACDE902120822DA762D4920696A4433
:1014500000F0A0FD206901AA294600F05BFE9DF87E
:101460000030002B3BD0A268D17E994211D0224897
:10147000029033218DF80C1003F12F006D218DF8AF
:101480000D00ADF80E10D3761D49206902AA00F0B8
:1014900081FD9DF80130002BC3D0A268117F9942D5
:1014A000BFD01B205B218DF808008DF80910342077
:1014B00003F12F018DF80A008DF80B106D2000212B
:1014C0008DF80C008DF80D1013770D49206902AAD4
:1014D00000F060FD05B0BDE8304002B07047A16883
:1014E000084ACB762069064900F054FD9DF801308A
:1014F000002B96D0D1E700BF1B5B313B33376D002B
:101500005C5E0000E86200002DE9F04F814687B084
:10151000524804F0B5FA0546514804F0B1FAD9F83A
:101520000830504A5B6800922D1A4F4A48460821FD
:10153000FFF762FFD9F808305868ADB2002800F014
:101540008A8004F09DFA84B2464804F099FAD9F8EA
:1015500008309968204482B211B14846FFF7C4FDB3
:10156000424A00214846FFF7C9FE3D4804F088FA88
:10157000841C2C4439493E4A0091A4B223460821D8
:101580004846FFF739FFE21C3A4992B24846FFF756
:10159000ABFDD9F80830D3F80C80B8F1000F4FD06C
:1015A00000252E462F460EE0A047029802ACB8B1A7
:1015B00004F066FAB84205D92068002843D004F048
:1015C0005FFA87B2103598F80020D8F8044030460A
:1015D00002A90136002AE7D160592C440028E7D13E
:1015E000012E2DD0244ADFF888B00021484607F1AB
:1015F000020AFFF783FE00251FFA8AFA12E0A047CD
:10160000029E02ACE6B108215A464846534600966F
:10161000FFF7F2FE61687A1D92B24846A9B1FFF762
:1016200063FD013598F80030D8F804402A0102A97A
:101630002846002BE3D1A65804EB0514002EE2D176
:1016400007B0BDE8F08F0746BCE70C49D9F8100099
:1016500000F0A0FCE5E7044676E700BF1863000051
:101660007C640000006300002C600000605E0000ED
:101670006C5E0000745E0000885E0000C45D0000C7
:10168000022910B5044604D18368D3F848319B077A
:101690000BD42069074A084900F07CFC2069074AFE
:1016A0000549BDE8104000F075BCBDE81040FFF7EB
:1016B0002BBF00BFF46200005C5E0000EC62000023
:1016C0000CB470B584B008AB044653F8046B806862
:1016D0000193D0F848315B0703D5C37E8B420D469A
:1016E00009D1206901AA314600F014FD04B0BDE81B
:1016F000704002B0704700F11B010222684603F0FF
:10170000E9FFA368002D65D0DA7EAA4211D0354AE0
:10171000029233228DF80C2005F12F028DF80D2056
:101720006D22ADF80E20DD762F49206902AA00F067
:1017300031FC206901AA314600F0ECFC9DF8003034
:10174000002B3BD0A268D17E994211D0254802904F
:1017500033218DF80C1003F12F006D218DF80D0051
:10176000ADF80E10D3762049206902AA00F012FCD1
:101770009DF80130002BB9D0A268117F9942B5D0F5
:101780001B205B218DF808008DF80910342003F12F
:101790002F018DF80A008DF80B106D2000218DF8B7
:1017A0000C008DF80D1013770F49206902AA00F084
:1017B000F1FB04B0BDE8704002B07047A1680B4A6D
:1017C000CB762069084900F0E5FB9DF80130002B3D
:1017D0008CD0D1E7DD76054A0349206900F0DAFBB9
:1017E000A7E700BF1B5B313B5C5E0000E8620000C6
:1017F00001290AD0022904D18368D3F848319B0714
:1018000003D4034A0221FFF75BBFFFF77DBE00BF91
:10181000F05E0000F0B5012983B0044611D0836862
:10182000D3F84841A40744D4022947D854682A4928
:1018300013682A4ACDE900140221FFF741FF03B0E3
:10184000F0BD8568FFF7AEFB28BBA368244920697B
:101850001F7D9E7DFA2200F09DFB20692149FA221E
:1018600000F098FB2046FFF79DFBA0B9A3681A7D06
:101870006A76A368D21B9B7D2B7612F0FF0225D1DE
:101880009B1B13F0FF02DAD01749206903B0BDE8B3
:10189000F04000F07FBBA36850225A76A368134A39
:1018A000182119762046042103B0BDE8F040FFF767
:1018B00007BF03B0BDE8F040FFF726BE5B680C4AE7
:1018C000022103B0BDE8F040FFF7FABE09492069E4
:1018D00000F060FB2B7ED3E7B05F0000A45F000048
:1018E000545E0000985E0000A85E00004C5F00009F
:1018F000885F0000A05E00008368D3F84821C2F32F
:10190000400C920708D4012908D1B3F848216CF3A0
:101910008202A3F848217047FFF7F6BD5B68024AD0
:101920000221FFF7CDBE00BF885F00008368D3F8B7
:101930004821C2F3400C920708D4012908D1B3F81A
:1019400048216CF3C302A3F848217047FFF7DCBDC0
:101950005B68024A0221FFF7B3BE00BF885F000048
:101960008368D3F84821920708D4012908D1B3F835
:10197000482142F00802A3F848217047FFF7C4BD90
:101980005B68024A0221FFF79BBE00BF885F000030
:101990008368D3F84821920708D4012908D1B3F805
:1019A000482142F00402A3F848217047FFF7ACBD7C
:1019B0005B68024A0221FFF783BE00BF885F000018
:1019C00030B48468D4F848219307C2F3400509D4A1
:1019D00001290AD1C4F83851C3685B6830BC186863
:1019E00001F044B830BCFFF78FBD6368024A30BCD9
:1019F0000221FFF765BE00BF885F00008368D3F84F
:101A0000482192070FD401290FD110B50446094A85
:101A10000949006900F0BEFAA36850225A76A3680B
:101A200018221A7610BDFFF76FBD5B68034A0221CA
:101A3000FFF746BEE06200005C5E0000885F0000C9
:101A400030B58568D5F84841A30783B0C4F3400C8E
:101A500011D4022914D81BD0D5F848211149124BB2
:101A600012F0080F114A18BF0B46614603B0BDE8DB
:101A70003040FFF743BC03B0BDE83040FFF744BD42
:101A80006B680B4A022103B0BDE83040FFF718BE77
:101A90005568084C1368084ACDE90045FFF710FE69
:101AA00003B030BDC85F0000CC5F0000D05F000015
:101AB000885F0000B05F0000A45F0000F0B584689C
:101AC000D4F84821930785B0C2F340071DD40129FB
:101AD00020D1C3685B681C680546204600F0C2FF41
:101AE000A668AB68C2B2642402FB04F4B4FBF6F44B
:101AF000E4B2D3F838310094CDE901263946094AD9
:101B00002846FFF7FBFB05B0F0BD05B0BDE8F0408F
:101B1000FFF7FABC6368044A022105B0BDE8F04053
:101B2000FFF7CEBDE45F0000885F00000129844616
:101B300020D030B58468D4F84851AB0783B00BD4BB
:101B400002290FD155680C4C13680C4ACDE90045A9
:101B5000FFF7B6FD03B030BD604603B0BDE83040CE
:101B6000FFF7D2BC6368064A022103B0BDE83040EB
:101B7000FFF7A6BDFFF7C8BCB05F0000A45F000080
:101B8000885F0000F0B58368D3F84821C2F34004B1
:101B9000920787B029D401292CD1D3F84051FDB147
:101BA000184F064628460023092203A900F0C6FD67
:101BB0009DF81420B168284609230132A03100F0B5
:101BC000BDFDB268049DA0322346009200213A4632
:101BD00030460134FFF792FB0DB1082CE2D1B36817
:101BE000002283F8A02007B0F0BD07B0BDE8F040A8
:101BF000FFF78ABC5B68044A022107B0BDE8F040E9
:101C0000FFF75EBD1C600000885F0000012984466C
:101C10000AD002290B460FD08268D2F848118907F2
:101C200002D4022B03D870476046FFF76DBC53689F
:101C3000074A0221FFF744BD30B5064C55681368CA
:101C4000054A83B0CDE90045FFF73AFD03B030BD4A
:101C5000885F0000B05F0000A45F00002DE9F04F36
:101C600005468BB0AA488846174603F009FF04468C
:101C7000A84803F005FFAB68A74A5B680092201AEA
:101C8000A64A84B208212846FFF7B6FBAB6858681D
:101C9000002800F03A8103F0F3FE86B29E4803F07C
:101CA000EFFEAB689968304482B211B12846FFF765
:101CB0001BFA9B4A00212846FFF720FBA7B3B8F187
:101CC000000F00F03D8107EB47094FF0000B08F1D2
:101CD000040A1FE003F0D4FE58F82B2006461AB180
:101CE000104603F0CDFE0644B4420ED25AF82B0043
:101CF000002800F08F8003F0C3FE84B258F82B0058
:101D000018B103F0BDFE204484B20BF1030BD9459A
:101D100000F082805AF82B000028DBD158F82B20E5
:101D2000002AF2D00646DBE77A4803F0A9FE02302B
:101D30000444774B7B4A0093A4B2234608212846EB
:101D40000334FFF759FB7849A2B22846FFF7CCF9D4
:101D5000AB68D3F80C90B9F1000F51D0002637468C
:101D6000B0460FE0A047069806ACC0B103F088FE6D
:101D7000804506D22068002845D003F081FE1FFA76
:101D800080F8103699F80020D9F80440384606A9A2
:101D90000137002AE6D1A05934440028E6D1012FAA
:101DA0002ED0624ADFF87CB10021284608F1020AF1
:101DB000FFF7A4FA00261FFA8AFA13E0A047069F4D
:101DC00006ACEFB108215A46284653460097FFF764
:101DD00013FB616808F1050292B22846A9B1FFF72A
:101DE00083F9013699F80030D9F80440320106A988
:101DF0003046002BE2D1A75804EB0614002FE1D1A6
:101E00000BB0BDE8F08F8046BBE74949286900F078
:101E1000C1F8E6E7044671E73E4803F031FE0230C0
:101E20002718BFB23A4B3F4A009307F1030B3B46DA
:101E3000082128461FFA8BFBFFF7DEFA3A495A467B
:101E40002846FFF751F9BB1CDBB2023B059308F1B2
:101E500008030024039332E001922E4A00922846A0
:101E6000344A0821FFF7C8FA5AF82400002845D060
:101E700003F006FEC6B258F8240000283CD003F058
:101E8000FFFDC3B22348049303F0FAFD059B9E1B9C
:101E9000049BF61A301A10F0FF0231D12649286946
:101EA0003A2200F077F8039B53F82410D1B15A4638
:101EB0002846FFF719F903344C453FF449AF5AF867
:101EC0002430A3B158F82420002AC5D1009308215A
:101ED0003B46144A2846FFF78FFA039B53F8241019
:101EE0000029E4D11249286900F054F8E3E758F8D2
:101EF0002430002BEAD1D6E70346C3E70646BAE70B
:101F00000E49286900F046F8C8E70646C6E600BF55
:101F1000186300007C640000006300002C60000077
:101F2000605E00006C5E0000745E0000885E000071
:101F3000C45D000028600000B05E0000545E000038
:101F40000A4803F09DFD02300444A4B2084B0093FC
:101F50002846084A23460821FFF74EFAE21C0649A4
:101F600092B22846FFF7C0F8F2E600BF7C6400009A
:101F7000186300006C5E0000745E0000826842B16D
:101F800010B5044643690168006998470023A360BF
:101F900010BD70470EB400B582B0039921B104ABF7
:101FA00001AA019300F0B6F802B05DF804EB03B0AB
:101FB000704700BF2DE9F04F154683B0A942DDF808
:101FC00030900D9A0F4606469A46C0F09E800B460A
:101FD0004FF00108B3FBF5F39D4208F10108F9D970
:101FE000D04538BFD04612F00103019302D1B9F1B8
:101FF000000F67D1B268BAF1010F4FF0010406D9A2
:102000000AF1FF3ABAF1010F05FB04F4F8D8B7FB67
:10201000F4F39D4205D805FB04F4B7FBF4F39D42AD
:10202000F9D9DFF8ECA007E0AC42B4FBF5F31AD322
:10203000B2681C46B7FBF3F31AF803B0BBF10A0F02
:1020400004FB137728D03368511CB16003F802B049
:10205000D6E901329A42E7D33046FFF78FFFB4FB4F
:10206000F5F3AC42E4D2019B9BB1B9F1000F10D063
:102070002024C84509F1FF390BD2B3683268591CD6
:10208000B160D454D6E901329A4214D2B9F1000FAA
:10209000EFD103B0BDE8F08F511C3368B1604FF051
:1020A0000D019954D6E901329A42CCD33046FFF75C
:1020B00065FFB268C7E73046FFF760FFB9F1000F70
:1020C000D7D1E6E793071AD42024B268C84502F1B5
:1020D000010190D23368B1609C54D6E901329A4232
:1020E00009F1FF3903D2B9F1000FEFD183E7304690
:1020F000FFF744FFB268B9F1000FE7D17BE7BAF10F
:10210000000F0CBF30242024DFE74FF0010867E701
:1021100080640000002900F05C822DE9F04FDFF8B8
:1021200070950D7885B0064690460C464FF00D0A26
:102130000FE00A2DB36800F08E803268591CB16040
:10214000D554D6E901329A4280F081802578002D5D
:1021500069D00134002D66D0252DEAD10027234611
:1021600014F8012B2D2A6CD0302A6DD02B2A61D087
:102170002A2A7FD0A2F1300109294FF000050BD89F
:1021800005EB850502EB450513F8012FA2F130019F
:102190000929A5F13005F3D92E2A1C4675D0002354
:1021A00001E014F8012F02F0FB016829F9D0252A7B
:1021B00000F08681583AD1B2202930D8202A2ED872
:1021C000DFE812F021002D002D002D002D002D0044
:1021D0002D002D002D002D002D00FE0079002D007A
:1021E0002D002D002D0079002D002D002D002D003B
:1021F0002D002D00BD002D002D001A012D0016010F
:102200002D002D002100D8F800101022081DC8F85C
:10221000000009683046CDE90057FFF7CBFE0134D6
:102220002578002D95D1337B002B40F0438105B0FC
:10223000BDE8F08F234614F8012B2D2A47F0040740
:1022400092D147F001078AE747F0020787E7304657
:10225000FFF794FE7AE73268591CB16002F803A0D8
:10226000D6E901239342FFF468AF3046FFF786FEBC
:10227000B36862E7D8F80020111DC8F8001015688F
:102280005A782E2A03F1010489D16278A2F1300331
:10229000092B04F101044FF0000384D803EB8303FE
:1022A00002EB430314F8012FA2F130010929A3F135
:1022B0003003F3D977E7D8F80020111DC8F80010D3
:1022C000D2F800B08BEAEB72A2EBEB72092A40F372
:1022D000DB81DFF8C0C3012011466329ACFB02E2B9
:1022E00000F101004FEAD202F6DC9842024638BF04
:1022F0001A460292002D00F01E81BBF1000FC0F2C1
:102300002E817A0700F12B81B80740F12A81002B3A
:1023100040F02781BBF1000FC0F27D817A0700F108
:102320008D8107F00302022A00F05D81CDE900579C
:1023300059460A223046FFF73DFE013470E7D8F8CF
:1023400000301A1DC8F800201F68B3683268581C96
:102350003021B060D154D6E90123934280F0FA8055
:10236000591C3268B1607821D154D6E901329A42C1
:1023700080F0EB800F2F03D93B461B090F2BFCD8B5
:102380004FF0805506E00F2D4FEA15137FF647AF4B
:10239000B2681D46B7FBF5F319F803B0BBF10A0F9D
:1023A00005FB137777D03368511CB16003F802B096
:1023B000D6E901329A42E6D33046FFF7DFFDE2E785
:1023C000D8F800301A1DC8F800201D78B3680A2D0F
:1023D00000F03A813268591CB160D554D6E9013217
:1023E0009A42FFF41CAF3046FFF7C8FD013417E7EF
:1023F000D8F800100A2209E7D8F800301A1DC8F8EA
:10240000002017F00107D3F800B064D1BBF1000F32
:1024100003D0584603F034FB0746BD4215D92022AD
:1024200001E0BD4211D0B1683368481CB0605A5415
:10243000D6E90130984205F1FF35F2D33046FFF777
:102440009DFDBD424FF02002EDD19BF80050002DC4
:102450003FF4E5AE0A2DB0680FD03368421CB2607D
:102460001D54D6E90130984280F0B4801BF8015F1A
:10247000002D3FF4D4AE0A2DEFD13368421CB26078
:1024800003F800A0D6E901309842E6D33046FFF7C2
:1024900075FDB068E1E73368511CB16003F802A034
:1024A000D6E901329A42FFF47EAF3046FFF766FD6F
:1024B000B26878E7304605B0BDE8F04FFFF75EBD83
:1024C000B3683168581CB060CA54D6E901329A42E8
:1024D00089D20134A4E69BF80030002B00F0D680AE
:1024E000B0685F46CBF101020A2B02EB070B5ED00E
:1024F000411CB16031680B54D6E90130984248D292
:1025000017F8013F002BEFD15D457FF688AE2027FD
:1025100002E05D453FF483AEB2683368511CB160A0
:102520009F54D6E901329A4205F1FF35F1D3304686
:10253000FFF724FDEDE7B80705D5002B3FF4EAAE21
:10254000F9073FF5E7AE0025E4E63046FFF716FD54
:10255000B2680FE73046FFF711FDB36800E7013DB1
:10256000D2E6F9073FF5D6AE002DECD02022029935
:10257000A942BFF4CFAEB168481CB0603068425485
:10258000D6E90101814205F1FF356CD2002DEED173
:10259000D9E730460292FFF7F1FC17F8013F002B14
:1025A000B2D0029AB0680A2B02EB070BA0D1411CF3
:1025B000B160316801F800A0D6E90110884297D3D4
:1025C0003046CDE90232FFF7D9FCDDE90232B068CE
:1025D0008EE770473046FFF7D1FC1BF8015F002DF6
:1025E0007FF438AF1BE6002B7FF4A0AE8DB1302214
:1025F00002998D427FF69AAEB168481CB06030688F
:102600004254D6E90101814205F1FF3535D2002D52
:10261000EED100258AE6B1683268481CB060CBF183
:10262000000B2D205054D6E901219142FFF479AEE0
:1026300030460393FFF7A2FC039B72E6B168326851
:10264000481CB0602B20EDE73268591CB16002F8DD
:1026500003A0D6E901239342FFF4BCAE3046FFF756
:102660008DFCB368B6E630460393FFF787FC039B07
:102670002022002D7FF47BAF65E730460393FFF700
:102680007DFC039B3022C2E701202EE69B463BE700
:1026900080640000CDCCCCCC38B32DE9F04132B30E
:1026A000066836B31D46EBB14768D7F80480B3FB24
:1026B000F8F708FB1737AFB942EA0104A4078E46C2
:1026C0000DD1C468A1420AD3046901F1FF3E7544EB
:1026D000A54204D8F468A446BDE8F0416047102044
:1026E000BDE8F0810920BDE8F0810E2070470E2082
:1026F000F6E70820F4E700BFD8B1F0B50668D6B118
:10270000AAB1446827687C1E0C428E460DD1C4686D
:10271000A1420AD34C1E07FB024E0469A64504D809
:102720003469A446BDE8F04060471020F0BD0920A0
:10273000F0BD0E2070470820F0BD00BF2DE9F84322
:102740000446C788407907FB00F0043802EB030C0D
:102750001E1D6045154638BFC51AB7428846B6FBF0
:10276000F7F107FB116202D801392468FCD1BE1AC7
:10277000AE4228BF2E469DB14FF00009111DAD1B82
:102780003246214408EB090002F0A4FFAF42B144F5
:1027900024683E464FF0000228BF2E46002DEDD1A2
:1027A000BDE8F8832DE9F04F8368D3F84831C3F3CF
:1027B00040059B078DB066D401295DD8354C364B5A
:1027C000364A1B1BA2FB03121209172B0B9250D97E
:1027D000DFF8D8B08146AA462BE0961B0020FDF713
:1027E000F5FD94F810E06369642505FB06FC5A4684
:1027F00005FB08F50821B5FBF7F548460A95BCFB33
:10280000F7FCBEF1000F27D1254D0795CDE901C694
:102810000A9D0495099DCDF81480009506970397AD
:10282000FEF74EFF0B9B0AF1010A534504F1180411
:102830001FD9D4E90272236809920020D3F80880D6
:10284000FDF7BCFD23681E685A689642C5D9A36887
:10285000013313449E1BC1E7099A0092114A039762
:10286000CDE90672CDE90458CDE901C65A460821E2
:10287000D6E70DB0BDE8F08F0B4A02210DB0BDE8E0
:10288000F04FFEF71DBF002211460DB0BDE8F04F1E
:10289000FFF7E4B9208A0000388A0000ABAAAAAA90
:1028A0000C65000018650000245D000090640000C5
:1028B0000368826818685B68934234BF0133002361
:1028C000C01AB0FA80F04009704700BF70B50446E6
:1028D00000200D46FDF772FD2368A16818685A684C
:1028E0008A4234BF01320022904212D058685A689E
:1028F00091420BD800225A60E268531E072B19D868
:10290000DFE803F0433E18391818183101325A60D5
:10291000F2E7227C002A3FD158685E68B14238D87D
:102920005A602268A16813688B4234BF01330023C8
:102930001360E1E76368294600FB023002F0CAFE3B
:102940002268136851688B4282BFA0680130091861
:10295000CB1A9168994238BF936000240020FDF79C
:1029600035FD204670BD636895ED007B03EBC0002C
:1029700080ED007BE4E763682A6843F82020DFE706
:1029800063682A8823F81020DAE763682A781A54E3
:10299000D6E701365E60C4E704240020FDF716FD8B
:1029A000204670BD2DE9F041144612B92046BDE81D
:1029B000F081054600200E46FDF700FD2A681368E9
:1029C0005068834209D8C31A9C420CD905240020C0
:1029D000FDF7FCFC2046BDE8F081A9680131014407
:1029E000CB1A9C42F2D81768136852686968934200
:1029F00084BFAA680132D31AEA689C4202FB07111D
:102A00000DD804FB02F2304602F064FEAA682B687F
:102A10003C44944288BF00241C600024D7E703FB99
:102A200002F842463046E71A02F054FEEA68696846
:102A300006EB080007FB02F202F04CFE2B680024B4
:102A40001F60C4E710B504460020FDF7B7FC2068FE
:102A50000C22002102F0D8FEBDE810400020FDF756
:102A6000B5BC00BF03689868704700BF03680022C8
:102A70009A6070472DE9F04F4A4EDFF860B1DFF8F9
:102A80004C81494F85B0814600250020FDF796FC1A
:102A9000D8F80000002859D00020D8F804A0FDF78D
:102AA00095FC424B06F58061BAF1000F08BF9A46CB
:102AB0008E42334666D24FF4806403E08B42A4F129
:102AC000040403D253F8042BBA42F7D05A46082123
:102AD00048462B46FEF7F4FD354A53460821484642
:102AE000FEF7EEFD002C34D106F2FF33314A00939D
:102AF000082133464846FEF7E3FD2F4B1A78EBB228
:102B00009A423DD02D4B1A684FF00043EB401342E0
:102B10002B4A2C4B08BF13462B4A08214846FEF788
:102B2000CFFD2A4A05EB450302EB830308219B688E
:102B3000274A4846FEF7C4FD0135032D08F10C086D
:102B400006F5A066A1D105B0BDE8F08FFDF73EFC0B
:102B5000F2E7642304FB03F39B0ACDE901344FF44D
:102B60008063039306F2FF331A4A00930821334629
:102B70004846FEF7A5FD104B1A78EBB29A42C1D138
:102B8000154BC9E75A46082148462B46FEF798FDE3
:102B90005346074A08214846FEF792FD4FF48064E9
:102BA0006423DAE7000300200ED0ADDEA865000044
:102BB000BC65000008660000B8010020BC010020D0
:102BC0009C65000090650000206600000011002058
:102BD00030660000CC65000088650000B06500002C
:102BE00000B583B003460DF1070108488DF80730A2
:102BF000FFF76CFE0548FFF75BFE10B903B05DF808
:102C000004FB00F0E9FD03B05DF804FB208A00003E
:102C100038B50E4D2A78AAB90D4A0E490346002B45
:102C200008BF134628461B8820F8013F00F092FD9C
:102C3000044608B1204638BD00F0BCFD01232B70CE
:102C4000204638BD8524204638BD00BF74110020C1
:102C5000C8660000E12B000008B500F0BDFD00F0E3
:102C6000C3FD0348FFF7EEFE024B00221A7008BDB9
:102C7000208A000074110020C1B12DE9F0410C4FF1
:102C8000064688464546402D28BF40252A463146FF
:102C90003846FFF787FE044600F08CFD002CF5D186
:102CA000B8EB05082E44EDD1BDE8F081704700BFB8
:102CB000208A000010B54FF0804382B0D3F8002185
:102CC00062B10021164AC3F80011D3F800115079FF
:102CD00000910121009CC3F80813A8B14FF0804374
:102CE000D3F80421CAB10022C3F80421D3F8042187
:102CF000019202210A4A0198C3F8081313680120BF
:102D000002B0BDE8104018471368517198474FF062
:102D10008043D3F80421002AE5D102B010BD00BFE2
:102D200078110020F0B585B01D4A00230193D2F838
:102D30000011012900F0E5811E46194BD3F804214A
:102D4000012A00F0CF81164BD3F80821012A00F0A8
:102D5000B881134BD3F80C21012A00F0A381104B4A
:102D6000D3F81021012A00F08E810D4BD3F81421E5
:102D7000012A00F079810A4BD3F81821012A00F0CA
:102D80006481074BD3F81C21012A0BD0044BD3F8E4
:102D90007C21012A00F0C28126BB05B0F0BD00BF36
:102DA00000600040D3F804231206EFD50022C3F8D8
:102DB0001C21D3F81C110291D3F87C11029801292F
:102DC00046F080060ED1C3F87C21D3F87C21039213
:102DD0004FF0A043039AD3F820250192C3F8202591
:102DE00046F00046BE4F01250024A30003F18043B6
:102DF0002E4203F5C0434FEA45050BD0D3F810052A
:102E000057F82420D3F81015C0F30420C1F3014172
:102E100002B190470134082CE7D1002EBDDAB04C46
:102E200001254FF0A04694F95000471C3DD0C0F357
:102E3000C20310336B44C1B213F80C2C00F007032B
:102E400005FA03F31A4200F03F002ED0830003F18D
:102E5000A04305FA00F7D3F80027D3F800C72CF4F5
:102E6000403CC3F800C7C2F30142D3F800C7022AAE
:102E70000CBF4FF4403E4FF4003E4CEA0E0CC3F83A
:102E800000C72318C6F8207593F9303054F8233062
:102E90005BB18909032900F06581022A00F05F8196
:102EA000032A02D1022900F05D8194F95100411CEE
:102EB0003DD0C0F3C20310336B44C1B213F80C2CE5
:102EC00000F0070305FA03F31A4200F03F002ED08A
:102ED000830003F1A04305FA00F7D3F80027D3F8E5
:102EE00000C72CF4403CC3F800C7C2F30142D3F83A
:102EF00000E7022A0CBF4FF4403C4FF4003C4CEA80
:102F00000E0CC3F800C72318C6F8207593F93030AB
:102F100054F823305BB18909032900F01981022A92
:102F200000F01381032A02D1022900F0118194F9E3
:102F30005200421C3DD0C0F3C20310336B44C1B2F7
:102F400013F80C2C00F0070305FA03F31A4200F003
:102F50003F002ED0830003F1A04305FA00F7D3F819
:102F60000027D3F800C72CF4403CC3F800C7C2F3D5
:102F70000142D3F800E7022A0CBF4FF4403C4FF463
:102F8000003C4CEA0E0CC3F800C72318C6F82075A5
:102F900093F9303054F823305BB18909032900F0EC
:102FA000D280022A00F0CC80032A02D1022900F04C
:102FB000CA8094F95300431C3DD0C0F3C2031033C0
:102FC0006B44C1B213F80C2C00F0070305FA03F3AD
:102FD0001A4200F03F002ED0830003F1A04305FA0F
:102FE00000F7D3F80027D3F800C72CF4403CC3F80F
:102FF00000C7C2F30142D3F800E7022A0CBF4FF426
:10300000403C4FF4003C4CEA0E0CC3F800C72318B8
:10301000C6F8207593F9303054F823305BB1890934
:10302000032900F09A80022A00F09480032A02D13A
:10303000022900F09280D6F820350193C6F8203599
:10304000002B7FF4F0AE05B0F0BDD3F80423510699
:103050007FF597AE0022C3F81821D3F818310293F8
:10306000029B46F040068CE6D3F8042390067FF5D9
:1030700082AE0022C3F81421D3F814310293029BCC
:1030800046F0200677E6D3F80423D4067FF56DAE2C
:103090000022C3F81021D3F810310293029B46F0AE
:1030A000100662E6D3F8042315077FF558AE002218
:1030B000C3F80C21D3F80C310293029B46F00806AA
:1030C0004DE6D3F8042357077FF543AE0022C3F83B
:1030D0000821D3F808310293029B46F0040638E633
:1030E00080110020D3F8042392077FF52CAE002234
:1030F000C3F80421D3F804310293029B46F0020680
:1031000021E6D2F8046316F001063FF416AEC2F8C9
:103110000031D2F800310293029B0EE60022C3F880
:103120007C21D3F87C2103924FF0A043039AD3F87B
:1031300020250192C3F82025002E3FF470AE4FE603
:1031400001297FF436AF984733E701297FF4EFAECA
:103150009847ECE601297FF46EAF98476BE70129A9
:103160007FF4A3AE9847A0E670B5424B424CD3F82B
:10317000142184B092B10022C3F814216279D3F8EB
:103180001411009142F0080303F0120112291A46AB
:103190000098637104BF43F020026271354BD3F88D
:1031A000042192B10022C3F804216279D3F80411FA
:1031B000019142F0040303F0110111291A4601980C
:1031C000637104BF43F0200262712A4BD3F80821D7
:1031D000BAB10025C3F80851D3F80821029204229D
:1031E0000299C3F80823C3F80055244823682946E8
:1031F000984723682248294698470123237104B041
:1032000070BD637903F00F020F2A03D0D80715D4DD
:10321000190713D5627922F00C0212F0200613462A
:10322000627111D022F03003226843F010030121B3
:103230000020637104B0BDE87040104762799207C6
:10324000DDD45B07DBD5E5E70C4A92E8030002AD6D
:1032500085E8030012E9030043F0100382E803004D
:103260006371C4E90266236801212846984704B0C7
:1032700070BD00BF00500240DC110020EC110020A6
:10328000E411002010B5404BD3F8002186B04AB3BA
:103290003E4C0022C3F80021A27CD3F8000101902B
:1032A000D34303F0010304EB83010198496800292B
:1032B00054D0607C002102288DF81410E1745ED097
:1032C00004EB8202A37450685160012204902368C9
:1032D0008DF80C2003A89847637C022B06D10123AC
:1032E000637403E0D3F8041179B9284C237D53B1FA
:1032F0000023012122688DF80C1004938DF81430FE
:1033000003A82375904706B010BDC3F80421D3F875
:1033100004111E4C02910299C3F80025A37C62742B
:1033200004EB83018DF8142048688DF80C2028B137
:103330002368049003A84A609847A37CDB4303F00A
:10334000010304EB83035A682AB100205860216806
:10335000049203A888470023A374C7E7617C02296D
:10336000A7D0E37C002BB7D1012221688DF80C3067
:1033700004938DF8142003A8E2748847ACE7012376
:1033800063740846A1E700BF00D00140F41100209B
:1033900010B54FF0804384B0D3F80443610702D5E1
:1033A000D3F8082142BBA20604D54FF08043D3F8DE
:1033B0001421B2B963060FD54FF08043D3F818211A
:1033C00052B10022C3F81821114AD3F818310193E1
:1033D00001201368019A984704B0BDE81040FFF738
:1033E00069BC0020C3F81401094AD3F814310293D0
:1033F0001368029A9847DDE70022C3F80821054ABE
:10340000D3F8083103931368039A9847CBE700BFBA
:10341000101200200C120020014B1B68184700BF3F
:1034200014120020014B1B68184700BF1C1200201B
:10343000014B1B68184700BF24120020014B1B687A
:10344000184700BF2C120020014B1B68184700BF13
:103450003412002000B52C4BD3F8102185B052B1A6
:1034600000212A4AC3F81011D3F81011537903919F
:103470000399590741D4244BD3F8142152B10021A8
:10348000224AC3F81411D3F81411537902911B077F
:1034900002992CD41C4BD3F81C215AB11B4A002191
:1034A000C3F81C115079D3F81C31019310F01000AF
:1034B000019B17D0144BD3F8042182B1134A002189
:1034C000C3F80411D3F80411136800910121009886
:1034D000117123B1032005B05DF804EB184705B066
:1034E0005DF804FB1368002BE4D09847E2E713680B
:1034F000002BCFD002209847CCE71368002BBAD01E
:1035000001209847B7E700BF00C001403C120020EF
:1035100000B52C4BD3F8102185B052B100212A4AB6
:10352000C3F81011D3F81011537B03910399590775
:1035300041D4244BD3F8142152B10021224AC3F8BC
:103540001411D3F81411537B02911B0702992CD448
:103550001C4BD3F81C215AB11B4A0021C3F81C1183
:10356000507BD3F81C31019310F01000019B17D051
:10357000144BD3F8042182B1134A0021C3F804117B
:10358000D3F804119368009101210098117323B1BD
:10359000032005B05DF804EB184705B05DF804FBA7
:1035A0009368002BE4D09847E2E79368002BCFD0D4
:1035B00002209847CCE79368002BBAD001209847A7
:1035C000B7E700BF001002403C12002000B52C4BB2
:1035D000D3F8102185B052B100212A4AC3F8101146
:1035E000D3F81011537D03910399590741D4244B0B
:1035F000D3F8142152B10021224AC3F81411D3F890
:103600001411537D02911B0702992CD41C4BD3F843
:103610001C215AB11B4A0021C3F81C11507DD3F85C
:103620001C31019310F01000019B17D0144BD3F8FC
:10363000042182B1134A0021C3F80411D3F8041104
:103640001369009101210098117523B1032005B081
:103650005DF804EB184705B05DF804FB1369002B17
:10366000E4D09847E2E71369002BCFD002209847B7
:10367000CCE71369002BBAD001209847B7E700BF09
:10368000002002403C12002000B5304BD3F800214E
:1036900087B01AB1D3F80423D00740D42B4BD3F80A
:1036A00004211AB1D3F8042391071ED4274BD3F871
:1036B0000821BAB1D3F80423520713D50022C3F866
:1036C0000821D3F8081103914FF48472ADF810204B
:1036D0001F4B06AA12E903001B68039A07B05DF8A6
:1036E00004EB184707B05DF804FB0022C3F804217F
:1036F000D3F8041102914FF48272ADF81020029AAF
:10370000D3F81825ADF81220D3F84825104BADF8A2
:10371000142006AA12E903001B689847C6E7002296
:10372000C3F80021D3F8001101914FF48072ADF875
:103730001020019A064AD3F80C358DF8123006ABEA
:1037400013E9030013689847A8E700BF0020014071
:1037500054120020134A137813BB10B40378124C90
:10376000DB07216006D51149D1F8043543F0010388
:10377000C1F804350D4C0E49D4F8003223F0010392
:10378000C4F8003243785B01DBB281F80D334FF4AB
:1037900000530B600123137000205DF8044B704749
:1037A000852070475C1200205812002000D0004095
:1037B00000E100E0074B0022C3F8002182B0D3F8FB
:1037C0000021019201990122C3F804231A6002B07A
:1037D000704700BF00D00040024B0122C3F808230D
:1037E0005A60704700D00040084B094901224FF44D
:1037F0000050C3F808235A60C1F88000BFF34F8F10
:10380000BFF36F8F034B00221A70704700D0004047
:1038100000E100E05C120020074B0022C3F8002109
:1038200082B0D3F800210192019A044AD3F8080526
:103830001368C0B202B0184700D0004058120020F0
:103840002DE9F041274E284FDFF8A08084B00024F6
:103850004FF48035D6F804332B4211D057F824307A
:103860000022E0B263B1C6F84853C6F8085347F8DF
:10387000242057F824200392D8F80030039A984760
:103880000134032C4FEA4505E4D1164BD3F8042349
:10389000D10702D5D3F80021C2B9124BD3F80423C3
:1038A000920710D5D3F804216AB10022C3F804218D
:1038B000D3F804210D4B0192019A1B68052004B036
:1038C000BDE8F041184704B0BDE8F0810022C3F81C
:1038D0000021064AD3F80031029304201368029AAB
:1038E0009847DAE700B0004040B100406012002085
:1038F0002DE9F041274E284FDFF8A08084B0002446
:103900004FF48035D6F804332B4211D057F82430C9
:103910000022E0B263B1C6F84853C6F8085347F82E
:10392000242057F824200392D8F80430039A9847AB
:103930000134042C4FEA4505E4D1164BD3F8042397
:10394000D10702D5D3F80021C2B9124BD3F8042312
:10395000920710D5D3F804216AB10022C3F80421DC
:10396000D3F804210D4B0192019A5B68052004B045
:10397000BDE8F041184704B0BDE8F0810022C3F86B
:103980000021064AD3F80031029320465368029A78
:103990009847DAE7004002404041024060120020B0
:1039A0002DE9F041674B684FD3F8042188B012B37A
:1039B0000021C3F80411D3F8040197F82E200090D9
:1039C0000098002A3BD17868F968069038898DF80C
:1039D0001420ADF81C00002900F0A180388B79601C
:1039E000012178833881FA6019603B6805A89847FF
:1039F000002387F82F3097F82E3023BB514BD3F894
:103A000010216AB10022C3F81021D3F810310393BA
:103A100002218DF814103B6803993A7405A8984761
:103A2000484BD3F8144164B30022C3F81421D3F8EF
:103A300014310593059B3A7408B0BDE8F08197F8FE
:103A40002F30002B4ED13F4BD3F80021002AD5D088
:103A50000020C3F8000197F82D107A8BD3F80041AD
:103A600001948A42019C8CB24BD85BD0354B00222A
:103A7000C3F80421D3F804210292012202995A606A
:103A8000BCE77E69002ED7D04FF000480125B6FA7A
:103A900086F101F146039B0003F1804202F5E0420A
:103AA000A3F58C73D2F800E083F0040028FA01F14A
:103AB000C0F3800CDB0805A826EA0106BEF1000F62
:103AC0000BD01460126804928DF818303A688DF8A3
:103AD00014508DF819C0049B9047002ED7D108B020
:103AE000BDE8F081FB6878683A898DF8141006907B
:103AF000ADF81C209BB13A8B7A837B603A81F960E8
:103B000073E73889121B92B280B27A83801A7A687E
:103B100002EB4002C3F82C26C3F83016A6E70023B8
:103B20003B7462E7FA6842B17883012087F82F007E
:103B3000C3F82C26C3F8301698E7012387F82F30F6
:103B40007A8393E70070004068120020034B044A18
:103B50001988126800201880104700BF98120020B2
:103B6000A4120020034B044A598852680020588050
:103B70000120104798120020A4120020034B044A91
:103B8000998892680020988002201047981200209F
:103B9000A4120020034B044AD988D2680020D880A0
:103BA0000320104798120020A4120020034B044A5F
:103BB00019891269002018810420104798120020EA
:103BC000A4120020034B044A5989526900205881ED
:103BD0000520104798120020A41200202DE9F04182
:103BE000114D124FDFF8488082B000244FF4803628
:103BF0002B6806FA04F201347BB1D7F80433A5F53B
:103C000000401A424FF0000180B206D029602B68B4
:103C10000193D8E90031019A9847042C05F1040575
:103C2000E6D102B0BDE8F081408100400080004054
:103C3000BC1200202DE9F041114D124FDFF84880F1
:103C400082B000244FF480362B6806FA04F2013467
:103C50007BB1D7F8043305F5E0401A424FF000017C
:103C600080B206D029602B680193D8E90331019A0C
:103C70009847042C05F10405E6D102B0BDE8F081B7
:103C80004091004000900040BC1200202DE9F0411E
:103C9000114D124FDFF8488082B000244FF4803677
:103CA0002B6806FA04F201347BB1D7F8043305F52A
:103CB000C0401A424FF0000180B206D029602B6844
:103CC0000193D8E90631019A9847042C05F10405BF
:103CD000E6D102B0BDE8F08140A1004000A0004064
:103CE000BC1200202DE9F041114D124FDFF8488041
:103CF00082B000244FF480362B6806FA04F20134B7
:103D00007BB1D7F8043305F5C0401A424FF00001EB
:103D100080B206D029602B680193D8E90931019A55
:103D20009847062C05F10405E6D102B0BDE8F08104
:103D300040A1014000A00140BC1200202DE9F0414B
:103D4000114D124FDFF8488082B000244FF48036C6
:103D50002B6806FA04F201347BB1D7F8043305F579
:103D6000A0401A424FF0000180B206D029602B68B3
:103D70000193D8E90C31019A9847062C05F1040506
:103D8000E6D102B0BDE8F08140B1014000B0014091
:103D9000BC12002010B5084CD4F8003182B04BB1F1
:103DA000064B1B6898470023C4F80031D4F8003153
:103DB0000193019B02B010BD00000140F8120020E9
:103DC000064B1A78022A06D01878A0F10100B0FA42
:103DD00080F0400970470120704700BFFC120020AE
:103DE0006A46164B9A4212D370B504460D46FFF749
:103DF000E7FFF8B1124E336823B1124A124B126832
:103E00009A4215D004B92DB148F2175070BD48F24E
:103E1000195070470D480E493060FCF799FA002898
:103E2000F4D108493368084C0A4A0C601A6070BD26
:103E3000002070BD4FF4054070BD00BF00E00020C1
:103E40004C140020441400206572E54B0013002040
:103E5000481400206169614D094B0A4A1968914272
:103E600005D10949094A08680168914202D048F21F
:103E700002507047002202601A60FCF797BA00BF38
:103E8000441400206572E54B4C1400206169614DBB
:103E9000FEE700BF4FF48C72002101F0B5BC00BFFB
:103EA00018B14FF48C7101F0BBB97047C02A07D02C
:103EB000B2F5807F30D0802A2BD06FF01F00704782
:103EC0000C23036084462DE9F04F00F108044CF800
:103ED000044F4FEA521E00228B784F780E78CD782F
:103EE0001B0443EA07233343013243EA0563724567
:103EF0004CF8043F01F10401EED303680C2B0ED003
:103F00000E2B00F04D810A2B00F0A2810020BDE8AD
:103F1000F08F0A230360D5E70E230360D2E7C2695E
:103F2000C94B8768C168D0F810E044698669C2F35C
:103F3000072587F001075D5D7D40170EDF5D85EA8F
:103F40000745D7B2DF5D85EA0765C2F30747DF5D46
:103F500085EA072779408EEA010584EA050CC0E965
:103F60000A5C86EA0C056A40C0E90C52C2F30725D8
:103F700007625D5D416287F002077D40170EDF5DDD
:103F800085EA0745D7B2DF5D85EA0765C2F30747D3
:103F9000DF5D85EA07258EEA050486EA040882EAE1
:103FA000080ECEF307276940DF5D856385F00405C1
:103FB0007D404FEA1E67C0F84CE0DF5DC0F84880E6
:103FC00085EA07455FFA8EF7CEF3074EDF5D85EA97
:103FD000076513F80E7085EA0725C0E90F146940DC
:103FE0008CEA0107C0E9145185F0080E8CEA04053B
:103FF00082EA070C456488EA0705CCF3072884EABF
:104000000109C0F85890056613F80850C0F864C05C
:1040100085EA0E054FEA1C6EC76513F80EE085EAC7
:104020000E455FFA8CFE13F80EE085EA0E65CCF3C0
:10403000074E13F80EE085EA0E256E408CEA060C5A
:1040400084EA050ECCF3072469401C5D856685F083
:10405000100565404FEA1C64C0E91E6C1C5D85EAD2
:1040600004445FFA8CF5CCF3074C5D5D84EA05648B
:1040700013F80C5084EA0524C0E91B1E61404A4035
:10408000C2F30725C0F880405D5DC0F8841084F05D
:1040900020046C40150E87EA01085D5DC0F894208D
:1040A00084EA0544D5B287EA0E075D5D476784EA76
:1040B0000564C2F307458EEA01075D5DC0F88870AC
:1040C00084EA05248EEA040586EA050C82EA0C09D6
:1040D00086EA080EC0F89840614084F04007C9F3B2
:1040E0000724C0F890E088EA050EC0F8A050C0F898
:1040F000A8C0C0F88C80C0F89C10C0F8A4E0C0F83C
:10410000AC901C5D7C404FEA1967DF5D84EA074490
:104110005FFA89F7C9F30749DF5D84EA076413F89A
:10412000097084EA0724614088EA01077A408CEA32
:10413000070CC0F8C0C0C0F8B04084F0800CC2F3D7
:104140000724C0F8C4201C5DC0F8BC7084EA0C04CD
:104150004FEA126CC0F8B41013F80CC084EA0C4497
:104160005FFA82FC13F80CC084EA0C64C2F3074CBB
:1041700013F80C3084EA03235E407240C0E93662D3
:1041800083EA05025740C0E934274D405940C0F842
:10419000C830C0F8B850C0F8CC100020BDE8F08F8F
:1041A000DFF8A880D0F818A0C668416A264BD0E98D
:1041B00007CED0E90475806808F11C09C1F3072215
:1041C00058F804BF9A5C80EA0B0050400A0EC145C3
:1041D0009A5C80EA0240CAB29A5C80EA0262C1F349
:1041E0000740185C82EA002086EA000687EA060794
:1041F00085EA0705EAB2C4E908069A5C82EA0A027F
:104200004FEA156AC4E90A7513F80AA082EA0A623D
:10421000C5F3072A13F80AA082EA0A22C5F3074A5F
:1042200013F80AA082EA0A4A8CEA0A0C8EEA0C0EFB
:1042300081EA0E01C4E90CACC4E90EE104F12004EA
:10424000BCD10020BDE8F08FCC660000C87700002C
:10425000436990498268C3F307241D0E0C5D4D5DD0
:10426000DEB282F001028E5D544084EA054484EAA5
:104270000664C3F30746C2688E5D056984EA0626B4
:10428000724082EA05046340C0E90843C3F307248F
:1042900086610C5DC26186F0020674401E0E8E5D62
:1042A00084EA0644DEB28E5D84EA0664C3F3074600
:1042B0008E5D84EA0624654085EA0307C7F3072676
:1042C00062408E5D846284F0040474403E0E476355
:1042D0008E5D84EA0644FEB2C7F307478E5D84EA2A
:1042E0000664CE5D84EA0626C0E90B257240534081
:1042F000C3F3072486630C5DC26386F0080674402E
:104300001E0E43648E5D84EA0644DEB28E5D84EA4E
:104310000664C3F307468E5D84EA062484EA050634
:1043200086EA030755400564C7F3072584644D5D9D
:104330004765624084F010046C403D0EC0E91326CE
:104340004D5D84EA0544FDB2C7F307474D5D84EA3D
:104350000564CD5D84EA05256A405340C3F3072414
:1043600085650C5DC26585F020056C401D0E4366B9
:104370004D5D84EA0544DDB24D5D84EA0564C3F316
:1043800007454D5D84EA052486EA040583EA0507AE
:1043900056400666C7F3072684668E5D476762400F
:1043A00084F0400474403E0EC0E91B258E5D84EA13
:1043B0000644FEB2C7F307478E5D84EA0664CE5D0D
:1043C00084EA062672405340C3F3072486670C5DD7
:1043D000C26786F0800674401E0EC0F884308E5D81
:1043E00084EA0644DEB28E5D84EA0664C3F30746BF
:1043F0008E5D84EA062485EA040683EA06075540B2
:10440000C0F88050C7F307256240C0F88840C0F864
:104410008C204D5DC0F8947084F01B046C403D0E00
:10442000C0F890604D5D84EA0544FDB2C7F30747CC
:104430004D5D84EA0564CD5D84EA05256A405340FC
:10444000C3F30724C0F898500C5DC0F8A43085F081
:1044500036056C401D0EC0F89C204D5D84EA054475
:10446000DDB24D5D84EA0564C3F30745495D84EA26
:10447000012181EA0604C0F8A8105140C0E92B14BC
:1044800056406340C0F8A060C0F8B4300020BDE8DA
:10449000F08F00BFCC6600002DE9F04F4468006843
:1044A0000B684D688FB04010461E0693CDE9042678
:1044B000226888685340CDE90635CA68616869405A
:1044C000CDE90710A5686840CDE90802E568002E2F
:1044D00082EA050204F11005CDE90265099240F374
:1044E000D981DFF8A4A3DFF8A4B3E44EE44D01932F
:1044F00004F1300C5746DE46DDF804905CF8203CB1
:104500005FFA89F44FEA126856F8244057F8288079
:104510005C4084EA0804C1F307284FEA19695EF891
:10452000288057F8299084EA0804C0F307485FFA06
:1045300080FA55F8288084EA08045FFA81F80A9422
:104540005CF81C3C56F8288088EA030888EA0908C9
:10455000C0F30729019B5EF8299088EA0908C2F395
:1045600007490CF1200C55F8299088EA09084FEA10
:10457000106956F82A0057F829A0CDF82C804FEA88
:104580001169C1F3074157F8299055F821B05CF83B
:10459000381C4840C2F3072180EA09005EF8211068
:1045A0004840C3F30741D2B255F8211056F82220F3
:1045B0004840C3F307230C905EF823105CF8343CAA
:1045C00082EA030989EA0A0989EA010989EA0B09E9
:1045D000E3B24FEA196256F8233057F82220CDF89B
:1045E00034905340C8F30722C0F3072A5EF8221024
:1045F0005CF8302C5340C0F307424B4055F8222062
:1046000053405FFA88F20193069356F82210220E67
:1046100057F8222051405CF82C2C51405EF82A209B
:104620005140C9F3074255F822205140C2B2000E52
:1046300056F8222057F820B007914FEA1860C8F3C7
:10464000074857F820005CF8283C82EA000AC9F3C2
:1046500007205FFA89F955F8282056F829805EF876
:104660002000C4F307498AEA030A55F82990029BFF
:104670008AEA0000C4F3072480EA090008905EF883
:1046800024905CF8244C88EA0B0888EA040484EA45
:1046900009046240013B099202937FF42DAF059C0F
:1046A000019BBA46039F07EB4414F34603945FFA59
:1046B00083FC4FEA126E56F82CC05AF82EE0276899
:1046C0008CEA0E0CC1F3072E8CEA070C5BF82EE087
:1046D0008CEA0E0CC0F3074E5FFA80F955F82EE015
:1046E0008CEA0E0C5FFA81FECDF828C056F82E80B9
:1046F00067684FEA136E5AF82EE088EA0E0EC0F390
:1047000007288EEA070E5BF828808EEA080EC2F3AF
:10471000074855F828808EEA080E4FEA106856F8C8
:104720002900CDF82CE04FEA1169C1F307415AF88E
:1047300029705AF82880C2F30729D2B2784055F878
:10474000217056F82210A2685BF829605040C3F32C
:104750000742704055F82220C3F3072350400C90C5
:104760005BF82320E36881EA080159405140794011
:10477000444B0D9126465FFA8CF20C0E9A5C1D5D3F
:1047800034696240CEF3072482EA05621C5D039D12
:1047900082EA0422C0F307444FEA1C691C5D82EAE6
:1047A00004425FFA8EF406921C5D6D694FEA106A4E
:1047B0005FFA80F86C40C0F3072013F8095013F833
:1047C000088013F80A9084EA05641D5C03984FEA98
:1047D0001E6680699E5D88EA0000CFB280EA0666A8
:1047E0000398DF5DC069CEF3074E4740C1F3072051
:1047F00084EA052413F80E50C1F3074E195C86EACB
:10480000012613F80E1087EA096984EA0144049F1F
:104810000794CCF30721CCF3074C3A703C7138462F
:104820005F5C13F80C1089EA072386EA014183EAEA
:104830000543054601720373100A6870100C120ECE
:10484000EA70220A6A71220CAA710A0A6A72240E9C
:104850000A0CCDE90813EC71AA721C0A1A0C090E95
:104860001B0EA870E97206A86C73AA73EB73202163
:1048700000F0D6FC00200FB00AE000BFCC670000BB
:10488000CC6F0000CC660000CC730000CC6B000045
:10489000BDE8F08F034EDFF814A0DFF814B0024D2E
:1048A000039C04E7CC670000CC6F0000CC730000D1
:1048B000CC6B00002DE9F04F446800680B688DB0A8
:1048C00040100493461E2068CDE901264A68434003
:1048D000CDE9043265688868C9686A40CDE9052079
:1048E000A5686840CDE90601E568002E81EA05016A
:1048F000079104F1100B40F3F081DFF8C4A3EC4FF3
:10490000EC4DCDF80CB0B646EB4E009304F1300CF4
:10491000F3465446DDF800A05CF8203C5FFA8AFEBE
:104920004FEA126857F82EE054F828808EEA030EFA
:104930008EEA080EC1F307284FEA106956F828805E
:1049400054F829908EEA080EC0F30748BBF1010B1A
:1049500055F828808EEA080E5FFA82F8CDF820E03C
:104960005CF81C3C57F8288088EA030888EA0908A4
:10497000CAF307295FFA80FA56F8299088EA0908ED
:10498000C1F307490CF1200C55F8299088EA090871
:10499000C0F3072957F82A00CDF824804FEA116A9E
:1049A000C9B254F82A3057F821A05CF8381C56F8E0
:1049B000299080EA0100C2F3072180EA030056F83B
:1049C0002110009B80EA0100C3F307414FEA136303
:1049D00055F8211080EA01000A9054F823105CF881
:1049E000343CC2F307428AEA030355F8222081EAE5
:1049F00003015FFA8EF381EA090181EA020157F8A7
:104A000023200B914FEA1863CEF3072A54F8233082
:104A100083EA0203C1F3072256F822905CF8302C97
:104A200083EA0203C0F3074283EA090355F8222010
:104A300083EA02035FFA88F20093049357F8229006
:104A40004FEA106254F8222089EA02095CF82C2C03
:104A500089EA020256F82A9082EA0902C1F307495C
:104A60005FFA80FA55F8299082EA0902C0F3072913
:104A700057F82A0005924FEA116A5CF8283C54F86E
:104A80002AA056F8299080EA0A0AC8F307208AEA81
:104A9000030A56F820008AEA0000CEF3074AC9B29A
:104AA00055F82AA057F821104FEA1E6E80EA0A0036
:104AB00054F82EE006905CF8243CC8F3074881EADD
:104AC0000E0155F8288081EA030181EA090181EA93
:104AD000080107917FF41EAFDDF80CB0009BA246E1
:104AE000029C0BEB441B5FFA83FC4FEA126E57F8F3
:104AF0002CC05AF82EE0DBF800408CEA0E0CC1F313
:104B0000072E8CEA040C56F82EE08CEA0E0CC0F34B
:104B1000074E4FEA116955F82EE08CEA0E0C5FFA49
:104B200082FECDF820C057F82E80DBF804404FEA13
:104B3000106E5AF82EE088EA0E0EC3F307288EEAAC
:104B4000040E56F828808EEA080EC1F30748C9B251
:104B500055F8288057F821108EEA080E5FFA80F881
:104B6000C0F3072057F828805AF82970CDF824E0C0
:104B700088EA0708C2F30727C2F3074256F8200065
:104B800056F8277055F82260DBF8082088EA0208FA
:104B9000C3F307421B0E55F822505AF8233088EA17
:104BA00007077D400A955940DBF80C305FFA8CF21C
:104BB0005940424B48407040995C0B904FEA1E624E
:104BC0004FEA156A9C5CDBF810205140C0F30722C5
:104BD00081EA04619A5CDBF8144081EA0221C5F3A2
:104BE00007425FFA85F99A5C81EA02415FFA8EF228
:104BF00004919A5C5FFA80F8070E6240C0F30740A8
:104C000013F80A40DF5D13F8088082EA046213F8A3
:104C1000094013F80090DBF81800604080EA07674D
:104C2000DBF81C0088EA0008CCF307204FEA1C667A
:104C30001C5C9E5DC5F3072582EA0422CEF307249F
:104C40005D5D1C5DCCF3074C88EA066613F80C002A
:104C5000CEF3074E86EA0526019D82EA094287EADD
:104C60000427019C29702A7113F80E50059287EAD7
:104C70000043080A6070080C090EE170110A86EA08
:104C8000054661714FEA1269110C1A0ACDE9063620
:104C9000237262721A0C1B0EA171A272310AE372A6
:104CA000320C330EA070617304A826730AE000BFB3
:104CB000F4780000F4800000F47C0000F477000039
:104CC000F484000084F807902021A273E37300F0BD
:104CD000A7FA00200DB0BDE8F08F034FDFF814A055
:104CE000024E034DFFE600BFF4780000F47C0000A4
:104CF000F4800000F48400008C46BCF1010F1146E2
:104D00001A4601D0FFF7D6BDFFF7C6BB2DE9F04F1D
:104D1000ADF5477DB2F5C07F059000F2498114469C
:104D20000D464FF4D07200215EA800F06DFD18A86A
:104D3000FFF7B0F8002364AE8DF888318DF8893123
:104D4000230A294622468DF88A31304620238DF8E1
:104D50008F318DF88B4100F0BDFC974B0C9303F124
:104D6000043380220D9303F104330E93325503F183
:104D700004330CA918A80F93FFF798F805460028EC
:104D800040F0F28004F1190306930DF1200B10ABF3
:104D900004930793D84610220021404600F034FDCA
:104DA000069B00930DF5C47919F8074C98F8095043
:104DB00019F8041C98F80C7019F8080C98F8086099
:104DC00019F8102C19F80C3C6C40009D01944F40D0
:104DD00098F8001019F806BC19F802AC19F80EEC96
:104DE00019F80ACC102D86EA000628468CBF103828
:104DF000681B4A40029219F8031C98F8042000909E
:104E000098F80D005340484019F80F2C98F80110FD
:104E100003930024514019F80B3C98F805202546CF
:104E2000534067F307052246039F60F30F251046A2
:104E300067F3070063F30F2098F80A3098F80370BF
:104E400066F30704019E83EA0B0B98F80E3066F3B5
:104E50000F24029E83EA0A0A98F8023066F30702DA
:104E600061F30F2283EA0E0E98F8063019F80D1C34
:104E700019F8016C83EA0C0C4F4098F8073019F8C8
:104E8000091C6CF317404B4019F805CC98F80B102F
:104E90006BF3174481EA0C0161F31F646EF3174250
:104EA00098F80F1067F31F6263F31F60C8F80020C3
:104EB0006AF3174581EA060262F31F6509904346CB
:104EC0004246012118A809F11009CDE90A45FFF76A
:104ED00013FF002869D1009B002B7FF465AF079C6E
:104EE0001022204641461034079400F0F3FB9DF851
:104EF0007B3101338DF87B3118AB9C427FF44BAF93
:104F0000049980221846FEF7D1FFC346054678BBB8
:104F1000059C04F1200614AB1A46012118A8FFF7DE
:104F2000EBFE1022054618BB204614A9103400F0F1
:104F3000D1FBB442EFD118A8FEF7B2FF5EA84FF440
:104F4000D07100F06DF90498202100F069F90CA8E7
:104F5000102100F065F95846102100F061F928464B
:104F60000DF5477DBDE8F08F10AB04930DF1200BDC
:104F700018A8FEF795FF5EA84FF4D07100F050F925
:104F80000498202100F04CF90CA8102100F048F9F9
:104F90005846102100F044F90598202100F040F90E
:104FA00028460DF5477DBDE8F08F0546C346DFE78F
:104FB0006FF03705F4E700BF000102032DE9F0416F
:104FC00088B004460D4620220021684600F01CFCF3
:104FD00004F120066F46E27B0132D2B2E273002A6E
:104FE0004DD1A27B0132D2B2A273002A47D1637B9A
:104FF0000133DBB26373002B41D1237B0133DBB27E
:105000002373002B3BD1E37A0133DBB2E372002B35
:1050100035D1A37A0133DBB2A372002B2FD1637A8F
:105020000133DBB2637253BB237A0133DBB22372E9
:105030002BBBE3790133DBB2E37103BBA37901330B
:10504000DBB2A371DBB963790133DBB26371B3B94E
:1050500023790133DBB223718BB9E3780133DBB2FF
:10506000E37063B9A3780133DBB2A3703BB9637813
:105070000133DBB2637013B92378013323703B46ED
:10508000224601213046FFF737FE804650BB1037DD
:1050900008AB9F429FD1009A2B680699534000931A
:1050A000019A6B6853400193029AAB685340029394
:1050B000039AEB6853400393049A2B69534004937B
:1050C000059A6B695340AA6905934A40EB690692B9
:1050D000079A30465340694680220793FEF7E6FE62
:1050E000804638B16846202100F09AF8404608B062
:1050F000BDE8F08110220DEB0201204600F0EAFA33
:10510000F0E700BF10B54FF4A0720446002100F094
:105110007BFB4FF6F073E36110BD00BF68B110B5C3
:1051200004462030FEF7BCFE4FF4A071204600F08C
:1051300077F84FF6F073E36110BD7047F0B58369FF
:10514000B3F5C07FE1B040D8C3F5C07393421546B4
:105150003BD304464FF4C0720E466846002100F06F
:1051600053FBD4F83831A269D4F83C01694698471A
:1051700070BBA76906B1C5B93A4669466846FFF7EC
:10518000C5FD054638B14FF4C071684600F048F8D7
:10519000284661B0F0BD69462046FFF70FFF05467F
:1051A0000028F0D101232361EDE72A4631460DEBBB
:1051B00007002F4400F08EFA3A4669466846FFF72A
:1051C000A5FD05460028DED1E5E76FF03705DFE7EE
:1051D0006FF03305DCE700BFF0B587B004460E463C
:1051E00015460021102202A81F4600F00DFB04F115
:1051F00020000190FEF74EFEA2690198C4E94E65B9
:105200000AB92023A361802202A9FEF74FFE20B92C
:105210000C9A39462046FFF791FF07B0F0BD00BF5A
:1052200021B1034B0A461B6800211847704700BF95
:105230000000002010B44FF08053D3F830315A1CD6
:1052400004BF4FF0704393F8E03F062B08D14FF0B6
:105250008053C24AD3F82433C3F30423C2F8403541
:105260004FF0704393F8E02F062A00F024814FF0AE
:105270008053D3F830315C1C04BF4FF0704393F877
:10528000E03F062B09D14FF080534FF08042D3F816
:105290004432C3F34233C2F83C354FF0704393F8C5
:1052A000E02F062A00F0F2804FF08053D3F830311F
:1052B000581C04BF4FF0704393F8E03F062B08D111
:1052C0004FF080430022C3F80C21C3F81021C3F82B
:1052D00038254FF0704393F8E02F062A00F0B38092
:1052E0004FF08052D2F83031591C27D0062BD2F81B
:1052F00034212DD09A4AD2F8883043F47003C2F892
:105300008830BFF34F8FBFF36F8F4FF08053D3F8C8
:105310003021062A00F0E0804FF01023D3F800225D
:10532000002AC0F23B81D3F80432002BC0F2368150
:105330008C4B8D4A1A605DF8044B70474FF07042F9
:1053400092F8E01FD2F8E82F0629D3D1C2F3031256
:10535000033A042A40F2DA804FF08053834AD3F8AC
:105360000414C2F82015D3F80814C2F82415D3F891
:105370000C14C2F82815D3F81014C2F82C15D3F861
:105380001414C2F83015D3F81814C2F83415D3F831
:105390001C14C2F84015D3F82014C2F84415D3F8F1
:1053A0002414C2F84815D3F82814C2F84C15D3F8C1
:1053B0002C14C2F85015D3F83014C2F85415D3F891
:1053C0003414C2F86015D3F83814C2F86415D3F851
:1053D0003C14C2F86815D3F84014C2F86C15D3F821
:1053E0004414D3F83031C2F870155C1C04BF4FF080
:1053F000704393F8E03F062B7FF47CAF4FF0805270
:105400004FF08041D2F85832D2F8302103F04F03E8
:10541000501CC1F8E43E7FD0062A7FF46BAFD1F870
:105420000034DA0700F184804FF08053D3F8343130
:10543000033B042B64D94E4AD2F83C3743F48063D3
:10544000C2F83C3756E7D3F8E83FC3F30313033BF6
:10545000042B3FF645AF474AD25C22B14FF0804261
:105460000321C2F8A015444AD35C002B3FF438AFA7
:10547000424B0524012000213F22C3F81046C3F807
:105480008806C3F81816C3F8142629E7D3F8E83FAE
:10549000C3F30313033B042B3FF606AF384AD35C38
:1054A000002B3FF401AF2E4AD2F8FC3023F080737A
:1054B000C2F8FC30F8E6D3F8E83FC3F30313033B2C
:1054C000042B3FF6D4AE2F4AD35C002B3FF4CFAE73
:1054D0002D4B2E4A5A67CAE6D3F83431033B042BCE
:1054E00008D94FF010224FF08043D2F80822C3F8B9
:1054F000582511E7264AD35C002B3FF40DAFF0E7A7
:10550000244AD35C002B3FF4F5AE94E722498A5C31
:10551000002A3FF46AAF1FE74FF0704393F8E03F73
:10552000062B7FF4E7AED1F80034DB077FF5E2AE5F
:105530004FF080534FF08042D3F830316FF00101CB
:10554000062BC2F800147FF4D5AE4FF08053D3F889
:105550003431033B042B3FF66EAFD1E700300140FE
:1055600000ED00E0040000200090D00300C00040E7
:10557000001000400C8900000C8900000050004021
:105580000C8900000C89000000C007400DF0ADBA86
:1055900004890000FC880000F4880000184A0123F8
:1055A000C2F80435D2F80034002BFBD04FF01023A2
:1055B0001521134AC3F80012D2F80034002BFBD097
:1055C0004FF0102315210E4AC3F80412D2F800340C
:1055D000002BFBD000230A49C2F80435D1F800346F
:1055E000002BFBD0BFF34F8F0649074BCA6802F46C
:1055F000E0621343CB60BFF34F8F00BFFDE700BFF6
:1056000000E0014000ED00E00400FA05002301463F
:105610001A46184600F0A2BA08B5074B044613B163
:10562000002100F0F1FA054B1868836A03B198472E
:10563000204600F05FFB00BF095C0000188A0000F4
:1056400038B5084B084D5B1B9C1007D0043B1D442C
:10565000013C55F804399847002CF9D1BDE8384091
:1056600000F050BB740000207000002070B50D4E9B
:105670000D4D761BB61006D0002455F8043B0134BE
:105680009847A642F9D1094E094D761B00F034FB2C
:10569000B61006D0002455F8043B01349847A642C2
:1056A000F9D170BD6C0000206C000020700000205B
:1056B0006C000020024B0146186800F059B900BF89
:1056C00008000020024B0146186800F0EFB800BF48
:1056D00008000020844641EA000313F003036DD163
:1056E000403A41D351F8043B40F8043B51F8043BA5
:1056F00040F8043B51F8043B40F8043B51F8043BAC
:1057000040F8043B51F8043B40F8043B51F8043B9B
:1057100040F8043B51F8043B40F8043B51F8043B8B
:1057200040F8043B51F8043B40F8043B51F8043B7B
:1057300040F8043B51F8043B40F8043B51F8043B6B
:1057400040F8043B51F8043B40F8043B51F8043B5B
:1057500040F8043B51F8043B40F8043B51F8043B4B
:1057600040F8043B403ABDD2303211D351F8043BEB
:1057700040F8043B51F8043B40F8043B51F8043B2B
:1057800040F8043B51F8043B40F8043B103AEDD29A
:105790000C3205D351F8043B40F8043B043AF9D2EB
:1057A000043208D0D2071CBF11F8013B00F8013BBE
:1057B00001D30B8803806046704700BF082A13D3CB
:1057C0008B078DD010F003038AD0C3F10403D21AE3
:1057D000DB071CBF11F8013B00F8013B80D331F817
:1057E000023B20F8023B7BE7043AD9D3013A11F897
:1057F000013B00F8013BF9D20B7803704B78437002
:105800008B78837060467047830730B548D0541E4C
:10581000002A3FD0CAB2034601E0013C3AD303F864
:10582000012B9D07F9D1032C2DD9CDB245EA0525D1
:105830000F2C45EA054536D9A4F1100222F00F0CD1
:1058400003F1200EE6444FEA121C03F1100242E974
:10585000045542E9025510327245F8D10CF10102AB
:1058600014F00C0F03EB021204F00F0C13D0ACF188
:10587000040323F003030433134442F8045B93420C
:10588000FBD10CF003042CB1CAB21C4403F8012B69
:105890009C42FBD130BD64461346002CF4D1F9E79D
:1058A00003461446BFE71A46A446E0E7002958D04D
:1058B00030B551F8043C83B0002BA1F10404B8BF0B
:1058C000E418019000F004FA284A0198136833B1F3
:1058D000A3420DD9216804EB010C63452FD063600E
:1058E000146003B0BDE8304000F0F4B9A34210D812
:1058F0001A465B68002BF9D1116802EB010C644574
:1059000019D02FD36360546003B0BDE8304000F07D
:10591000E1B9116802EB010CA44516D022D8216828
:1059200004EB010C6345EDD11D685B682944C4E9B3
:1059300000135460D5E7236819441160D1E71D684E
:105940005B682944C4E90013CAE724682144541859
:10595000A3421160C5D1D3E900432144C2E9001339
:10596000BFE770470C230360BBE700BF5014002063
:10597000F8B5CD1C25F0030508350C2D38BF0C25D6
:10598000002D064623DBA94221D8254F00F0A0F9BF
:105990003A6822B3144603E063682246FBB11C4612
:1059A00023685B1BF8D40B2B15D8636894420CBF9B
:1059B0003B605360304600F08DF904F10B00231D6D
:1059C00020F00700C21A01D01B1AA350F8BD0C2307
:1059D00033600020F8BD23601C442560EAE7796845
:1059E000C9B12946304600F01DF8431C0CD0C41C38
:1059F00024F00304A04205D0211A304600F012F82A
:105A0000013001D02560D5E70C233046336000F02B
:105A100061F90020F8BD304600F004F87860E0E756
:105A20005014002038B5074D0022044608462A606D
:105A300000F052F9431C00D038BD2B68002BFBD07E
:105A4000236038BDE81400200000000000000000C2
:105A50000000000000000000000000000000000046
:105A60000000000000000000000000000000000036
:105A70000000000000000000000000000000000026
:105A800090F800F06DE9024520F007016FF0000C7E
:105A900010F0070491F820F040F049804FF0000426
:105AA0006FF00700D1E9002391F840F000F1080001
:105AB00082FA4CF2A4FA8CF283FA4CF3A2FA8CF339
:105AC0004BBBD1E9022382FA4CF200F10800A4FAA0
:105AD0008CF283FA4CF3A2FA8CF3E3B9D1E90423F4
