:1000000000000120F902000021030000230300008A
:100010002503000027030000290300000000000062
:10002000000000000000000000000000C1300000DF
:100030002D03000000000000E1300000310300004B
:10004000351B000033030000E91F000033030000EC
:100050003303000033030000A51B0000330300003E
:1000600033030000330300003303000033030000B8
:1000700033030000330300003303000033030000A8
:1000800033030000E13100003303000033030000BC
:100090003303000033030000330300003303000088
:1000A0003303000033030000330300003303000078
:1000B00033030000330300000000000000000000D4
:1000C0003303000033030000330300003303000058
:1000D000330300003303000033030000000000007E
:1000E0000000000000000000000000000000000010
:1000F0000000000000000000000000000000000000
:1001000000000000000000000000000000000000EF
:1001100000000000000000000000000000000000DF
:1001200000000000000000000000000000000000CF
:1001300000000000000000000000000000000000BF
:1001400000000000000000000000000000000000AF
:10015000000000000000000000000000000000009F
:10016000000000000000000000000000000000008F
:10017000000000000000000000000000000000007F
:10018000000000000000000000000000000000006F
:10019000000000000000000000000000000000005F
:1001A000000000000000000000000000000000004F
:1001B000000000000000000000000000000000003F
:1001C000000000000000000000000000000000002F
:1001D000000000000000000000000000000000001F
:1001E000000000000000000000000000000000000F
:1001F00000000000000000000000000000000000FF
:100200000348044B834202D0034B03B118477047A5
:100210008C0000208C0000200000000005480649EA
:100220000B1AD90F01EBA301491002D0034B03B104
:10023000184770478C0000208C0000200000000050
:1002400010B5064C237843B9FFF7DAFF044B13B11E
:100250000448AFF300800123237010BD90000020FC
:1002600000000000CC58000008B5044B1BB1044945
:100270000448AFF30080BDE80840CFE7000000006D
:1002800094000020CC580000A3F5803A704700BFCE
:10029000154B002B08BF114B9D46FFF7F5FF0021C2
:1002A0008B460F461148124A121A04F0D3FE0C4B2B
:1002B000002B00D098470B4B002B00D09847002014
:1002C000002104000D000B4804F0C6FD04F0F4FD0D
:1002D0002000290002F01CFC04F0C4FD000008000E
:1002E000000000000000000000000120900000203D
:1002F000502900208D4E00000649074A074B9B1AE3
:1003000003DD043BC858D050FBDC02F06BFCFFF768
:10031000BFFF00006C59000000000020900000208A
:10032000FEE7FEE7FEE7FEE7FEE7FEE7FEE7FEE7A5
:10033000FEE7FEE7074B4FF0A041185CD1F804350B
:100340000122824022EA03001340C1F80805C1F8E7
:100350000C35704750550000C20710B41AD54FF045
:10036000A04303224FF40031C3F844274FF4802404
:10037000C3F84827C3F84C27C3F85027C3F808151B
:100380004FF480124FF40021C3F80845C3F8081554
:10039000C3F8082583070AD54FF0A0430C22C3F801
:1003A0003427C3F83827C3F83C27C3F840275DF843
:1003B000044B704700B585B00346002101AA44F202
:1003C0000100CDE90111039300F004F805B05DF8D8
:1003D00004FB00BF10B572B601F020F800F00AFE71
:1003E0000028FBD1104B114C1149E41AE4082404F5
:1003F00044F0010000F02AFF0E4BD3F8F030DB0789
:1004000000D500BE0C4944F0020000F01FFFBFF30E
:100410004F8F0849094BCA6802F4E0621343CB606E
:10042000BFF34F8F00BFFDE7D0580000F858000021
:100430008455000000ED00E0905500000400FA052E
:1004400072B6024A1368013313607047AC00002093
:10045000034A1368013B136003B962B6704700BFDB
:10046000AC000020034653E8000F0A4643E8002C86
:100470009CF0000FF7D17047034653E8002F02EBC2
:10048000010043E8000C9CF0000FF6D1704700BF5C
:10049000034653E8002FA2EB010043E8000C9CF058
:1004A000000FF6D1704700BF0346012253E8001F3A
:1004B00041EA020043E8000C9CF0000FF6D17047BF
:1004C0000346002253E8000F00EA020143E8001C43
:1004D0009CF0000FF6D17047D0B110B4D0E90112F2
:1004E000521A0468D2B2531E2160DBB252B10168C5
:1004F0000A6803F1FF3C541C0C6013705FFA8CF324
:10050000FF2BF4D10368002018715DF8044B70478D
:100510000E20704738B504460020FFF791FFD4E95C
:1005200000311A688A4215D9511E19602168A368E2
:1005300012F8012C208A0D68E4685B1B00FB024462
:100540000A79DBB29A4200D20B710020FFF780FFDC
:10055000204638BD00240020FFF77AFF204638BD32
:1005600038B5054600200C46FFF76AFF2A68136875
:10057000591C1160E9682A8A641AB4FBF2F41C70F1
:10058000BDE838400020FFF763BF00BF826842B17A
:1005900010B5044643690168006998470023A360C9
:1005A00010BD70470EB400B582B0039921B104AB01
:1005B00001AA019300F0B6F802B05DF804EB03B0B5
:1005C000704700BF2DE9F04F154683B0A942DDF812
:1005D00030900D9A0F4606469A46C0F09E800B4614
:1005E0004FF00108B3FBF5F39D4208F10108F9D97A
:1005F000D04538BFD04612F00103019302D1B9F1C2
:10060000000F67D1B268BAF1010F4FF0010406D9AB
:100610000AF1FF3ABAF1010F05FB04F4F8D8B7FB71
:10062000F4F39D4205D805FB04F4B7FBF4F39D42B7
:10063000F9D9DFF8ECA007E0AC42B4FBF5F31AD32C
:10064000B2681C46B7FBF3F31AF803B0BBF10A0F0C
:1006500004FB137728D03368511CB16003F802B053
:10066000D6E901329A42E7D33046FFF78FFFB4FB59
:10067000F5F3AC42E4D2019B9BB1B9F1000F10D06D
:100680002024C84509F1FF390BD2B3683268591CE0
:10069000B160D454D6E901329A4214D2B9F1000FB4
:1006A000EFD103B0BDE8F08F511C3368B1604FF05B
:1006B0000D019954D6E901329A42CCD33046FFF766
:1006C00065FFB268C7E73046FFF760FFB9F1000F7A
:1006D000D7D1E6E793071AD42024B268C84502F1BF
:1006E000010190D23368B1609C54D6E901329A423C
:1006F00009F1FF3903D2B9F1000FEFD183E730469A
:10070000FFF744FFB268B9F1000FE7D17BE7BAF118
:10071000000F0CBF30242024DFE74FF0010867E70B
:10072000AC550000002900F05C822DE9F04FDFF8A5
:1007300070950D7885B0064690460C464FF00D0A30
:100740000FE00A2DB36800F08E803268591CB1604A
:10075000D554D6E901329A4280F081802578002D67
:1007600069D00134002D66D0252DEAD1002723461B
:1007700014F8012B2D2A6CD0302A6DD02B2A61D091
:100780002A2A7FD0A2F1300109294FF000050BD8A9
:1007900005EB850502EB450513F8012FA2F13001A9
:1007A0000929A5F13005F3D92E2A1C4675D000235E
:1007B00001E014F8012F02F0FB016829F9D0252A85
:1007C00000F08681583AD1B2202930D8202A2ED87C
:1007D000DFE812F021002D002D002D002D002D004E
:1007E0002D002D002D002D002D00FE0079002D0084
:1007F0002D002D002D0079002D002D002D002D0045
:100800002D002D00BD002D002D001A012D00160118
:100810002D002D002100D8F800101022081DC8F866
:10082000000009683046CDE90057FFF7CBFE0134E0
:100830002578002D95D1337B002B40F0438105B006
:10084000BDE8F08F234614F8012B2D2A47F004074A
:1008500092D147F001078AE747F0020787E7304661
:10086000FFF794FE7AE73268591CB16002F803A0E2
:10087000D6E901239342FFF468AF3046FFF786FEC6
:10088000B36862E7D8F80020111DC8F80010156899
:100890005A782E2A03F1010489D16278A2F130033B
:1008A000092B04F101044FF0000384D803EB830308
:1008B00002EB430314F8012FA2F130010929A3F13F
:1008C0003003F3D977E7D8F80020111DC8F80010DD
:1008D000D2F800B08BEAEB72A2EBEB72092A40F37C
:1008E000DB81DFF8C0C3012011466329ACFB02E2C3
:1008F00000F101004FEAD202F6DC9842024638BF0E
:100900001A460292002D00F01E81BBF1000FC0F2CA
:100910002E817A0700F12B81B80740F12A81002B44
:1009200040F02781BBF1000FC0F27D817A0700F112
:100930008D8107F00302022A00F05D81CDE90057A6
:1009400059460A223046FFF73DFE013470E7D8F8D9
:1009500000301A1DC8F800201F68B3683268581CA0
:100960003021B060D154D6E90123934280F0FA805F
:10097000591C3268B1607821D154D6E901329A42CB
:1009800080F0EB800F2F03D93B461B090F2BFCD8BF
:100990004FF0805506E00F2D4FEA15137FF647AF55
:1009A000B2681D46B7FBF5F319F803B0BBF10A0FA7
:1009B00005FB137777D03368511CB16003F802B0A0
:1009C000D6E901329A42E6D33046FFF7DFFDE2E78F
:1009D000D8F800301A1DC8F800201D78B3680A2D19
:1009E00000F03A813268591CB160D554D6E9013221
:1009F0009A42FFF41CAF3046FFF7C8FD013417E7F9
:100A0000D8F800100A2209E7D8F800301A1DC8F8F3
:100A1000002017F00107D3F800B064D1BBF1000F3C
:100A200003D0584604F04CFC0746BD4215D920229D
:100A300001E0BD4211D0B1683368481CB0605A541F
:100A4000D6E90130984205F1FF35F2D33046FFF781
:100A50009DFDBD424FF02002EDD19BF80050002DCE
:100A60003FF4E5AE0A2DB0680FD03368421CB26087
:100A70001D54D6E90130984280F0B4801BF8015F24
:100A8000002D3FF4D4AE0A2DEFD13368421CB26082
:100A900003F800A0D6E901309842E6D33046FFF7CC
:100AA00075FDB068E1E73368511CB16003F802A03E
:100AB000D6E901329A42FFF47EAF3046FFF766FD79
:100AC000B26878E7304605B0BDE8F04FFFF75EBD8D
:100AD000B3683168581CB060CA54D6E901329A42F2
:100AE00089D20134A4E69BF80030002B00F0D680B8
:100AF000B0685F46CBF101020A2B02EB070B5ED018
:100B0000411CB16031680B54D6E90130984248D29B
:100B100017F8013F002BEFD15D457FF688AE202707
:100B200002E05D453FF483AEB2683368511CB160AA
:100B30009F54D6E901329A4205F1FF35F1D3304690
:100B4000FFF724FDEDE7B80705D5002B3FF4EAAE2B
:100B5000F9073FF5E7AE0025E4E63046FFF716FD5E
:100B6000B2680FE73046FFF711FDB36800E7013DBB
:100B7000D2E6F9073FF5D6AE002DECD0202202993F
:100B8000A942BFF4CFAEB168481CB060306842548F
:100B9000D6E90101814205F1FF356CD2002DEED17D
:100BA000D9E730460292FFF7F1FC17F8013F002B1E
:100BB000B2D0029AB0680A2B02EB070BA0D1411CFD
:100BC000B160316801F800A0D6E90110884297D3DE
:100BD0003046CDE90232FFF7D9FCDDE90232B068D8
:100BE0008EE770473046FFF7D1FC1BF8015F002D00
:100BF0007FF438AF1BE6002B7FF4A0AE8DB130221E
:100C000002998D427FF69AAEB168481CB060306898
:100C10004254D6E90101814205F1FF3535D2002D5C
:100C2000EED100258AE6B1683268481CB060CBF18D
:100C3000000B2D205054D6E901219142FFF479AEEA
:100C400030460393FFF7A2FC039B72E6B16832685B
:100C5000481CB0602B20EDE73268591CB16002F8E7
:100C600003A0D6E901239342FFF4BCAE3046FFF760
:100C70008DFCB368B6E630460393FFF787FC039B11
:100C80002022002D7FF47BAF65E730460393FFF70A
:100C90007DFC039B3022C2E701202EE69B463BE70A
:100CA000AC550000CDCCCCCCFFF716BC2DE9F04103
:100CB000058A0331043D4E198046B6FBF5F6FFF771
:100CC00029FCA0B3F6B24FF48073013E0446838042
:100CD000C580C0F800802BD00346002508E062796B
:100CE000AE4202F1010262713860C0F800801FD08C
:100CF00040461F46FFF70EFC013503460028EED1A3
:100D00006779791E17D02246013399421268FBD1C8
:100D1000D2F800805FB12668002501E034463668CD
:100D2000214640460135FFF71BFCAF42F6D80024B0
:100D30002046BDE8F08120682146FFF711FCF6E768
:100D400001210430FFF798BB2DE9F0410121044651
:100D50000430FFF79DFB10F0FF0301D0BDE8F081E8
:100D60006779791E16D02246013399421268FBD169
:100D7000D2F80080002FF1D02668002501E034462B
:100D80003668214640460135FFF7EAFBAF42F6D808
:100D9000BDE8F08120682146BDE8F041FFF7E0BBE7
:100DA0002DE9F8438846C788417907FB01F10439EA
:100DB00002EB030C1E1D6145154638BFCD1AB74224
:100DC0000446B6FBF7F207FB126002D8013A24682A
:100DD000FCD13E1AAE4228BF2E469DB14FF000090D
:100DE0000430AD1B324608EB0901204404F098F8AA
:100DF000AF42B14424683E464FF0000028BF2E4663
:100E0000002DEDD1BDE8F8832DE9F8430446C788ED
:100E1000407907FB00F0043802EB030C1E1D60450F
:100E2000154638BFC51AB7428846B6FBF7F107FB2F
:100E3000116202D801392468FCD1BE1AAE4228BF23
:100E40002E469DB14FF00009111DAD1B32462144C5
:100E500008EB090004F064F8AF42B14424683E4650
:100E60004FF0000228BF2E46002DEDD1BDE8F883DB
:100E7000826800239360826813618268536182688C
:100E8000D3608268536082681360704770B5304DDC
:100E900084B005F58360FFF707FB05F21440FFF708
:100EA00003FBAB68DAB2D11C05EB810015F8211009
:100EB0004C0710D501F00404017801F00301012969
:100EC00038D0022903F1020602F1030126D005EB16
:100ED0008100002CF0D105EB82015A1CC8680190FA
:100EE000D2B205EB820200F003010129D66803F1BA
:100EF000020425D002290FD1BDF80630C3F38913AF
:100F00000333360C04EB93041248FFF7D9FA00B10F
:100F1000AC60304604B070BD0026F5E7438806EBB0
:100F20009313DAB2D11C05EB810015F8211001F002
:100F30000404CEE702880233C2F383121344F0E7BD
:100F4000BDF80430C3F38313360C1C44DCE700BF48
:100F50008001002094050020064B074810B50122AF
:100F60001A70FFF7A1FE044610B90448FFF780FF8E
:100F7000204610BD8001002040590000EC550000C3
:100F800030B499B10D490E4D491BC90813D00D4C11
:100F9000002302E0013399420AD034F82320824230
:100FA000F8D1184655F8300030BC7047044DF9E7C9
:100FB000002030BC70470846F6E700BF40590000EB
:100FC000D05800008C000020094B013903EBC00011
:100FD00003290BD8DFE801F004020806042070475B
:100FE00002207047407970470079704700207047B1
:100FF000D05800002DE9F0438E4CD4E901239A42E9
:1010000085B060D00023C4F81834BFF34F8FA568B3
:10101000EAB2D31C04EB830114F82330580718D527
:1010200066680B7803F00303012B42D0022B03D137
:101030004B88023505EB9315EAB2D4F81804D31C9B
:1010400004EB830128B9AE4239D914F823305B0789
:10105000E7D404EB82026B1CDBB2D26804EB83039F
:1010600002F00301DB680229CDE9012305F1020644
:101070002DD0012900F08D80D4F810543DB12B689B
:1010800028469B689847EB681D68002DF7D16A4891
:101090006A4B6B49C01AC008000440F0020000F01F
:1010A000D5F8D4E90130C01A18BF012005B0BDE859
:1010B000F0830B880235C3F383131D44BCE7A6609D
:1010C00005B0BDE8F083002005B0BDE8F083BDF8B1
:1010D00006305C48C3F389184546502D28BF50257B
:1010E00005F1080165F38F13C1F30901ADF806306E
:1010F000FFF7DCFD07460028BED0FFF721FE0023E6
:10110000082201A93846FFF74BFEF343DBB2013357
:10111000B5EB830F4FEA830279D9F1B25FFA82F916
:10112000033104EB810138460823A5EB0905FFF7DD
:1011300037FEEDB209F10803434903F0FC032A46E8
:101140003846FFF72DFE08F1030806EB9806D4F8A1
:101150001834002B69D1D4F8105465B1EB685A7972
:1011600028463946002A5CD02B681B689847EB68F4
:101170001D68002DF2D13846FFF7E6FD0020FFF78D
:101180005FF9D4F8183403B9A6600020FFF760F9BE
:1011900087E7BDF804202B48C2F38313062B28BF32
:1011A000062363F38912023303F00F018900ADF8BF
:1011B0000420FFF77BFD074600283FF45DAFFFF7F3
:1011C000BFFD0023082201A93846FFF7E9FDBDF85D
:1011D000043013F4707FBAD06FF001094FF00808A3
:1011E000A9EB0509F1B203314346042204EB810166
:1011F0003846FFF7D5FDBDF804300136C3F383133D
:1012000009EB0602934208F10408EBD89FE7F1B21C
:1012100003312A4604EB810108233846FFF7C0FD5D
:1012200091E71D68002D99D1A5E73846FFF78CFDA1
:1012300037E700BF80010020F8580000D0580000B8
:10124000D4550000405900008C0100202DE9F041E8
:10125000284C064600208846FFF7F2F8D4E90173CF
:1012600003F58073DB1B012B42D804F21C450121DE
:101270002846FFF701F9FFF709FE01462846FFF768
:10128000FBF8D4E9012303F580739B1A012BEED9F7
:10129000D3B2033302320521002044F823106260E8
:1012A000FFF7D6F800211448FFF7DCF880F31003AD
:1012B0007A1CF10001F03801D2B2FFB21B0441F0F8
:1012C000010104EB8202033743EA164341EA882115
:1012D000D36044F8271023780BB9BDE8F081FFF7FD
:1012E00089FE0028F9D0FFF785FE0028F7D1F4E742
:1012F0003A46CDE7800100209C0500202DE9F84307
:10130000DFF8B890054600200F469046FFF798F8A2
:10131000D9E9016303F580739B1B022B4AD809F2BC
:101320001C4401212046FFF7A7F8FFF7AFFD014657
:101330002046FFF7A1F8D9E9012303F580739B1A32
:10134000022BEED9D3B2033303324521002049F8F2
:101350002310C9F80420FFF77BF8B31CDBB209EBBC
:1013600083030021C3F80C801348FFF77BF880F358
:101370001003721CE90001F03801D2B2F6B21B046E
:1013800041F0410109EB8202033643EA154341EA89
:101390008727D36049F8267099F800300BB9BDE86B
:1013A000F883FFF727FE0028F9D0FFF723FE002877
:1013B000F7D1F4E73246C5E79C0500208001002004
:1013C00030B4154DD5F810140446002071B10B4609
:1013D00001E01B6853B1DB681A798242F9D1013010
:1013E0000A28F3D14FF0FF3030BC7047E368187122
:1013F000D5F810344BB1DA68E36812681A60D5F892
:101400001034DB681C6030BC7047C5F81044E268DB
:10141000136030BC704700BF8001002038B5084B16
:10142000D3F8104401251D704CB1E3685D71236849
:1014300020465B689847E3681C68002CF5D138BDEE
:101440008001002030B5C38885B004460D4623BB1B
:10145000237A052B1FD0627A82B9144AA08852F8E9
:10146000232003920021FFF78BFD039A10490346C6
:10147000284605B0BDE83040FFF794B81946A0886B
:10148000FFF7A2FD0B4B0C4953F820202846FFF72D
:1014900089F8237AE1E705B030BD08490091084A90
:1014A00008492846FFF77EF8D2E700BFC45600007F
:1014B00024560000A05600002056000018560000D8
:1014C000F8550000005600002DE9F04385B01D4698
:1014D0000C9C002394F80C90237380460E4617460C
:1014E00021462846FFF7AEFF062F09D8DFE807F0B0
:1014F000042E343B444F1F0041462046FFF752F86C
:101500002B7A052B05D06B7A5BB927492046FFF76C
:1015100049F82046FFF73AF884F80C9005B0BDE88A
:10152000F083224A22492046FFF73CF8EDE7736931
:10153000039333690293F3680193B3680093D6E988
:10154000002341462046FFF72DF8D9E7326841468F
:101550002046FFF727F8D3E7D6E900234146204687
:10156000FFF720F8CCE7B3680093D6E900234146A3
:101570002046FFF717F8C3E7F3680193B3680093B9
:10158000D6E9002341462046FFF70CF8B8E7336957
:101590000293F3680193B3680093D6E900234146B0
:1015A0002046FEF7FFFFABE730560000185600005C
:1015B00020560000082900D970472DE9F04F1D463C
:1015C00083B000241B7B2C730E4607462946104629
:1015D00090460193DFF8D0B0DFF8D0A0FFF732FFDC
:1015E00005E03A5D0134FEF7DDFF082C09D0A64284
:1015F00051462846F5D859460134FEF7D3FF082C4A
:10160000F5D12449DFF8A8B0234CDFF8A8A028467C
:10161000FEF7C8FF4FF0000917E017F80910481C43
:101620007E294FF02E02C0B206D810F80A2012F020
:10163000970F14BF0A462E222146284609F10109B8
:10164000FEF7B0FFB9F1080F0AD04E45E5D859466C
:10165000284609F10109FEF7A5FFB9F1080FF4D1F9
:1016600098F80830052B02D098F809305BB90B497F
:101670002846FEF797FF2846FEF788FF019B2B734D
:1016800003B0BDE8F08F064A06492846FEF78AFFF8
:10169000EDE700BF40560000445600003056000001
:1016A00018560000205600003C560000345600003A
:1016B0002C560000C457000008B500F0E7F80448B5
:1016C0000421FFF77DFE034B01225A7108BD00BFC4
:1016D0005459000000000020F0B595B008460024E1
:1016E0000E4617461D46FFF72BFB1A9A0D9223460E
:1016F000082205A93046CDE9095408978DF82C40F9
:101700000C94FFF781FBDDE906219DF814308DF87C
:101710001140CDE9021203F00302012A28D0022A67
:1017200004D03046FFF710FB15B0F0BDBDF81650E1
:10173000C3F3C203C5F389158DF810300827082DAF
:101740002C4628BF08243B4622460EA93046FFF708
:101750005BFB2D1B08AB02AA21460EA82744FFF70E
:1017600029FF002DEBD13046FFF7EEFA15B0F0BDA2
:10177000BDF814100598C1F38312C3F3C203C0F37C
:101780009525C1F383148DF810300EA930469200D0
:101790000823FFF739FB08AB0093224602AB0EA9E2
:1017A0002846FFF791FE3046FFF7CEFA15B0F0BDA0
:1017B000704700BF00B583B0044B0093044A402338
:1017C000FFF78AFF03B05DF804FB00BFD5170000E8
:1017D0003C06002038B50F480F4D03780F4CEB5CEA
:1017E0004FF0000C84F800C0D2B253B1043001F0C5
:1017F000FFF858B90A4B1B7813B12378002BFCD0A3
:1018000038BD0C3000F044FE0028F3D0FEF7D2FDC6
:10181000F0E700BF080000209C0600207C060020A6
:101820003806002010B51548154A0378D35C88B0F7
:10183000C3B1043001F03CF8124C0FCCEC46ACE8DC
:101840000F0094E80F008CE80F0006230B4800936C
:101850000022694600F0E6F840B90B4B00221A70EE
:1018600008B010BD0C3000F0A5FDE5E7FEF7A2FDC5
:10187000054B00221A7008B010BD00BF0800002000
:101880009C060020EC5600003806002010B50F4CD6
:101890000FCC88B0EC46ACE80F0094E80F008CE861
:1018A0000F0006230A4800930022694600F0BAF8A8
:1018B00020B9084B00221A7008B010BDFEF77AFD5F
:1018C000044B00221A7008B010BD00BFEC56000097
:1018D000080000203806002010B568B90E4CA36837
:1018E000012262703BB1D3E900230020A260984737
:1018F000A368002BF7D110BD0128FCD1064C236949
:10190000A070002BF7D0D3E9002301202261984773
:101910002369002BF7D110BD8006002010B50D4CB7
:10192000237882B043B185200B4BD3F800340BB140
:101930000123A37002B010BD08486360A360236157
:10194000E36000F0A9F8019000F0B2F801230198DB
:101950002370E9E78006002000000140D91800004C
:1019600038B5154DAB78044673B110B1436801200A
:1019700098470020FEF764FDEB680133EB60002020
:10198000BDE83840FEF764BD03F0FF00FEF758FDE8
:1019900064B12A6942B1944208D0134601E09C42E6
:1019A00004D01B68002BFAD122602C61EB68002B5D
:1019B000E2D100F08FF8DFE78006002030B50A4B57
:1019C0000A4C53F8213054F82110027885B0D0E940
:1019D00001548DF80020C26801958DF808400392EB
:1019E0006846984705B030BD980600209406002050
:1019F00030B50A4B0A4C53F8213054F821100278C4
:101A000085B0D0E901548DF80020C26801958DF8A9
:101A1000084003926846984705B030BD98060020FC
:101A200094060020F0B5174B06784F7F43F8262028
:101A30001446154B154A9F550546086942F826007D
:101A40008C46BCE80F0089B0EE46AEE80F009CE87B
:101A50000F008EE80F0004964FB1002C0C4A694627
:101A600008BF2246281D00F03BFE09B0F0BD002C47
:101A7000084A694608BF224605F10C0000F0CCFB7D
:101A800009B0F0BD980600209C06002094060020B6
:101A9000BD190000F1190000044A137923B901218E
:101AA000106091801846704785207047A00600207E
:101AB000074B1A68D20704D4C02283F800230122FE
:101AC0001A604FF080430122C3F81825704700BF09
:101AD00000E100E010B44FF080430022C3F804217D
:101AE00083B0D3F804210192104901980222C3F86F
:101AF0000423D1F8FC000E4A40F08073C1F8FC309A
:101B0000146844F001031360516853685B1AB3F51D
:101B10000A5FFAD3054914604FF080430122C1F8EF
:101B2000FC009A6003B05DF8044B704700ED00E0E4
:101B3000001000E010B54FF0804382B0D3F80021D0
:101B400062B10021164AC3F80011D3F80011507990
:101B500000910121009CC3F80813A8B14FF0804305
:101B6000D3F80421CAB10022C3F80421D3F8042118
:101B7000019202210A4A0198C3F808131368012050
:101B800002B0BDE8104018471368517198474FF0F4
:101B90008043D3F80421002AE5D102B010BD00BF74
:101BA000A0060020F0B585B01D4A00230193D2F8AD
:101BB0000011012900F0E5811E46194BD3F80421DC
:101BC000012A00F0CF81164BD3F80821012A00F03A
:101BD000B881134BD3F80C21012A00F0A381104BDC
:101BE000D3F81021012A00F08E810D4BD3F8142177
:101BF000012A00F079810A4BD3F81821012A00F05C
:101C00006481074BD3F81C21012A0BD0044BD3F875
:101C10007C21012A00F0C28126BB05B0F0BD00BFC7
:101C200000600040D3F804231206EFD50022C3F869
:101C30001C21D3F81C110291D3F87C1102980129C0
:101C400046F080060ED1C3F87C21D3F87C210392A4
:101C50004FF0A043039AD3F820250192C3F8202522
:101C600046F00046BE4F00240125A30003F1804347
:101C70002E4203F5C0434FEA45050BD0D3F81005BB
:101C800057F82420D3F81015C0F30420C1F3014104
:101C900002B190470134082CE7D1002EBDDAB04CD8
:101CA00001254FF0A04694F95000471C3DD0C0F3E9
:101CB000C20310336B44C1B213F80C2C00F00703BD
:101CC00005FA03F31A4200F03F002ED0830003F11F
:101CD000A04305FA00F7D3F80027D3F800C72CF487
:101CE000403CC3F800C7C2F30142D3F800C7022A40
:101CF0000CBF4FF4403E4FF4003E4CEA0E0CC3F8CC
:101D000000C72318C6F8207593F9303054F82330F3
:101D10005BB18909032900F06581022A00F05F8127
:101D2000032A02D1022900F05D8194F95100411C7F
:101D30003DD0C0F3C20310336B44C1B213F80C2C76
:101D400000F0070305FA03F31A4200F03F002ED01B
:101D5000830003F1A04305FA00F7D3F80027D3F876
:101D600000C72CF4403CC3F800C7C2F30142D3F8CB
:101D700000E7022A0CBF4FF4403C4FF4003C4CEA11
:101D80000E0CC3F800C72318C6F8207593F930303D
:101D900054F823305BB18909032900F01981022A24
:101DA00000F01381032A02D1022900F0118194F975
:101DB0005200421C3DD0C0F3C20310336B44C1B289
:101DC00013F80C2C00F0070305FA03F31A4200F095
:101DD0003F002ED0830003F1A04305FA00F7D3F8AB
:101DE0000027D3F800C72CF4403CC3F800C7C2F367
:101DF0000142D3F800E7022A0CBF4FF4403C4FF4F5
:101E0000003C4CEA0E0CC3F800C72318C6F8207536
:101E100093F9303054F823305BB18909032900F07D
:101E2000D280022A00F0CC80032A02D1022900F0DD
:101E3000CA8094F95300431C3DD0C0F3C203103351
:101E40006B44C1B213F80C2C00F0070305FA03F33E
:101E50001A4200F03F002ED0830003F1A04305FAA0
:101E600000F7D3F80027D3F800C72CF4403CC3F8A0
:101E700000C7C2F30142D3F800E7022A0CBF4FF4B7
:101E8000403C4FF4003C4CEA0E0CC3F800C723184A
:101E9000C6F8207593F9303054F823305BB18909C6
:101EA000032900F09A80022A00F09480032A02D1CC
:101EB000022900F09280D6F820350193C6F820352B
:101EC000002B7FF4F0AE05B0F0BDD3F8042351062B
:101ED0007FF597AE0022C3F81821D3F8183102938A
:101EE000029B46F040068CE6D3F8042390067FF56B
:101EF00082AE0022C3F81421D3F814310293029B5E
:101F000046F0200677E6D3F80423D4067FF56DAEBD
:101F10000022C3F81021D3F810310293029B46F03F
:101F2000100662E6D3F8042315077FF558AE0022A9
:101F3000C3F80C21D3F80C310293029B46F008063B
:101F40004DE6D3F8042357077FF543AE0022C3F8CC
:101F50000821D3F808310293029B46F0040638E6C4
:101F6000A8060020D3F8042392077FF52CAE0022A8
:101F7000C3F80421D3F804310293029B46F0020611
:101F800021E6D2F8046316F001063FF416AEC2F85B
:101F90000031D2F800310293029B0EE60022C3F812
:101FA0007C21D3F87C2103924FF0A043039AD3F80D
:101FB00020250192C3F82025002E3FF470AE4FE695
:101FC00001297FF436AF984733E701297FF4EFAE5C
:101FD0009847ECE601297FF46EAF98476BE701293B
:101FE0007FF4A3AE9847A0E6014B1B68184700BFDB
:101FF0000407002038B50C4B984213D100200D4641
:10200000FEF71EFA094B1C7924B10020FEF720FAD6
:10201000112038BD012220461D601A71FEF718FA02
:10202000204638BD002038BD0020004004070020B5
:10203000034B984203D1034B00221A601A71704778
:10204000002000400407002010B5714AD2F8043384
:1020500099058AB068D5D2F82431002B64D00023CA
:10206000C2F82431D2F8243101934FF40171694B45
:102070000198C2F8081393F8291009B90121516099
:10208000634902228DF81820D1F88024C1F88024F9
:102090009FED5D7B9969D868CDE9081283ED067BD9
:1020A000D3E90012079006A89047594AD2F81C318C
:1020B000C3B1584B5869196A88426AD993F82810F5
:1020C00001F0FF00002964D1C2F81C01D2F81C11F4
:1020D000039103999C68186A196A205C013119629E
:1020E000C2F81C054A4AD2F84431DBB10021494B01
:1020F000C2F84411D2F8440193F8291000900098D6
:1021000009B1012111609A6962B1D8685C6A002145
:102110000122CDE9070499618DF8182006A8D3E9BA
:10212000001290470AB010BD394AD2F804335B0759
:10213000BBD5D2F80831002BB7D0364B99690029AE
:102140003ED00021C2F80811D2F808110491049978
:10215000D868596AD2F8182542545A6A99690132E6
:102160005A625A6A8A42A0D1DA69002A31D09A6149
:102170001A69D8685C6ADA60002101220894D96182
:10218000596207905C6819688DF8182006A8A04766
:102190008BE71F4A0020C2F81C01D2F81C210292D2
:1021A000029A5A69002A9DD0D3E901215C698DF811
:1021B0001800CDE907145861196806A8904791E7FF
:1021C000C2F80811D2F8080105900598D2F8182530
:1021D000C7E793F8292012B90D4A012151600C4A32
:1021E0004FF40171C2F80813D8685C6A002101221B
:1021F00099618DF81820D3E90012CDE9070406A8EB
:10220000904752E7AFF3008000000000000000009C
:1022100000200040100700202DE9F041604E90F8AA
:1022200004802C2303FB086382B093F82A30002B30
:1022300040F0898005460C4600685A491746FFF76A
:10224000D9FE00287BD12368591C0CD04FF0A04147
:10225000012202FA03F3C1F80835236803F5E0739D
:10226000032241F8232063685A1C06D003F5E0736B
:102270004FF0A042002142F823102B68A269C3F856
:102280002425227D637D13432A68C2F86C35D4E986
:1022900000122B68C3F81425C3F80C15237D012BFD
:1022A0005CD02C2303FB08F3F21857602269F2502C
:1022B00097B32A68237F0021C2F81C11D2F81C2191
:1022C0000092009A2A68C2F84411D2F8442101927F
:1022D000019A2A683449C2F804132A6842F3073184
:1022E00000294FEA123232DB01F160415B0101F556
:1022F0006141DBB281F800332B6843F30732002AD7
:102300004FEA133109DB294C5209012301F01F0167
:1023100003FA01F144F822102B680422C3F80025C7
:102320002C2303FB086601220023C6E9063386F846
:102330002930736186F82A2002B0BDE8F0811120AF
:1023400002B0BDE8F081082002B0BDE8F081184974
:1023500002F00F025B01DBB28B54CDE7A368591C7E
:1023600006D003F5E0734FF0A042002142F823109D
:10237000E3685A1C0DD04FF0A041012202FA03F38A
:10238000C1F80835E36803F5E073032241F8232020
:10239000E3682A68A168C2F80835C2F8101580E71A
:1023A00010070020492000008000020000E100E04A
:1023B00014ED00E0F8B503680679324C0022C3F84A
:1023C00000252C2303FB06435B68C3B103682E4A38
:1023D000C3F80823036843F30732002A4FEA133196
:1023E0000EDB5209294D2032012301F01F0103FAAF
:1023F00001F145F82210BFF34F8FBFF36F8F0368D1
:10240000D3F80CC5D3F81475D3F80815D3F81055C4
:102410004FF0FF32C3F81425C3F80C250368944528
:10242000C3F80825C3F8102506D00CF5E07C4FF062
:10243000A043022243F82C207B1C06D007F5E0774E
:102440004FF0A043022243F827206A1C06D005F56E
:10245000E0754FF0A043022243F825204B1C06D024
:102460004FF0A04301F5E071022243F821200068FB
:10247000FFF7DEFD2C2303FB0644002384F82A30FB
:102480006360F8BD100700208402020000E100E054
:102490002DE9F041334C90F804E02C2303FB0E436C
:1024A0008446586984B000284ED15A6199601862F8
:1024B00083F82800DCF80020C2F81C01D2F81C21A7
:1024C0000292029ADCF8002001219160DCF80020E1
:1024D0009D68C2F81C01D2F81C1101910199196A7A
:1024E0006E5C196A01311962C2F81C655A6812B132
:1024F00004B0BDE8F0815E691A6ADCF8001096420B
:102500001BD9074602E093F828200ABBD1F81C210A
:10251000002AF8D0C1F81C71D1F81C210392039A4B
:102520001A6A15F802801A6A01321A62C1F81C850B
:102530001A6A9642EAD8DCF80010D1F81C31002B58
:10254000FBD00123CB6004E0112004B0BDE8F08192
:102550000F202C2303FB0E440023636104B0BDE86D
:10256000F08100BF1007002010B55B4BD3F8242189
:102570008AB0002A58D00022C3F82421D3F82411AD
:10258000049102228DF818200499544AD3F880143B
:10259000C3F880149FED4E7B0991D3F83C45D06879
:1025A00082ED067BCDE90704D2E9001306A898471F
:1025B000494BD3F8442152B10021484AC3F8441191
:1025C000D3F84401916903900398002961D1424BEB
:1025D000D3F8202162B10020C3F82001D3F82021D4
:1025E000029201213D4A029CD9605169002943D1E0
:1025F000394BD3F85821AAB10020C3F85801D3F8B9
:102600005811364A01910199516959B1D3F84C4595
:102610008DF81800D2E901315061CDE9071406A800
:10262000116898470AB010BDD3F810110029BFD027
:10263000C3F81021D3F81011284C05910599A16910
:10264000D3F83C058842B3D1E169002933D0C4E90D
:102650000612D3F8002222F02002C3F80022E2681A
:102660000792012122698DF818100890636821688B
:10267000E26006A898479BE7D3F84C458DF8180010
:10268000D2E901315061CDE9071406A811689847D5
:10269000AEE79FED0F7BD3F83C45D0684FF0010CBF
:1026A000CDE9070482ED067BD2E900138DF818C04E
:1026B00006A898478BE7E268A1610123CDE90720CE
:1026C0008DF8183006A8D4E90013984770E700BFCA
:1026D0000000000000000000002000404007002033
:1026E0002DE9F04307796D4E07EBC70306EB830333
:1026F00087B093F82030002B40F0A38004460D46AD
:10270000006867499046FFF775FC002840F0958007
:102710002B68591C4FEAC7090CD04FF0A041012289
:1027200002FA03F3C1F808352B6803F5E0730322BE
:1027300041F823206B685A1C06D003F5E0734FF074
:10274000A042002142F823102368AA69C3F8242577
:102750002B7D6A7D1A432368C3F86C25D5E90031C7
:102760002268C2F80C35C2F814152B7D012B73D0EA
:1027700009EB070206EB8203C3F804802B6946F8D5
:102780002230B8F1000F47D021682B7F0022C1F81A
:102790001021D1F81011019101992168C1F820216F
:1027A000D1F82011029102992168C1F82421D1F8B1
:1027B0002411039103992168C1F84421D1F84411EF
:1027C000049104992168C1F85821D1F85821059243
:1027D000059A22683349C2F80413226842F307318C
:1027E00000294FEA123230DB01F160415B0101F553
:1027F0006141DBB281F80033226842F30733002BDA
:102800004FEA123109DB284D5B09012201F01F015B
:1028100002FA01F145F8231022684F4406EB8706BF
:102820000121002386F820100821C2F80015C6E90E
:102830000633736107B0BDE8F083112007B0BDE82F
:10284000F083082007B0BDE8F083184902F00F02BA
:102850005B01DBB28B54CFE7AB68591C06D003F5A4
:10286000E0734FF0A042002142F82310EB685A1C9D
:102870000DD04FF0A041012202FA03F3C1F8083550
:10288000EB6803F5E073032241F82320EB6822682C
:10289000A968C2F80835C2F8101569E7400700209A
:1028A000692500001003420000E100E014ED00E0A3
:1028B0002DE9F04105794B4C05EBC50304EB83038F
:1028C00001465B68006882B0EE00C3B1464BC0F8B9
:1028D00008330B6843F30732002A4FEA13330EDB49
:1028E0005209DFF808C12032012703F01F0307FA5D
:1028F00003F34CF82230BFF34F8FBFF36F8F731980
:1029000004EB83039A69D0F8003223F02003C0F867
:10291000003242B10023C0F84431D0F84431009372
:10292000009B012343600023C0F85831D0F8583190
:102930000193019B7319012204EB8303C2609A691E
:10294000D0F85831002BFBD01AB1D0F84431002B0D
:10295000F6D00023C0F800350B684FF0FF32D3F8F3
:102960000C85D3F814E5D3F80875D3F810C5C3F86F
:102970000C25C3F814250B689045C3F80825C3F847
:10298000102506D008F5E0784FF0A043022243F866
:102990002820BEF1FF3F06D00EF5E07E4FF0A043A9
:1029A000022243F82E20BCF1FF3F06D00CF5E07C5C
:1029B0004FF0A043022243F82C207B1C06D007F5E1
:1029C000E0774FF0A043022243F82720FFF730FBC7
:1029D000354404EB8504002384F82030636002B0A2
:1029E000BDE8F081400700201003420000E100E054
:1029F00001F0604CBCF1005F30D170B590F804E09C
:102A0000264C0EEBCE0C04EB8C0C0346DCF81400C9
:102A100082B04FEACE0500283BD1CCF81420CCF888
:102A200008101A68C2F82001D2F820210192019AF8
:102A30001A68C2F85801D2F858210092009A1A6810
:102A4000DCF81460C2F84415C2F848651A68012120
:102A50009160DCF804201AB102B070BD10207047FC
:102A60001A6800E0C0B9D2F82011D2F85801002944
:102A7000F8D088B90121D1601B68D3F85821002A09
:102A8000FBD005EB0E0304EB830300225A6102B076
:102A900070BD112002B070BD0F20F2E7400700208A
:102AA00008B50020FDF746FCC82001F0DDFCF8E782
:102AB000104E114B114D124CF61AF60880B5360423
:102AC000104F46F0030628684FF0FF3100F0C4FFB6
:102AD000226839463046FEF711FC2368C8200133CE
:102AE000236001F0C1FC002328681A46194600F053
:102AF00085FCE8E7F8580000D05800006C0700207B
:102B0000640700204457000008B5FFF7D1FF00BF5D
:102B100010B582B0FEF702FF002841D10120FDF779
:102B20001BFC4FF480410020FEF716FA00283AD132
:102B3000FEF7C2FD1D4B1E481E49C01AC008000406
:102B400040F00300FEF782FB012000F0FFFD1A4A6F
:102B50001A490224CDE900410023106018491948A0
:102B60004FF4827201F066F917481849CDE9004028
:102B700000234FF48272164801F05CF9154B164998
:102B80001648CDE900434FF48272002301F052F958
:102B9000134A136943F00403136101F03DFAFEE7A1
:102BA000FDF708FCBAE7FDF705FCC1E7D0580000C7
:102BB000F8580000585700006C07002070070020EC
:102BC0007C570000B12A00007407002084570000E1
:102BD000092B0000680700208C570000A12A000084
:102BE00000ED00E010B44FF08053D3F830315A1CA0
:102BF00004BF4FF0704393F8E03F062B08D14FF02D
:102C00008053C24AD3F82433C3F30423C2F84035B7
:102C10004FF0704393F8E02F062A00F024814FF024
:102C20008053D3F830315C1C04BF4FF0704393F8ED
:102C3000E03F062B09D14FF080534FF08042D3F88C
:102C40004432C3F34233C2F83C354FF0704393F83B
:102C5000E02F062A00F0F2804FF08053D3F8303195
:102C6000581C04BF4FF0704393F8E03F062B08D187
:102C70004FF080430022C3F80C21C3F81021C3F8A1
:102C800038254FF0704393F8E02F062A00F0B38008
:102C90004FF08052D2F83031591C27D0062BD2F891
:102CA00034212DD09A4AD2F8883043F47003C2F808
:102CB0008830BFF34F8FBFF36F8F4FF08053D3F83F
:102CC0003021062A00F0E0804FF01023D3F80022D4
:102CD000002AC0F23B81D3F80432002BC0F23681C7
:102CE0008C4B8D4A1A605DF8044B70474FF0704270
:102CF00092F8E01FD2F8E82F0629D3D1C2F30312CD
:102D0000033A042A40F2DA804FF08053834AD3F822
:102D10000414C2F82015D3F80814C2F82415D3F807
:102D20000C14C2F82815D3F81014C2F82C15D3F8D7
:102D30001414C2F83015D3F81814C2F83415D3F8A7
:102D40001C14C2F84015D3F82014C2F84415D3F867
:102D50002414C2F84815D3F82814C2F84C15D3F837
:102D60002C14C2F85015D3F83014C2F85415D3F807
:102D70003414C2F86015D3F83814C2F86415D3F8C7
:102D80003C14C2F86815D3F84014C2F86C15D3F897
:102D90004414D3F83031C2F870155C1C04BF4FF0F6
:102DA000704393F8E03F062B7FF47CAF4FF08052E6
:102DB0004FF08041D2F85832D2F8302103F04F035F
:102DC000501CC1F8E43E7FD0062A7FF46BAFD1F8E7
:102DD0000034DA0700F184804FF08053D3F83431A7
:102DE000033B042B64D94E4AD2F83C3743F480634A
:102DF000C2F83C3756E7D3F8E83FC3F30313033B6D
:102E0000042B3FF645AF474AD25C22B14FF08042D7
:102E10000321C2F8A015444AD35C002B3FF438AF1D
:102E2000424B0524012000213F22C3F81046C3F87D
:102E30008806C3F81816C3F8142629E7D3F8E83F24
:102E4000C3F30313033B042B3FF606AF384AD35CAE
:102E5000002B3FF401AF2E4AD2F8FC3023F08073F0
:102E6000C2F8FC30F8E6D3F8E83FC3F30313033BA2
:102E7000042B3FF6D4AE2F4AD35C002B3FF4CFAEE9
:102E80002D4B2E4A5A67CAE6D3F83431033B042B44
:102E900008D94FF010224FF08043D2F80822C3F82F
:102EA000582511E7264AD35C002B3FF40DAFF0E71D
:102EB000244AD35C002B3FF4F5AE94E722498A5CA8
:102EC000002A3FF46AAF1FE74FF0704393F8E03FEA
:102ED000062B7FF4E7AED1F80034DB077FF5E2AED6
:102EE0004FF080534FF08042D3F830316FF0010142
:102EF000062BC2F800147FF4D5AE4FF08053D3F800
:102F00003431033B042B3FF66EAFD1E70030014074
:102F100000ED00E01C0000200090D00300C0004045
:102F200000100040AC570000AC57000000500040BB
:102F3000AC570000AC57000000C007400DF0ADBA20
:102F4000A45700009C57000094570000184A012322
:102F5000C2F80435D2F80034002BFBD04FF0102318
:102F60001521134AC3F80012D2F80034002BFBD00D
:102F70004FF0102315210E4AC3F80412D2F8003482
:102F8000002BFBD000230A49C2F80435D1F80034E5
:102F9000002BFBD0BFF34F8F0649074BCA6802F4E2
:102FA000E0621343CB60BFF34F8F00BFFDE700BF6C
:102FB00000E0014000ED00E00400FA0538B54307E9
:102FC00004461CBF20F00704083401F007F90E4A3C
:102FD00013689BB10D4A156841F6F7712C448C4279
:102FE00007D8A54205D21D44146001F0A7F9284670
:102FF00038BD002501F0A2F9284638BD044B23F066
:1030000007031360E6E700BF780700207C27002055
:1030100084070020704700BF00F108034FF0FF3124
:103020000022C0E90131C0E903330260704700BFEC
:1030300000230361704700BF43684B609A688A6051
:10304000516099600861036801330360704700BFF5
:1030500030B40D686B1C10D000F108031C465B688F
:103060001A68AA42FAD94B6099608C606160086165
:103070000368013330BC0360704704696368F2E79A
:10308000D0E9011203698A60416851605A6882423E
:1030900004BF82685A60002202611A68013A1A600D
:1030A000186870470548006880F3088862B661B602
:1030B000BFF34F8FBFF36F8F00DF00BF0000000032
:1030C000064B19680868B0E8F04F80F30988BFF331
:1030D0006F8F4FF0000080F3118870479827002011
:1030E000EFF30980BFF36F8F144B1A681EF0100FB7
:1030F00008BF20ED108A20E9F04F10604DF8043D24
:103100004FF0400080F31188BFF34F8FBFF36F8FF4
:1031100001F078FA4FF0000080F3118808BC1968BC
:103120000868B0E8F04F1EF0100F08BFB0EC108A2E
:1031300080F30988BFF36F8F704700BF9827002086
:10314000402383F31188FEE710B44FF08073064CE0
:1031500040F8043C6FF0020340E9034140E90932C2
:1031600044385DF8044B7047413100000F4C08B5FE
:10317000E02384F8223000F075F80D4B00221A602D
:10318000D4F888300B4A43F47003C4F88830536B8A
:1031900043F040435363236943F010032361FFF777
:1031A00081FF402383F31188FEE700BF00ED00E0BC
:1031B0008027002000EF00E0402383F31188024ABB
:1031C000136801331360704780270020034A136897
:1031D000013B13600BB983F31188704780270020EF
:1031E00070B51E4B0022C3F8402182B0D3F84011C5
:1031F00001910199EFF31186402181F31188D3F8F1
:103200000445C3F80021D3F800310093009B00F07F
:10321000EDFF201A20F07F4323F0010320F07F45CB
:103220009BB96C1E6DB1002500F0EEFF23460543EF
:10323000013C002BF8D125B1094B4FF080525A6068
:1032400040BF86F3118802B070BD01F05FFB022819
:10325000E7D000F0D9FF0546EDE700BF00100140C0
:1032600000ED00E010B50020FEF77AFB094B0A499B
:1032700001221F24C3F808450220C3F804239A60E2
:103280001A60E022C3F8440381F811234FF400339D
:103290000B6010BD0010014000E100E070B5054674
:1032A00084B072B6354CD4F8046501F013FB0028E5
:1032B00046D03348A84228BF2846331823F07F431E
:1032C0000122C4F80823C4F840350023C4F8403173
:1032D000D4F840310193019B4FF480338446C4F805
:1032E0000433BFF34F8F75B3264B20BFD3F80011C3
:1032F000D3F804210A43F8D0204A4FF48031C2F8B1
:1033000008130021C2F84011D2F84001039003983D
:10331000C2F80011D2F80011029101210298C2F8FE
:103320000413D2F80425921B22F07F4060454FF42D
:10333000003228BF6046C3F8802108B100F05CFF6E
:1033400062B604B070BDC4F80833C4F84051D4F874
:1033500040310393039BC4F80051D4F80031029329
:10336000084B0299C4F804234FF40031D4F8042523
:10337000C3F8801162B604B070BD00BF00100140F8
:10338000FDFFFF0000E100E070B506460D4651B1BB
:1033900000FB01F04830FFF711FE044658B300F17E
:1033A0004803036005E04820FFF708FE044610B319
:1033B0002460C4E90F65FFF7FFFED4E90F232168FD
:1033C00003FB02F2D31A0A440B4462600020FF227E
:1033D000A063C4E9021384F8442004F1100084F8C7
:1033E0004520FFF719FE04F12400FFF715FEFFF753
:1033F000EDFE204670BD0024204670BD2DE9F0474B
:10340000044684B01F460192884600F12406FFF767
:10341000D3FEA26BE36BDFF830939A424FF0000AC1
:103420007AD3022F00F0E480019D002D00F00D8181
:1034300002ADBAF1000F00F0D780FFF7C7FE00F031
:10344000CDFEFFF7B9FE94F84430FF2B04BF0023F4
:1034500084F8443094F84530FF2B04BF002384F8EF
:103460004530FFF7B3FE01A9284601F0F9F900281D
:1034700040F0F180FFF7A0FEA26BE36B9A425FD0B1
:10348000FFF7A4FEFFF798FE94F8452055B2002DF3
:1034900004DC11E06A1ED3B255B26BB1636A3046E8
:1034A00053B101F07FF90028F4D001F00DFA6A1E43
:1034B000D3B255B2002BF1D1FF2384F84530FFF78A
:1034C00085FEFFF779FE94F8442055B2002D14DDF7
:1034D00004F1100A03E06A1ED3B255B26BB123693E
:1034E000504653B101F05EF90028F4D001F0ECF938
:1034F0006A1ED3B255B2002BF1D1FF2384F84430B9
:10350000FFF764FE00F01AFFFFF756FEA26BE36BB5
:103510009A424FF0010A84D2226CA56B002A40F037
:10352000E2802668002E00F0F4800135A563636A0E
:10353000002B79D1FFF74AFE012004B0BDE8F087E7
:1035400004F1100AFFF742FE0199504601F090F88D
:10355000FFF732FE94F845305DB2002D04DC11E037
:103560006B1EDAB25DB26AB1636A304653B101F0E4
:1035700019F90028F4D001F0A7F96B1EDAB25DB298
:10358000002AF1D1FF2384F84530FFF71FFEFFF733
:1035900013FE94F844305DB2002D04DC11E06B1E84
:1035A000DAB25DB26AB12369504653B101F0FAF85C
:1035B0000028F4D001F088F96B1EDAB25DB2002A5F
:1035C000F1D1FF2384F84430FFF700FE00F0B6FE8F
:1035D000002899D14FF08053C9F8043040BFBFF3A1
:1035E0004F8FBFF36F8F8FE7284601F02DF924E747
:1035F000226CA56B002A94D04146E06801F090FC53
:10360000226CE36851429B1A2268E360934204D221
:1036100063680B44E360022F87D1002D86D101231C
:10362000A363636A002B85D004F1240001F0BAF88B
:1036300000283FF47FAF444B4FF080525A6040BFA8
:10364000BFF34F8FBFF36F8F74E7FFF7BFFD2846BF
:1036500004B0BDE8F087FFF7AFFD94F845305DB2E8
:10366000002D14DD04F1240603E06B1EDAB25DB216
:103670006AB1636A304653B101F094F80028F4D07F
:1036800001F022F96B1EDAB25DB2002AF1D1FF23FC
:1036900084F84530FFF79AFDFFF78EFD94F844302B
:1036A0005DB2002D14DD04F1100603E06B1EDAB2EA
:1036B0005DB26AB12369304653B101F073F8002856
:1036C000F4D001F001F96B1EDAB25DB2002AF1D13B
:1036D000FF2384F84430FFF779FD00F02FFE00202F
:1036E00004B0BDE8F08707BB4146A06801F018FCB4
:1036F000A368216C62680B449342A360FFF415AF8A
:103700000135A563636A2268A260002B3FF412AF03
:103710008AE76068013501F061F9A563636A666054
:10372000002B81D1002886D104E74146E06801F0F2
:10373000F7FB226CE36851429B1A2268E3609342D4
:10374000BFF469AF64E700BF00ED00E038B5482082
:10375000FFF734FC044650B3002501232060C0E984
:103760000F35FFF729FDD4E90F232168A16003FB82
:1037700002F2D31A0A440B446260FF22E360A5639D
:1037800004F1100084F8442084F84520FFF744FC3D
:1037900004F12400FFF740FCFFF718FDC4E90055D1
:1037A000E5602B462A4629462046FFF727FE20469D
:1037B00038BD00BF2DE9F043044685B00F460192A5
:1037C000FFF7FAFCA56B002D40F01D81019B002B3B
:1037D00000F0CE8002A801F037F8DFF8788204F11B
:1037E0002406FFF7F3FC00F0F9FCFFF7E5FC94F882
:1037F0004430FF2B04BF002384F8443094F8453054
:10380000FF2B04BF002384F84530FFF7DFFC01A93C
:1038100002A801F025F8002859D1FFF7CDFCA36BD1
:10382000002B40F0AB80FFF7D1FC0199304600F04F
:103830001FFFFFF7C1FC94F845305DB2002D04DC9A
:1038400011E06B1EDAB25DB26AB1636A304653B101
:1038500000F0A8FF0028F4D001F036F86B1EDAB2B1
:103860005DB2002AF1D1FF2384F84530FFF7AEFCAA
:10387000FFF7A2FC94F844305DB2002D14DD04F192
:10388000100903E06B1EDAB25DB26AB123694846E3
:1038900053B100F087FF0028F4D001F015F86B1E3B
:1038A000DAB25DB2002AF1D1FF2384F84430FFF789
:1038B0008DFC00F043FD002851D14FF08053C8F833
:1038C000043040BFBFF34F8FBFF36F8F47E0FFF768
:1038D00073FC94F845305DB2002D04DC11E06B1EE2
:1038E000DAB25DB26AB1636A304653B100F05AFF92
:1038F0000028F4D000F0E8FF6B1EDAB25DB2002AB7
:10390000F1D1FF2384F84530FFF760FCFFF754FC4A
:1039100094F844305DB2002D14DD04F1100903E089
:103920006B1EDAB25DB26AB12369484653B100F04A
:1039300039FF0028F4D000F0C7FF6B1EDAB25DB289
:10394000002AF1D1FF2384F84430FFF73FFC00F058
:10395000F5FCFFF731FCA36B53B1FFF737FCFFF722
:103960002BFCA56B002D4ED1019B002B7FF439AFB2
:10397000FFF72CFC002005B0BDE8F083FFF726FC24
:10398000FFF71AFC94F845305DB2002D04DC11E01D
:103990006B1EDAB25DB26AB1636A304653B100F0B1
:1039A00001FF0028F4D000F08FFF6B1EDAB25DB289
:1039B000002AF1D1FF2384F84530FFF707FCFFF719
:1039C000FBFB94F844305DB2002D14DD04F11009C6
:1039D00003E06B1EDAB25DB26AB12369484653B1A7
:1039E00000F0E0FE0028F4D000F06EFF6B1EDAB2AB
:1039F0005DB2002AF1D1FF2384F84430FFF7E6FBE3
:103A000000F09CFCABE7226C52B1E16863681144A2
:103A10009942E16024BF2168E160384601F080FAF4
:103A2000013DA56323692BB9FFF7D0FB012005B049
:103A3000BDE8F08304F1100000F0B4FE0028F3D0DC
:103A4000044B4FF080525A6040BFBFF34F8FBFF31B
:103A50006F8FE9E700ED00E02DE9F043044685B003
:103A600000F124060191FFF7A7FBA36BDFF8D882D2
:103A70000027B946002B40F0D380019D002D00F0B7
:103A8000378102ADB9F1000F00F0DA80FFF79EFB3D
:103A900000F0A4FBFFF790FB94F84430FF2B04BF29
:103AA000002384F8443094F84530FF2B04BF0023F2
:103AB00084F84530FFF78AFB01A9284600F0D0FEC4
:103AC00000285DD1FFF778FBA36B002B40F0C4808A
:103AD000FFF77CFB2368002B00F019810199304629
:103AE00000F0C6FDFFF768FB94F845305DB2002D8D
:103AF00004DC11E06B1EDAB25DB26AB1636A304673
:103B000053B100F04FFE0028F4D000F0DDFE6B1E34
:103B1000DAB25DB2002AF1D1FF2384F84530FFF715
:103B200055FBFFF749FB94F844305DB2002D14DDDE
:103B300004F1100903E06B1EDAB25DB26AB12369C9
:103B4000484653B100F02EFE0028F4D000F0BCFE31
:103B50006B1EDAB25DB2002AF1D1FF2384F8443043
:103B6000FFF734FB00F0EAFB002851D14FF08053FF
:103B7000C8F8043040BFBFF34F8FBFF36F8F47E0EB
:103B8000FFF71AFB94F845305DB2002D04DC11E01C
:103B90006B1EDAB25DB26AB1636A304653B100F0AF
:103BA00001FE0028F4D000F08FFE6B1EDAB25DB289
:103BB000002AF1D1FF2384F84530FFF707FBFFF718
:103BC000FBFA94F844305DB2002D14DD04F11009C5
:103BD00003E06B1EDAB25DB26AB12369484653B1A5
:103BE00000F0E0FD0028F4D000F06EFE6B1EDAB2AB
:103BF0005DB2002AF1D1FF2384F84430FFF7E6FAE2
:103C000000F09CFBFFF7D8FAA36BEBB1FFF7DEFAED
:103C1000FFF7D2FAA36B4FF00109002B3FF42DAF51
:103C20002268013BA363002A00F08A802369002BED
:103C300076D1FFF7CBFA0127384605B0BDE8F0830F
:103C4000284600F001FE21E7FFF7C0FA002F48D117
:103C5000384605B0BDE8F083FFF7B8FAFFF7ACFAD5
:103C600094F845305DB2002D04DC11E06B1EDAB231
:103C70005DB26AB1636A304653B100F093FD00282B
:103C8000F4D000F021FE6B1EDAB25DB2002AF1D151
:103C9000FF2384F84530FFF799FAFFF78DFA94F87F
:103CA00044305DB2002D14DD04F1100903E06B1EF9
:103CB000DAB25DB26AB12369484653B100F072FDD1
:103CC0000028F4D000F000FE6B1EDAB25DB2002ACC
:103CD000F1D1FF2384F84430FFF778FA00F02EFB8F
:103CE00096E7FFF769FA616A49B9606800F0B8FEC3
:103CF000FFF76CFA0027384605B0BDE8F083236B68
:103D000060681968C1F1030100F0AAFEF0E7FFF74F
:103D100053FA606800F00AFE0746FFF757FADDE63F
:103D200004F1100000F03EFD002882D0064B4FF059
:103D300080525A6040BFBFF34F8FBFF36F8F78E759
:103D400000F0E0FE606071E700ED00E0064B1A68ED
:103D50001AB19A6802B17047012203EBC20C43F812
:103D60003210CCF80400F6E78827002070B505462D
:103D70000E461446FFF720FA95F84430FF2B04BF97
:103D8000002385F8443095F84530FF2B04BF00230D
:103D900085F84530FFF71AFAAB6B002B43D0FFF7DD
:103DA0000BFA95F845305CB2002C14DD05F12406C1
:103DB00003E0631EDAB25CB26AB16B6A304653B19B
:103DC00000F0F0FC0028F4D000F07EFD631EDAB2B3
:103DD0005CB2002AF1D1FF2385F84530FFF7F6F9F0
:103DE000FFF7EAF995F844305CB2002C14DD05F1D8
:103DF000100603E0631EDAB25CB26AB12B6930468A
:103E000053B100F0CFFC0028F4D000F05DFD631E3C
:103E1000DAB25CB2002AF1D1FF2385F84430BDE864
:103E20007040FFF7D3B92246314605F1240000F077
:103E300067FCB4E72DE9F84F9600804630460D4602
:103E40009946FFF7BBF8002800F085800746482018
:103E5000FFF7B4F80446002800F088800763324674
:103E60003846A52101F0F6F82B7884F834302B7809
:103E7000D4F830B063B16B7884F835306B783BB1EF
:103E8000AB7884F83630AB7813B1EB7884F8373000
:103E90000A9D022D28BF02254FF0000A271DE5626A
:103EA000A563384684F837A0C4F83CA0043EFFF769
:103EB000BFF85E4404F11800C5F10305FFF7B8F838
:103EC000C4F840A0A56184F844A0246164624A4615
:103ED000414626F00700FFF737F90B9B206003B13E
:103EE0001C60FFF769F93C4A3C4E136801331360CC
:103EF0003368002B43D0DFF81881D8F8003073B353
:103F0000E36A374802683946364F0132D7F800C0B5
:103F100002600125344805FA03F203EB830342EA09
:103F20000C0200EB83003A60FFF786F8FFF74EF9CA
:103F3000D8F8003003B33268E36AD26A9A421BD2DF
:103F40002A4B4FF080525A6040BFBFF34F8FBFF3F0
:103F50006F8F284601E04FF0FF30BDE8F88F3368DF
:103F6000DA6AE36A9A4298BF3460CAE73846FFF7D4
:103F700051F84FF0FF30F0E72846BDE8F88F346085
:103F80001368012B03D0E36ADFF88480B9E7164891
:103F9000DFF88090164DDFF87880FFF73DF8154880
:103FA000FFF73AF81448FFF737F84846FFF734F8B8
:103FB0002846FFF731F81148FFF72EF81048FFF7B1
:103FC0002BF81048FFF728F80F4BC3F800900F4B61
:103FD0001D60E36A95E700BFE027002098270020D6
:103FE000F0270020F4270020A427002000ED00E0A7
:103FF0000C280020B8270020CC2700202C280020E7
:1040000058280020442800209C270020A0270020BA
:1040100040280020F82700202DE9F843F020FEF783
:10402000CDFF002875D005464820FEF7C7FF04469F
:10403000002870D0F022A5210563284601F00AF877
:104040000025514B6363271DC4E90E55266BE562BD
:104050003846FEF7EDFF04F11800FEF7E9FF0323F1
:1040600006F1EC002A4625644849A36184F84450CF
:104070002461646220F00700FFF766F8444B20607B
:104080001C60FFF799F8434A434D136801331360EE
:104090002B68002B4BD0414E3368002B40D0E36A95
:1040A0003F48026839463F4F0132D7F800C00260EE
:1040B0003D4801229A4003EB830342EA0C0200EBE5
:1040C00083003A60FEF7B8FFFFF780F833686BB102
:1040D0002A68E36AD26A9A4208D2344B4FF080527F
:1040E0005A6040BFBFF34F8FBFF36F8F00F072FE77
:1040F00001280ED1402383F311882D4A2D4B4FF018
:10410000FF311160002230601A60BDE8F843FFF70C
:104110002DB8BDE8F8832846BDE8F843FEF77ABF1E
:104120002B68DA6AE36A9A4298BF2C60B8E72C6081
:104130001368012B02D0E36A184EB1E71A48DFF882
:104140009490DFF89480154EFEF766FF1A48FEF74C
:1041500063FF1A48FEF760FF4846FEF75DFF4046E2
:10416000FEF75AFF1648FEF757FF1648FEF754FFB2
:104170001548FEF751FF154BC3F80090144BC3F8D8
:104180000080E36A8CE700BF49444C00054500000D
:1041900020280020E0270020982700204028002029
:1041A000F0270020F4270020A427002000ED00E0E5
:1041B000242800206C280020B8270020CC270020CD
:1041C0002C28002058280020442800209C2700206C
:1041D000A0270020F82700200C280020024A13689E
:1041E00001331360704700BFEC270020014B1868B3
:1041F000704700BF6C280020024A13681844106002
:10420000704700BF6C2800202DE9F04F404B1B6821
:1042100083B0002B47D13F4B1E6801361E60002E35
:104220004FD0DFF808B1DBF80030B34260D83A4F26
:104230003B681D68002D66D0DFF8F480DFF8F4A03D
:10424000DFF8F490002523E00191FEF719FFA36A3F
:10425000019904F1180013B1FEF712FF0199E06A09
:10426000D8F800200123834000EB800013430AEBC1
:104270008000C8F80030FEF7DFFED9F800203B6868
:10428000E16AD26A1B68914228BF0125002B3AD00F
:104290003B68DB68DC686368211D9E420846D3D218
:1042A000CBF8003004E01D4A136801330025136089
:1042B0001B4B1B68002B0CBF2846012003B0BDE838
:1042C000F08F154B174A186811681960164910606D
:1042D0000A6801320A601A6812685AB9DFF84CB0ED
:1042E0004FF0FF33CBF80030DBF80030B3429ED9FB
:1042F0000025DDE71B68DFF834B0DB68DB685B684E
:10430000CBF800308FE74FF0FF33CBF80030CFE72A
:10431000EC2700206C2800209C270020E8270020A4
:1043200070280020A0270020282800202428002012
:10433000F4270020A4270020982700202DE9F04F23
:1043400083B0FEF739FF3D4B1A68013A1A601B68CB
:10435000002B59D13A4B1B68002B55D0DFF8FCA03D
:10436000DAF80030002B65D0364DDFF8F480364F98
:10437000DFF8F0900126DAF80C30DC6804F1040B69
:1043800004F11800FEF77CFE5846FEF779FEE06A5D
:104390002A6806FA00F300EB80001343594608EB45
:1043A00080002B60FEF748FE3B68E26ADB6A9A42B7
:1043B00032D3C9F80060DAF80030002BDBD1234B90
:1043C0001A681268002A30D01A68214BD268D26865
:1043D00052681A601F4E346844B10125FFF714FF7C
:1043E00008B1C9F80050013CF8D13460D9F8003068
:1043F00053B1194B4FF080525A6040BFBFF34F8FFB
:10440000BFF36F8F012000E000200190FEF7DEFE79
:10441000019803B0BDE8F08FDAF80030002BAAD184
:104420000A4B1A681268002ACED1094B4FF0FF32AE
:104430001A60CFE7DFF82C90CCE700BFEC27002014
:10444000E0270020F4270020982700209C27002048
:1044500024280020E827002000ED00E02C28002080
:10446000A42700207028002070B548B91D4B4FF0DC
:1044700080525A6040BFBFF34F8FBFF36F8F70BD44
:10448000194A1A4913681A4D013313600E6804461D
:1044900028680430FEF7F4FD40B92B681549D86A46
:1044A0000B680122824023EA02030B602B68A419E7
:1044B0005C600FD2104B186829680431FEF7C8FD04
:1044C0000E4B1A68944238BF1C60FFF737FF002874
:1044D000CCD070BD0A4B186829680431FEF7B8FDCE
:1044E000F3E700BF00ED00E0EC2700206C2800207F
:1044F00098270020F42700209C2700202428002053
:10450000A02700202DE9F84F344C354E354DDFF80B
:10451000E880DFF8E890DFF8E8B04FF0805A14E068
:10452000FEF74AFEF368DF68381DFEF7A9FD2B6829
:10453000013B2B602368013B2360FEF747FE386B8D
:10454000FEF768FD3846FEF765FD2368002BE7D1CE
:10455000254B1B68012B06D9CBF804A040BFBFF345
:104560004F8FBFF36F8FD8F80030012BD9F8003090
:10457000DB6A04D9002BE8D11B4B1B68E5E7002B55
:10458000E3D1194B1B68012BDFD8184B184A1B6865
:1045900012689B1A012BD8D9164A1368013313608D
:1045A000D8F80030012BD9F80030DB6A05D90BB9F7
:1045B0000D4B1B68FFF7C2FEC7E7002BFAD10A4B71
:1045C0001B68012BF6D8094B1868094B1B68C01AE9
:1045D0000128EFD9FEF762FEECE700BFE4270020D8
:1045E00058280020E0270020A427002024280020AD
:1045F0006C280020EC270020F427002098270020BA
:1046000000ED00E0154B1B681BB1154B01221A6031
:1046100070471349134A0B601368C3B1B3FA83F3AD
:10462000C3F11F0303EB830189009A0008310E4890
:10463000134400EB830301445A6852685A608A426B
:1046400004BF52685A60094BD2681A6070474FF035
:10465000FF336FF00B016FF00302E8E7EC27002057
:1046600070280020F4270020A4270020982700208D
:1046700070B51C4D2B680C4603F11801FEF7E8FCE1
:10468000194B1E6828680430FEF7FAFC40B92B6805
:104690001649D86A0B680122824023EA02030B60A4
:1046A000631C17D02B68A4195C6007D3104B1868E3
:1046B0002968BDE870400431FEF7CABC0D4B18688C
:1046C00029680431FEF7C4FC0B4B1A68944238BFCA
:1046D0001C6070BD29680948BDE870400431FEF7D0
:1046E000ABBC00BF982700206C280020F4270020D6
:1046F000A02700209C2700202428002044280020F8
:10470000F8B5214D2B680C4603F118011646FEF74B
:1047100093FC1E4B1F682868043036BBFEF7B0FCC4
:1047200058B92B681A49DA6A012303FA02F20B68B6
:1047300023EA02030B60631C1DD02B683C195C60EC
:104740000BD2144B186829680431FEF781FC124B18
:104750001A68944200D21C60F8BD104B1868296892
:10476000BDE8F8400431FEF773BCFEF789FC20B9C0
:104770004FF0FF34D5E7002EDFD029680848BDE8A8
:10478000F8400431FEF758BC982700206C28002020
:10479000F42700209C27002024280020A0270020A8
:1047A0004428002070B5C368DC6804F1180582B0A5
:1047B0002846FEF765FC1C4B1B6843BB211D1B4DA7
:1047C00001910846FEF75CFCE36A2E6818480199DF
:1047D00001229A4003EB8303324300EB83002A60FB
:1047E000FEF72AFC134BE26A1B68DB6A9A4282BF1F
:1047F000114B01201860114B1A68126898BF0020F5
:1048000052B90F4B4FF0FF321A6002B070BD0D4825
:104810002946FEF711FCE5E71A68094BD268D26811
:1048200052681A6002B070BDEC270020F427002007
:10483000A427002098270020702800209C27002013
:10484000242800202C280020034A044B12681B68EF
:10485000C0E90023704700BF282800206C280020F2
:10486000F0B50D4683B00446FEF7A6FC2B68144A4B
:10487000591C10681DD0DFF84CC0D4E90061DCF889
:104880000070BE4208D0814206D801200190FEF798
:104890009DFC019803B0F0BD471ABB420BD91B1A0F
:1048A0000B44DCF8001012682B600020C4E90012F1
:1048B000ECE70020EAE700232B600120E6E700BFD9
:1048C0006C28002028280020014B01221A60704724
:1048D00070280020094B186818B9094B1B6813B1E0
:1048E000704700207047074A074B10681B68013B60
:1048F000984214BF01200220704700BF2C280020DE
:104900007028002044280020E0270020054B1B6869
:1049100033B1054B1B68002B0CBF022000207047F1
:104920000120704740280020EC27002070B5044685
:1049300082B0C8B1264DC36A2A68D26A934215D2A2
:104940008269002A04DB2A68D26AC2F1030282610A
:10495000204E626903EB830306EB83039A420ED079
:104960002B68DB6AE362012002B070BD2B68806BAC
:10497000DB6A98422CBF0020012002B070BD211DCF
:1049800008460191FEF77CFB019970B9E06A124A72
:1049900000EB80039B00F35843B9012303FA00F0B6
:1049A000136823EA0003136000E00B4A2B681568C4
:1049B000D86AE062012404FA00F300EB80002B4384
:1049C00006EB80001360FEF737FB2046CCE700BF04
:1049D00098270020A4270020F427002068B1F0B514
:1049E000C36BC16A826B013B914283B00446C363CF
:1049F00000D023B1002003B0F0BD00207047011D9E
:104A000008460191FEF73CFB0199A8B11248134EEC
:104A1000A36B3768E3620125C3F10302A26105FAC3
:104A200003F203EB83033A4300EB83003260FEF7AB
:104A300003FB284603B0F0BDE26A0748074E02EBCD
:104A400082039B00C358002BE2D1012393403268BC
:104A500022EA03023260DBE7A4270020F4270020CB
:104A600070B170B5826BC36A914238BF11468B42F8
:104A700082B0044602D0C26B012A02D002B070BDDF
:104A8000704782691D4DC162002A03EB83034269AE
:104A9000A8BFC1F1030105EB8303A8BF81619A425E
:104AA000ECD1011D08460191FEF7EAFA019980B1A7
:104AB000E06A134E012303FA00F2840033682044B5
:104AC000134305EB8000336002B0BDE87040FEF791
:104AD000B3BAE06A00EB80039B008400EB5823B17B
:104AE0000123074E03FA00F2E8E7054E012303FA1B
:104AF00000F2336823EA02033360DFE7A4270020D3
:104B0000F4270020044B1A681AB11968CA6B0132E5
:104B1000CA631868704700BF982700202DE9F0434A
:104B20001D4EDFF87C9085B04FF000080CE0DB688C
:104B3000DC681F68251D2846FEF7A2FA636A204636
:104B40009847E369012B0AD033681A68002AEED12E
:104B5000124A11683160136005B0BDE8F083A369A3
:104B60003B449F42294610D3D9F80030002BEBD0AC
:104B7000CDE900870294FFF7C9FE0023D9F80000B1
:104B80001A466946FEF73AFCDEE730686360246146
:104B9000FEF75EFAD8E700BF7428002078280020CE
:104BA000A82800202DE9F04F854E864D864CDFF871
:104BB00020928BB03368D3F800A0BAF1000F00F058
:104BC0009A80DB68D3F800A0FFF708FBFFF70EFB25
:104BD0002A688242804600F29F808245286040F227
:104BE000AF8000222068AAEB0801FFF7BFF8FFF7AB
:104BF000A5FB40B94FF08053C9F8043040BFBFF364
:104C00004F8FBFF36F8F2068002202A9FEF7D2FDFD
:104C10000028CFD0029B002B65DB049F7B6913B17A
:104C2000381DFEF72DFAFFF7E1FA2B68984280460F
:104C300079D3029BC5F80080092BE4D801A252F871
:104C400023F000BF6D4C00006D4C00006D4C000067
:104C5000074C0000BD4C0000DF4C00006D4C000014
:104C60006D4C0000074C0000BD4C0000039BBA696E
:104C70003F6199182CBF012000204145796055D82B
:104C8000A8EB03039A4223D87B6A38469847FB690E
:104C90002068012BB8D10028B6D00023BA6906934A
:104CA000039B089713440793FFF730FE0023206807
:104CB0001A4606A9FEF7A2FB2068A5E7039BBB6185
:104CC00003EB080242457A603F6133D8002B9AD04B
:104CD0003E4B391D1868FEF7BBF9206894E738464B
:104CE000FEF798F98FE7039BDDE904019847029BE3
:104CF000002B88DB91E7FFF771FAFFF777FA2A6854
:104D00008242804608D8314BC5F800801A68126884
:104D1000B2FA82F2520965E7FFF700FFC5F800809A
:104D2000FFF70CFB6FE7FFF7F9FE82E7434501D978
:104D30000028A9D03068391DFEF78AF9206863E79A
:104D4000FFF7FCFA3268D268D2F80CB00BF104011C
:104D500008460191FEF794F9DBF81C00019901283F
:104D600004D0DBF82430584698474CE7DBF81800AD
:104D7000CBF810B00AEB00034345CBF8043003D95D
:104D80003068FEF765F9ECE7A8EB0A03984211D802
:104D90002368002BE5D000230693CDF81CA0CDF8A6
:104DA00020B0FFF7B3FD002320681A4606A9FEF7DE
:104DB00025FBD6E7054B1868FEF74AF9D1E700BF97
:104DC00074280020A4280020A8280020782800208B
:104DD00000ED00E0F0B5174C83B0FEF7EDF9256863
:104DE0007DB1FEF7F3F9206848B1134A134914481E
:104DF0000223CDE9003200235022FFF71BF803B055
:104E0000F0BD104F104E3846FEF706F93046FEF75B
:104E100003F90E4B1F600E4B2A46102120201E6006
:104E2000FEF7B2FA20600028DBD00A49FEF78EFFB9
:104E3000D7E700BFA8280020AC280020BC570000FE
:104E4000A54B00007C28002090280020742800201A
:104E500078280020B4570000002301461A4618465F
:104E600000F09CBA08B5074B044613B1002100F0CE
:104E7000EBFA054B1868836A03B19847204600F0A7
:104E800059FB00BF49540000C858000038B5084B12
:104E9000084D5B1B9C1007D0043B1D44013C55F89A
:104EA00004399847002CF9D1BDE8384000F04ABBDE
:104EB0008C0000208800002070B50D4E0D4D761B33
:104EC000B61006D0002455F8043B01349847A6429A
:104ED000F9D1094E094D761B00F02EFBB61006D015
:104EE000002455F8043B01349847A642F9D170BD1F
:104EF000840000208400002088000020840000201E
:104F0000024B0146186800F059B900BF200000208C
:104F1000024B0146186800F0EFB800BF20000020E7
:104F2000844641EA000313F003036DD1403A41D3B4
:104F300051F8043B40F8043B51F8043B40F8043B73
:104F400051F8043B40F8043B51F8043B40F8043B63
:104F500051F8043B40F8043B51F8043B40F8043B53
:104F600051F8043B40F8043B51F8043B40F8043B43
:104F700051F8043B40F8043B51F8043B40F8043B33
:104F800051F8043B40F8043B51F8043B40F8043B23
:104F900051F8043B40F8043B51F8043B40F8043B13
:104FA00051F8043B40F8043B51F8043B40F8043B03
:104FB000403ABDD2303211D351F8043B40F8043BA3
:104FC00051F8043B40F8043B51F8043B40F8043BE3
:104FD00051F8043B40F8043B103AEDD20C3205D3B3
:104FE00051F8043B40F8043B043AF9D2043208D0AB
:104FF000D2071CBF11F8013B00F8013B01D30B881D
:1050000003806046704700BF082A13D38B078DD0FA
:1050100010F003038AD0C3F10403D21ADB071CBFCC
:1050200011F8013B00F8013B80D331F8023B20F836
:10503000023B7BE7043AD9D3013A11F8013B00F86F
:10504000013BF9D20B7803704B7843708B788370F7
:1050500060467047830730B548D0541E002A3FD0C1
:10506000CAB2034601E0013C3AD303F8012B9D0785
:10507000F9D1032C2DD9CDB245EA05250F2C45EAEF
:10508000054536D9A4F1100222F00F0C03F1200ED1
:10509000E6444FEA121C03F1100242E9045542E9CA
:1050A000025510327245F8D10CF1010214F00C0FC8
:1050B00003EB021204F00F0C13D0ACF1040323F045
:1050C00003030433134442F8045B9342FBD10CF016
:1050D00003042CB1CAB21C4403F8012B9C42FBD13F
:1050E00030BD64461346002CF4D1F9E7034614465C
:1050F000BFE71A46A446E0E7002958D030B551F87A
:10510000043C83B0002BA1F10404B8BFE418019063
:1051100000F0FEF9284A0198136833B1A3420DD973
:10512000216804EB010C63452FD06360146003B069
:10513000BDE8304000F0EEB9A34210D81A465B68D3
:10514000002BF9D1116802EB010C644519D02FD363
:105150006360546003B0BDE8304000F0DBB9116813
:1051600002EB010CA44516D022D8216804EB010CF7
:105170006345EDD11D685B682944C4E900135460A0
:10518000D5E7236819441160D1E71D685B6829449D
:10519000C4E90013CAE7246821445418A3421160EB
:1051A000C5D1D3E900432144C2E90013BFE77047EA
:1051B0000C230360BBE700BFB0280020F8B5CD1C6E
:1051C00025F0030508350C2D38BF0C25002D0646AB
:1051D00023DBA94221D8254F00F09AF93A6822B37F
:1051E000144603E063682246FBB11C4623685B1B40
:1051F000F8D40B2B15D8636894420CBF3B60536006
:10520000304600F087F904F10B00231D20F0070061
:10521000C21A01D01B1AA350F8BD0C233360002022
:10522000F8BD23601C442560EAE77968C9B12946C6
:10523000304600F01DF8431C0CD0C41C24F00304BD
:10524000A04205D0211A304600F012F8013001D0FA
:105250002560D5E70C233046336000F05BF9002071
:10526000F8BD304600F004F87860E0E7B028002090
:1052700038B5074D0022044608462A6000F04CF974
:10528000431C00D038BD2B68002BFBD0236038BDF9
:10529000482900200000000000000000000000007D
:1052A00000000000000000000000000000000000FE
:1052B00000000000000000000000000000000000EE
:1052C00090F800F06DE9024520F007016FF0000C46
:1052D00010F0070491F820F040F049804FF00004EE
:1052E0006FF00700D1E9002391F840F000F10800C9
:1052F00082FA4CF2A4FA8CF283FA4CF3A2FA8CF301
:105300004BBBD1E9022382FA4CF200F10800A4FA67
:105310008CF283FA4CF3A2FA8CF3E3B9D1E90423BB
:1053200082FA4CF200F10800A4FA8CF283FA4CF3F2
:10533000A2FA8CF37BB9D1E9062301F1200182FAAC
:105340004CF200F10800A4FA8CF283FA4CF3A2FAB2
:105350008CF3002BC6D0002A04BF04301A4612BAC0
:10536000B2FA82F2FDE8024500EBD2007047D1E9C3
:10537000002304F00305C4F100004FEAC50514F052
:10538000040F91F840F00CFA05F562EA05021CBF23
:1053900063EA050362464FF00004A9E7F0B5264C26
:1053A000256885B0064605B36C681F2C41DCA6B1A4
:1053B000D5F8880048B3D0F8007140F824204FF0A9
:1053C000010C0CFA04FC00EB84024CEA0707022EE5
:1053D000C0F80071C2F8803010D0A31C01346C609A
:1053E00045F82310002005B0F0BD1448144D256089
:1053F0000028D9D00068C5F88800D5E7D0F8043176
:1054000043EA0C03C0F80431E7E70E480191CDE907
:10541000022370B14FF48470FFF772FD48B100278A
:10542000C0E94077DDE902236C680199C5F888007E
:10543000C3E74FF0FF30D6E744290020000000000A
:10544000B8280020014F00002DE9F84FDFF8BCA07C
:10545000DAF800702DED028BE7B108EE100A8946EC
:105460007D68D7F888806C1E14D407EB8506043657
:1054700008EB8505B9F1000F10D0B8F1000F02D08C
:10548000EB6F4B450AD0013C631CA5F10405A6F166
:105490000406EFD1BDEC028BBDE8F88F7B68326863
:1054A000013BA34216BF00237C603360002AEAD090
:1054B000D7F804B0B8F1000F1AD0D8F800010123D2
:1054C00003FA04F1014213D0D8F80401014218D1C3
:1054D00055F8041C18EE100A90477A685A450BD10B
:1054E000DAF80030BB42CED01F46002FB8D1D1E74A
:1054F00090477A685A45F3D0DAF80070002FAFD1A0
:10550000C8E755F8040C9047E7E700BF442900209E
:10551000704700BF704700BF044A05491368002B5D
:1055200008BF0B4618441060184670474C290020ED
:1055300050290020FEE700BFF8B500BFF8BC08BC4A
:105540009E467047F8B500BFF8BC08BC9E46704741
:10555000111213146E72665F6D70755F6C69620074
:10556000737461636B5F6775617264007477695F00
:1055700073656E736F7200006170705F6275747432
:105580006F6E0000466174616C206572726F72000C
:1055900053797374656D2072657365740000000043
:1055A0006170705F74696D65720000003031323374
:1055B0003435363738394142434445467077725F57
:1055C0006D676D7400000000736F72746C697374A2
:1055D000000000004261636B656E647320666C7549
:1055E000736865640000000061707000A005002011
:1055F0007F000000200600201B5B313B33316D0033
:1056000025734C6F67732064726F70706564202817
:1056100025642925730D0A001B5B306D0000000016
:10562000257300003C25733E2025733A20000000BE
:105630000D0A0000202530327800000020202000D4
:105640007C000000256300001B5B313B33306D00A4
:105650001B5B313B33326D001B5B313B33336D00E1
:105660001B5B313B33346D001B5B313B33356D00CD
:105670001B5B313B33366D001B5B313B33376D00B9
:105680006572726F720000007761726E696E6700FA
:10569000696E666F00000000646562756700000057
:1056A0001856000048560000F855000050560000FB
:1056B0005856000060560000685600007056000002
:1056C0007856000000000000805600008856000058
:1056D0009056000098560000756172745F6C6F6799
:1056E0005F6261636B656E6400000000FFFFFFFF97
:1056F000FFFFFFFFFFFFFFFFFFFFFFFF00000000B6
:10570000000000000000D60106010000B5170000EF
:1057100025180000B1170000636C6F636B00000078
:10572000434C4F434B0000004750494F5445000045
:1057300050525300554152540000000055415254FC
:1057400045000000636F756E7465722076616C753C
:10575000653A20256400000054686973206973204D
:1057600061206C6F6720646174612066726F6D20C8
:105770006E7266206465766963652E007461736B72
:10578000303100007461736B303200004C4544309E
:105790000000000000000101010000000000000105
:1057A00001000000000000000100000001000000F6
:1057B00000000000546D725100000000546D722012
:1057C000537663000020202020202020202028283D
:1057D00028282820202020202020202020202020B1
:1057E00020202020208810101010101010101010F1
:1057F0001010101010040404040404040404041021
:1058000010101010101041414141414101010101AE
:105810000101010101010101010101010101010178
:105820001010101010104242424242420202020284
:105830000202020202020202020202020202020248
:1058400010101010200000000000000000000000F8
:105850000000000000000000000000000000000048
:105860000000000000000000000000000000000038
:105870000000000000000000000000000000000028
:105880000000000000000000000000000000000018
:105890000000000000000000000000000000000008
:1058A00000000000000000000000000000000000F8
:1058B00000000000000000000000000000000000E8
:1058C0000000000000000000240000200000000094
:1058D00020570000000000002857000000000000D2
:1058E00030570000000000003457000000000000A6
:1058F0003C57000000000000E855000000000303D2
:105900007855000000000000A055000000000000D5
:10591000185700000000000054550000000000006F
:10592000BC55000000000000C85500000000000049
:1059300060550000000003036C55000000000000EB
:10594000B00000207801002080010020B800002075
:04595000180000003B
:105954000C57000000000000D85600000000002092
:0859640024A9FF7F01000000EF
:10596C0000000000FF0000000000000000200040CC
:10597C000000000000200040000000000090D00358
:10598C0024000020000000000000000000000000C7
:10599C0000000000000000000000000000000000FB
:1059AC0000000000000000000000000000000000EB
:1059BC0000000000000000000000000000000000DB
:1059CC0000000000000000000000000000000000CB
:1059DC0000000000000000000000000000000000BB
:0C59EC0000000000690200004102000001
:04000003000002F9FE
:00000001FF
