:020000022000DC
:1060000000000120F962020021630200CD9002002D
:1060100025630200276302002963020000000000DC
:1060200000000000000000000000000001AC0200C1
:106030002D6302000000000021AC02003163020069
:106040003DD00200336302006DD8020033630200CA
:10605000336302003363020029D402003363020079
:1060600033630200336302003363020033630200D0
:1060700033630200336302003363020033630200C0
:106080003363020025AD0200336302003363020074
:1060900033630200336302009D5E0300336302003A
:1060A0003363020033630200336302003363020090
:1060B00033630200336302000000000000000000B0
:1060C0003363020033630200336302003363020070
:1060D00033630200336302003363020000000000F8
:1060E00000000000000000000000000000000000B0
:1060F00000000000000000000000000000000000A0
:10610000000000000000000000000000000000008F
:10611000000000000000000000000000000000007F
:10612000000000000000000000000000000000006F
:10613000000000000000000000000000000000005F
:10614000000000000000000000000000000000004F
:10615000000000000000000000000000000000003F
:10616000000000000000000000000000000000002F
:10617000000000000000000000000000000000001F
:10618000000000000000000000000000000000000F
:1061900000000000000000000000000000000000FF
:1061A00000000000000000000000000000000000EF
:1061B00000000000000000000000000000000000DF
:1061C00000000000000000000000000000000000CF
:1061D00000000000000000000000000000000000BF
:1061E00000000000000000000000000000000000AF
:1061F000000000000000000000000000000000009F
:106200000348044B834202D0034B03B11847704745
:10621000205A0020205A00200000000005480649AE
:106220000B1AD90F01EBA301491002D0034B03B1A4
:1062300018477047205A0020205A00200000000014
:1062400010B5064C237843B9FFF7DAFF044B13B1BE
:106250000448AFF300800123237010BD385A00209A
:1062600000000000A08E030008B5044B1BB10449D8
:106270000448AFF30080BDE80840CFE7000000000D
:106280003C5A0020A08E0300A3F5803A704700BF5F
:10629000154B002B08BF114B9D46FFF7F5FF002162
:1062A0008B460F461148124A121A10F00BF80C4B8D
:1062B000002B00D098470B4B002B00D098470020B4
:1062C000002104000D000B480FF060FE0FF08EFE61
:1062D0002000290008F040FD0FF05EFE00000800DD
:1062E000000000000000000000000120385A0020DB
:1062F000F47E0020C15F03000649074A074B9B1A42
:1063000003DD043BC858D050FBDC04F007FAFFF76C
:10631000BFFF00002090030068590020385A002079
:10632000FEE7FEE7FEE7FEE7FEE7FEE7FEE7FEE745
:10633000FEE7FEE7F0B595B0084600240E46174686
:106340001D4604F0D1F81A9A0D922346082205A999
:106350003046CDE9095408978DF82C400C9404F090
:1063600027F9DDE906219DF814308DF81140CDE9BB
:10637000021203F00302012A28D0022A04D0304678
:1063800004F0B6F815B0F0BDBDF81650C3F3C20363
:10639000C5F389158DF810300827082D2C4628BF25
:1063A00008243B4622460EA9304604F001F92D1B75
:1063B00008AB02AA21460EA8274400F0ADFF002D2D
:1063C000EBD1304604F094F815B0F0BDBDF81410D0
:1063D0000598C1F38312C3F3C203C0F39525C1F33B
:1063E00083148DF810300EA930469200082304F073
:1063F000DFF808AB0093224602AB0EA9284600F056
:1064000015FF304604F074F815B0F0BD014B0122C1
:106410001A707047985A0020704700BF00B583B0CB
:10642000044B0093044A4023FFF784FF03B05DF858
:1064300004FB00BF3D640200585A002038B50F48E5
:106440000F4D03780F4CEB5C4FF0000C84F800C04C
:10645000D2B253B1043007F017FF58B90A4B1B787A
:1064600013B12378002BFCD038BD0C3007F05CFC56
:106470000028F3D001F0C2F9F0E700BF685900200E
:10648000A4730020985A0020545A002010B51548D3
:10649000154A0378D35C88B0C3B1043007F054FECA
:1064A000124C0FCCEC46ACE80F0094E80F008CE8DF
:1064B0000F0006230B4800930022694606F020FDDA
:1064C00040B90B4B00221A7008B010BD0C3007F019
:1064D000BDFBE5E701F092F9054B00221A7008B008
:1064E00010BD00BF68590020A4730020EC650300B4
:1064F000545A002010B50F4C0FCC88B0EC46ACE8D5
:106500000F0094E80F008CE80F0006230A4A0B489E
:106510000093694606F0F4FC20B9094B01221A7079
:1065200008B010BD01F06AF9054B01221A7008B0DD
:1065300010BD00BFEC6503000D6402006859002027
:10654000545A002008B5FFF7D5FF0448042100F095
:10655000E9FD034B01225A7108BD00BF08900300FA
:106560007C590020064B074810B500221A7003F032
:106570006FFF044610B9044804F04EF8204610BDE1
:106580006C5B00202C8F03004466030030B499B18B
:106590000D490E4D491BC90813D00D4C002302E0D4
:1065A000013399420AD034F823208242F8D11846A8
:1065B00055F8300030BC7047044DF9E7002030BC7E
:1065C00070470846F6E700BF08900300408F0300BD
:1065D000345A0020094B013903EBC00003290BD8C2
:1065E000DFE801F00402080604207047022070472B
:1065F000407970470079704700207047408F030052
:106600002DE9F043904CD4E901239A4285B060D043
:106610000023C4F81834BFF34F8FA568EAB2D31C27
:1066200004EB830114F82330580718D566680B78FB
:1066300003F00303012B42D0022B03D14B88023518
:1066400005EB9315EAB2D4F81804D31C04EB8301CC
:1066500028B9AE4239D914F823305B07E7D404EBEC
:1066600082026B1CDBB2D26804EB830302F00301ED
:10667000DB680229CDE9012305F102062DD00129AD
:1066800000F09280D4F810543DB12B6828469B68E6
:106690009847EB681D68002DF7D16C486C4B6D492D
:1066A000C01AC008000440F0020000F065FCD4E904
:1066B0000130C01A18BF012005B0BDE8F0830B8877
:1066C0000235C3F383131D44BCE7A66005B0BDE8E3
:1066D000F083002005B0BDE8F083BDF806305E48C9
:1066E000C3F389184546502D28BF502505F10801F0
:1066F00065F38F13C1F30901ADF8063003F0AAFE6C
:1067000007460028BED003F0EFFE0023082201A9AF
:10671000384603F019FFF343DBB20133B5EB830FC7
:106720004FEA83027ED9F1B25FFA82F9033104EBBA
:10673000810138460823A5EB090503F005FFEDB2FA
:1067400009F10803454903F0FC032A46384603F0E3
:10675000FBFE08F1030806EB9806D4F81834002B6A
:106760006ED1D4F8105465B1EB685A792846394691
:10677000002A61D02B681B689847EB681D68002DC4
:10678000F2D1384603F0B4FE00230DF103008DF87A
:10679000033001F049F9D4F8183403B9A6609DF824
:1067A000030001F067F982E7BDF804202A48C2F32C
:1067B0008313062B28BF062363F38912023303F0E9
:1067C0000F018900ADF8042003F044FE07460028BD
:1067D0003FF458AF03F088FE0023082201A9384691
:1067E00003F0B2FEBDF8043013F4707FB5D06FF043
:1067F00001094FF00808A9EB0509F1B2033143463E
:10680000042204EB8101384603F09EFEBDF80430FB
:106810000136C3F3831309EB0602934208F104081F
:10682000EBD89AE7F1B203312A4604EB8101082341
:10683000384603F089FE8CE71D68002D94D1A0E74F
:10684000384603F055FE32E76C5B0020688F03008A
:10685000408F03002C6603002C8F0300785B002020
:106860002DE9F04F89B0DFF8C8B103930646002345
:106870000DF113008DF81330CDE9011201F0D4F8B9
:10688000DBF80830DBF8047003F58073DB1B052BA5
:1068900078D80BF21C450BF583680BF2144419E011
:1068A000BDF81630C3F3891303334FEA11490AEBDD
:1068B000930A204602F05EFE08B1CBF808A04946D4
:1068C000284602F027FEDBE9012303F580739B1ABB
:1068D000052B58D80121284602F01CFE404602F044
:1068E0003DFE204602F03AFEDBF80830DAB2D11C59
:1068F0000BEB810C1BF8211001F00400490721D497
:106900000BEB8202591CD2680592C9B202F0030255
:106910000BEB8101012AC96803F1020A2AD0022A7D
:10692000BED04FF00009C4E7BCF802300EEB931361
:10693000DAB2D11C0BEB810C1BF8210000F0040033
:106940000028DDD09CF8001001F0030101290AD0D5
:10695000022903F1020E02F10301E5D00BEB810CD9
:106960000028EFD1CCE7BCF800200233C2F3831239
:106970001344DDE7BDF81430C3F383134FEA114924
:106980009A4496E73A46D3B20333063240F20511F1
:106990009DF813004BF82310CBF8042001F06AF89F
:1069A000BB1CDBB20BEB8303029ADA60FB1CDBB28D
:1069B0000BEB8303039ADA603B1DDBB20BEB830323
:1069C000129ADA607B1DDBB20BEB8303139ADA6059
:1069D0000021164802F064FD80F31001F30003F07B
:1069E0003803019A43F4807343F00103781C43EAAF
:1069F0008223C0B2FAB209040BEB8000033241EAF1
:106A00001641C1604BF822309BF8003023B908F0E2
:106A10007BF909B0BDE8F08FFFF7F2FD0028F6D052
:106A2000FFF7EEFD0028F7D1F1E700BF885F0020F7
:106A30006C5B00202DE9F04F89B0DFF8B4B103930F
:106A4000064600230DF113008DF81330CDE9011235
:106A500000F0EAFFDBF80830DBF8047003F5807320
:106A6000DB1B042B78D80BF21C450BF583680BF26B
:106A7000144419E0BDF81630C3F3891303334FEA09
:106A8000114A09EB9309204602F074FD514608B102
:106A9000CBF80890284602F03DFDDBE9012303F521
:106AA00080739B1A042B58D80121284602F032FD2E
:106AB000404602F053FD204602F050FDDBF808305E
:106AC000DAB2D11C0BEB810C1BF8211001F0040091
:106AD000490721D40BEB820203F10209D268059227
:106AE0000133DBB20BEB830302F00302012AD96806
:106AF0002AD0022ABED04FF0000AC4E7BCF8023008
:106B00000EEB9313DAB2D11C0BEB810C1BF82100B6
:106B100000F004000028DDD09CF8001001F0030113
:106B200001290AD0022903F1020E02F10301E5D086
:106B30000BEB810C0028EFD1CCE7BCF8002002332E
:106B4000C2F383121344DDE7BDF81430C3F383139B
:106B50004FEA114A994496E73A46D3B203330532D5
:106B6000C5219DF813004BF82310CBF8042000F04A
:106B700081FFBB1CDBB20BEB8303029ADA60FB1CC8
:106B8000DBB20BEB8303039ADA603B1DDBB20BEB4A
:106B90008303129ADA600021144802F081FC80F32A
:106BA0001001F200019B02F0380242F0C102781C91
:106BB00042EA8322C0B2FBB2033309040BEB80002C
:106BC00041EA1641C1604BF823209BF8003023B9FD
:106BD00008F09AF809B0BDE8F08FFFF711FD002822
:106BE000F6D0FFF70DFD0028F7D1F1E7885F002010
:106BF0006C5B00202DE9F04FDFF8BCB189B00024B8
:106C000006460DF113000393CDE901128DF81340F0
:106C100000F00AFFDBF80830DBF8047003F580733E
:106C2000DB1B032B00F281800BF21C450BF5836804
:106C30000BF214441AE0BDF81630C3F38913033382
:106C40004FEA11490AEB930A204602F093FC4946A9
:106C500000283AD02846CBF808A002F05BFCDBE91C
:106C6000012303F580739B1A032B5FD8012128466B
:106C700002F050FC404602F071FC204602F06EFC2F
:106C8000DBF80830DAB2D11C0BEB810C1BF82110B9
:106C900001F00400490728D40BEB82015A1CC96893
:106CA0000591D2B201F003000BEB82020128D168FA
:106CB00003F1020A31D00228BDD0204602F05AFC6E
:106CC0004FF0000949460028C4D12846C5E7BCF862
:106CD00002300EEB9313DAB2D11C0BEB810C1BF8D4
:106CE000210000F004000028D6D09CF8001001F02C
:106CF000030101290AD0022903F1020E02F1030166
:106D0000E5D00BEB810C0028EFD1C5E7BCF80020E3
:106D10000233C2F383121344DDE7BDF81430C3F32A
:106D200083134FEA11499A448EE73A46D3B20333AC
:106D3000043285219DF813004BF82310CBF8042072
:106D400000F098FEBB1CDBB20BEB8303029ADA6007
:106D5000FB1CDBB20BEB8303039ADA6000211548BE
:106D600002F09EFB80F31001F300019A03F0380358
:106D700043F08103781C43EA8223C0B2FAB20904CB
:106D80000BEB8000033241EA1641C1604BF8223020
:106D90009BF8003023B907F0B7FF09B0BDE8F08FCA
:106DA000FFF72EFC0028F6D0FFF72AFC0028F7D1C9
:106DB000F1E700BF885F00206C5B00202DE9F04FF9
:106DC000DFF8B0B187B0002306460DF10B008DF857
:106DD0000B30CDE9001200F027FEDBE9018303F55B
:106DE0008073A3EB0803022B00F281800BF21C4599
:106DF0000BF583670BF214441AE0BDF80E20C2F3C2
:106E0000891203324FEA114A09EB9209204602F037
:106E1000B1FB514600283AD02846CBF8089002F042
:106E200079FBDBE9012303F580739B1A022B5FD802
:106E30000121284602F06EFB384602F08FFB204607
:106E400002F08CFBDBF80830DAB2D11C0BEB810CC2
:106E50001BF8211001F00400490728D40BEB820134
:106E60005A1CC9680391D2B201F003000BEB8202F5
:106E70000128D16803F1020931D00228BDD0204693
:106E800002F078FB4FF0000A51460028C4D1284692
:106E9000C5E7BCF802300EEB9313DAB2D11C0BEB52
:106EA000810C1BF8211001F004000028D6D09CF8BA
:106EB000001001F0030101290AD0022903F1020E9A
:106EC00002F10301E5D00BEB810C0028EFD1C5E7FF
:106ED000BCF800200233C2F383121344DDE7BDF88F
:106EE0000C20C2F383124FEA114A91448EE74246C6
:106EF000D3B20333033245219DF80B004BF8231026
:106F0000CBF8042000F0B6FD08F10203DBB20BEB76
:106F10008303019ADA600021154802F0C1FA80F378
:106F20001001F300009A03F0380343F0410308F125
:106F3000010043EA8223C0B25FFA88F209040BEB36
:106F40008000033241EA1641C1604BF822309BF8C1
:106F5000003023B907F0D8FE07B0BDE8F08FFFF787
:106F60004FFB0028F6D0FFF74BFB0028F7D1F1E7E5
:106F7000885F00206C5B00202DE9F04FDFF8A0A1B6
:106F800087B0002306460DF10B008DF80B30019100
:106F900000F04AFDDAE9018303F58073A3EB0803EF
:106FA000012B00F281800AF21C450AF583670AF280
:106FB00014441AE0BDF80E30C3F3891303334FEACB
:106FC00011490BEB930B204602F0D4FA49460028F6
:106FD0003AD02846CAF808B002F09CFADAE9012350
:106FE00003F580739B1A012B5FD80121284602F01C
:106FF00091FA384602F0B2FA204602F0AFFADAF817
:107000000830DAB2D11C0AEB810C1AF8211001F019
:107010000400490728D40AEB82015A1CC96803916D
:10702000D2B201F003000AEB82020128D16803F119
:10703000020B31D00228BDD0204602F09BFA4FF05F
:10704000000949460028C4D12846C5E7BCF80230EB
:107050000EEB9313DAB2D11C0AEB810C1AF8211053
:1070600001F004000028D6D09CF8001001F00301C4
:1070700001290AD0022903F1020E02F10301E5D031
:107080000AEB810C0028EFD1C5E7BCF800200233E1
:10709000C2F383121344DDE7BDF80C30C3F383134E
:1070A0004FEA11499B448EE74246D3B20333023282
:1070B00005219DF80B004AF82310CAF8042000F0BF
:1070C000D9FC0021154802F0EBF980F31001F30020
:1070D000019A03F0380343F0010308F1010043EA89
:1070E0008223C0B25FFA88F209040AEB80000332FF
:1070F00041EA1641C1604AF822309AF8003023B9BB
:1071000007F002FE07B0BDE8F08FFFF779FA00281C
:10711000F6D0FFF775FA0028F7D1F1E7885F002075
:107120006C5B002030B4154DD5F8101404460020D7
:1071300071B10B4601E01B6853B1DB681A798242DA
:10714000F9D101300A28F3D14FF0FF3030BC70473D
:10715000E3681871D5F810344BB1DA68E368126847
:107160001A60D5F81034DB681C6030BC7047C5F875
:107170001044E268136030BC704700BF6C5B0020B5
:1071800038B5084BD3F8104401251D704CB1E368A5
:107190005D71236820465B689847E3681C68002C93
:1071A000F5D138BD6C5B002030B5C38885B004468E
:1071B0000D4623BB237A052B1FD0627A82B9144A6D
:1071C000A08852F8232003920021FFF7DFF9039AE9
:1071D00010490346284605B0BDE8304002F044BAE5
:1071E0001946A088FFF7F6F90B4B0C4953F82020FD
:1071F000284602F039FA237AE1E705B030BD0849A4
:107200000091084A0849284602F02EFAD2E700BF4A
:107210001067030078660300EC660300E082030059
:107220007066030050660300586603002DE9F043C2
:1072300085B01D460C9C002394F80C902373804667
:107240000E46174621462846FFF7AEFF062F09D8FF
:10725000DFE807F0042E343B444F1F004146204630
:1072600002F002FA2B7A052B05D06B7A5BB927491D
:10727000204602F0F9F9204602F0EAF984F80C9071
:1072800005B0BDE8F083224A2249204602F0ECF91D
:10729000EDE77369039333690293F3680193B3686D
:1072A0000093D6E900234146204602F0DDF9D9E7F4
:1072B00032684146204602F0D7F9D3E7D6E90023E9
:1072C0004146204602F0D0F9CCE7B3680093D6E9F6
:1072D00000234146204602F0C7F9C3E7F368019353
:1072E000B3680093D6E900234146204602F0BCF97A
:1072F000B8E733690293F3680193B3680093D6E962
:1073000000234146204602F0AFF9ABE78466030054
:1073100070660300E0820300082900D970472DE958
:10732000F04F1D4683B000241B7B2C730E4607468E
:107330002946104690460193DFF8D0B0DFF8D0A080
:10734000FFF732FF05E03A5D013402F08DF9082CB9
:1073500009D0A64251462846F5D85946013402F0D4
:1073600083F9082CF5D12449DFF8A8B0234CDFF8C5
:10737000A8A0284602F078F94FF0000917E017F8A6
:107380000910481C7E294FF02E02C0B206D810F812
:107390000A2012F0970F14BF0A462E2221462846D3
:1073A00009F1010902F060F9B9F1080F0AD04E4560
:1073B000E5D85946284609F1010902F055F9B9F115
:1073C000080FF4D198F80830052B02D098F809304E
:1073D0005BB90B49284602F047F9284602F038F914
:1073E000019B2B7303B0BDE8F08F064A064928467F
:1073F00002F03AF9EDE700BF9466030098660300D7
:107400008466030070660300E08203009066030058
:107410008866030080660300988D030038B5174B1B
:107420001D783DB3164A1168C0B200230C4604E033
:107430000133AB4204F108041CD011F83320904210
:10744000F6D105F0E7FF6378A3F10103B3FA83F304
:107450005B09834200D038BD0A4BD3E900231343B4
:10746000F9D1094B094819680022BDE8384049089C
:1074700000F04CBA00231B78FFDE00BF2460002020
:107480006860002050600020286000202C600020F0
:107490002DE9F04FDFF8788298F8003083B0002BA8
:1074A00000F02B81DFF86C92954F964E00254FF03F
:1074B000010AD7F800B01BF8350005F0ABFF1BF848
:1074C00035400BEBC50361085B7816F801C014F07A
:1074D000010EA3F10103B3FA83F314BF4FEA1C12A8
:1074E0000CF00F025B09042A00F2EA80DFE802F0E8
:1074F000725F33200300834240F09F80BEF1000F93
:107500000CBFF0230F230CEA030C0CBF0323302322
:1075100043EA0C03735498F8002001359542C8DB08
:10752000D9E90023134340F0DE8003B0BDE8F08FBB
:10753000834200F0C580BEF1000F0CBFF0230F2383
:107540000CEA030C0CBF0423402343EA0C037354DE
:1075500098F80020E1E7834240F0B580BEF1000FCB
:107560000CBFF0230F230CEA030C98F800200CBF8B
:107570000323302343EA0C037354002AD0D0D7F8F6
:1075800000C00023614603E0934201F10801C4D02A
:107590001CF83300A04203F10103F5D14B68002B26
:1075A000BBD020460121984798F80020B5E78342D8
:1075B00019BF00231A4620230222BEF1000F16BF76
:1075C0001A46F0230F230CEA03031A43725498F867
:1075D0000020A2E7834273D14FF00003BEF1000FF9
:1075E0008DF8073014BF0F23F0230CEA030C14BFEF
:1075F0001023012343EA0C030DF10700735400F03C
:1076000013FAA4F12003C4F120022AFA02F20AFAC2
:1076100003F31343D9F800209DF807000AFA04F495
:107620002243C9F80020D9F804201343C9F80430D4
:1076300000F020FA98F800206FE7BEF1000F14BFA9
:107640000F23F0230CEA030398F800C07354BCF135
:10765000000F12D038680023024603E0634502F1B0
:1076600008020AD010F83310A14203F10103F5D14A
:10767000536813B10021204698474FF000030DF1E5
:1076800007008DF8073000F0CFF9A4F12003C4F112
:1076900020022AFA02F20AFA03F31343D9F800206F
:1076A0009DF807000AFA04F422EA0402C9F800204F
:1076B000D9F8042022EA0303C9F8043000F0DAF90B
:1076C00098F8002029E7BEF1000F0CBFF0230F232C
:1076D0000CEA030C0CBF0123102343EA0C03735480
:1076E00098F8002019E7084B084819680022490853
:1076F00003B0BDE8F04F00F009B9DFF818900FE7CC
:107700006860002058600020286000202C60002065
:107710002460002050600020092A3FD9F0B583B0D2
:10772000144605460E4605F015FD88B3204B214A48
:107730001E70214B1560002120481C6010220EF0A5
:10774000C1FD1F4B00200021741EC3E90001E4B2FB
:1077500036B31C4F05EBC404032602E0A5421FD03C
:107760001C469DF8063094F802C020788DF804601D
:1077700023F007033A4601A98DF806308DF805C0BD
:1077800005F0F2FCA4F108030028E7D003B0F0BD37
:1077900005F08CFC0028C9D003B0F0BD072070476D
:1077A000094A0A48002103B0BDE8F04000F07EB865
:1077B00024600020686000202860002058600020BD
:1077C000506000201D7402009174020030670300B5
:1077D00070B5084D2B785BB1074E0024336801214A
:1077E00013F8340005F0B4FD2B780134A342F5D82A
:1077F000002070BD246000206860002000B585B0C6
:107800000346002101AA44F20100CDE901110393CE
:1078100000F004F805B05DF804FB00BF10B572B6C7
:10782000FFF7AEFCFEF7ECFE0028FBD1104B114C2D
:107830001149E41AE408240444F00100FFF79CFB1A
:107840000E4BD3F8F030DB0700D500BE0C4944F0F6
:107850000200FFF791FBBFF34F8F0849094BCA683D
:1078600002F4E0621343CB60BFF34F8F00BFFDE72C
:10787000408F0300688F03003467030000ED00E0D1
:10788000406703000400FA0510B505F04BF9027BD0
:107890004AB1427B8168034682F0010200681A7394
:1078A000BDE81040084710BD0020704770B505685E
:1078B00082B022B32B7B13B90E46696811B1082040
:1078C00002B070BD1446284610220EF0FBFC002EBC
:1078D0000CBF012200220B4B6A73AC6014BF012263
:1078E000002200934FF47A712B46074805F0A2F866
:1078F0000028686014BF00200E2002B070BD072071
:1079000002B070BD89780200806603002DE9F04165
:10791000466884B0002E4FD0057B044685BB0260CC
:10792000EFF305876FB10A46009503AB0921304696
:10793000039505F0CBF8012826D0042004B0BDE85B
:10794000F0814FF002080A46CDF800803B46042142
:10795000304605F0BBF801280546EED104F0D6F913
:10796000CDF8008002463B462946304605F0AEF889
:107970000128E2D101230020237304B0BDE8F08187
:10798000002004B0BDE8F08104F0C6F9009502467D
:1079900003AB0621304605F099F80128CDD1039BB1
:1079A000002BE7D0064B4FF080525A6040BFBFF328
:1079B0004F8FBFF36F8FDDE7082004B0BDE8F08183
:1079C00000ED00E010B50446406884B038B3EFF332
:1079D00005835BB90222009203211A4605F076F86E
:1079E000012819D10020207304B010BD002200929C
:1079F00003AB0821039205F069F801280CD1039B21
:107A0000002BEFD0074B4FF080525A6040BFBFF3BE
:107A10004F8FBFF36F8FE5E7042004B010BD08203F
:107A200004B010BD00ED00E070B4EFF3108472B646
:107A30000D4B9A68AAB9012199600C490C4ED1F8F6
:107A4000805035401D60C1F88060D1F884505D6081
:107A50004FF0FF33C1F88430027004B962B670BCD5
:107A6000704701230370F8E76C60002000E100E03C
:107A7000FC06FFBD094B9A687AB170B910B4EFF3F8
:107A8000108172B6064A1C6814605C685460986085
:107A900001B962B65DF8044B704770476C60002016
:107AA00000E100E00223F0B50B8000F5805E0830B5
:107AB00082B32A4D4FF6FF740126036801331FD0AD
:107AC000478807F1030C00EB8C0CE6451CD3838838
:107AD000A34216D00388A3B18368B3F1FF3F10D04F
:107AE000D5F800C09C4501D22B6047880B88033332
:107AF0003B440B804388033300EB83008645DCD88E
:107B0000F0BD16704788F1E7012313704FF48063CE
:107B10000B80F0BD114D4FF6FF7403680133EFD0B9
:107B20004388DA1C00EB82029645EFD38288A2429A
:107B300009D002883AB18268561C04D02E68B2423D
:107B400084BF2A6043880A88033213440B80438829
:107B5000033300EB83008645DFD8F0BDB060002022
:107B60002DE9F041436888461BB1334AD468A342EB
:107B70003CD2324E0023A8F800307268012702F58B
:107B8000805C4FF6FF75083294450DD8022FA8F897
:107B9000007006F114064CD0726802F5805C083261
:107BA00094454FF00207F1D913680133EED05388A2
:107BB000033302EB83039C45E8D3B2F804E0AE45FF
:107BC00009D014883CB19468611C04D00168A142BA
:107BD00005D01A46D8E79C45D8D91A46E4E7184B91
:107BE00042601B8903810120BDE8F0811269934244
:107BF000BFD813F00305BCD1114A048912899442FD
:107C0000B7D104689A689442B3D10C484268934251
:107C100003D902F58052934207D38269934208D96F
:107C200002F58052934204D20125A8F800500120A9
:107C3000DAE70020D8E700BF205A0020B860002013
:107C40009C6000202DE9F04F9B4F8BB004464FF60F
:107C5000FF783E68002E00F0BA803278531E052B64
:107C600000F26E82DFE803F058212103033E002C6E
:107C700040F0B4803379012B00F0B682022B00F083
:107C8000C580002B00F08E8205AD0594C5E9024445
:107C90002C6148F20E6406943378023B042B49D8D9
:107CA000DFE803F0897569624500B6F814A0002C7E
:107CB00040F05682814D0AEB8A0305EB83034FEABD
:107CC0008A091C895B6803EB8404B37D062B00F2F0
:107CD0002C84DFE813F079016601990188014501E0
:107CE0002E010901002C79D1DFF8F0C19CF80C308D
:107CF000002B00F0AA809CF800308CF80C40013B6F
:107D0000062B00F21D82DFE813F01903D502C20131
:107D1000AE011B0205039A01002C40F01A82337950
:107D2000032B00F28780DFE803F0BA63789F052316
:107D30008DF81430624C04F1100654F8043B2846C8
:107D400003B19847A642F8D15E495F4800243C60E1
:107D500001F024FB5D48012101F0E8FB00287FF4DD
:107D600078AF0BB0BDE8F08F04238DF81430F388A2
:107D7000ADF82030DEE703238DF81430F388ADF83A
:107D800020303389ADF82230F3680793D2E702231D
:107D90008DF814303389ADF82030B388ADF8223037
:107DA000F3680793B37DA3F10603B3FA83F35B098A
:107DB0008DF82430BEE701238DF814303389ADF8F7
:107DC0002030B388ADF82230F3680793B2E73D491D
:107DD0003D4801F0B1FA064638603EE74FF40644EC
:107DE00005AD0023C5E90033C5E902332B6152E735
:107DF000324D2B78022B00F07C832B7D022B00F080
:107E00008883334B01221A7000225A6005AD00248A
:107E10000594C5E902442C613DE72E4A2E48022113
:107E20000023337191801168012202F069F8002863
:107E300097D03E68264A05AD002305935360C5E9F7
:107E400002332B6148F20D6425E79CF80030072BC4
:107E500000F2A282DFE813F0B602A002A002D10273
:107E6000ED02F300F3009A021A4C1C4B21681A48E9
:107E70000022327100925D8805EB85030F4D05F8F5
:107E8000232005EB8305A3882B816B6823600223E5
:107E9000A380134A6960082301F0A0FFC7E701230C
:107EA0000C493371002309680E4A00930A480823DD
:107EB00001F094FFBBE700BFB4600020B860002071
:107EC00084600020AC6000206C6100207C61002098
:107ED0009460002080610020205A00209C600020D7
:107EE000546703005C670300324641F61D5409EBFA
:107EF0000A0105EB8101F3880889033303440B81F0
:107F0000D144F38805EB89051646C3F57F436A899A
:107F1000FD3313446B8105AD41F61D52002394429D
:107F2000059308BF1C46C5E902332B613FF4B3AE8D
:107F3000C0E2A54BA54A5968A54BA6481C88062354
:107F4000B37500230093042301F048FF10BB04EB3A
:107F5000840305EB830501232B740BB0BDE8F08F80
:107F60009948B3699A4903604FF0000BC0F804B018
:107F7000FFF7F6FD002800F0AF820223B37504235B
:107F80009448CDF800B02146F21801F027FF0028F0
:107F90003FF4E7AEB37D3A68022B48F20D64AFD9E7
:107FA000A5E7032A0CBF05230623B375002300931E
:107FB0008848211D042306F1080201F00FFF002864
:107FC000E8D10BB0BDE8F08F0223B3750023009316
:107FD000042380482146F21801F000FF0028D9D17F
:107FE0000BB0BDE8F08FF38832690120B075002036
:107FF000009004F10C0177489B0001F0EFFE00288F
:10800000C8D10BB0BDE8F08F33697248002B14BFA4
:1080100003230123B3750023009304F10801042313
:1080200006F10C0201F0DAFE00283FF49AAEB37DAF
:108030003A68022B48F20D647FF662AF57E7664A52
:1080400064481168002307228CF800200093634ADB
:10805000CCF80430082301F0C1FE0446002C3FF4A4
:1080600080AE3E6857E7BCF802305D4D03EB8303FA
:1080700005EB8305EB68002B54D169685548042251
:108080008CF80020012201F03BFF0446E6E7DCF813
:1080900004205148538884880168033301EB84012C
:1080A000002003249BB200909B008CF800404948BC
:1080B00001F094FE0446D1E701200346ACF80230FB
:1080C00000EB800305EB8303DCF8042059684FEADA
:1080D000800E01F58056002A00F01D82538803337C
:1080E00002EB8302964217D91368013314D05388E8
:1080F000033302EB83039E420ED39488444505D09C
:1081000014881CB19468013440F001819E4203D967
:108110001A4613680133EAD1704405EB8005EB6819
:10812000002BABD02C4A2B480523022191808CF8E0
:10813000003011680023012201F0E2FE04468DE7C1
:1081400005AD0023059348F20E64C5E902332B61A7
:10815000A1E5244B00225A604FF4064405AD40E6E9
:10816000B37D1F4D022B08D90AEB8A0205EB820270
:10817000F388118903330B4413814FEA8A09D144F0
:10818000F38805EB8905C3F57F436A89FD33134402
:108190006B8105AD002305934FF40644C5E9023316
:1081A0002B6178E502233371CDE9064405ADF36810
:1081B00005930DF112012846FFF7D2FC002840F08C
:1081C0004D8148F209640CE6786000205067030096
:1081D0008C610020205A0020806100205C67030031
:1081E000B860002094600020B44B1B78002B00F096
:1081F0005581DFF8D0E2BEF80490B9F1010F11D833
:10820000AF4D039409EB890205EB8202137883B129
:1082100009F101091FFA89F3012BAEF8049002F16C
:108220001402F3D9A748082200210EF04BF83E684B
:10823000ECE55368DEF8001003F5805C03F1080AF2
:10824000002900F029814B88033301EB83018C4521
:1082500006D8039BCEF80030DAE79C45F9D91946D9
:108260000B680133F5D04B88033301EB83039C4546
:10827000EFD38C884445F0D0B1F800B0BBF1000FCB
:10828000EBD088680130E8D0F388CEF80010A34224
:10829000D6D1002300938C4A8C48042301F09EFD24
:1082A000002840F03B8109EB890905EB8905012392
:1082B0002B7456E5BCF80200814DDCF8042000EB7D
:1082C000800305EB83034FEA800E596801F5805661
:1082D000002A40F0A98001F10802B242BFF41CAFAD
:1082E000136801333FF418AF5388033302EB830361
:1082F000B3423FF611AF9488444500F0C88014881B
:10830000002C00F0C4809468013400F0C080CCF8E8
:108310000420BEE6BCF80220694D9300134405EB2F
:108320008305062400236968694A009367488CF82E
:108330000040082301F052FD04468FE69CF80A3005
:108340004BB15F4DE86800238CF80A3018B92B7CDC
:10835000002B40F0E8809CF80B3053B1584D0023BF
:108360008CF80B302B6A23B995F82430002B7FF45E
:10837000A3AE05AD002305938CF80030C5E90233A8
:10838000ACF80230CCF804302B6184E401238CF883
:1083900000309CF80A30D3E7013B062B3FF6D0AE05
:1083A00001A252F823F000BF3D830200B582020013
:1083B0008F80020067800200418102001583020065
:1083C0003F8002003E4DBCF808302A7D0133ACF8F6
:1083D0000830B2FA82F22B785209B3FA83F38CF8A0
:1083E0000B2000225B09ACF802208CF80C20012243
:1083F0008CF80A308CF80020A2E7BCF80200304D5F
:10840000344CDCF8042000EB800305EB8303568832
:108410005968A38803333344A38002238CF80030C7
:1084200000FA03FE01F580565388033302EB830202
:1084300053E7BCF80220224D264902EB820305EBEC
:1084400083038888188158680C6808600220888037
:1084500000215C60197402FA00F35FE706991A4A7A
:108460008B88F3800B883381184800940423BDF86F
:10847000124001F0B3FC002837D1114B04EB840407
:1084800003EB8404012323740BB0BDE8F08FB342E7
:10849000BFF442AE1A4623E75146D8E605AD214661
:1084A000084808220DF00EFF0594C5E902442C612E
:1084B00048F201643E68FFF7EEBB00BF9460002005
:1084C000B86000209061002050670300205A00200F
:1084D000546703008061002005AD059048F20964EF
:1084E000C5E902002861FFF7D6BB3E6848F20D647B
:1084F00077E4002303EB830305EB83020D48516807
:10850000002205F82320009208230B4A01F066FCA4
:108510008DE40123EEE701F10802E3E53E6848F24D
:108520000D6405AD5DE40346C8E5324648F20E64CD
:10853000DDE400BF205A0020546703004068FFF7C5
:1085400081BB00BF094A116804290BD038B5084C1B
:10855000156803460121104644F8253000F0DAFF83
:10856000002038BD48F20B60704700BF88610020D2
:10857000846000202DE9F04F974D89B02A780023C0
:10858000CDE90333CDE90533079372B1934C04F180
:10859000100554F8043B03A803B19847A542F8D14D
:1085A0000024204609B0BDE8F08F281D02F0FF0826
:1085B00000F0C8FF0028F3D1D8F8F83F5C1C42D087
:1085C0004FF0805211695269DFF838928449C9F836
:1085D00010300022A3F540534846C9F80C3001F092
:1085E000C5FB04460028DCD17E497F48DFF818A28D
:1085F0001C238C2200F024FE26464FF0030B274656
:10860000D9F80C30F018F35800F0DD80774A934227
:1086100025D14368764A934273D00132934220D1E8
:10862000B8F1000F40F09680724B73491860002239
:108630000193FFF737FA019B9B88022B0CBF0423A1
:1086400008231C4326E04FF010234FF080525B6953
:1086500011695269581C08BF02FB01F3B4E70133EA
:108660000AD1031D00F5805101E099425FD01A68DC
:10867000013203F10403F8D007EB87030AEB83020E
:108680000BF1FF3B5060032201370AF823201FFA49
:108690008BFBBFB206F58056B6F5405FB0D1BBF19B
:1086A000010F40F28A80E4B2062C0ED14B4C01221D
:1086B00000232A706B6004F1100554F8043B03A8F2
:1086C00003B19847A542F8D16AE702D814F0FD0F2C
:1086D00073D002A9444800F0EDFD1C22054600219C
:1086E0000DF0F0FD002D62D00123013C2B700A2C0F
:1086F00048D8DFE804F04547454759475947565F92
:10870000560007EB87030AEB83029900506001F1E2
:10871000100208314FF0000C5244514401370AF85E
:1087200023C044F00204FFF7BDF9BFB2B2E7314BFA
:108730001A68FAB1314A07EB87010AEB81035780C7
:10874000022201370AF821205860BFB21A8144F092
:1087500001049FE707EB870C0AEB8C020221254BF3
:108760000AF82C10118125494F8019685160013792
:10877000BFB25AE7022218609A804FF00108E6E77C
:1087800000232B7102A9184800F0C6FD1C480121E6
:1087900000F0B4FE044600287FF402AFFFF752FA5F
:1087A000FFE603232B71EDE701232B71EAE748F283
:1087B0000764F6E602232B71E4E700232B7048F2EE
:1087C0000A646B60EDE65A1C3FF44BAF074A9342D4
:1087D0003FF447AF50E700BF946000208460002062
:1087E000F06F0300E06000206C610020DEC0ADDEB1
:1087F000FE011EF180610020846100209C60002049
:108800007C610020205A0020B860002030B370B591
:108810000D4682B0F1B10DF106010446FFF7A0F953
:1088200018B948F2096002B070BDBDF806000D4BE2
:10883000666800EB800003EB800001210C3000F043
:1088400069FE2E60636801220C3300206B60A27207
:1088500002B070BD48F2046002B070BD48F204601E
:10886000704700BFB860002010B310B582B00DF1A2
:1088700006010446FFF774F9B0B1BDF806300E4AA0
:1088800003EB830302EB8303DA684AB1A27A3AB1BD
:10889000DA680021013A0846DA60A17202B010BD20
:1088A00048F2056002B010BD48F2096002B010BD88
:1088B00048F20460704700BFB86000202DE9F0471F
:1088C000514B1B7882B083B30C46002945D00A88EF
:1088D0004FF6FF739A4222D04B8803B34D6815F0D0
:1088E000030534D1B1F8089009F103039BB240F2BB
:1088F000FE32934234D8454A1178074639B9508937
:1089000011890144194489B2B1F5806F2BD9117DC9
:1089100089B148F20665284602B0BDE8F08748F202
:108920000365284602B0BDE8F08748F20165284695
:1089300002B0BDE8F087D08B918B0144194489B215
:10894000B1F5806FE5D84FF00108C2460DE048F25E
:108950000265284602B0BDE8F08748F20465DAE710
:1089600048F20865D7E7A846AA460AEB8A0A02EB4E
:108970008A0A034401A92648AAF80A3000F09AFCA2
:108980001C22064600210DF09DFC002E2FD0A6F8DB
:10899000148002234FF0000886F816803370636855
:1089A000336101211B4800F0B5FDF060238833815D
:1089B00063881748B38001A9A6F80690A6F80A8034
:1089C00000F0AAFC47B1C7F80480F268124B3A6085
:1089D0001B8987F80A803B811048012100F08EFD39
:1089E0000446002897D1FFF72DF9254693E7BAF8FA
:1089F0000A30C9F57F4909F1FD099944AAF80A909E
:108A000048F2076587E700BF94600020B860002047
:108A10006C610020B06000209C6000207C61002020
:108A20002DE9F04782B068B3524B1B78002B41D040
:108A30000C4639B30A884FF6FF739A4234D04B88FC
:108A400093B34E6816F003063AD1B1F808A00AF1C4
:108A500003039BB240F2FE32934234D8464A117867
:108A6000054639B9518910890844184480B2B0F5D7
:108A7000806F2BD9117D59B148F20666304602B09D
:108A8000BDE8F08748F20466304602B0BDE8F087E2
:108A9000D18B908B0844184480B2B0F5806FEBD82E
:108AA0004FF00109C84613E048F20366304602B0B1
:108AB000BDE8F08748F20166304602B0BDE8F087B5
:108AC00048F20266DAE748F20866D7E7B146B046F0
:108AD00008EB880802EB88080B442848A8F80A30FD
:108AE00001A900F0E7FB1C22074600210DF0EAFB7C
:108AF000002F32D04FF000080323A7F8149087F816
:108B000016803B7063683B6101211D4800F002FD47
:108B1000F86023883B816388BB800423A7F806A004
:108B2000BB752B68BB6101A91448A7F80A8000F047
:108B3000F3FBC5F80480FA68124B2A601B891248BF
:108B400085F80A802B81012100F0D8FC044600281A
:108B500094D1FFF777F8264690E7B8F80A30CAF5BF
:108B60007F4A0AF1FD0A9A44A8F80AA048F207666B
:108B700084E700BF94600020B86000206C61002092
:108B8000B06000209C6000207C61002070B51D4B0F
:108B90001B7882B00BB34FF6FF739842044626D081
:108BA00001A9194800F086FB1C22054600210DF0A2
:108BB00089FBBDB1052301262B70EC8001A9124869
:108BC0002E7100F0A9FB1148314600F097FC0446D5
:108BD00090B10024204602B070BD48F201642046E6
:108BE00002B070BD48F20764204602B070BD48F282
:108BF0000364204602B070BDFFF724F8204602B09F
:108C000070BD00BF946000206C6100207C6100207A
:108C100010B5194B1B7882B0F3B101A9174800F0C9
:108C200049FB1C22044600210DF04CFBF4B1062345
:108C30002370124801A900F06FFB114B1A780AB19A
:108C400001221A730F48012100F058FC044640B17C
:108C50000024204602B010BD48F20164204602B054
:108C600010BDFEF7EFFF204602B010BD48F20764CA
:108C7000204602B010BD00BF946000206C6100204F
:108C80009C6000207C6100202DE9F047374C24785F
:108C9000002C5FD0002A61D0002B5FD09C88012C73
:108CA00060D8334D661C04EB840405EB84058A46CA
:108CB0002C78B6B24FF6FF774FF0000844B1022E81
:108CC0009E8005F114054DD02C780226002CF6D19B
:108CD0001C68D5F804C00CF5805E002C37D0B4F8C1
:108CE00002C00CF1030C04EB8C04744505D3C3F8EB
:108CF0000080E4E7E645FAD9644621680131F6D000
:108D0000B4F802C00CF1030C04EB8C0CE645EED376
:108D1000B4F80490B945EDD0B4F80090B9F1000F63
:108D2000E8D0A1680131E5D01C60B4F804C08445E6
:108D3000CFD1B4F800C0D445CBD1A1681160196877
:108D40000C4B51601B8913810020BDE8F0870CF1AA
:108D50000804CAE748F20160BDE8F08748F2046001
:108D6000BDE8F08748F20960EFE700BF946000209B
:108D7000B86000209C600020364B1B78002B60D030
:108D8000002961D0002A5FD02DE9F043B2F804E059
:108D9000BEF1010F5BD8304B0EF101050EEB8E0ECC
:108DA00003EB8E0EADB29EF800304FF6FF764FF01B
:108DB00000094BB1022D95800EF1140E47D09EF89C
:108DC00000300225002BF5D11368DEF804C00CF545
:108DD0008054002B32D0B3F802C00CF1030C03EB2B
:108DE0008C03A34205D3C2F80090E3E76445FAD9A7
:108DF00063461F680137F6D0B3F802C00CF1030CCC
:108E000003EB8C0C6445EED3B3F80480B045EDD091
:108E1000B3F80080B8F1000FE8D09F680137E5D0C3
:108E200013601C888442D0D19B680B6012680B4B86
:108E30004A601B890B810020BDE8F0830CF1080318
:108E4000CFE748F20160704748F20460704748F28B
:108E50000960F1E794600020B86000209C60002069
:108E6000364B1B78002B60D0002961D0002A5FD0E0
:108E70002DE9F043B2F804E0BEF1010F5BD8304BAE
:108E80000EF101050EEB8E0E03EB8E0EADB29EF8C9
:108E900000304FF6FF764FF000094BB1022D958060
:108EA0000EF1140E47D09EF800300225002BF5D1AC
:108EB0001368DEF804C00CF58054002B32D0B3F8F0
:108EC00002C00CF1030C03EB8C03A34205D3C2F8E0
:108ED0000090E3E76445FAD963461F680137F6D08E
:108EE000B3F802C00CF1030C03EB8C0C6445EED319
:108EF000B3F80480B045EDD0B3F80080B8F1000FAE
:108F0000E8D09F680137E5D013609C888442D0D1B7
:108F10009B680B6012680B4B4A601B890B81002019
:108F2000BDE8F0830CF10803CFE748F20160704719
:108F300048F20460704748F20960F1E7946000204D
:108F4000B86000209C60002020B119B103680B605C
:108F50000020704748F20460704700BF2DE9F84FC9
:108F6000574B1B78002B00F0A3800446002800F02C
:108F7000A380122200210DF0A5F9DFF84C81608852
:108F80002189B4F80AC0A7894E4A0323238000250B
:108F90004FF6FF7E5389B2F80890994453681FFA40
:108FA00089F9002B56D01E68464553D15B6803F102
:108FB0006E6303F5FF330233012B4BD8414ECC4493
:108FC000C9F5806305EB850906EB89099BB2D9F8E1
:108FD0000C90484480B26080B2F80A904944BB4289
:108FE0001FFA8CFC89B288BFA3812181A4F80AC032
:108FF000D2F8049088BF1F4609F1080309F580598B
:109000001E68013621D0B3F802A00AF1030A03EB6F
:109010008A0AD14538D3B3F804A0F2451ED0B3F87C
:1090200000A0BAF1000F19D09E68013616D0B4F82E
:1090300004A00AF1010AA4F804A0B3F802A00AF1FE
:10904000030A03EB8A039945DAD8143275B300207A
:10905000BDE8F88F2388013B2380AFE7B4F806B062
:10906000B4F80EA00BF1010BA4F806B0B3F802B0EF
:109070000AF1030ADA44A4F80EA0B3F802A00AF138
:10908000030A03EB8A03DEE7A9EB03094FF00103B0
:10909000B4F806A02374E3890AF1010A03EBA903DB
:1090A000A4F806A0E3811432002DD0D1012571E788
:1090B00048F20160BDE8F88F48F20460BDE8F88F1F
:1090C00094600020B8600020DEC0ADDE1EF0040F0A
:1090D0001CBFEFF309800AE0EFF308800549064A58
:1090E000884201D8904202D88D464FF00000034BD1
:1090F000184700000000012000F800202591020020
:10910000BFF34F8F0549064BCA6802F4E062134370
:10911000CB60BFF34F8F00BFFDE700BF00ED00E065
:109120000400FA052DE9F04782B08046FEF728F8E2
:10913000FDF766FA0028FBD1354B364F9D6A364B5A
:10914000B8F1000F59D0FF1AFF083F0447F001079C
:10915000D8F8182031493846FDF730FED8E90232F8
:10916000CDE900322E49D8E900233846FDF778FBD7
:10917000D8F81C20D8F814300092D8F810202949CB
:109180003846FDF757FC224BDB6A99071DD4DFF800
:10919000A8A0DFF8A8900024012606FA04F32B42C9
:1091A00006D05AF82420494638460AB1FDF706FE93
:1091B00001341A2CF1D12A0618D42B040AD44046C3
:1091C000FFF79EFF02B0BDE8F08717493846FDF76C
:1091D000D3FEDCE70E4B15499A6B3846FDF7EEFDE2
:1091E0004046FFF78DFF02B0BDE8F087084B1049FD
:1091F0005A6B3846FDF7E2FDDFE7FF1AFF083F0430
:1092000047F001070B493846FDF7B6FEBBE700BF44
:1092100000ED00E0888F0300408F030064670300C7
:109220007C670300B46703001068030080680300D4
:1092300060680300DC6703007C6D03005468030072
:1092400099B110B4B2FBF3F403FB1424A4B244B9F3
:10925000C0E9001484608281C38120465DF8044B1C
:10926000704709205DF8044B70470E20704700BF1F
:1092700082B050E8022FC188B2EB324F4FF00003AA
:1092800017BF92B241EA014142EA014104E042685B
:10929000B2EB324F08BF012340E80212002AE8D1A6
:1092A0008DF807309DF80730002B0CBF11200020EF
:1092B00002B0704710B483B050E8013F1FFA83FC3E
:1092C000C489A4448489A44528BFACEB040C048958
:1092D000A44502BFBFF32F8F002207E0CCEA030CA6
:1092E00040E801C4002CE7D14FF001028DF80320C3
:1092F0000193019C9DF803200C6032B1006810FAC4
:1093000084F003B05DF8044B704702F0FF03184689
:1093100003B05DF8044B70470A884B889A4201D02D
:109320000020704750E8012FC2EA024240E80123C2
:10933000002BF7D10120704710B483B050E8023FF2
:109340001FFAA3FCC488A44502BFBFF32F8F0022DD
:109350000EE0C489A4448489A44528BFACEB040C66
:10936000C3EA0C4C40E802C4002CE7D14FF00102E4
:109370008DF803200193019C9DF803200C6032B10D
:10938000006800EB144003B05DF8044B704702F036
:10939000FF03184603B05DF8044B70470A884B88FA
:1093A0009A4201D00020704750E8022FC2EA2242C0
:1093B00040E80223002BF7D1012070474B0901F050
:1093C0001F024FF0010C0CFA02F100EB830000F0D9
:1093D0007DB800BF4B0910B501F01F040121A14069
:1093E00000EB830000F066F8E04000F0010010BDE3
:1093F00001F01F02012303FA02F24B0900EB830084
:10940000D14300F06FB800BF4B0901F01F0150F8C5
:109410002300C84000F00100704700BF2DE9F04F65
:1094200001F1FF3B83B04FEA5B130F460546019302
:1094300000264FF0010A55F8264005EB8608E44364
:1094400094FAA4F4FCB1B4FA84F404EB46144FEAA1
:109450004619A74217D904F01F0360090AFA03F15D
:1094600005EB80009B4600F025F820FA0BF0C307BF
:1094700011D5D8F80030DB4393FAA3F3B3FA83F4A1
:109480004C44002BE5D1019AB24206F1010301D010
:109490001E46D0E73C46204603B0BDE8F08F00BF33
:1094A000034653E8000F0A4643E8002C9CF0000FE7
:1094B000F7D17047034653E8000F40EA010243E842
:1094C000002C9CF0000FF6D1704700BF034653E814
:1094D000002F42EA010043E8000C9CF0000FF6D197
:1094E000704700BF034653E8002F02EA010043E83B
:1094F000000C9CF0000FF6D1704700BF034653E804
:10950000000F00EB010243E8002C9CF0000FF6D1A5
:10951000704700BF034653E8002F02EB010043E809
:10952000000C9CF0000FF6D1704700BF034653E8D3
:10953000002FA2EB010043E8000C9CF0000FF6D1D5
:10954000704700BF0346012253E8000F40EA0201C2
:1095500043E8001C9CF0000FF6D17047034601223F
:1095600053E8001F41EA020043E8000C9CF0000FA2
:10957000F6D170470346002253E8000F00EA0201CB
:1095800043E8001C9CF0000FF6D17047D0B110B436
:10959000D0E90112521A0468D2B2531E2160DBB224
:1095A00052B101680A6803F1FF3C541C0C6013704F
:1095B0005FFA8CF3FF2BF4D10368002018715DF87B
:1095C000044B70470E20704730B583B00446002529
:1095D0000DF107008DF80750FEF726FAD4E90031A7
:1095E0001A688A4210D9511E19602168A3680D6853
:1095F00012F8012C208A5B1BE56800FB02550A79F2
:10960000DBB29A4238BF0B719DF80700FEF732FAC1
:10961000284603B030BD00BF30B5054683B00DF11C
:10962000070000230C468DF80730FEF7FDF92A6885
:109630001368591C1160E9682A8A641AB4FBF2F4B1
:109640001C709DF80700FEF715FA03B030BD00BF8F
:10965000826842B110B504464369016800699847C1
:109660000023A36010BD70470EB400B582B003990B
:1096700021B104AB01AA019300F0B6F802B05DF885
:1096800004EB03B0704700BF2DE9F04F154683B0DF
:10969000A942DDF830900D9A0F4606469A46C0F072
:1096A0009E800B464FF00108B3FBF5F39D4208F195
:1096B0000108F9D9D04538BFD04612F00103019313
:1096C00002D1B9F1000F67D1B268BAF1010F4FF0C2
:1096D000010406D90AF1FF3ABAF1010F05FB04F4BF
:1096E000F8D8B7FBF4F39D4205D805FB04F4B7FBAB
:1096F000F4F39D42F9D9DFF8ECA007E0AC42B4FBEB
:10970000F5F31AD3B2681C46B7FBF3F31AF803B0AB
:10971000BBF10A0F04FB137728D03368511CB160EA
:1097200003F802B0D6E901329A42E7D33046FFF798
:109730008FFFB4FBF5F3AC42E4D2019B9BB1B9F1CE
:10974000000F10D02024C84509F1FF390BD2B368AF
:109750003268591CB160D454D6E901329A4214D20D
:10976000B9F1000FEFD103B0BDE8F08F511C3368A1
:10977000B1604FF00D019954D6E901329A42CCD331
:109780003046FFF765FFB268C7E73046FFF760FF76
:10979000B9F1000FD7D1E6E793071AD42024B268B5
:1097A000C84502F1010190D23368B1609C54D6E9FA
:1097B00001329A4209F1FF3903D2B9F1000FEFD11A
:1097C00083E73046FFF744FFB268B9F1000FE7D1F5
:1097D0007BE7BAF1000F0CBF30242024DFE74FF005
:1097E000010867E7E46D0300002900F05C822DE9C1
:1097F000F04FDFF870950D7885B0064690460C4620
:109800004FF00D0A0FE00A2DB36800F08E80326829
:10981000591CB160D554D6E901329A4280F081805A
:109820002578002D69D00134002D66D0252DEAD190
:109830000027234614F8012B2D2A6CD0302A6DD036
:109840002B2A61D02A2A7FD0A2F1300109294FF0BA
:1098500000050BD805EB850502EB450513F8012F34
:10986000A2F130010929A5F13005F3D92E2A1C46B1
:1098700075D0002301E014F8012F02F0FB016829E4
:10988000F9D0252A00F08681583AD1B2202930D863
:10989000202A2ED8DFE812F021002D002D002D0007
:1098A0002D002D002D002D002D002D002D00FE007F
:1098B00079002D002D002D002D0079002D002D00A8
:1098C0002D002D002D002D00BD002D002D001A01B2
:1098D0002D0016012D002D002100D8F800101022B7
:1098E000081DC8F8000009683046CDE90057FFF7A9
:1098F000CBFE01342578002D95D1337B002B40F031
:10990000438105B0BDE8F08F234614F8012B2D2AC2
:1099100047F0040792D147F001078AE747F00207B2
:1099200087E73046FFF794FE7AE73268591CB1604A
:1099300002F803A0D6E901239342FFF468AF304652
:10994000FFF786FEB36862E7D8F80020111DC8F85B
:10995000001015685A782E2A03F1010489D1627823
:10996000A2F13003092B04F101044FF0000384D865
:1099700003EB830302EB430314F8012FA2F1300140
:109980000929A3F13003F3D977E7D8F80020111D96
:10999000C8F80010D2F800B08BEAEB72A2EBEB72C1
:1099A000092A40F3DB81DFF8C0C301201146632997
:1099B000ACFB02E200F101004FEAD202F6DC984271
:1099C000024638BF1A460292002D00F01E81BBF1FC
:1099D000000FC0F22E817A0700F12B81B80740F109
:1099E0002A81002B40F02781BBF1000FC0F27D815E
:1099F0007A0700F18D8107F00302022A00F05D81F1
:109A0000CDE9005759460A223046FFF73DFE0134A2
:109A100070E7D8F800301A1DC8F800201F68B36836
:109A20003268581C3021B060D154D6E901239342EA
:109A300080F0FA80591C3268B1607821D154D6E99F
:109A400001329A4280F0EB800F2F03D93B461B096D
:109A50000F2BFCD84FF0805506E00F2D4FEA151361
:109A60007FF647AFB2681D46B7FBF5F319F803B0B0
:109A7000BBF10A0F05FB137777D03368511CB16037
:109A800003F802B0D6E901329A42E6D33046FFF736
:109A9000DFFDE2E7D8F800301A1DC8F800201D7875
:109AA000B3680A2D00F03A813268591CB160D55470
:109AB000D6E901329A42FFF41CAF3046FFF7C8FDE9
:109AC000013417E7D8F800100A2209E7D8F8003067
:109AD0001A1DC8F8002017F00107D3F800B064D1B0
:109AE000BBF1000F03D058460CF04AFC0746BD42BC
:109AF00015D9202201E0BD4211D0B1683368481C5D
:109B0000B0605A54D6E90130984205F1FF35F2D3DE
:109B10003046FFF79DFDBD424FF02002EDD19BF88E
:109B20000050002D3FF4E5AE0A2DB0680FD0336829
:109B3000421CB2601D54D6E90130984280F0B480D6
:109B40001BF8015F002D3FF4D4AE0A2DEFD133682E
:109B5000421CB26003F800A0D6E901309842E6D377
:109B60003046FFF775FDB068E1E73368511CB1601E
:109B700003F802A0D6E901329A42FFF47EAF3046E4
:109B8000FFF766FDB26878E7304605B0BDE8F04FF4
:109B9000FFF75EBDB3683168581CB060CA54D6E99F
:109BA00001329A4289D20134A4E69BF80030002B9E
:109BB00000F0D680B0685F46CBF101020A2B02EBC1
:109BC000070B5ED0411CB16031680B54D6E90130FF
:109BD000984248D217F8013F002BEFD15D457FF640
:109BE00088AE202702E05D453FF483AEB26833685B
:109BF000511CB1609F54D6E901329A4205F1FF35FC
:109C0000F1D33046FFF724FDEDE7B80705D5002B6B
:109C10003FF4EAAEF9073FF5E7AE0025E4E630464B
:109C2000FFF716FDB2680FE73046FFF711FDB36886
:109C300000E7013DD2E6F9073FF5D6AE002DECD0A6
:109C400020220299A942BFF4CFAEB168481CB0608F
:109C500030684254D6E90101814205F1FF356CD2EA
:109C6000002DEED1D9E730460292FFF7F1FC17F84C
:109C7000013F002BB2D0029AB0680A2B02EB070B0F
:109C8000A0D1411CB160316801F800A0D6E90110F3
:109C9000884297D33046CDE90232FFF7D9FCDDE99F
:109CA0000232B0688EE770473046FFF7D1FC1BF8F0
:109CB000015F002D7FF438AF1BE6002B7FF4A0AED0
:109CC0008DB1302202998D427FF69AAEB168481C60
:109CD000B06030684254D6E90101814205F1FF3598
:109CE00035D2002DEED100258AE6B1683268481CD5
:109CF000B060CBF1000B2D205054D6E901219142E8
:109D0000FFF479AE30460393FFF7A2FC039B72E6A3
:109D1000B1683268481CB0602B20EDE73268591CEE
:109D2000B16002F803A0D6E901239342FFF4BCAE70
:109D30003046FFF78DFCB368B6E630460393FFF775
:109D400087FC039B2022002D7FF47BAF65E7304624
:109D50000393FFF77DFC039B3022C2E701202EE630
:109D60009B463BE7E46D0300CDCCCCCC10B582B074
:109D700038B1B9B101600B68114602B0BDE81040BE
:109D80001847104B1048114A1149C01AC0080E2438
:109D90000004104B009440F00100FCF74BFE0E2035
:109DA00002B010BD074B08480B4A0949C01AC00849
:109DB0000E240004074B009440F00100FCF73AFE2B
:109DC000EDE700BF408F0300988F0300F46D0300A0
:109DD000FC6D0300D06F0300286E03002DE9F041F5
:109DE00082B0002859D01546002A5FD00768002F9E
:109DF00065D01C466BB34668D6F80480B3FBF8F612
:109E000008FB163676BB11F0030F34D1AD073BD1FA
:109E1000C568A94211D22E4B2E482F4AC01A1024D1
:109E2000C0082E4BA0402E49009440F00100FCF7E2
:109E300001FE204602B0BDE8F081056901F1FF3E58
:109E40007444AC42E7D8FC68A44602B0BDE8F041D7
:109E500060471F4B1F48234AC01AC0081F4B0924E4
:109E60000004E0E71A4B1B481F4AC01AC0081B4BEE
:109E700009240004D7E7164B16481C4AC01A1024C0
:109E8000C008164BA040CEE7114B1248184AC01A22
:109E90001024C008114BA040C5E70D4B0D48154AD2
:109EA000C01AC0080D4B0E240004BCE7084B09483B
:109EB000114AC01AC008094B0E240004B3E7044B32
:109EC00004480E4AC01AC008044B08240004AAE73C
:109ED000408F0300988F0300F86E0300BC6F0300EF
:109EE000FC6D0300446E0300906E0300BC6E030023
:109EF000D46E0300F46D0300886E0300306E03001F
:109F0000F0B583B000283AD00668002E40D022B3C6
:109F1000446827687C1E0C4228D1C468A14210D234
:109F2000204B2148214AC01A1024C008204BA040D1
:109F30002049009440F00100FCF77CFD204603B06E
:109F4000F0BD4C1E07FB024E0469A645E8D83469F3
:109F5000A44603B0BDE8F0406047124B1248164AD1
:109F6000C01AC008124B09240004E1E70D4B0E484B
:109F7000124AC01A1024C0080D4BA040D8E7094B64
:109F800009480F4AC01AC008094B0E240004CFE745
:109F9000044B05480B4AC01AC008054B08240004AE
:109FA000C6E700BF408F0300988F0300486F03008F
:109FB000A86F0300FC6D0300446E0300206F0300D4
:109FC000F46D0300306E030029DF704728DF70470F
:109FD0000846704700207047024B187A003818BFB7
:109FE0000120704734620020034B187A0122B0FA36
:109FF00080F05A74400970473462002008B510465A
:10A000001A460CF049F8002008BD00BF08B514221C
:10A01000002104480CF056F90348FFF729F9002005
:10A0200008BD00BF346200202462002010B50A4C35
:10A030000A4B43602046FFF785FA08B1002010BDA7
:10A040000BF068FE02462274054906481C238C2248
:10A05000FFF7F6F8002010BD34620020E46F030023
:10A06000986100202462002030B53B4D2B7A87B0E8
:10A07000002B3AD0394B1C6802232B722379002B1A
:10A080003ED0012B25D022689368C3B10023CDE9CF
:10A0900002330093049303230193A3680593237968
:10A0A000002B4BD0012B07D102238DF80030E36841
:10A0B000616904911B030293936868469847284995
:10A0C000284800232B726B6007B0BDE83040FFF7D3
:10A0D00065B9D4E903031844FFF778FF20B31128CA
:10A0E000D1D101232B7207B030BD1D491D48FFF7A8
:10A0F00023F91A4B044618600028BDD16860F2E7C6
:10A10000D4E90523D21AB2F5805F28BF4FF48052FC
:10A110009208E1682069012A38BF012219441844D5
:10A12000FFF752FF0028DAD12B7C002BDBD1014650
:10A13000022007B0BDE8304000F016B801238DF8CA
:10A14000003023690293E1686369CDE9031368462F
:10A1500093689847B3E700BF346200204C62002048
:10A160004862002024620020831E012B42D810B5D3
:10A17000354C237A86B0002B3AD0022B31D10328FC
:10A180003ED0324B00221B68E2601A79002A44D08C
:10A19000012A26D1D3E9042101328A421A6120D151
:10A1A0000020207219688A68BAB10022CDE9022223
:10A1B000009204929A68019005921A79002A39D087
:10A1C000012A07D102228DF80020DA68586904902C
:10A1D000120302928B68684698471D491D48FFF795
:10A1E000DDF8637C3BB906B0BDE81040FFF73CBF2B
:10A1F00006B010BD704706B0BDE810400BF07ABD48
:10A20000E3680133082B01D8E360EAE70F4B002233
:10A210001B68E26022720D20C4E7D3E90512881A98
:10A22000B0F5805F94BF121802F5805291429A6196
:10A23000D7D1B5E701228DF800201A690292DA68B9
:10A240005B69CDE90323C5E7346200204C6200203E
:10A2500048620020246200202DE9F04184B00746C6
:10A260008846184803A916461D46FFF723F820B371
:10A2700004461C2200210CF025F80A9B276065612A
:10A28000114F1048A360002503A9C4F81080E660B0
:10A290002571FFF741F8381DFFF754F918B128462A
:10A2A00004B0BDE8F0817B7C002BF9D10190FFF771
:10A2B000DBFE019804B0BDE8F081042004B0BDE8E5
:10A2C000F08100BF24620020346200202DE9F041BB
:10A2D00084B080460D46174803A916461F46FEF770
:10A2E000E9FF18B304461C2200210BF0EBFF2D0BF5
:10A2F000A7600123104F0F48C4F8008003A9E56050
:10A3000066612371FFF708F8381DFFF71BF918B1D4
:10A31000002004B0BDE8F0817B7C002BF9D10190D6
:10A32000FFF7A2FE019804B0BDE8F081042004B05C
:10A33000BDE8F081246200203462002000F0FD03BB
:10A34000012B00D0704730B53D4DA0F10100B0FAAF
:10A3500080F02B7A0022400987B06A742874002BA1
:10A360004ED0384B1C6802232B722379002B52D01D
:10A37000012B07D1D4E903031844FFF727FE58B394
:10A3800011281CD0226893687BB10023CDE90233E9
:10A390000093049303230193A368059323792BB3BC
:10A3A000012B10D093686846984727492748002317
:10A3B0002B726B6007B0BDE83040FEF7EFBF0123A2
:10A3C0002B7207B030BD02238DF80030E36861695D
:10A3D00004911B030293E5E72B7C002BF1D101468E
:10A3E000022007B0BDE83040FFF7BEBE01238DF864
:10A3F00000302369E16802936369CDE90313D1E773
:10A4000011491248FEF798FF0E4B044618600028C9
:10A41000A9D16860D5E7D4E90523D21AB2F5805FE7
:10A4200028BF4FF480529208E1682069012A38BFA2
:10A43000012219441844FFF7C7FD0028A0D1CBE73B
:10A44000346200204C620020486200202462002018
:10A45000FFF79CB82DE9F041058A0331043D4E1900
:10A460008046B6FBF5F6FFF7AFF8A0B3F6B24FF4AF
:10A470008073013E04468380C580C0F800802BD0E5
:10A480000346002508E06279AE4202F101026271E2
:10A490003860C0F800801FD040461F46FFF794F890
:10A4A000013503460028EED16779791E17D0224680
:10A4B000013399421268FBD1D2F800805FB126685F
:10A4C000002501E034463668214640460135FFF755
:10A4D000A3F8AF42F6D800242046BDE8F0812068FA
:10A4E0002146FFF799F8F6E701210430FFF712B88B
:10A4F0002DE9F041012104460430FFF717F810F070
:10A50000FF0301D0BDE8F0816779791E16D022469D
:10A51000013399421268FBD1D2F80080002FF1D0AC
:10A520002668002501E0344636682146404601355C
:10A53000FFF772F8AF42F6D8BDE8F08120682146F7
:10A54000BDE8F041FFF768B82DE9F8438846C788B1
:10A55000417907FB01F1043902EB030C1E1D614533
:10A56000154638BFCD1AB7420446B6FBF7F207FBD3
:10A57000126002D8013A2468FCD13E1AAE4228BFCC
:10A580002E469DB14FF000090430AD1B324608EB5A
:10A59000090120440BF080FDAF42B14424683E46DF
:10A5A0004FF0000028BF2E46002DEDD1BDE8F88306
:10A5B0002DE9F8430446C788407907FB00F00438CA
:10A5C00002EB030C1E1D6045154638BFC51AB74285
:10A5D0008846B6FBF7F107FB116202D801392468FF
:10A5E000FCD1BE1AAE4228BF2E469DB14FF00009E5
:10A5F000111DAD1B3246214408EB09000BF04CFD48
:10A60000AF42B14424683E464FF0000228BF2E46B8
:10A61000002DEDD1BDE8F883826800239360826845
:10A620001361826853618268D36082685360826874
:10A630001360704701600B6843604A68934204BF2F
:10A6400000234360704700BF436843B102689168CC
:10A650000B4443605268934204BF00234360704739
:10A660001049A1F5947205E052F83330984238BF92
:10A6700061460CD2A1EB020C4FEADC7303EBEC0356
:10A680005B10914202EBC30CEED80748704702D929
:10A690000CF10802EEE7DCF80400034B002808BFC9
:10A6A0001846704738750300FC730300D1E9002396
:10A6B00091F80CC0BCF1000F0ABF13460022012222
:10A6C00002710360704700BF10B403795BB14B683F
:10A6D00004688A68191B914218D9A31803605DF8B1
:10A6E000044B1846704704680B688A68E11A914267
:10A6F00006D80122036002715DF8044B18467047CA
:10A70000A31A03605DF8044B1846704700220360EB
:10A7100002715DF8044B1846704700BF10B44FF04B
:10A720008053D3F830315A1C04BF4FF0704393F874
:10A73000E03F062B08D14FF08053C24AD3F82433B0
:10A74000C3F30423C2F840354FF0704393F8E02F71
:10A75000062A00F024814FF08053D3F830315C1C7E
:10A7600004BF4FF0704393F8E03F062B09D14FF040
:10A7700080534FF08042D3F84432C3F34233C2F8DF
:10A780003C354FF0704393F8E02F062A00F0F2803A
:10A790004FF08053D3F83031581C04BF4FF0704352
:10A7A00093F8E03F062B08D14FF080430022C3F816
:10A7B0000C21C3F81021C3F838254FF0704393F8EB
:10A7C000E02F062A00F0B3804FF08052D2F83031EB
:10A7D000591C27D0062BD2F834212DD09A4AD2F812
:10A7E000883043F47003C2F88830BFF34F8FBFF353
:10A7F0006F8F4FF08053D3F83021062A00F0E080AD
:10A800004FF01023D3F80022002AC0F23B81D3F886
:10A810000432002BC0F236818C4B8D4A1A605DF8F1
:10A82000044B70474FF0704292F8E01FD2F8E82FC7
:10A830000629D3D1C2F30312033A042A40F2DA8084
:10A840004FF08053834AD3F80414C2F82015D3F88C
:10A850000814C2F82415D3F80C14C2F82815D3F83C
:10A860001014C2F82C15D3F81414C2F83015D3F80C
:10A870001814C2F83415D3F81C14C2F84015D3F8D4
:10A880002014C2F84415D3F82414C2F84815D3F89C
:10A890002814C2F84C15D3F82C14C2F85015D3F86C
:10A8A0003014C2F85415D3F83414C2F86015D3F834
:10A8B0003814C2F86415D3F83C14C2F86815D3F8FC
:10A8C0004014C2F86C15D3F84414D3F83031C2F8F0
:10A8D00070155C1C04BF4FF0704393F8E03F062BEB
:10A8E0007FF47CAF4FF080524FF08041D2F8583265
:10A8F000D2F8302103F04F03501CC1F8E43E7FD062
:10A90000062A7FF46BAFD1F80034DA0700F18480B7
:10A910004FF08053D3F83431033B042B64D94E4AB3
:10A92000D2F83C3743F48063C2F83C3756E7D3F89B
:10A93000E83FC3F30313033B042B3FF645AF474AFD
:10A94000D25C22B14FF080420321C2F8A015444AE4
:10A95000D35C002B3FF438AF424B0524012000218B
:10A960003F22C3F81046C3F88806C3F81816C3F888
:10A97000142629E7D3F8E83FC3F30313033B042B62
:10A980003FF606AF384AD35C002B3FF401AF2E4AA6
:10A99000D2F8FC3023F08073C2F8FC30F8E6D3F82C
:10A9A000E83FC3F30313033B042B3FF6D4AE2F4A17
:10A9B000D35C002B3FF4CFAE2D4B2E4A5A67CAE62C
:10A9C000D3F83431033B042B08D94FF010224FF059
:10A9D0008043D2F80822C3F8582511E7264AD35CF1
:10A9E000002B3FF40DAFF0E7244AD35C002B3FF47B
:10A9F000F5AE94E722498A5C002A3FF46AAF1FE76C
:10AA00004FF0704393F8E03F062B7FF4E7AED1F8A8
:10AA10000034DB077FF5E2AE4FF080534FF0804209
:10AA2000D3F830316FF00101062BC2F800147FF427
:10AA3000D5AE4FF08053D3F83431033B042B3FF6AF
:10AA40006EAFD1E70030014000ED00E084590020F6
:10AA50000090D00300C0004000100040507503007B
:10AA600050750300005000405075030050750300FE
:10AA700000C007400DF0ADBA4875030040750300F3
:10AA800038750300184A0123C2F80435D2F800349F
:10AA9000002BFBD04FF010231521134AC3F80012EE
:10AAA000D2F80034002BFBD04FF0102315210E4AB2
:10AAB000C3F80412D2F80034002BFBD000230A495B
:10AAC000C2F80435D1F80034002BFBD0BFF34F8F10
:10AAD0000649074BCA6802F4E0621343CB60BFF338
:10AAE0004F8F00BFFDE700BF00E0014000ED00E038
:10AAF0000400FA0538B5430704461CBF20F00704DC
:10AB0000083401F0FBF80E4A13689BB10D4A156832
:10AB100040F6F7712C448C4207D8A54205D21D445B
:10AB2000146001F0A1F9284638BD002501F09CF918
:10AB3000284638BD044B23F007031360E6E700BF47
:10AB400050620020547200205C620020704700BFF9
:10AB500000F108034FF0FF310022C0E90131C0E9E4
:10AB600003330260704700BF00230361704700BFDA
:10AB700043684B609A688A60516099600861036815
:10AB800001330360704700BF30B40D686B1C10D0F8
:10AB900000F108031C465B681A68AA42FAD94B60A8
:10ABA00099608C60616008610368013330BC0360A8
:10ABB000704704696368F2E7D0E9011203698A60AB
:10ABC000416851605A68824204BF82685A6000221C
:10ABD00002611A68013A1A601868704707480068ED
:10ABE00080F3088862B661B6BFF34F8FBFF36F8FF3
:10ABF0004FF4F07080F3118800DF00BF00600200A6
:10AC0000064B19680868B0E8F04F80F30988BFF375
:10AC10006F8F4FF0000080F3118870477072002032
:10AC2000EFF30980BFF36F8F144B1A681EF0100FFB
:10AC300008BF20ED108A20E9F04F10604DF8043D68
:10AC40004FF0400080F31188BFF34F8FBFF36F8F39
:10AC500001F020FA4FF0000080F3118808BC196859
:10AC60000868B0E8F04F1EF0100F08BFB0EC108A73
:10AC700080F30988BFF36F8F704700BF70720020A8
:10AC8000402383F31188FEE710B44FF08073064C25
:10AC900040F8043C6FF0020340E9034140E9093207
:10ACA00044385DF8044B704781AC02000F4C08B586
:10ACB000E02384F8223000F077F80D4B00221A6070
:10ACC000D4F888300B4A43F47003C4F88830536BCF
:10ACD00043F040435363236943F010032361FFF7BC
:10ACE0007DFF402383F31188FEE700BF00ED00E005
:10ACF0005872002000EF00E0402383F31188024ADD
:10AD0000136801331360704758720020034A1368B8
:10AD1000013B13600BB983F3118870475872002010
:10AD200041DF704770B51E4B0022C3F8402182B04E
:10AD3000D3F8401101910199EFF31186402181F37D
:10AD40001188D3F80445C3F80021D3F800310093EB
:10AD5000009B00F0DBFF201A20F07F4323F001036B
:10AD600020F07F459BB96C1E6DB1002500F0E2FF1D
:10AD700023460543013C002BF8D125B1094B4FF088
:10AD800080525A6040BF86F3118802B070BD01F056
:10AD900005FB0228E7D000F0CDFF0546EDE700BF38
:10ADA0000010014000ED00E010B5002002F03CF87A
:10ADB000094B0A4901221F24C3F808450220C3F8A1
:10ADC00004239A601A60E022C3F8440381F8112337
:10ADD0004FF400330B6010BD0010014000E100E0B3
:10ADE0002DE9F041064684B0EFF3108272B64C4D67
:10ADF000AB6883B94B4B4C480121A960D3F8801054
:10AE000001402960C3F88000D3F8841069604FF0D6
:10AE1000FF31C3F8841002B962B6444CD4F80485FB
:10AE200001F0A0FA88B3424FB74228BF374607EB7C
:10AE3000080323F07F430122C4F80823C4F84035F7
:10AE40000023C4F84031D4F840310193019B4FF402
:10AE50008033C4F80433BFF34F8F3EBBC4F80833CC
:10AE6000C4F84061D4F840310393039BC4F80061F7
:10AE7000D4F8003102932B4B0299C4F804234FF409
:10AE80000031D4F80425C3F88011AB685BB1EFF34F
:10AE9000108272B6234B29681960686858600021D7
:10AEA000A96002B962B604B0BDE8F0810AF032FFD1
:10AEB00078BB1C4B20BFD3F80011D3F804210A4300
:10AEC000F8D01A4B4FF48032C3F808230022C3F89D
:10AED0004021D3F8401103910399C3F80021D3F81E
:10AEE0000021029201220299C3F80423D3F8040539
:10AEF0000C4BA0EB080020F07F40B8424FF400322A
:10AF000028BF3846C3F880210028BED000F00AFFD1
:10AF1000BBE7FFF705FF0028D3D0FCF76FFCD0E7B5
:10AF20006C60002000E100E0FC06FFBD0010014065
:10AF3000FDFFFF0070B506460D4651B100FB01F064
:10AF40004830FFF7D7FD044658B300F148030360CB
:10AF500005E04820FFF7CEFD044610B32460C4E9A5
:10AF60000F65FFF7C9FED4E90F23216803FB02F246
:10AF7000D31A0A440B4462600020FF22A063C4E994
:10AF8000021384F8442004F1100084F84520FFF7F0
:10AF9000DFFD04F12400FFF7DBFDFFF7B7FE2046DD
:10AFA00070BD0024204670BD2DE9F047044684B0F2
:10AFB0001F460192884600F12406FFF79DFEA26B12
:10AFC000E36BDFF830939A424FF0000A7AD3022FF6
:10AFD00000F0E480019D002D00F00D8102ADBAF17A
:10AFE000000F00F0D780FFF791FE00F087FEFFF71B
:10AFF00083FE94F84430FF2B04BF002384F84430D0
:10B0000094F84530FF2B04BF002384F84530FFF748
:10B010007DFE01A9284601F06BF9002840F0F1807F
:10B02000FFF76AFEA26BE36B9A425FD0FFF76EFEFA
:10B03000FFF762FE94F8452055B2002D04DC11E0C4
:10B040006A1ED3B255B26BB1636A304653B101F098
:10B05000F1F80028F4D001F07FF96A1ED3B255B29E
:10B06000002BF1D1FF2384F84530FFF74FFEFFF7A7
:10B0700043FE94F8442055B2002D14DD04F1100A6B
:10B0800003E06A1ED3B255B26BB12369504653B187
:10B0900001F0D0F80028F4D001F05EF96A1ED3B2B6
:10B0A00055B2002BF1D1FF2384F84430FFF72EFE78
:10B0B00000F0DAFEFFF720FEA26BE36B9A424FF03E
:10B0C000010A84D2226CA56B002A40F0E280266837
:10B0D000002E00F0F4800135A563636A002B79D15E
:10B0E000FFF714FE012004B0BDE8F08704F1100A58
:10B0F000FFF70CFE0199504601F002F8FFF7FCFD46
:10B1000094F845305DB2002D04DC11E06B1EDAB21C
:10B110005DB26AB1636A304653B101F08BF8002822
:10B12000F4D001F019F96B1EDAB25DB2002AF1D148
:10B13000FF2384F84530FFF7E9FDFFF7DDFD94F8C4
:10B1400044305DB2002D04DC11E06B1EDAB25DB25A
:10B150006AB12369504653B101F06CF80028F4D06D
:10B1600001F0FAF86B1EDAB25DB2002AF1D1FF23CA
:10B1700084F84430FFF7CAFD00F076FE002899D12C
:10B180004FF08053C9F8043040BFBFF34F8FBFF377
:10B190006F8F8FE7284601F09FF824E7226CA56B9C
:10B1A000002A94D04146E0680AF076FF226CE368FA
:10B1B00051429B1A2268E360934204D263680B44B5
:10B1C000E360022F87D1002D86D10123A363636A38
:10B1D000002B85D004F1240001F02CF800283FF466
:10B1E0007FAF444B4FF080525A6040BFBFF34F8F48
:10B1F000BFF36F8F74E7FFF789FD284604B0BDE801
:10B20000F087FFF779FD94F845305DB2002D14DD2D
:10B2100004F1240603E06B1EDAB25DB26AB1636A20
:10B22000304653B101F006F80028F4D001F094F84C
:10B230006B1EDAB25DB2002AF1D1FF2384F84530EB
:10B24000FFF764FDFFF758FD94F844305DB2002D20
:10B2500014DD04F1100603E06B1EDAB25DB26AB1D0
:10B260002369304653B100F0E5FF0028F4D001F027
:10B2700073F86B1EDAB25DB2002AF1D1FF2384F8B5
:10B280004430FFF743FD00F0EFFD002004B0BDE8BF
:10B29000F08707BB4146A0680AF0FEFEA368216C58
:10B2A00062680B449342A360FFF415AF0135A563B8
:10B2B000636A2268A260002B3FF412AF8AE76068DD
:10B2C000013501F07BF8A563636A6660002B81D1CC
:10B2D000002886D104E74146E0680AF0DDFE226CD2
:10B2E000E36851429B1A2268E3609342BFF469AF5E
:10B2F00064E700BF00ED00E02DE9F043044683B0B1
:10B3000016469946EFF31188402282F31188806B2C
:10B31000E26B904223D3022B05D0002088F31188E2
:10B3200003B0BDE8F08394F84550226CA76B6DB272
:10B33000DAB1E0680AF0B0FE226CE1682068891A90
:10B340008142E160C2F1000205D261680A44E26014
:10B35000B9F1020F0CD1012F38BF012709E094F891
:10B360004550226CA76B6DB282B92368002B2CD09C
:10B3700001376B1CA7631AD001356DB284F84550B4
:10B38000012088F3118803B0BDE8F08323BBA068D7
:10B390000AF082FEA368226C13446268A3609342A1
:10B3A00024BF2368A36001376B1CA763E4D1636AE1
:10B3B000002BE5D004F1240000F03CFF0028DFD092
:10B3C000002EDDD001203060A8E76068019300F016
:10B3D000F5FF019B6360CBE7E0680AF05DFE226C3D
:10B3E000E1682068891A8142E160C2F10002AFD2AF
:10B3F000ABE700BF2DE9F043044685B00F4601924C
:10B40000FFF77AFCA56B002D40F01D81019B002BFE
:10B4100000F0CE8002A800F05FFFDFF8788204F130
:10B420002406FFF773FC00F069FCFFF765FC94F855
:10B430004430FF2B04BF002384F8443094F8453097
:10B44000FF2B04BF002384F84530FFF75FFC01A900
:10B4500002A800F04DFF002859D1FFF74DFCA36B67
:10B46000002B40F0AB80FFF751FC0199304600F013
:10B4700047FEFFF741FC94F845305DB2002D04DC37
:10B4800011E06B1EDAB25DB26AB1636A304653B145
:10B4900000F0D0FE0028F4D000F05EFF6B1EDAB2A0
:10B4A0005DB2002AF1D1FF2384F84530FFF72EFC6E
:10B4B000FFF722FC94F844305DB2002D14DD04F156
:10B4C000100903E06B1EDAB25DB26AB12369484627
:10B4D00053B100F0AFFE0028F4D000F03DFF6B1E2A
:10B4E000DAB25DB2002AF1D1FF2384F84430FFF7CD
:10B4F0000DFC00F0B9FC002851D14FF08053C8F882
:10B50000043040BFBFF34F8FBFF36F8F47E0FFF7AB
:10B51000F3FB94F845305DB2002D04DC11E06B1EA6
:10B52000DAB25DB26AB1636A304653B100F082FEAE
:10B530000028F4D000F010FF6B1EDAB25DB2002AD2
:10B54000F1D1FF2384F84530FFF7E0FBFFF7D4FB90
:10B5500094F844305DB2002D14DD04F1100903E0CD
:10B560006B1EDAB25DB26AB12369484653B100F08E
:10B5700061FE0028F4D000F0EFFE6B1EDAB25DB27F
:10B58000002AF1D1FF2384F84430FFF7BFFB00F01D
:10B590006BFCFFF7B1FBA36B53B1FFF7B7FBFFF7F2
:10B5A000ABFBA56B002D4ED1019B002B7FF439AF77
:10B5B000FFF7ACFB002005B0BDE8F083FFF7A6FB6A
:10B5C000FFF79AFB94F845305DB2002D04DC11E0E2
:10B5D0006B1EDAB25DB26AB1636A304653B100F0F5
:10B5E00029FE0028F4D000F0B7FE6B1EDAB25DB27F
:10B5F000002AF1D1FF2384F84530FFF787FBFFF7DE
:10B600007BFB94F844305DB2002D14DD04F1100989
:10B6100003E06B1EDAB25DB26AB12369484653B1EA
:10B6200000F008FE0028F4D000F096FE6B1EDAB29F
:10B630005DB2002AF1D1FF2384F84430FFF766FBA6
:10B6400000F012FCABE7226C52B1E1686368114470
:10B650009942E16024BF2168E16038460AF01CFD90
:10B66000013DA56323692BB9FFF750FB012005B00D
:10B67000BDE8F08304F1100000F0DCFD0028F3D0F9
:10B68000044B4FF080525A6040BFBFF34F8FBFF35F
:10B690006F8FE9E700ED00E0064B1A681AB19A686F
:10B6A00002B17047012203EBC20C43F83210CCF810
:10B6B0000400F6E76072002070B505460E46144699
:10B6C000FFF71AFB95F84430FF2B04BF002385F8E1
:10B6D000443095F84530FF2B04BF002385F84530F2
:10B6E000FFF714FBAB6B002B43D0FFF705FB95F87E
:10B6F00045305CB2002C14DD05F1240603E0631E26
:10B70000DAB25CB26AB16B6A304653B100F092FDB6
:10B710000028F4D000F020FE631EDAB25CB2002AEA
:10B72000F1D1FF2385F84530FFF7F0FAFFF7E4FA8F
:10B7300095F844305CB2002C14DD05F1100603E0EE
:10B74000631EDAB25CB26AB12B69304653B100F0C5
:10B7500071FD0028F4D000F0FFFD631EDAB25CB288
:10B76000002AF1D1FF2385F84430BDE87040FFF78F
:10B77000CDBA2246314605F1240000F009FDB4E7B8
:10B78000F8B51B4B1B4E1C6833680546181D0F4649
:10B79000FFF712FA48B933681749DA6A012303FA46
:10B7A00002F20B6823EA02030B606B1C17D03368AC
:10B7B00064195C6007D3114B18683168BDE8F84024
:10B7C0000431FFF7E1B90E4B186831680431FFF717
:10B7D000DBF90C4B1A68A24288BF1C60F8BD002F31
:10B7E000E5D031680848BDE8F8400431FFF7C0B93A
:10B7F0004473002070720020CC7200207872002008
:10B8000074720020FC7200201C7300202DE9F84F98
:10B810009600804630460D469946FFF76BF90028A2
:10B8200000F0858007464820FFF764F904460028A9
:10B8300000F08880076332463846A5210AF042FDB1
:10B840002B7884F834302B78D4F830B063B16B782F
:10B8500084F835306B783BB1AB7884F83630AB7810
:10B8600013B1EB7884F837300A9D022D28BF0225EA
:10B870004FF0000A271DE562A563384684F837A01B
:10B88000C4F83CA0043EFFF76FF95E4404F11800D1
:10B89000C5F10305FFF768F9C4F840A0A56184F875
:10B8A00044A0246164624A46414626F00700FFF73F
:10B8B000EBF90B9B206003B11C60FFF71DFA3C4ABB
:10B8C0003C4E1368013313603368002B43D0DFF81C
:10B8D0001881D8F8003073B3E36A374802683946F4
:10B8E000364F0132D7F800C002600125344805FA0E
:10B8F00003F203EB830342EA0C0200EB83003A609D
:10B90000FFF736F9FFF702FAD8F8003003B33268D0
:10B91000E36AD26A9A421BD22A4B4FF080525A6095
:10B9200040BFBFF34F8FBFF36F8F284601E04FF04A
:10B93000FF30BDE8F88F3368DA6AE36A9A4298BF4D
:10B940003460CAE73846FFF701F94FF0FF30F0E7FF
:10B950002846BDE8F88F34601368012B03D0E36AF2
:10B96000DFF88480B9E71648DFF88090164DDFF8DD
:10B970007880FFF7EDF81548FFF7EAF81448FFF76D
:10B98000E7F84846FFF7E4F82846FFF7E1F81148E2
:10B99000FFF7DEF81048FFF7DBF81048FFF7D8F89C
:10B9A0000F4BC3F800900F4B1D60E36A95E700BF93
:10B9B000B872002070720020C8720020CC72002083
:10B9C0007C72002000ED00E0E47200209072002004
:10B9D000A472002004730020307300201C73002028
:10B9E000747200207872002018730020D07200203A
:10B9F00070B50446454EFFF77FF9002C69D0251D30
:10BA00002846FFF7D9F838B9E26A414902EB8203C8
:10BA10009B00CB58002B45D0A36A1BB104F1180042
:10BA2000FFF7CAF829463B483B4DFFF7A1F894F8C9
:10BA30004430012B04BF002384F84430FFF766F93B
:10BA40002B68002B36D13368A34200D070BD2B6821
:10BA5000002B45D12F49314A0968126891421FD005
:10BA60002F4B1B68002B45D12E492F4A0B601368C2
:10BA7000002B43D0B3FA83F3C3F11F0303EB83011D
:10BA800089009A0008312248134400EB83030144E3
:10BA90005A6852685A608A4204BF52685A60D36832
:10BAA000336070BD2049012393400A6822EA0302F3
:10BAB0000A60B1E7FFF720F91C4B1A68126852B10F
:10BAC0001A681B4BD268D26852681A60FFF71EF9D9
:10BAD000B9E7346893E7164B4FF0FF321A60F5E789
