:1000000000000120F902000021030000230300008A
:100010002503000027030000290300000000000062
:100020000000000000000000000000002B030000A2
:100030002D030000000000002F030000310300002A
:1000400033030000330300006108000033030000A5
:1000500033030000330300003303000033030000C8
:1000600033030000330300003303000033030000B8
:1000700033030000330300003303000033030000A8
:100080003303000033030000330300003303000098
:100090003303000033030000330300003303000088
:1000A0003303000033030000330300003303000078
:1000B00033030000330300000000000000000000D4
:1000C0003303000033030000330300003303000058
:1000D000330300003303000033030000000000007E
:1000E0000000000000000000000000000000000010
:1000F0000000000000000000000000000000000000
:1001000000000000000000000000000000000000EF
:1001100000000000000000000000000000000000DF
:1001200000000000000000000000000000000000CF
:1001300000000000000000000000000000000000BF
:1001400000000000000000000000000000000000AF
:10015000000000000000000000000000000000009F
:10016000000000000000000000000000000000008F
:10017000000000000000000000000000000000007F
:10018000000000000000000000000000000000006F
:10019000000000000000000000000000000000005F
:1001A000000000000000000000000000000000004F
:1001B000000000000000000000000000000000003F
:1001C000000000000000000000000000000000002F
:1001D000000000000000000000000000000000001F
:1001E000000000000000000000000000000000000F
:1001F00000000000000000000000000000000000FF
:100200000348044B834202D0034B03B118477047A5
:1002100084000020840000200000000005480649FA
:100220000B1AD90F01EBA301491002D0034B03B104
:100230001847704784000020840000200000000060
:1002400010B5064C237843B9FFF7DAFF044B13B11E
:100250000448AFF300800123237010BD8800002004
:1002600000000000BC34000008B5044B1BB1044979
:100270000448AFF30080BDE80840CFE7000000006D
:100280008C000020BC340000A3F5803A704700BF0A
:10029000154B002B08BF114B9D46FFF7F5FF0021C2
:1002A0008B460F461148124A121A01F0A9FB0C4B5B
:1002B000002B00D098470B4B002B00D09847002014
:1002C000002104000D000B4801F0ACFA01F0DAFA4D
:1002D0002000290001F074F801F0AAFA00000800DB
:1002E0000000000000000000000001208800002045
:1002F000E4030020591800000649074A074B9B1ADF
:1003000003DD043BC858D050FBDC01F09FF8FFF739
:10031000BFFF0000C834000000000020880000205B
:10032000FEE7FEE7FEE7FEE7FEE7FEE7FEE7FEE7A5
:10033000FEE7FEE7C20710B41AD54FF0A043032230
:100340004FF40031C3F844274FF48024C3F8482702
:10035000C3F84C27C3F85027C3F808154FF4801290
:100360004FF40021C3F80845C3F80815C3F8082561
:1003700083070AD54FF0A0430C22C3F83427C3F8F3
:100380003827C3F83C27C3F840275DF8044B704773
:1003900000B585B00346002101AA44F20100CDE971
:1003A0000111039300F004F805B05DF804FB00BFF1
:1003B00072B6094BD3F8F030DB0700D500BEBFF3AF
:1003C0004F8F0549054BCA6802F4E0621343CB60C6
:1003D000BFF34F8F00BFFDE700ED00E00400FA051A
:1003E00059B142B1531E1A4005D182600160838029
:1003F000C26010467047092070470E20704700BF4A
:1004000010B48468C26803468088121B904203D2ED
:1004100004205DF8044B7047DC681A6820401154D2
:10042000DA680132DA6000205DF8044B704700BFE3
:1004300003468068DA6890420DD010B49C689A88B0
:1004400018682240825C0A709A6801329A60002023
:100450005DF8044B70470520704700BF30B5047845
:10046000012C83B004D0022C2DD0ECB103B030BDF0
:10047000037A002B3CD04368364D19782846FFF7A5
:10048000BFFF002855D0344B01901B688DF8004009
:1004900068469847A968EB68AA885B1A9A4227D2EF
:1004A0002E4B01221A70E1E72D492E48FFF7C0FFBD
:1004B00000282DD0284B03221B688DF800206846A9
:1004C000984703B030BD284B284D1A78C168AA5C04
:1004D00001918DF800402649AAB9012203F10C00D0
:1004E00000F010FC1C4B68461B68984703B030BDF9
:1004F0001D4B1E4A1B781E49D35C0122ABB11D481F
:1005000000F0B8FEB2E70122181D00F0B3FEE9E7E3
:100510001548164A03781249D35C0122A3B104306E
:1005200003B0BDE8304000F03FBE134800F0EAFBE6
:100530009CE7AA68EB689A42ACD0074B8DF80000A4
:100540001B6868469847A5E70C3003B0BDE830400B
:1005500000F060BBA8000020A4000020B80000202C
:10056000D0000020BC00002000000020E00000209F
:10057000CC000020040000200C0000202DE9F041F8
:100580002F4E88B03260002951D08A8804460E462A
:100590002C4809681D46FFF723FF10B108B0BDE8DD
:1005A000F081B289B1682848FFF71AFF0028F5D119
:1005B00094F810E0637C254E254FBEF1000E18BF65
:1005C0004FF0010E002B0FCEEC46ACE80F00636835
:1005D000009323680193E3680293A368039396E86A
:1005E0000F0018BF4FF00E088CE80F0008BF4FF047
:1005F00000086369174A0693694638468DF814E087
:100600008DF81C508DF8158000F0F0F80028C5D149
:100610002368114A01331070C0D0104A3B7810494A
:10062000D35C01223BB1381D00F024FEB6E7072061
:1006300008B0BDE8F08107F10C0000F063FBADE706
:10064000A4000020A8000020BC0000209C33000073
:10065000000000205D040000B8000020E000002041
:10066000CC00002070B5104D014610482E78FFF7E1
:10067000DFFE04460EB9204670BD0D480D490378D3
:10068000CB5C0D4900222A70012243B1043000F0F6
:10069000F1FD0028EFD0FFF77BFE204670BD0C3047
:1006A00000F030FBF5E700BFB8000020A8000020F4
:1006B00000000020E0000020CC00002070B50146C2
:1006C0001548FFF79DFE044608B1204670BD134D46
:1006D000134E2B78F35CA3B1281D00F0BDFD00285C
:1006E000F3D110490C48FFF7A3FE0028EDD12B7879
:1006F0000C49F35C53B1BDE870400B48012200F097
:1007000053BD05F10C0000F0F1FAE8E7BDE87040D8
:100710000648012200F07EBABC0000200000002044
:10072000E0000020D0000020040000200C00002089
:1007300072B6024A1368013313607047D400002078
:10074000034A1368013B136003B962B6704700BFE8
:10075000D400002070B5161E07DD0C468D1914F864
:10076000010BFFF7ABFFA542F9D1304670BD00BFCA
:1007700010B50C462046FFF775FF0528FAD001207A
:1007800010BD00BF30B50A4B0A4C53F8213054F865
:100790002110027885B0D0E901548DF80020C2689C
:1007A00001958DF8084003926846984705B030BD22
:1007B000DC000020D800002030B50A4B0A4C53F86A
:1007C000213054F82110027885B0D0E901548DF819
:1007D0000020C26801958DF808400392684698474A
:1007E00005B030BDDC000020D8000020F0B5174B6C
:1007F00006784F7F43F826201446154B154A9F551F
:100800000546086942F826008C46BCE80F0089B00E
:10081000EE46AEE80F009CE80F008EE80F0004964D
:100820004FB1002C0C4A694608BF2246281D00F033
:10083000D3FB09B0F0BD002C084A694608BF224628
:1008400005F10C0000F018F909B0F0BDDC00002043
:10085000E0000020D800002085070000B907000054
:10086000014B1B68184700BFE400002038B50C4B53
:10087000984213D100200D46FFF75AFF094B1C790F
:1008800024B10020FFF75CFF112038BD0122204673
:100890001D601A71FFF754FF204638BD002038BD97
:1008A00000200040E400002010B5714AD2F8043363
:1008B00099058AB068D5D2F82431002B64D0002382
:1008C000C2F82431D2F8243101934FF40171694BFD
:1008D0000198C2F8081393F8291009B90121516051
:1008E000634902228DF81820D1F88024C1F88024B1
:1008F0009FED5D7B9969D868CDE9081283ED067B91
:10090000D3E90012079006A89047594AD2F81C3143
:10091000C3B1584B5869196A88426AD993F82810AC
:1009200001F0FF00002964D1C2F81C01D2F81C11AB
:10093000039103999C68186A196A205C0131196255
:10094000C2F81C054A4AD2F84431DBB10021494BB8
:10095000C2F84411D2F8440193F82910009000988D
:1009600009B1012111609A6962B1D8685C6A0021FD
:100970000122CDE9070499618DF8182006A8D3E972
:10098000001290470AB010BD394AD2F804335B0711
:10099000BBD5D2F80831002BB7D0364B9969002966
:1009A0003ED00021C2F80811D2F808110491049930
:1009B000D868596AD2F8182542545A6A996901329E
:1009C0005A625A6A8A42A0D1DA69002A31D09A6101
:1009D0001A69D8685C6ADA60002101220894D9613A
:1009E000596207905C6819688DF8182006A8A0471E
:1009F0008BE71F4A0020C2F81C01D2F81C2102928A
:100A0000029A5A69002A9DD0D3E901215C698DF8C8
:100A10001800CDE907145861196806A8904791E7B6
:100A2000C2F80811D2F8080105900598D2F81825E7
:100A3000C7E793F8292012B90D4A012151600C4AE9
:100A40004FF40171C2F80813D8685C6A00210122D2
:100A500099618DF81820D3E90012CDE9070406A8A2
:100A6000904752E7AFF30080000000000000000054
:100A700000200040F00000202DE9F041604E90F889
:100A800004802C2303FB086382B093F82A30002BE8
:100A900040F0898005460C4600685A491746FFF722
:100AA000E5FE00287BD12368591C0CD04FF0A041F3
:100AB000012202FA03F3C1F80835236803F5E07355
:100AC000032241F8232063685A1C06D003F5E07323
:100AD0004FF0A042002142F823102B68A269C3F80E
:100AE0002425227D637D13432A68C2F86C35D4E93E
:100AF00000122B68C3F81425C3F80C15237D012BB5
:100B00005CD02C2303FB08F3F21857602269F250E3
:100B100097B32A68237F0021C2F81C11D2F81C2148
:100B20000092009A2A68C2F84411D2F84421019236
:100B3000019A2A683449C2F804132A6842F307313B
:100B400000294FEA123232DB01F160415B0101F50D
:100B50006141DBB281F800332B6843F30732002A8E
:100B60004FEA133109DB294C5209012301F01F011F
:100B700003FA01F144F822102B680422C3F800257F
:100B80002C2303FB086601220023C6E9063386F8FE
:100B90002930736186F82A2002B0BDE8F081112067
:100BA00002B0BDE8F081082002B0BDE8F08118492C
:100BB00002F00F025B01DBB28B54CDE7A368591C36
:100BC00006D003F5E0734FF0A042002142F8231055
:100BD000E3685A1C0DD04FF0A041012202FA03F342
:100BE000C1F80835E36803F5E073032241F82320D8
:100BF000E3682A68A168C2F80835C2F8101580E7D2
:100C0000F0000020A90800008000020000E100E0E0
:100C100014ED00E02DE9F041334C90F804E02C2372
:100C200003FB0E438446586984B000284ED15A61B4
:100C30009960186283F82800DCF80020C2F81C01D3
:100C4000D2F81C210292029ADCF800200121916066
:100C5000DCF800209D68C2F81C01D2F81C1101913B
:100C60000199196A6E5C196A01311962C2F81C6532
:100C70005A6812B104B0BDE8F0815E691A6ADCF806
:100C8000001096421BD9074602E093F828200ABBC1
:100C9000D1F81C21002AF8D0C1F81C71D1F81C2110
:100CA0000392039A1A6A15F802801A6A01321A62CC
:100CB000C1F81C851A6A9642EAD8DCF80010D1F80F
:100CC0001C31002BFBD00123CB6004E0112004B0C9
:100CD000BDE8F0810F202C2303FB0E440023636149
:100CE00004B0BDE8F08100BFF00000200279044BA1
:100CF0002C2101FB02335869003818BF01207047CE
:100D0000F000002030B5554D90F804E02C2303FB93
:100D10000E5387B05C68844624B103684FF40170B9
:100D2000C3F808032C2303FB0E53986998B1D869C4
:100D3000002840F083801961DA612C2202FB0E52F8
:100D4000536853B3DCF800304FF40172C3F8042346
:100D5000002007B030BD9A61D9605862D86193F81D
:100D60002930002BE9D1DCF80020C2F82431D2F878
:100D700024210192DCF800200199C2F80831D2F850
:100D800008310293DCF80030029901221A602C220B
:100D900002FB0E525368002BD4D1DCF80010C1F8CE
:100DA0004431D1F844310393039BDCF80030D3F88D
:100DB0002411D3F80841D3F8440154B9002834D1A0
:100DC0000029F4D02C2303FB0E550023AB61032034
:100DD000BFE70029F6D150BB9169C3F8080181B182
:100DE000D3F8081104910499D468516AD3F81835DE
:100DF0006354536A916901335362536A9942D4D858
:100E000006E0D3F8081105910599D3F81835536A0F
:100E10002C2303FB0E55002295F82930AA61B3B1AB
:100E2000DCF8003001221A6093E70029CAD12C2394
:100E300003FB0E550023AB610F208AE764B1DCF899
:100E400000304FF40172C3F80423112081E7DCF86D
:100E5000003001225A607CE711207AE7F000002080
:100E600010B55B4BD3F824218AB0002A58D0002259
:100E7000C3F82421D3F82411049102228DF81820FC
:100E80000499544AD3F88014C3F880149FED4E7B24
:100E90000991D3F83C45D06882ED067BCDE9070483
:100EA000D2E9001306A89847494BD3F8442152B120
:100EB0000021484AC3F84411D3F8440191690390D2
:100EC0000398002961D1424BD3F8202162B1002060
:100ED000C3F82001D3F82021029201213D4A029C4F
:100EE000D9605169002943D1394BD3F85821AAB1AF
:100EF0000020C3F85801D3F85811364A01910199DE
:100F0000516959B1D3F84C458DF81800D2E9013137
:100F10005061CDE9071406A8116898470AB010BDC2
:100F2000D3F810110029BFD0C3F81021D3F8101145
:100F3000284C05910599A169D3F83C058842B3D1A5
:100F4000E169002933D0C4E90612D3F8002222F067
:100F50002002C3F80022E2680792012122698DF87D
:100F60001810089063682168E26006A898479BE71C
:100F7000D3F84C458DF81800D2E901315061CDE924
:100F8000071406A811689847AEE79FED0F7BD3F8CA
:100F90003C45D0684FF0010CCDE9070482ED067B9B
:100FA000D2E900138DF818C006A898478BE7E268CD
:100FB000A1610123CDE907208DF8183006A8D4E9F6
:100FC0000013984770E700BF000000000000000019
:100FD00000200040200100202DE9F04307796D4EEC
:100FE00007EBC70306EB830387B093F82030002B91
:100FF00040F0A38004460D46006867499046FFF71D
:1010000035FC002840F095802B68591C4FEAC70931
:101010000CD04FF0A041012202FA03F3C1F80835C9
:101020002B6803F5E073032241F823206B685A1CF8
:1010300006D003F5E0734FF0A042002142F82310E0
:101040002368AA69C3F824252B7D6A7D1A43236887
:10105000C3F86C25D5E900312268C2F80C35C2F816
:1010600014152B7D012B73D009EB070206EB8203CD
:10107000C3F804802B6946F82230B8F1000F47D03E
:1010800021682B7F0022C1F81021D1F810110191A5
:1010900001992168C1F82021D1F82011029102990B
:1010A0002168C1F82421D1F8241103910399216802
:1010B000C1F84421D1F84411049104992168C1F880
:1010C0005821D1F858210592059A22683349C2F86F
:1010D0000413226842F3073100294FEA123230DB51
:1010E00001F160415B0101F56141DBB281F8003340
:1010F000226842F30733002B4FEA123109DB284DF7
:101100005B09012201F01F0102FA01F145F82310E9
:1011100022684F4406EB87060121002386F8201041
:101120000821C2F80015C6E90633736107B0BDE8AF
:10113000F083112007B0BDE8F083082007B0BDE8B8
:10114000F083184902F00F025B01DBB28B54CFE74A
:10115000AB68591C06D003F5E0734FF0A0420021A4
:1011600042F82310EB685A1C0DD04FF0A041012229
:1011700002FA03F3C1F80835EB6803F5E0730322C4
:1011800041F82320EB682268A968C2F80835C2F844
:10119000101569E720010020610E000010034200D5
:1011A00000E100E014ED00E001F0604CBCF1005FF4
:1011B00030D170B590F804E0264C0EEBCE0C04EB69
:1011C0008C0C0346DCF8140082B04FEACE050028F0
:1011D0003BD1CCF81420CCF808101A68C2F82001D2
:1011E000D2F820210192019A1A68C2F85801D2F867
:1011F00058210092009A1A68DCF81460C2F844156D
:10120000C2F848651A6801219160DCF804201AB11F
:1012100002B070BD102070471A6800E0C0B9D2F863
:101220002011D2F858010029F8D088B90121D160E5
:101230001B68D3F85821002AFBD005EB0E0304EB02
:10124000830300225A6102B070BD112002B070BD4C
:101250000F20F2E7200100200379054A03EBC303C6
:1012600002EB83035869003818BF0120704700BFA4
:101270002001002001F06043B3F1005F62D1F0B4BF
:1012800090F804C0484C0CEBCC0304EB830382B011
:101290005E684FEACC0326B105684FF40477C5F8C1
:1012A0000873634404EB83039D695DBB9A61DD6150
:1012B000D9600368C3F81051D3F810310193019B32
:1012C0000368C3F84451D3F8443100930368009D88
:1012D000C3F83415C3F83825036801221A6090F862
:1012E00004C00CEBCC0304EB83034FEACC055B6832
:1012F00053B303684FF40472C3F80423002002B010
:10130000F0BC7047DD69002D37D11961DA610368DF
:10131000C3F81051D3F810310193019B0368C3F84F
:101320004451D3F8443100930368009DC3F8341549
:10133000C3F838250268D2F8003243F02003C2F81F
:101340000032CCE710207047036801E0E9B910BB18
:10135000D3F81021D3F84411D3F82401002AF5D092
:10136000654400284FF0000304EB850418BF0320F8
:101370009942A36118BF0F20C1E796B103684FF4EB
:101380000472C3F804231120B9E7654404EB850413
:101390000F20A261B3E7654404EB85040320A1613B
:1013A000ADE71120ABE700BF200100200378022B3E
:1013B00002D0012B00D070474068FEF7E9BF00BFA4
:1013C00010B51C4C8AB00120FEF7B4FF0FCC0DF114
:1013D000100CACE80F0094E803008CE803001649F9
:1013E000164B00934FF48074CDE90141144A0394E5
:1013F0000723694604A8FFF7C1F8B8B9114800F0FF
:1014000067FB6846FFF72EF90028FAD19DF8000027
:10141000FFF754F90028F9D19DF8003003F0DF03FD
:10142000512BEED1084800F053FBFEE7FEF7B0FF6A
:10143000E4E700BFE4330000440200204401002040
:10144000AD130000BC330000D833000010B44FF0DF
:101450008053D3F830315A1C04BF4FF0704393F8D7
:10146000E03F062B08D14FF08053C24AD3F8243313
:10147000C3F30423C2F840354FF0704393F8E02FD4
:10148000062A00F024814FF08053D3F830315C1CE1
:1014900004BF4FF0704393F8E03F062B09D14FF0A3
:1014A00080534FF08042D3F84432C3F34233C2F842
:1014B0003C354FF0704393F8E02F062A00F0F2809D
:1014C0004FF08053D3F83031581C04BF4FF07043B5
:1014D00093F8E03F062B08D14FF080430022C3F879
:1014E0000C21C3F81021C3F838254FF0704393F84E
:1014F000E02F062A00F0B3804FF08052D2F830314E
:10150000591C27D0062BD2F834212DD09A4AD2F874
:10151000883043F47003C2F88830BFF34F8FBFF3B5
:101520006F8F4FF08053D3F83021062A00F0E0800F
:101530004FF01023D3F80022002AC0F23B81D3F8E9
:101540000432002BC0F236818C4B8D4A1A605DF854
:10155000044B70474FF0704292F8E01FD2F8E82F2A
:101560000629D3D1C2F30312033A042A40F2DA80E7
:101570004FF08053834AD3F80414C2F82015D3F8EF
:101580000814C2F82415D3F80C14C2F82815D3F89F
:101590001014C2F82C15D3F81414C2F83015D3F86F
:1015A0001814C2F83415D3F81C14C2F84015D3F837
:1015B0002014C2F84415D3F82414C2F84815D3F8FF
:1015C0002814C2F84C15D3F82C14C2F85015D3F8CF
:1015D0003014C2F85415D3F83414C2F86015D3F897
:1015E0003814C2F86415D3F83C14C2F86815D3F85F
:1015F0004014C2F86C15D3F84414D3F83031C2F853
:1016000070155C1C04BF4FF0704393F8E03F062B4D
:101610007FF47CAF4FF080524FF08041D2F85832C7
:10162000D2F8302103F04F03501CC1F8E43E7FD0C4
:10163000062A7FF46BAFD1F80034DA0700F184801A
:101640004FF08053D3F83431033B042B64D94E4A16
:10165000D2F83C3743F48063C2F83C3756E7D3F8FE
:10166000E83FC3F30313033B042B3FF645AF474A60
:10167000D25C22B14FF080420321C2F8A015444A47
:10168000D35C002B3FF438AF424B052401200021EE
:101690003F22C3F81046C3F88806C3F81816C3F8EB
:1016A000142629E7D3F8E83FC3F30313033B042BC5
:1016B0003FF606AF384AD35C002B3FF401AF2E4A09
:1016C000D2F8FC3023F08073C2F8FC30F8E6D3F88F
:1016D000E83FC3F30313033B042B3FF6D4AE2F4A7A
:1016E000D35C002B3FF4CFAE2D4B2E4A5A67CAE68F
:1016F000D3F83431033B042B08D94FF010224FF0BC
:101700008043D2F80822C3F8582511E7264AD35C53
:10171000002B3FF40DAFF0E7244AD35C002B3FF4DD
:10172000F5AE94E722498A5C002A3FF46AAF1FE7CE
:101730004FF0704393F8E03F062B7FF4E7AED1F80B
:101740000034DB077FF5E2AE4FF080534FF080426C
:10175000D3F830316FF00101062BC2F800147FF48A
:10176000D5AE4FF08053D3F83431033B042B3FF612
:101770006EAFD1E70030014000ED00E01400002022
:101780000090D00300C0004000100040143400005E
:1017900014340000005000401434000014340000E1
:1017A00000C007400DF0ADBA0C3400000434000056
:1017B000FC330000184A0123C2F80435D2F8003483
:1017C000002BFBD04FF010231521134AC3F8001251
:1017D000D2F80034002BFBD04FF0102315210E4A15
:1017E000C3F80412D2F80034002BFBD000230A49BE
:1017F000C2F80435D1F80034002BFBD0BFF34F8F73
:101800000649074BCA6802F4E0621343CB60BFF39A
:101810004F8F00BFFDE700BF00E0014000ED00E09A
:101820000400FA05002301461A46184600F06AB97A
:1018300008B5074B044613B1002100F0B9F9054B78
:101840001868836A03B19847204601F099FD00BFEC
:10185000B11B00001C34000038B5084B084D5B1B61
:101860009C1007D0043B1D44013C55F804399847AF
:10187000002CF9D1BDE8384001F08ABD8400002079
:101880008000002070B50D4E0D4D761BB61006D0B1
:10189000002455F8043B01349847A642F9D1094E7B
:1018A000094D761B01F06EFDB61006D0002455F8E8
:1018B000043B01349847A642F9D170BD7C0000205A
:1018C0007C000020800000207C000020844641EA4B
:1018D000000313F003036DD1403A41D351F8043BA8
:1018E00040F8043B51F8043B40F8043B51F8043BFA
:1018F00040F8043B51F8043B40F8043B51F8043BEA
:1019000040F8043B51F8043B40F8043B51F8043BD9
:1019100040F8043B51F8043B40F8043B51F8043BC9
:1019200040F8043B51F8043B40F8043B51F8043BB9
:1019300040F8043B51F8043B40F8043B51F8043BA9
:1019400040F8043B51F8043B40F8043B51F8043B99
:1019500040F8043B51F8043B40F8043B403ABDD208
:10196000303211D351F8043B40F8043B51F8043BAA
:1019700040F8043B51F8043B40F8043B51F8043B69
:1019800040F8043B103AEDD20C3205D351F8043B39
:1019900040F8043B043AF9D2043208D0D2071CBF05
:1019A00011F8013B00F8013B01D30B88038060462E
:1019B000704700BF082A13D38B078DD010F00303A4
:1019C0008AD0C3F10403D21ADB071CBF11F8013B14
:1019D00000F8013B80D331F8023B20F8023B7BE763
:1019E000043AD9D3013A11F8013B00F8013BF9D28E
:1019F0000B7803704B7843708B7883706046704728
:101A0000830730B548D0541E002A3FD0CAB20346DF
:101A100001E0013C3AD303F8012B9D07F9D1032CD7
:101A20002DD9CDB245EA05250F2C45EA054536D915
:101A3000A4F1100222F00F0C03F1200EE6444FEA4D
:101A4000121C03F1100242E9045542E9025510321A
:101A50007245F8D10CF1010214F00C0F03EB0212E5
:101A600004F00F0C13D0ACF1040323F00303043390
:101A7000134442F8045B9342FBD10CF003042CB1F5
:101A8000CAB21C4403F8012B9C42FBD130BD644612
:101A90001346002CF4D1F9E703461446BFE71A4673
:101AA000A446E0E70EB410B5044683B008B18369DC
:101AB0005BB106ABA168059A0193204600F0DAFA03
:101AC00003B0BDE8104003B0704700F0D1F9F0E773
:101AD0000FB410B50A4B1C6882B00CB1A3695BB19E
:101AE00005ABA168049A0193204600F0C3FA02B046
:101AF000BDE8104004B07047204600F0B9F9EFE7A8
:101B000018000020F0B5264C256885B0064605B3C0
:101B10006C681F2C41DCA6B1D5F8880048B3D0F81A
:101B2000007140F824204FF0010C0CFA04FC00EB8B
:101B300084024CEA0707022EC0F80071C2F8803018
:101B400010D0A31C01346C6045F82310002005B0B0
:101B5000F0BD1448144D25600028D9D00068C5F8A0
:101B60008800D5E7D0F8043143EA0C03C0F804310B
:101B7000E7E70E480191CDE9022370B14FF484707C
:101B8000AFF3008048B10027C0E94077DDE90223C8
:101B90006C680199C5F88800C3E74FF0FF30D6E7BD
:101BA000D0030020000000004403002000000000DB
:101BB0002DE9F84FDFF8BCA0DAF800702DED028BAC
:101BC000E7B108EE100A89467D68D7F888806C1E58
:101BD00014D407EB8506043608EB8505B9F1000F30
:101BE00010D0B8F1000F02D0EB6F4B450AD0013C8A
:101BF000631CA5F10405A6F10406EFD1BDEC028B30
:101C0000BDE8F88F7B683268013BA34216BF002312
:101C10007C603360002AEAD0D7F804B0B8F1000F36
:101C20001AD0D8F80001012303FA04F1014213D0BD
:101C3000D8F80401014218D155F8041C18EE100A16
:101C400090477A685A450BD1DAF80030BB42CED0C3
:101C50001F46002FB8D1D1E790477A685A45F3D094
:101C6000DAF80070002FAFD1C8E755F8040C9047A0
:101C7000E7E700BFD003002000207047014900F0D3
:101C800037B900BFD52A00000020704770B5682220
:101C90004D1E02FB05F50E4605F1740100F04CF9EE
:101CA000044640B100210C30C4E90016A06005F1E3
:101CB0006802FFF7A5FE204670BD00BF274B2DE947
:101CC000F0411E68B369074653B348364FF0040825
:101CD000D6E90134013B04D51EE05A1C04F1680426
:101CE0001AD0B4F90C50013B002DF6D11C4B65669F
:101CF000C4E90055C4E90253C4E90455A5610822AA
:101D0000294604F15C00FFF77BFEC4E90D55C4E9E8
:101D100012552046BDE8F08135682DB12E46D7E733
:101D2000304600F01FF8D0E74FF4D671384600F087
:101D300003F9044668B10560C0F804800C302946F8
:101D4000A06025464FF4D072FFF75AFE34602E464D
:101D5000BEE70C2330603B60DBE700BF1C340000B3
:101D60000100FFFF2DE9F84F344B35491A688162B5
:101D700090424FF00003C0E91233036504BF012312
:101D800083610546FFF79AFF68602846FFF796FFD4
:101D9000A8602846FFF792FF6F68E86000240423DC
:101DA000C7E9024308222146C7E90044C7E90444C1
:101DB0007C66BC6107F15C00FFF722FEDFF88CB0A7
:101DC000AE68DFF88CA0DFF88C90DFF88C801D4BBC
:101DD000C7F828A0C7E9087BC7F82C90C7F830805F
:101DE0000822F360C6E90044C6E904447466B4609E
:101DF000B461214606F15C00FFF702FEC6E9086BFC
:101E0000C6E90AA9C6F83080EE680F4BF360C6E950
:101E10000044C6E904447466B460B46121460822F3
:101E200006F15C00FFF7ECFD0123C6E9086BC6E98B
:101E30000B98C6F828A0AB61BDE8F88F1C340000F1
:101E40007D1C00000900010012000200152700009F
:101E50003D2700007D2700009D270000024B03491D
:101E6000186800F045B800BF1C340000D52A0000F7
:101E7000836903B976E77047704700BF704700BFBA
:101E8000704700BF704700BF024B0349186800F05D
:101E90000FB800BF18000020791C0000024B034956
:101EA000186800F005B800BF18000020891C000069
:101EB0002DE9F041884600F148070026D7E9015492
:101EC000013D0FD4A389012B05F1FF3506D9B4F9E3
:101ED0000E300133204601D0C04706436B1C04F18D
:101EE0006804EFD13F68002FE8D13046BDE8F081AB
:101EF0002DE9F8430746884600F148064FF00009EF
:101F0000D6E90154013D11D4A389012B05F1FF3518
:101F100008D9B4F90E300133214603D03846C04702
:101F200049EA00096B1C04F16804EDD13668002E03
:101F3000E6D14846BDE8F883F8B5CD1C25F0030589
:101F400008350C2D38BF0C25002D064623DBA94291
:101F500021D8254F01F010F93A6822B3144603E066
:101F600063682246FBB11C4623685B1BF8D40B2B2D
:101F700015D8636894420CBF3B605360304601F053
:101F8000FDF804F10B00231D20F00700C21A01D058
:101F90001B1AA350F8BD0C2333600020F8BD23604A
:101FA0001C442560EAE77968C9B12946304600F04B
:101FB0009FFB431C0CD0C41C24F00304A04205D09A
:101FC000211A304600F094FB013001D02560D5E79E
:101FD0000C233046336001F0D1F80020F8BD3046C4
:101FE00000F086FB7860E0E7D40300209368013BB3
:101FF000002B936011DA10B49469A34209DB0A291B
:1020000007D01368581C1060197008465DF8044B1F
:1020100070475DF8044B00F0C5BB1368581C106096
:1020200019700846704700BF9BB1F8B513440646C7
:102030000F46541E5D1E01E0AC4208D014F8011F8B
:102040003A463046FFF7D2FF431CF5D1F8BD0020D9
:10205000F8BD0020704700BF936810B5144613B94F
:102060005360184610BD00F09FFD0023C4E9013302
:1020700010BD00BF2DE9F04F88469FB015461C46A5
:10208000814618B18369002B00F0A280924B9845DD
:1020900000F0A480914B984500F0B180904B98459A
:1020A00008BFD9F80C80B8F80C30180740F19D80B3
:1020B000D8F81030002B00F0988000230B9329787B
:1020C000884E059420238DF8313030238DF832303E
:1020D0000127002974D02C460B4604E014F8013F78
:1020E000002B00F08F80252BF8D1B4EB050B40F0CE
:1020F0008C802378002B63D000234FF0FF32CDE992
:102100000723069309938DF85B301C93013404E098
:10211000069A07FA03F3134306932546052214F89B
:10212000011B304600F05CFF831B0028F0D1069BAA
:10213000D90644BF20228DF85B2029781A0744BFB6
:102140002B228DF85B202A2970D1059A1168043260
:1021500000290592C0F29B800991697801352E29EA
:1021600076D0614C0322204600F03AFF38B1069B3E
:10217000001B402404FA00F003430693013515F8D0
:10218000011B5A488DF83010062200F029FF002864
:1021900000F08380564B002B6DD005AA0092554B62
:1021A000424606A94846AFF300800390039B0133E3
:1021B00006D00B9B039A297813440B9300298AD1EC
:1021C000B8F80C305B0617D40B981FB0BDE8F08F41
:1021D000FFF74EFE404B98457FF45CAFD9F8048082
:1021E000B8F80C3018073FF563AF4146484600F099
:1021F00053FB00283FF461AF4FF0FF30E5E7D9F81B
:10220000088050E7B4EB050BDAD0AA46C5F101050A
:1022100003E0934536D91AF8011F42464846FFF7B6
:10222000E5FE013005EB0A02F3D1C9E7A1F1300266
:10223000092A94D8099B15F8011F03EB830302EBCD
:102240004303A1F13002092AF5D92E29099388D137
:1022500069782A292BD1059BA9781A68079204333B
:10226000002A05F102000593B8BF4FF0FF33054681
:10227000B8BF079375E7059B073323F007030833BF
:10228000059396E70B9A23785A440B9232E749421A
:1022900043F00203099106935FE705AA0092154BEC
:1022A000424606A9484600F0CBF803907EE7A1F12C
:1022B00030020023092A079305F101053FF651AFCB
:1022C00015F8011F03EB830302EB4303A1F1300276
:1022D000092AF5D9079344E7603400004034000030
:1022E0002034000080340000883400008C3400006A
:1022F000000000002920000010B4054C844613465D
:1023000020685DF8044B0A466146FFF7B3BE00BF84
:10231000180000202DE9F84F92461F460A698B6885
:10232000DDF828909A42B8BF1A46CAF8002091F802
:1023300043300C46064613B10132CAF80020226829
:1023400091065DD5DAF800300233CAF80030226811
:1023500012F0060F11461ED1E168CB1A002BD8BF30
:10236000114618DD04F1190B4FF0000805E0E5688F
:10237000DAF80030ED1A45450CDD01235A4639469E
:102380003046C847013008F10108F0D14FF0FF3066
:10239000BDE8F88F216894F84330003B18BF012353
:1023A0008A060AD5E1185A1C302081F843002244DD
:1023B00094F8451082F84310023304F14302394681
:1023C0003046C8470130E1D0236803F00603042BF0
:1023D0001DD0A3682269934225DD4FF000089B1AA7
:1023E00098441A34002501E045451CDA01232246B1
:1023F00039463046C847013005F10105F4D1C5E73B
:1024000012F0060F12D0003B18BF0123D5E7DAF80F
:102410000030E1682269C91AA368934221EAE17891
:10242000DDDC0029DDDC0020BDE8F88FE168DAF8AA
:102430000030CB1A002BD8BF114693DCABE700BFAE
:102440002DE9F0470C4684B09046227E0C99074651
:10245000994604F14300002A33D0A2F15803DDB2BB
:10246000202D67D8202B65D8DFE813F0DE0064004C
:10247000640064006400640064006400640064003C
:102480006400A3006E0064006400640064006E00D9
:10249000640064006400640021007F00C0006400E8
:1024A0006400AE0064007F0064006400E5002368FF
:1024B0001A0640F104810B6862691D1D0D601B68DE
:1024C0001A60002382462361CDF80090434603AA98
:1024D00021463846FFF71EFF013020D023695246BF
:1024E00041463846C847013019D02368E068039E4A
:1024F0009B0719D5831B002B16DD04F1190A002553
:1025000004E0E068039E831BAB420DDD01235246CD
:1025100041463846C847013005F10105F1D14FF079
:10252000FF3004B0BDE8F087B042B8BF304604B019
:10253000BDE8F087012384F84220236104F1420AB8
:10254000002384F84330BFE723681A0602D45E06EE
:1025500000F1C1800D682A6804350D601546002A17
:102560006BDBDFF884C10A2610E023681D0640F10A
:102570009C800B681D1D0D601D68DFF86CC16F2A03
:102580000CBF08260A26002384F843306268A26044
:10259000002A7FDB236823F004032360002D5BD136
:1025A000002A79D18246082E65D0A0EB0A0020616E
:1025B0008AE70B680122186804330B6004F1420AB1
:1025C00084F842002261BBE70B686268181D08604E
:1025D000D3F800A00021504600F002FD002800F0D2
:1025E0008180A0EB0A0060602061A9E7236843F0C6
:1025F000200323607822DFF8F4C084F845200A68BD
:10260000151D0D601D0643D4590641D51588DE07FA
:1026100044BF43F020032360002D44D1236823F0FE
:10262000200323601026AEE7582384F84530DFF8F6
:10263000B8C02368E3E72368DCE76268A2602D2165
:10264000002AC5F1000584F8431002DB23F00403DF
:102650002360DFF894C00A268246B5FBF6F306FB3A
:1026600013512A461CF801100AF8011DB2421D46FA
:10267000F3D2082E99D12368D90796D562682369C9
:102680009A4292DC30230AF8013C0AF1FF3A8CE7C7
:102690001568BCE7002DDFD19CF8003084F842308B
:1026A00004F1420A7FE710266DE713F0400F0B6834
:1026B00003F104050D600CBF1D681D885DE713F074
:1026C000400F0B68626903F104050D601B6814BFBD
:1026D0001A801A60F5E60A68B2F9005004320A60FE
:1026E0002A463CE760687FE794340000A834000085
:1026F00038B5074D0022044608462A6000F032FE35
:10270000431C00D038BD2B68002BFBD0236038BDA4
:10271000DC03002010B50C46B1F90E1000F0BAFD34
:10272000002803DB636D0344636510BDA38923F4B4
:102730008053A38110BD00BF002070472DE9F041F8
:102740000C46B1F90C101F46CB05054616460BD4B6
:1027500021F48051A1813B46B4F90E10324628463F
:10276000BDE8F04100F082B8B4F90E100223002257
:1027700000F092FBB4F90C10EAE700BF10B50C466C
:10278000B1F90E1000F088FBA389421C0EBF23F4A0
:10279000805343F480536065A38110BDB1F90E10DE
:1027A00000F0FCB8F8B50D461446064608B183693A
:1027B00043B3254B9C422AD0244B9C4229D0244B26
:1027C0009C4208BFF468A389A269A2601A0722D5B7
:1027D000236903B322686169D31AEDB299422F4687
:1027E00029DD0133A1680139A160511C21601570F8
:1027F00062699A4216D0A389DB0701D50A2D11D050
:102800003846F8BDFFF734FB0F4B9C42D4D17468B7
:10281000D9E7B468D7E72146304600F03DF838B92B
:102820002369D7E72146304600F054F90028E7D065
:102830004FF0FF37E4E72146304600F04BF900281F
:10284000F6D122680123CDE7603400004034000057
:102850002034000010B4044C03460A4620685DF89A
:10286000044B1946FFF79EBF1800002038B50C46F0
:10287000084D8446114620461A4600232B606446C4
:10288000FDF768FF431C00D038BD2B68002BFBD040
:10289000236038BDDC0300203C4B70B51D68064644
:1028A0000C460DB1AB69E3B1394B9C421FD0394B9B
:1028B0009C424DD0384B9C4208BFEC68B4F90C30B8
:1028C00018079AB219D5216911B312F001002FD05F
:1028D0000020A06060694042A06100292ED0002045
:1028E00070BD2846FFF7C4FA294B9C42DFD16C68C3
:1028F000B4F90C3018079AB2E5D4D1063ED5520788
:1029000028D4216943F00803A3819AB20029DCD1BD
:1029100002F42070B0F5007FD7D02146304600F099
:10292000D1FAB4F90C3021699AB212F00100CFD17A
:10293000950758BF6069A0600029D0D1120658BF22
:102940000846CDD543F04003A3814FF0FF3070BD62
:10295000AC68B3E7616B51B104F14402914204D019
:10296000304600F00DFCB4F90C300022626321699E
:102970000022C4E9001223F02403C3E7092243F034
:10298000400332604FF0FF30A38170BD180000207B
:1029900060340000403400002034000038B5074D9A
:1029A0000022044608462A6000F0BCFC431C00D00C
:1029B00038BD2B68002BFBD0236038BDDC03002022
:1029C0008B891A072DE9F0410C4680463FD44A68AE
:1029D000002A58DDE66A002E52D00022D8F80050B6
:1029E000C8F8002013F4805251D10123216A4046D7
:1029F000B047431C5ED0A389E66A5F0705D56368CC
:102A0000C01A636B0BB1236CC01A216A0246002303
:102A10004046B047411C3CD1D8F80030002B38D09C
:102A20001D2B01D0162B4DD123690022C4E90032A1
:102A3000616BC8F8005019B304F14403994202D005
:102A4000404600F09DFB00206063BDE8F0810E6908
:102A5000B6B10D680E609A070CBF4B690023AD1B21
:102A60008B600BE02B463246216AA76A4046B84786
:102A7000B0F1000CA5EB0C05664413DD002DF1DC74
:102A80000020BDE8F0810A6C002AA3DCF8E7606D45
:102A9000B3E70023636023692360A389DB04C7D500
:102AA0006065C5E7A38943F040034FF0FF30A38181
:102AB000BDE8F081D8F80030002B9CD01D2B06D04B
:102AC000162B04D0A38943F04003A381D9E7C8F8AB
:102AD0000050D5E738B50B69BBB10D46044608B1C7
:102AE0008369B3B10D4B9D4211D00D4B9D4213D064
:102AF0000C4B9D4208BFE568B5F90C302BB1294657
:102B00002046BDE83840FFF75BBF002038BD656850
:102B1000F2E7FFF7ADF9E5E7A568EDE760340000FF
:102B2000403400002034000038B540B30369044647
:102B3000E3B1174B1D680DB1AB69CBB1154B9C428E
:102B40000FD0154B9C4221D0144B9C4208BFEC681F
:102B5000B4F90C3053B121462846BDE83840FFF7A0
:102B60002FBF6C68B4F90C30002BF4D1002038BDB5
:102B70002846FFF77DF9074B9C42E2D1F1E7084B6D
:102B800008491868BDE83840FFF7B2B9AC68DFE71C
:102B900018000020603400004034000020340000A1
:102BA0001C340000D52A00009368002B00F08580BB
:102BB0002DE9F04FB1F90C300C461907804683B06F
:102BC000174698B225D523691BB310F002033D6860
:102BD0002DD04FF0000ADFF8BCB25646B9465E452C
:102BE0003346524628BF5B464046002E52D0216AEB
:102BF000A76AB847002856DDD9F808301B1A824466
:102C0000361AC9F80830002BE9D1002003B0BDE81E
:102C1000F08F21464046FFF73FFE002840F0368106
:102C2000B4F90C303D6898B210F00203D1D110F025
:102C3000010944D14E46009746B38205D4F808B046
:102C400040F18380B3455A4600F2B28010F4906F91
:102C500040F0BF8020680192494600F011FAA36855
:102C6000019AA3EB0B012368A1601344B2462360D1
:102C70000026009B9868A0EB0A00D14498600028C9
:102C8000C3D0B4F90C0080B2002ED6D1D5E900969D
:102C90000835D1E7D5E900A60835A0E7214640462A
:102CA000FFF718FF80B3B4F90C3043F040034FF046
:102CB000FF30A38103B0BDE8F08F002070471E46AF
:102CC000AA46994618461D46009756B388B34A4609
:102CD000D4E904132068B24228BF3246884205D99D
:102CE000A16803EB010B5A4500F3A680934263DC15
:102CF000216AA76A2A464046B847B0F1000BD2DDE8
:102D0000B9EB0B09CAD00120009A9368A3EB0B031F
:102D10005D44A6EB0B069360002B3FF476AF002ECC
:102D2000D4D10AF1080353E902569A460833002E1B
:102D3000F9D032460A21284600F052F9002800F066
:102D40009C800130A0EB0509C1E720682369984207
:102D500016D86369B34213D86FF00042B24228BF5D
:102D60003246216A92FBF3F2A76A02FB03F3404664
:102D70004A46B847B0F1000A95DDA6EB0A0678E7A7
:102D8000B345DA4628BFB2465246494600F078F9C4
:102D9000A3682268A3EB0A035244A3602260002BBD
:102DA000EBD121464046FFF795FE0028E5D07AE7B3
:102DB0002068B34632464EE72946019200F060F99A
:102DC000019AA3689B1AA360236813442360934667
:102DD00096E723682169A3EB010B636903EB430AC0
:102DE0000AEBDA7A0BF101034FEA6A0A33445345DE
:102DF000524684BF9A46524643052CD5114640465A
:102E0000FFF79AF800283BD05A4621690190FEF757
:102E10005DFDA289019B22F4906242F08002A281B2
:102E200003EB0B002361AAEB0B03C4F814A0A3600F
:102E30002060B34632460EE729465A4600F020F994
:102E400023685B44236021464046FFF743FE002889
:102E50003FF456AF27E7404600F0F4F90346002858
:102E6000DED12169404600F08BF9B4F90C300C2218
:102E700023F08003C8F8002017E7721C914627E76B
:102E80000C22B4F90C30C8F800200EE74FF0FF30E8
:102E9000BCE600BF00FCFF7F38B50C46084D8446F9
:102EA000114620461A4600232B60644600F052FA71
:102EB000431C00D038BD2B68002BFBD0236038BDED
:102EC000DC030020F0B58B890C46990797B007D535
:102ED00004F147030122C4E90432236017B0F0BDB6
:102EE000B4F90E10002905462DDB6A4600F0E8F91A
:102EF000002827DB019E06F470464FF48067A6F594
:102F00000056B6FA86F6394628467609FFF714F8D1
:102F100030B3A3891A4AAA6243F08003C4E90407C4
:102F2000A3812060002ED9D0B4F90E10284600F0FD
:102F3000DDF90028D2D0A38923F0030343F0010375
:102F4000A381CBE7A38913F0800F14BF40274FF470
:102F50008067394628460026FEF7EEFF0028D8D1C4
:102F6000B4F90C309A05B9D423F0030304F14702F5
:102F700043F002030121C4E90421A3812260ADE7EB
:102F80007D1C000070B50C46B1F90E10002996B0FA
:102F900016461D4613DB6A4600F092F900280EDB48
:102FA000019901F47041A1F50051B1FA81F14FF49A
:102FB0008063490900202960336016B070BDB4F900
:102FC0000C3000221B062A6004D540230020336009
:102FD00016B070BD4FF480630020336016B070BD32
:102FE00001F0FF01102A2BDB10F0070F08D010F8BA
:102FF000013B013A8B422DD010F0070F42B3F6D1BE
:10300000F0B441EA012141EA014122F007047FF0D6
:1030100000070023F0E80256083C85EA010586EA2D
:10302000010685FA47F5A3FA87F586FA47F6A5FA69
:1030300087F68EB9EED1F0BC01F0FF0102F0070275
:1030400032B110F8013B013A83EA010313B1F8D120
:103050000020704701387047002D06BF3546033801
:10306000073815F0010F07D1013015F4807F02BF3A
:10307000013015F4C03F0130F0BC0138704700BF8B
:1030800088420DD98B1883420AD900EB020CBAB1E1
:10309000624613F801CD02F801CD9942F9D170478B
:1030A0000F2A0ED8034602F1FF3C4AB10CF1010C85
:1030B000013B8C4411F8012B03F8012F6145F9D134
:1030C000704740EA01039B0750D1A2F1100370B58D
:1030D00001F1200C23F00F0501F1100E00F1100496
:1030E000AC441B095EF8105C44F8105C5EF80C5CA4
:1030F00044F80C5C5EF8085C44F8085C5EF8045C1C
:1031000044F8045C0EF1100EE64504F11004E9D118
:10311000013312F00C0F01EB031102F00F0400EB6E
:10312000031327D0043C24F003064FEA940C1E44FA
:103130001C1F8E465EF8045B44F8045FB442F9D16C
:103140000CF1010402F0030203EB840301EB8401A0
:1031500002F1FF3C4AB10CF1010C013B8C4411F827
:10316000012B03F8012F6145F9D170BD02F1FF3C3D
:1031700003469BE72246EBE7704700BF704700BF5E
:10318000002958D030B551F8043C83B0002BA1F190
:103190000404B8BFE4180190FFF7EEFF284A019835
:1031A000136833B1A3420DD9216804EB010C6345C8
:1031B0002FD06360146003B0BDE83040FFF7DEBF7E
:1031C000A34210D81A465B68002BF9D1116802EBB4
:1031D000010C644519D02FD36360546003B0BDE87F
:1031E0003040FFF7CBBF116802EB010CA44516D0AD
:1031F00022D8216804EB010C6345EDD11D685B68A2
:103200002944C4E900135460D5E7236819441160C8
:10321000D1E71D685B682944C4E90013CAE7246844
:1032200021445418A3421160C5D1D3E9004321447D
:10323000C2E90013BFE770470C230360BBE700BF80
:10324000D4030020F8B51446F9B1CAB106460D46BC
:1032500000F05EF8A04202D32F463846F8BD214662
:103260003046FEF769FE07460028F6D0224629467A
:10327000FEF72CFB30462946FFF782FF3846F8BDA3
:103280002746FFF77DFF3846F8BDBDE8F8401146F8
:10329000FEF752BE38B50C46084D8446114620460E
:1032A0001A4600232B606446FDF762FA431C00D0E7
:1032B00038BD2B68002BFBD0236038BDDC03002019
:1032C00070B50C46084D03460026204611461C46A4
:1032D0002E6000F02FF8431C00D070BD2B68002B2F
:1032E000FBD0236070BD00BFDC03002038B5074D64
:1032F0000022044608462A6000F024F8431C00D04F
:1033000038BD2B68002BFBD0236038BDDC030020C8
:1033100051F8040C0028A0F10400BCBF0B58C018E1
:10332000704700BF024B58221A604FF0FF307047C1
:10333000DC030020024B58221A604FF0FF30704728
:10334000DC030020024B58221A600020704700BFA7
:10335000DC030020024B58221A604FF0FF30704708
:10336000DC030020044A05491368002B08BF0B4604
:103370001844106018467047E0030020E80300205E
:10338000FEE700BFF8B500BFF8BC08BC9E4670471A
:10339000F8B500BFF8BC08BC9E467047FFFFFFFFB2
:1033A000FFFFFFFFFFFFFFFFFFFFFFFF0000000029
:1033B000000000000000D601060100000D0A554182
:1033C0005254206578616D706C65207374617274FD
:1033D00065642E0D0A000000200D0A4578697421ED
:1033E0000D0A0000080000000600000005000000B3
:1033F000070000000000000000E0D701000001010C
:1034000001000000000000010100000000000000B9
:103410000100000001000000000000001C0000206E
:10342000000000000000000000000000000000009C
:10343000000000000000000000000000000000008C
:10344000000000000000000000000000000000007C
:10345000000000000000000000000000000000006C
:10346000000000000000000000000000000000005C
:10347000000000000000000000000000000000004C
:10348000232D302B20000000686C4C0065666745DA
:10349000464700003031323334353637383941420F
:1034A000434445460000000030313233343536376E
:1034B0003839616263646566000000000000000046
:0834C000C8CDFF7F01000000F0
:1034C8000000000000200040000000000020004034
:1034D800000000000090D0031C0000200000000045
:1034E8006034000040340000203400000000000078
:1034F80000000000000000000000000000000000C4
:1035080000000000000000000000000000000000B3
:1035180000000000000000000000000000000000A3
:103528000000000000000000000000000000000093
:103538000000000000000000000000006902000018
:04354800410200003C
:04000003000002F9FE
:00000001FF
