:020000022000DC
:1060000000000120F9620200216302002363020004
:1060100025630200276302002963020000000000DC
:106020000000000000000000000000002B630200E0
:106030002D630200000000002F63020031630200A4
:10604000719B020033630200A1A3020033630200CC
:1060500033630200336302005D9F0200336302007A
:1060600033630200336302003363020033630200D0
:1060700033630200336302003363020033630200C0
:1060800033630200DD8302003363020033630200E6
:106090003363020033630200C5DD02003363020094
:1060A0003363020033630200336302003363020090
:1060B00033630200336302000000000000000000B0
:1060C0003363020033630200336302003363020070
:1060D00033630200336302003363020000000000F8
:1060E00000000000000000000000000000000000B0
:1060F00000000000000000000000000000000000A0
:10610000000000000000000000000000000000008F
:10611000000000000000000000000000000000007F
:10612000000000000000000000000000000000006F
:10613000000000000000000000000000000000005F
:10614000000000000000000000000000000000004F
:10615000000000000000000000000000000000003F
:10616000000000000000000000000000000000002F
:10617000000000000000000000000000000000001F
:10618000000000000000000000000000000000000F
:1061900000000000000000000000000000000000FF
:1061A00000000000000000000000000000000000EF
:1061B00000000000000000000000000000000000DF
:1061C00000000000000000000000000000000000CF
:1061D00000000000000000000000000000000000BF
:1061E00000000000000000000000000000000000AF
:1061F000000000000000000000000000000000009F
:106200000348044B834202D0034B03B11847704745
:1062100024310020243100200000000005480649F8
:106220000B1AD90F01EBA301491002D0034B03B1A4
:10623000184770472431002024310020000000005E
:1062400010B5064C237843B9FFF7DAFF044B13B1BE
:106250000448AFF300800123237010BD28310020D3
:1062600000000000DC13030008B5044B1BB1044917
:106270000448AFF30080BDE80840CFE7000000000D
:106280002C310020DC130300A3F5803A704700BFD7
:10629000154B002B08BF114B9D46FFF7F5FF002162
:1062A0008B460F461148124A121A08F057F80C4B49
:1062B000002B00D098470B4B002B00D098470020B4
:1062C000002104000D000B4807F028FF07F056FFDF
:1062D0002000290005F0C8FB07F026FF0000080099
:1062E0000000000000000000000001202831002014
:1062F0007C41002051E102000649074A074B9B1AE6
:1063000003DD043BC858D050FBDC03F051F8FFF725
:10631000BFFF000028150300282A00202831002094
:10632000FEE7FEE7FEE7FEE7FEE7FEE7FEE7FEE745
:10633000FEE7FEE7704700BF00B583B0044B009353
:10634000044A402300F036F803B05DF804FB00BFB8
:10635000596302004831002002B32DE9F843114B84
:10636000114E88461446032743F0010900252246B2
:1063700008EB0501002005F06DFC0346E41A4FF41C
:106380007A401D4423B9337833B1C847013F06D062
:1063900001233370002CEAD1BDE8F88370473770D1
:1063A000BDE8F883C001030044310020704700BFFE
:1063B00005F026BDF0B595B0084600240E461746F8
:1063C0001D4602F045FD1A9A0D922346082205A9A2
:1063D0003046CDE9095408978DF82C400C9402F012
:1063E0009BFDDDE906219DF814308DF81140CDE9C3
:1063F000021203F00302012A28D0022A04D03046F8
:1064000002F02AFD15B0F0BDBDF81650C3F3C2036B
:10641000C5F389158DF810300827082D2C4628BFA4
:1064200008243B4622460EA9304602F075FD2D1B7E
:1064300008AB02AA21460EA8274400F021FF002D38
:10644000EBD1304602F008FD15B0F0BDBDF81410D8
:106450000598C1F38312C3F3C203C0F39525C1F3BA
:1064600083148DF810300EA930469200082302F0F4
:1064700053FD08AB0093224602AB0EA9284600F05C
:1064800089FE304602F0E8FC15B0F0BD08B5FFF714
:106490008FFF0448042100F0F9FD034B01225A71DB
:1064A00008BD00BF10150300282A0020064B07482E
:1064B00010B500221A7002F061FC044610B90448BD
:1064C00002F0E8FE204610BD58320020841403007C
:1064D000FC01030030B499B10D490E4D491BC908A8
:1064E00013D00D4C002302E0013399420AD034F856
:1064F00023208242F8D1184655F8300030BC70474E
:10650000044DF9E7002030BC70470846F6E700BFAD
:1065100084140300EC13030024310020094B0139DB
:1065200003EBC00003290BD8DFE801F004020806E2
:106530000420704702207047407970470079704707
:1065400000207047EC130300704700BF2DE9F043B3
:10655000904CD4E901239A4285B060D00023C4F85E
:106560001834BFF34F8FA568EAB2D31C04EB830144
:1065700014F82330580718D566680B7803F0030326
:10658000012B42D0022B03D14B88023505EB93152A
:10659000EAB2D4F81804D31C04EB830128B9AE4244
:1065A00039D914F823305B07E7D404EB82026B1C63
:1065B000DBB2D26804EB830302F00301DB6802293B
:1065C000CDE9012305F102062DD0012900F09280CA
:1065D000D4F810543DB12B6828469B689847EB6867
:1065E0001D68002DF7D16C486C4B6D49C01AC0086E
:1065F000000440F0020000F073FCD4E90130C01A3E
:1066000018BF012005B0BDE8F0830B880235C3F345
:1066100083131D44BCE7A66005B0BDE8F0830020ED
:1066200005B0BDE8F083BDF806305E48C3F38918B5
:106630004546502D28BF502505F1080165F38F13FD
:10664000C1F30901ADF8063002F09AFB07460028B5
:10665000BED002F0FDFB0023082201A9384602F05B
:1066600027FCF343DBB20133B5EB830F4FEA830220
:106670007ED9F1B25FFA82F9033104EB8101384629
:106680000823A5EB090502F013FCEDB209F108039C
:10669000454903F0FC032A46384602F009FC08F19C
:1066A000030806EB9806D4F81834002B6ED1D4F802
:1066B000105465B1EB685A7928463946002A61D0F2
:1066C0002B681B689847EB681D68002DF2D138468F
:1066D00002F0C2FB00230DF103008DF8033001F03E
:1066E000E1FCD4F8183403B9A6609DF8030001F06A
:1066F000FFFC82E7BDF804202A48C2F38313062B6F
:1067000028BF062363F38912023303F00F018900C7
:10671000ADF8042002F034FB074600283FF458AFE0
:1067200002F096FB0023082201A9384602F0C0FBC4
:10673000BDF8043013F4707FB5D06FF001094FF04D
:106740000808A9EB0509F1B203314346042204EB22
:106750008101384602F0ACFBBDF804300136C3F3CA
:10676000831309EB0602934208F10408EBD89AE779
:10677000F1B203312A4604EB81010823384602F0C6
:1067800097FB8CE71D68002D94D1A0E7384602F0F6
:1067900063FB32E75832002014140300EC130300AB
:1067A000E401030084140300643200202DE9F04F5B
:1067B00089B0DFF8E4B10393064600230DF113001E
:1067C0008DF81330CDE9011201F06CFCDBF80830D4
:1067D000DBF8047003F58073DB1B072B7AD80BF210
:1067E0001C450BF583680BF214441BE0BDF8163012
:1067F000C3F3891303334FEA11490AEB930A204686
:1068000001F0C0FE08B1CBF808A04946284601F0C7
:1068100095FEDBF80830DBF8042003F580739B1A43
:10682000072B58D80121284601F088FE404601F088
:106830009DFE204601F09AFEDBF80830DAB2D11C4A
:106840000BEB810C1BF8211001F00400490721D447
:106850000BEB8202591CD2680592C9B202F0030206
:106860000BEB8101012AC96803F1020A2AD0022A2E
:10687000BCD04FF00009C2E7BCF802300EEB931316
:10688000DAB2D11C0BEB810C1BF8210000F00400E4
:106890000028DDD09CF8001001F0030101290AD086
:1068A000022903F1020E02F10301E5D00BEB810C8A
:1068B0000028EFD1CCE7BCF800200233C2F38312EA
:1068C0001344DDE7BDF81430C3F383134FEA1149D5
:1068D0009A4494E73A46D3B20333083240F2851122
:1068E0009DF813004BF82310CBF8042001F000FCB6
:1068F000BB1CDBB20BEB8303029ADA60FB1CDBB23E
:106900000BEB8303039ADA603B1DDBB20BEB8303D3
:10691000129ADA607B1DDBB20BEB8303139ADA6009
:10692000BB1DDBB20BEB8303149ADA60FB1DDBB2F9
:106930000BEB8303159ADA600021164801F0F4FD91
:1069400080F31001F30003F03803019A43F4C0739D
:1069500043F00103781C43EA8222C0B2FBB2033346
:1069600009040BEB800041EA1641C1604BF823207B
:106970009BF8003023B9FFF7E7FD09B0BDE8F08FC1
:10698000FFF7E4FD0028F6D0FFF7E0FD0028F7D17F
:10699000F1E700BF74360020583200202DE9F04F97
:1069A00089B0DFF8B4B10393064600230DF113005C
:1069B0008DF81330CDE9011201F074FBDBF80830DB
:1069C000DBF8047003F58073DB1B042B78D80BF223
:1069D0001C450BF583680BF2144419E0BDF8163022
:1069E000C3F3891303334FEA114A09EB9309204695
:1069F00001F0C8FD514608B1CBF80890284601F0D7
:106A00009DFDDBE9012303F580739B1A042B58D805
:106A10000121284601F092FD404601F0A7FD2046E5
:106A200001F0A4FDDBF80830DAB2D11C0BEB810CCD
:106A30001BF8211001F00400490721D40BEB82025E
:106A400003F10209D26805920133DBB20BEB830339
:106A500002F00302012AD9682AD0022ABED04FF0E0
:106A6000000AC4E7BCF802300EEB9313DAB2D11C73
:106A70000BEB810C1BF8210000F004000028DDD096
:106A80009CF8001001F0030101290AD0022903F14A
:106A9000020E02F10301E5D00BEB810C0028EFD1CF
:106AA000CCE7BCF800200233C2F383121344DDE7C5
:106AB000BDF81430C3F383134FEA114A994496E7A3
:106AC0003A46D3B203330532C5219DF813004BF883
:106AD0002310CBF8042001F00BFBBB1CDBB20BEB4B
:106AE0008303029ADA60FB1CDBB20BEB8303039A8D
:106AF000DA603B1DDBB20BEB8303129ADA600021F4
:106B0000144801F011FD80F31001F200019B02F026
:106B1000380242F0C102781C42EA8322C0B2FBB2C2
:106B2000033309040BEB800041EA1641C1604BF8C6
:106B300023209BF8003023B9FFF706FD09B0BDE81C
:106B4000F08FFFF703FD0028F6D0FFF7FFFC0028C9
:106B5000F7D1F1E774360020583200202DE9F04FCC
:106B6000DFF8BCB189B0002406460DF11300039391
:106B7000CDE901128DF8134001F094FADBF80830EA
:106B8000DBF8047003F58073DB1B032B00F28180BC
:106B90000BF21C450BF583680BF214441AE0BDF8A8
:106BA0001630C3F3891303334FEA11490AEB930AF2
:106BB000204601F0E7FC494600283AD02846CBF8A9
:106BC00008A001F0BBFCDBE9012303F580739B1AED
:106BD000032B5FD80121284601F0B0FC404601F0AC
:106BE000C5FC204601F0C2FCDBF80830DAB2D11C4B
:106BF0000BEB810C1BF8211001F00400490728D48D
:106C00000BEB82015A1CC9680591D2B201F0030056
:106C10000BEB82020128D16803F1020A31D002286D
:106C2000BDD0204601F0AEFC4FF0000949460028D7
:106C3000C4D12846C5E7BCF802300EEB9313DAB294
:106C4000D11C0BEB810C1BF8210000F00400002884
:106C5000D6D09CF8001001F0030101290AD00229C6
:106C600003F1020E02F10301E5D00BEB810C0028C9
:106C7000EFD1C5E7BCF800200233C2F383121344FE
:106C8000DDE7BDF81430C3F383134FEA11499A448A
:106C90008EE73A46D3B20333043285219DF81300C0
:106CA0004BF82310CBF8042001F022FABB1CDBB216
:106CB0000BEB8303029ADA60FB1CDBB20BEB830362
:106CC000039ADA600021154801F02EFC80F31001D0
:106CD000F300019A03F0380343F08103781C43EA80
:106CE0008223C0B2FAB209040BEB8000033241EAFE
:106CF0001641C1604BF822309BF8003023B9FFF7F2
:106D000023FC09B0BDE8F08FFFF720FC0028F6D087
:106D1000FFF71CFC0028F7D1F1E700BF7436002014
:106D2000583200202DE9F04FDFF8B0B187B00023D2
:106D300006460DF10B008DF80B30CDE9001201F085
:106D4000B1F9DBE9018303F58073A3EB0803022BA0
:106D500000F281800BF21C450BF583670BF21444A3
:106D60001AE0BDF80E20C2F3891203324FEA114A2D
:106D700009EB9209204601F005FC514600283AD063
:106D80002846CBF8089001F0D9FBDBE9012303F595
:106D900080739B1A022B5FD80121284601F0CEFB9D
:106DA000384601F0E3FB204601F0E0FBDBF8083059
:106DB000DAB2D11C0BEB810C1BF8211001F004009E
:106DC000490728D40BEB82015A1CC9680391D2B23F
:106DD00001F003000BEB82020128D16803F10209E4
:106DE00031D00228BDD0204601F0CCFB4FF0000A84
:106DF00051460028C4D12846C5E7BCF802300EEB46
:106E00009313DAB2D11C0BEB810C1BF8211001F0AB
:106E100004000028D6D09CF8001001F003010129DD
:106E20000AD0022903F1020E02F10301E5D00BEBB7
:106E3000810C0028EFD1C5E7BCF800200233C2F373
:106E400083121344DDE7BDF80C20C2F383124FEA2E
:106E5000114A91448EE74246D3B2033303324521AF
:106E60009DF80B004BF82310CBF8042001F040F9FB
:106E700008F10203DBB20BEB8303019ADA60002115
:106E8000154801F051FB80F31001F300009A03F064
:106E9000380343F0410308F1010043EA8223C0B202
:106EA0005FFA88F209040BEB8000033241EA1641D5
:106EB000C1604BF822309BF8003023B9FFF744FB48
:106EC00007B0BDE8F08FFFF741FB0028F6D0FFF7D1
:106ED0003DFB0028F7D1F1E774360020583200203E
:106EE0002DE9F04FDFF8A0A187B0002306460DF191
:106EF0000B008DF80B30019101F0D4F8DAE9018331
:106F000003F58073A3EB0803012B00F281800AF2E2
:106F10001C450AF583670AF214441AE0BDF80E30E6
:106F2000C3F3891303334FEA11490BEB930B20464C
:106F300001F028FB494600283AD02846CAF808B094
:106F400001F0FCFADAE9012303F580739B1A012BA7
:106F50005FD80121284601F0F1FA384601F006FB1E
:106F6000204601F003FBDAF80830DAB2D11C0AEB54
:106F7000810C1AF8211001F00400490728D40AEB0B
:106F800082015A1CC9680391D2B201F003000AEBD6
:106F900082020128D16803F1020B31D00228BDD052
:106FA000204601F0EFFA4FF0000949460028C4D10D
:106FB0002846C5E7BCF802300EEB9313DAB2D11CB9
:106FC0000AEB810C1AF8211001F004000028D6D039
:106FD0009CF8001001F0030101290AD0022903F1F5
:106FE000020E02F10301E5D00AEB810C0028EFD17B
:106FF000C5E7BCF800200233C2F383121344DDE777
:10700000BDF80C30C3F383134FEA11499B448EE75C
:107010004246D3B20333023205219DF80B004AF8F1
:107020002310CAF8042001F063F80021154801F08C
:107030007BFA80F31001F300019A03F0380343F068
:10704000010308F1010043EA8223C0B25FFA88F22B
:1070500009040AEB8000033241EA1641C1604AF894
:1070600022309AF8003023B9FFF76EFA07B0BDE876
:10707000F08FFFF76BFA0028F6D0FFF767FA0028C9
:10708000F7D1F1E7743600205832002030B4154DA6
:10709000D5F810140446002071B10B4601E01B68BE
:1070A00053B1DB681A798242F9D101300A28F3D151
:1070B0004FF0FF3030BC7047E3681871D5F81034DA
:1070C0004BB1DA68E36812681A60D5F81034DB68EF
:1070D0001C6030BC7047C5F81044E268136030BCD7
:1070E000704700BF5832002038B5084BD3F8104421
:1070F00001251D704CB1E3685D71236820465B6813
:107100009847E3681C68002CF5D138BD5832002040
:1071100030B5C38885B004460D4623BB237A052BC2
:107120001FD0627A82B9144AA08852F823200392B1
:107130000021FFF7CFF9039A10490346284605B00E
:10714000BDE8304001F098BA1946A088FFF7E6F98B
:107150000B4B0C4953F82020284601F08DFA237A76
:10716000E1E705B030BD08490091084A08492846C2
:1071700001F082FAD2E700BFD40203003402030018
:10718000B0020300300203002802030008020300DB
:10719000100203002DE9F04385B01D460C9C00232E
:1071A00094F80C90237380460E46174621462846D5
:1071B000FFF7AEFF062F09D8DFE807F0042E343BB7
:1071C000444F1F004146204601F056FA2B7A052B0A
:1071D00005D06B7A5BB92749204601F04DFA20466D
:1071E00001F03EFA84F80C9005B0BDE8F083224A25
:1071F0002249204601F040FAEDE7736903933369B1
:107200000293F3680193B3680093D6E900234146E3
:10721000204601F031FAD9E732684146204601F0B4
:107220002BFAD3E7D6E900234146204601F024FAA1
:10723000CCE7B3680093D6E900234146204601F02D
:107240001BFAC3E7F3680193B3680093D6E9002300
:107250004146204601F010FAB8E733690293F3681B
:107260000193B3680093D6E900234146204601F01C
:1072700003FAABE7400203002802030030020300D8
:10728000082900D970472DE9F04F1D4683B000242E
:107290001B7B2C730E4607462946104690460193E9
:1072A000DFF8D0B0DFF8D0A0FFF732FF05E03A5D9D
:1072B000013401F0E1F9082C09D0A64251462846D4
:1072C000F5D85946013401F0D7F9082CF5D12449F5
:1072D000DFF8A8B0234CDFF8A8A0284601F0CCF9CD
:1072E0004FF0000917E017F80910481C7E294FF0ED
:1072F0002E02C0B206D810F80A2012F0970F14BF61
:107300000A462E222146284609F1010901F0B4F966
:10731000B9F1080F0AD04E45E5D85946284609F17B
:10732000010901F0A9F9B9F1080FF4D198F8083072
:10733000052B02D098F809305BB90B49284601F0BB
:107340009BF9284601F08CF9019B2B7303B0BDE833
:10735000F08F064A0649284601F08EF9EDE700BF96
:1073600050020300540203004002030028020300FD
:10737000300203004C02030044020300A413030084
:107380003812030038B5174B1D783DB3164A116803
:10739000C0B200230C4604E00133AB4204F1080400
:1073A0001CD011F833209042F6D102F0CDFD637865
:1073B000A3F10103B3FA83F35B09834200D038BD24
:1073C0000A4BD3E900231343F9D1094B0948196843
:1073D0000022BDE83840490800F05EBC00231B785D
:1073E000FFDE00BF103700203037002018370020A4
:1073F00014370020302A00202DE9F04FDFF8788282
:1074000098F8003083B0002B00F02B81DFF86C92ED
:10741000954F964E00254FF0010AD7F800B01BF8A3
:10742000350002F091FD1BF835400BEBC5036108F8
:107430005B7816F801C014F0010EA3F10103B3FA52
:1074400083F314BF4FEA1C120CF00F025B09042AED
:1074500000F2EA80DFE802F0725F3320030083422B
:1074600040F09F80BEF1000F0CBFF0230F230CEA09
:10747000030C0CBF0323302343EA0C03735498F826
:10748000002001359542C8DBD9E90023134340F0C1
:10749000DE8003B0BDE8F08F834200F0C580BEF10E
:1074A000000F0CBFF0230F230CEA030C0CBF0423C6
:1074B000402343EA0C03735498F80020E1E7834229
:1074C00040F0B580BEF1000F0CBFF0230F230CEA93
:1074D000030C98F800200CBF0323302343EA0C036D
:1074E0007354002AD0D0D7F800C00023614603E0CF
:1074F000934201F10801C4D01CF83300A04203F10B
:107500000103F5D14B68002BBBD0204601219847E1
:1075100098F80020B5E7834219BF00231A462023BC
:107520000222BEF1000F16BF1A46F0230F230CEA09
:1075300003031A43725498F80020A2E7834273D1E0
:107540004FF00003BEF1000F8DF8073014BF0F237A
:10755000F0230CEA030C14BF1023012343EA0C03AD
:107560000DF10700735400F09DFDA4F12003C4F158
:1075700020022AFA02F20AFA03F31343D9F8002090
:107580009DF807000AFA04F42243C9F80020D9F84C
:1075900004201343C9F8043000F0AAFD98F8002035
:1075A0006FE7BEF1000F14BF0F23F0230CEA0303B3
:1075B00098F800C07354BCF1000F12D03868002353
:1075C000024603E0634502F108020AD010F83310C6
:1075D000A14203F10103F5D1536813B10021204604
:1075E00098474FF000030DF107008DF8073000F0C9
:1075F00059FDA4F12003C4F120022AFA02F20AFA8A
:1076000003F31343D9F800209DF807000AFA04F4A5
:1076100022EA0402C9F80020D9F8042022EA030370
:10762000C9F8043000F064FD98F8002029E7BEF1A5
:10763000000F0CBFF0230F230CEA030C0CBF012337
:10764000102343EA0C03735498F8002019E7084B01
:10765000084819680022490803B0BDE8F04F00F05F
:107660001BBBDFF818900FE73037002020370020D1
:1076700014370020302A002010370020183700204F
:10768000092A3FD9F0B583B0144605460E4602F0EC
:10769000FBFA88B3204B214A1E70214B1560002154
:1076A00020481C60102206F059FE1F4B00200021CC
:1076B000741EC3E90001E4B236B31C4F05EBC404E9
:1076C000032602E0A5421FD01C469DF8063094F820
:1076D00002C020788DF8046023F007033A4601A920
:1076E0008DF806308DF805C002F0D8FAA4F1080331
:1076F0000028E7D003B0F0BD02F072FA0028C9D02C
:1077000003B0F0BD07207047094A0A48002103B0C2
:10771000BDE8F04000F0A8BA103700203037002054
:10772000143700202037002018370020857302000E
:10773000F9730200F402030070B5084D2B785BB1B9
:10774000074E00243368012113F8340002F09AFB3D
:107750002B780134A342F5D8002070BD10370020EB
:107760003037002000B585B00346002101AA44F25D
:107770000100CDE90111039300F004F805B05DF8B4
:1077800004FB00BF10B572B6FFF7AEFCFEF7DEFEDD
:107790000028FBD1104B114C1149E41AE4082404D1
:1077A00044F00100FFF79CFB0E4BD3F8F030DB07F1
:1077B00000D500BE0C4944F00200FFF791FBBFF377
:1077C0004F8F0849094BCA6802F4E0621343CB604B
:1077D000BFF34F8F00BFFDE7EC1303001414030049
:1077E000F802030000ED00E0040303000400FA05C2
:1077F00059B142B1531E1A4005D1826001608380A5
:10780000C26010467047092070470E20704700BFC5
:1078100010B48468C26803468088121B904203D269
:1078200004205DF8044B7047DC681A68204011544E
:10783000DA680132DA6000205DF8044B704700BF5F
:1078400003468068DA6890420DD010B49C689A882C
:1078500018682240825C0A709A6801329A6000209F
:107860005DF8044B70470520704700BF30B48D6849
:107870008468C368CA68A54272EB03032CBF012069
:10788000002030BC704700BF10B5044682B0002312
:107890000DF107008DF8073000F004FC23692BB9C7
:1078A0004FF0FF324FF0FF33C4E902239DF8070089
:1078B00000F01EFCD4E90530984700230DF10700C5
:1078C0008DF8073000F0EEFB2369BBB1D4E902125A
:1078D000B2F1FF3F08BFB1F1FF3F0FD05B1842F19B
:1078E0000002C4E902329DF8070000F001FC0748DD
:1078F000214601F0F3FC012002B010BD9DF8070005
:1079000000F0F6FB002002B010BD00BF240303000E
:107910002DE9F04F2DED028B83B008EE100A00F038
:107920001BFD40B1AC4AD2E9003113F1807341F143
:107930000001C2E9003118EE100A002100F028FD14
:10794000A64D60B32B6853B3A54B2C681B7823B3AB
:107950001CB3A44800F02CFD9F4BA34A19685B6838
:107960004018D2E9001243F10003884273EB02028F
:1079700003D210F1807043F10003D4E9021288426F
:10798000934180F02581B2F1FF3F08BFB1F1FF3F85
:1079900003D09648214601F0A1FC00232B6018EE8D
:1079A000100A012100F0F4FC002840F0F18090481A
:1079B00001A900F077FD00283AD08D4C4FF0FF3838
:1079C0004FF0FF3909E033B301A9204600F09CFDD8
:1079D00001A9204600F066FD50B30378012B11D0B9
:1079E000022BF0D1814E304601F08CFC30B1C0E961
:1079F0000289304601F086FC0028F8D1784B01223C
:107A00001A70E1E72B684168994200F0B580774829
:107A100001F082FCD8E74168D1E90223B3F1FF3FCE
:107A200008BFB2F1FF3FCFD0704801F057FCCBE761
:107A30006E4FDFF8B081DFF8A091384601F068FCA6
:107A4000002852D0D0E90223B3F1FF3F08BFB2F1C2
:107A5000FF3F00F08D80296891B12968D1E90201CA
:107A600082428B4144D22B68D3E90223B3F1FF3F1A
:107A700008BFB2F1FF3F03D02968384601F02EFC61
:107A8000384601F03FFC04464046574ED4E902BA5E
:107A900000F08EFCD9E900133268401843F100036E
:107AA0009042726873EB020203D210F1807043F1CE
:107AB0000003BBEB00006AEB0303012873F1000332
:107AC00024DBB0F5350F4DD25A464FF49603002112
:107AD000404600F0BBFB80B10D281BD00023384688
:107AE0002B6001F015FC0028ACD12B68002B66D070
:107AF00003B0BDEC028BBDE8F08F2B68002B3ED0AD
:107B00002C6003B0BDEC028BBDE8F08F0021404635
:107B100000F032FC324B1B78002BDFD0404600F0E7
:107B200047FCD9F80030D6E90012C018D9F8043063
:107B300043F10003884273EB020203D210F180701C
:107B400043F10003D4E90212884293411CD2B2F1FE
:107B5000FF3F08BFB1F1FF3FC0D02146384601F0DA
:107B6000BDFBBBE7404600F023FC224A0244ACE7E1
:107B7000384601F0C7FB60E700232B6024E718EECE
:107B8000100A00F031FBBBE72046FFF77DFEA5E7BA
:107B90001448154E00F00CFC0F4B1A685B688018F7
:107BA000D6E9001243F10003884273EB020203D2CC
:107BB00010F1807043F10003C6E90003F7E618EE08
:107BC000100A03B0BDEC028BBDE8F04F00F010BB13
:107BD0002046FFF759FEE0E638370020B83700208E
:107BE00040370020502A0020B03700202403030033
:107BF0009C370020FFFFB40010B5134B13491C68DD
:107C0000134882B008235822019400F0F1FB044687
:107C100010B1204602B010BD0E4A0F4801A900F075
:107C20007FFA04460028F4D10B48012100F08AFBBA
:107C300001231946094A084800F0DEFA084B0122E0
:107C400020461A7002B010BD200303004437002004
:107C50009C37002011790200502A0020FFFF7F008E
:107C600040370020000000006AB19FED097BA1F1C0
:107C700001010368B1FA81F1490983ED027BC3E98F
:107C80000412002070470720704700BFAFF3008048
:107C9000FFFFFFFFFFFFFFFFF0B583B004460025A5
:107CA00001A817460E468DF8045000F0FBF9D4E900
:107CB0000223B3F1FF3F08BFB2F1FF3F06D09DF8AA
:107CC000040000F015FA284603B0F0BD1C4800F08F
:107CD0006FFB1C4B1C4A19685B684018D2E9001204
:107CE00043F10003884273EB020224D3301843F1BE
:107CF0000003A060E3609DF8040000F0F9F9236937
:107D0000A76103B12661114801A900F089FB034670
:107D100070B100250D481D705C6001A900F0B2FB38
:107D20000028D1D0064800F047FB284603B0F0BD3C
:107D3000042003B0F0BD10F1807043F10003D5E7DB
:107D4000502A002038370020B03700209C37002010
:107D500030B583B00446002501A88DF8045000F02A
:107D6000A1F9D4E90223B3F1FF3F08BFB2F1FF3F0D
:107D70001CD04FF0FF334FF0FF32C4E902239DF8CF
:107D8000040000F0B5F9104801A900F049FB0346D2
:107D900048B10122027001A90B485C6000F072FB3F
:107DA00058B903B030BD042003B030BD9DF80400C5
:107DB00000F09EF9284603B030BD044800F0FCFAFC
:107DC000284603B030BD00BF9C370020502A002059
:107DD00030B50478012C83B004D0022C2DD0ECB146
:107DE00003B030BD037A002B3CD04368364D197880
:107DF0002846FFF70DFD002855D0344B01901B6835
:107E00008DF8004068469847A968EB68AA885B1A15
:107E10009A4227D22E4B01221A70E1E72D492E48B3
:107E2000FFF70EFD00282DD0284B03221B688DF88C
:107E300000206846984703B030BD284B284D1A787B
:107E4000C168AA5C01918DF800402649AAB90122B7
:107E500003F10C0002F0FEFC1C4B68461B689847BF
:107E600003B030BD1D4B1E4A1B781E49D35C012256
:107E7000ABB11D4802F0A6FFB2E70122181D02F0C7
:107E8000A1FFE9E71548164A03781249D35C01229D
:107E9000A3B1043003B0BDE8304002F02DBF134859
:107EA00002F0D8FC9CE7AA68EB689A42ACD0074B7A
:107EB0008DF800001B6868469847A5E70C3003B0B2
:107EC000BDE8304002F04EBCC0370020BC37002077
:107ED000D0370020E8370020D4370020582A00206F
:107EE00030380020E43700205C2A0020642A00207B
:107EF0002DE9F0412F4E88B03260002951D08A8898
:107F000004460E462C4809681D46FFF771FC10B167
:107F100008B0BDE8F081B289B1682848FFF768FC75
:107F20000028F5D194F810E0637C254E254FBEF172
:107F3000000E18BF4FF0010E002B0FCEEC46ACE840
:107F40000F006368009323680193E3680293A368BA
:107F5000039396E80F0018BF4FF00E088CE80F004F
:107F600008BF4FF000086369174A06936946384610
:107F70008DF814E08DF81C508DF8158001F08AFD05
:107F80000028C5D12368114A01331070C0D0104AAF
:107F90003B781049D35C01223BB1381D02F012FF3F
:107FA000B6E7072008B0BDE8F08107F10C0002F049
:107FB00051FCADE7BC370020C0370020D43700208B
:107FC00030030300582A0020D17D0200D037002062
:107FD00030380020E437002070B5104D01461048BD
:107FE0002E78FFF72DFC04460EB9204670BD0D48D3
:107FF0000D490378CB5C0D4900222A70012243B160
:10800000043002F0DFFE0028EFD0FFF7ABFB204684
:1080100070BD0C3002F01EFCF5E700BFD037002029
:10802000C0370020582A002030380020E4370020D4
:1080300070B501461548FFF7EBFB044608B1204632
:1080400070BD134D134E2B78F35CA3B1281D02F0C5
:10805000ABFE0028F3D110490C48FFF7F1FB0028D4
:10806000EDD12B780C49F35C53B1BDE870400B485F
:10807000012202F041BE05F10C0002F0DFFBE8E74F
:10808000BDE870400648012202F06CBBD4370020E6
:10809000582A002030380020E83700205C2A0020D1
:1080A000642A002070B4EFF3108472B60D4B9A6806
:1080B000AAB9012199600C490C4ED1F88050354085
:1080C0001D60C1F88060D1F884505D604FF0FF33CF
:1080D000C1F88430027004B962B670BC70470123E5
:1080E0000370F8E7EC37002000E100E0FC06FFBD7C
:1080F000094B9A687AB170B910B4EFF3108172B677
:10810000064A1C6814605C685460986001B962B6E5
:108110005DF8044B70477047EC37002000E100E049
:1081200010B5294C437944F82320284C04EBC303B1
:108130001B79002B3BD103680A88C3F8082590F906
:1081400004308A78002B2ADB03F16043520103F5E7
:108150006143D2B283F8002390F90430002B09DB8D
:108160001B494FEA531C012203F01F0302FA03F3D9
:1081700041F82C304279174B44F832001648181A4F
:1081800004EBC201C0084FF0010C000481F804C0E8
:1081900040F003001149FEF7A3FE002010BD104976
:1081A00003F00F0352011944D2B20A76D4E70A4B06
:1081B00008480C49C01AC008000440F00200FEF74D
:1081C0008FFE082010BD00BF00380020F8370020C7
:1081D00000E100E024140300EC1303007403030027
:1081E000FCEC00E050030300036801221A607047B2
:1081F000036801225A60704770B405684FF48034F8
:108200008C40C5F80843056801F1500CC5F8484397
:108210004FEA8C0C05681FFA8CFC002645F80C60B0
:1082200083B055F80C500195019D056801F5A871C2
:1082300022F07F4245F821200268C2F8444313B17E
:108240000368C3F8044303B070BC70472DE9F047DE
:108250004FF4803622F07F4702688E40C2F84863B0
:108260000268C2F80863026802EB810C044601F15F
:108270005005D2F80405DCF84025CCF84005AD00E7
:10828000ADB2121A20684FF0000840F8058082B0A5
:108290004059009022F07F42012A00988A46994670
:1082A00041D02268D2F80455C2F844637A1B22F008
:1082B0007F42012A0AF5A87125D0236843F821706E
:1082C0002068D0F804557B1BC9F1FF12013B02F571
:1082D0007F4223F07F439A4211D343B1C0F84463F5
:1082E00023680020C3F8046302B0BDE8F0870137BB
:1082F00040F821702068D0F804359D42EED00D2062
:1083000002B0BDE8F0872368013743F821700C4BB9
:108310004FF4806043F0010398472068D0F804359B
:108320009D42DBD0EBE7064A4FF4806042F0010249
:108330009047226842F8058052590192019AB0E7AD
:108340009003030002680223C2F8443311B10268AB
:10835000C2F80433704700BF0368D3F8040100B9C2
:108360007047002282B0C3F80421D3F8043101938E
:10837000019B012002B0704702684FF4803303FA7A
:1083800001F1C2F848130368C3F80813704700BF2F
:1083900050318900036889B2585800B970470022EB
:1083A0005A5082B05B580193019B012002B0704784
:1083B0000368D3F80405704790F90430002B09DBFB
:1083C0005A09054803F01F030121403201FA03F363
:1083D00040F82230704700BF00E100E0024A034B42
:1083E00010681B68184700BFF837002000380020CD
:1083F00099B110B4B2FBF3F403FB1424A4B244B952
:10840000C0E9001484608281C38120465DF8044B7A
:10841000704709205DF8044B70470E20704700BF7D
:1084200010B483B050E8013F1FFA83FCC489A44410
:108430008489A44528BFACEB040C0489A44502BF81
:10844000BFF32F8F002207E0CCEA030C40E801C401
:10845000002CE7D14FF001028DF803200193019C1D
:108460009DF803200C6032B1006810FA84F003B06C
:108470005DF8044B704702F0FF03184603B05DF847
:10848000044B70470A884B889A4201D000207047FD
:1084900050E8012FC2EA024240E80123002BF7D145
:1084A0000120704710B483B050E8023F1FFAA3FCCC
:1084B000C488A44502BFBFF32F8F00220EE0C489F9
:1084C000A4448489A44528BFACEB040CC3EA0C4C3B
:1084D00040E802C4002CE7D14FF001028DF80320E0
:1084E0000193019C9DF803200C6032B1006800EB01
:1084F000144003B05DF8044B704702F0FF031846C8
:1085000003B05DF8044B70470A884B889A4201D04B
:108510000020704750E8022FC2EA224240E80223BE
:10852000002BF7D101207047034653E8000F0A469D
:1085300043E8002C9CF0000FF7D17047034653E846
:10854000002F02EB010043E8000C9CF0000FF6D175
:10855000704700BF034653E8002FA2EB010043E839
:10856000000C9CF0000FF6D1704700BF03460122BB
:1085700053E8001F41EA020043E8000C9CF0000FA2
:10858000F6D170470346002253E8000F00EA0201CB
:1085900043E8001C9CF0000FF6D17047D0B110B436
:1085A000D0E90112521A0468D2B2531E2160DBB224
:1085B00052B101680A6803F1FF3C541C0C6013704F
:1085C0005FFA8CF3FF2BF4D10368002018715DF87B
:1085D000044B70470E20704730B583B00446002529
:1085E0000DF107008DF80750FFF75CFDD4E900316D
:1085F0001A688A4210D9511E19602168A3680D6853
:1086000012F8012C208A5B1BE56800FB02550A79F1
:10861000DBB29A4238BF0B719DF80700FFF768FD87
:10862000284603B030BD00BF30B5054683B00DF11C
:10863000070000230C468DF80730FFF733FD2A684A
:108640001368591C1160E9682A8A641AB4FBF2F4B1
:108650001C709DF80700FFF74BFD03B030BD00BF55
:10866000826842B110B504464369016800699847C1
:108670000023A36010BD70470EB400B582B003990B
:1086800021B104AB01AA019300F0B6F802B05DF885
:1086900004EB03B0704700BF2DE9F04F154683B0DF
:1086A000A942DDF830900D9A0F4606469A46C0F072
:1086B0009E800B464FF00108B3FBF5F39D4208F195
:1086C0000108F9D9D04538BFD04612F00103019313
:1086D00002D1B9F1000F67D1B268BAF1010F4FF0C2
:1086E000010406D90AF1FF3ABAF1010F05FB04F4BF
:1086F000F8D8B7FBF4F39D4205D805FB04F4B7FBAB
:10870000F4F39D42F9D9DFF8ECA007E0AC42B4FBEA
:10871000F5F31AD3B2681C46B7FBF3F31AF803B0AB
:10872000BBF10A0F04FB137728D03368511CB160EA
:1087300003F802B0D6E901329A42E7D33046FFF798
:108740008FFFB4FBF5F3AC42E4D2019B9BB1B9F1CE
:10875000000F10D02024C84509F1FF390BD2B368AF
:108760003268591CB160D454D6E901329A4214D20D
:10877000B9F1000FEFD103B0BDE8F08F511C3368A1
:10878000B1604FF00D019954D6E901329A42CCD331
:108790003046FFF765FFB268C7E73046FFF760FF76
:1087A000B9F1000FD7D1E6E793071AD42024B268B5
:1087B000C84502F1010190D23368B1609C54D6E9FA
:1087C00001329A4209F1FF3903D2B9F1000FEFD11A
:1087D00083E73046FFF744FFB268B9F1000FE7D1F5
:1087E0007BE7BAF1000F0CBF30242024DFE74FF005
:1087F000010867E798030300002900F05C822DE977
:10880000F04FDFF870950D7885B0064690460C461F
:108810004FF00D0A0FE00A2DB36800F08E80326829
:10882000591CB160D554D6E901329A4280F081805A
:108830002578002D69D00134002D66D0252DEAD190
:108840000027234614F8012B2D2A6CD0302A6DD036
:108850002B2A61D02A2A7FD0A2F1300109294FF0BA
:1088600000050BD805EB850502EB450513F8012F34
:10887000A2F130010929A5F13005F3D92E2A1C46B1
:1088800075D0002301E014F8012F02F0FB016829E4
:10889000F9D0252A00F08681583AD1B2202930D863
:1088A000202A2ED8DFE812F021002D002D002D0007
:1088B0002D002D002D002D002D002D002D00FE007F
:1088C00079002D002D002D002D0079002D002D00A8
:1088D0002D002D002D002D00BD002D002D001A01B2
:1088E0002D0016012D002D002100D8F800101022B7
:1088F000081DC8F8000009683046CDE90057FFF7A9
:10890000CBFE01342578002D95D1337B002B40F030
:10891000438105B0BDE8F08F234614F8012B2D2AC2
:1089200047F0040792D147F001078AE747F00207B2
:1089300087E73046FFF794FE7AE73268591CB1604A
:1089400002F803A0D6E901239342FFF468AF304652
:10895000FFF786FEB36862E7D8F80020111DC8F85B
:10896000001015685A782E2A03F1010489D1627823
:10897000A2F13003092B04F101044FF0000384D865
:1089800003EB830302EB430314F8012FA2F1300140
:108990000929A3F13003F3D977E7D8F80020111D96
:1089A000C8F80010D2F800B08BEAEB72A2EBEB72C1
:1089B000092A40F3DB81DFF8C0C301201146632997
:1089C000ACFB02E200F101004FEAD202F6DC984271
:1089D000024638BF1A460292002D00F01E81BBF1FC
:1089E000000FC0F22E817A0700F12B81B80740F109
:1089F0002A81002B40F02781BBF1000FC0F27D815E
:108A00007A0700F18D8107F00302022A00F05D81F0
:108A1000CDE9005759460A223046FFF73DFE0134A2
:108A200070E7D8F800301A1DC8F800201F68B36836
:108A30003268581C3021B060D154D6E901239342EA
:108A400080F0FA80591C3268B1607821D154D6E99F
:108A500001329A4280F0EB800F2F03D93B461B096D
:108A60000F2BFCD84FF0805506E00F2D4FEA151361
:108A70007FF647AFB2681D46B7FBF5F319F803B0B0
:108A8000BBF10A0F05FB137777D03368511CB16037
:108A900003F802B0D6E901329A42E6D33046FFF736
:108AA000DFFDE2E7D8F800301A1DC8F800201D7875
:108AB000B3680A2D00F03A813268591CB160D55470
:108AC000D6E901329A42FFF41CAF3046FFF7C8FDE9
:108AD000013417E7D8F800100A2209E7D8F8003067
:108AE0001A1DC8F8002017F00107D3F800B064D1B0
:108AF000BBF1000F03D0584605F022FD0746BD42EA
:108B000015D9202201E0BD4211D0B1683368481C5C
:108B1000B0605A54D6E90130984205F1FF35F2D3DE
:108B20003046FFF79DFDBD424FF02002EDD19BF88E
:108B30000050002D3FF4E5AE0A2DB0680FD0336829
:108B4000421CB2601D54D6E90130984280F0B480D6
:108B50001BF8015F002D3FF4D4AE0A2DEFD133682E
:108B6000421CB26003F800A0D6E901309842E6D377
:108B70003046FFF775FDB068E1E73368511CB1601E
:108B800003F802A0D6E901329A42FFF47EAF3046E4
:108B9000FFF766FDB26878E7304605B0BDE8F04FF4
:108BA000FFF75EBDB3683168581CB060CA54D6E99F
:108BB00001329A4289D20134A4E69BF80030002B9E
:108BC00000F0D680B0685F46CBF101020A2B02EBC1
:108BD000070B5ED0411CB16031680B54D6E90130FF
:108BE000984248D217F8013F002BEFD15D457FF640
:108BF00088AE202702E05D453FF483AEB26833685B
:108C0000511CB1609F54D6E901329A4205F1FF35FB
:108C1000F1D33046FFF724FDEDE7B80705D5002B6B
:108C20003FF4EAAEF9073FF5E7AE0025E4E630464B
:108C3000FFF716FDB2680FE73046FFF711FDB36886
:108C400000E7013DD2E6F9073FF5D6AE002DECD0A6
:108C500020220299A942BFF4CFAEB168481CB0608F
:108C600030684254D6E90101814205F1FF356CD2EA
:108C7000002DEED1D9E730460292FFF7F1FC17F84C
:108C8000013F002BB2D0029AB0680A2B02EB070B0F
:108C9000A0D1411CB160316801F800A0D6E90110F3
:108CA000884297D33046CDE90232FFF7D9FCDDE99F
:108CB0000232B0688EE770473046FFF7D1FC1BF8F0
:108CC000015F002D7FF438AF1BE6002B7FF4A0AED0
:108CD0008DB1302202998D427FF69AAEB168481C60
:108CE000B06030684254D6E90101814205F1FF3598
:108CF00035D2002DEED100258AE6B1683268481CD5
:108D0000B060CBF1000B2D205054D6E901219142E7
:108D1000FFF479AE30460393FFF7A2FC039B72E6A3
:108D2000B1683268481CB0602B20EDE73268591CEE
:108D3000B16002F803A0D6E901239342FFF4BCAE70
:108D40003046FFF78DFCB368B6E630460393FFF775
:108D500087FC039B2022002D7FF47BAF65E7304624
:108D60000393FFF77DFC039B3022C2E701202EE630
:108D70009B463BE798030300CDCCCCCCFFF70EBC61
:108D80002DE9F041058A0331043D4E198046B6FBBA
:108D9000F5F6FFF721FCA0B3F6B24FF48073013E65
:108DA00004468380C580C0F800802BD00346002590
:108DB00008E06279AE4202F1010262713860C0F8E7
:108DC00000801FD040461F46FFF706FC01350346D2
:108DD0000028EED16779791E17D0224601339942D7
:108DE0001268FBD1D2F800805FB12668002501E04F
:108DF00034463668214640460135FFF715FCAF4240
:108E0000F6D800242046BDE8F08120682146FFF70F
:108E10000BFCF6E7F8B546790146701E13D00A46FA
:108E20000023013398421268FBD1176856B10D68D0
:108E3000002401E029462D6838460134FFF7F4FB91
:108E4000A642F7D8F8BDBDE8F8400868FFF7ECBBCC
:108E500001210430FFF772BB2DE9F04101210446E6
:108E60000430FFF777FB10F0FF0301D0BDE8F0817D
:108E70006779791E16D02246013399421268FBD1D8
:108E8000D2F80080002FF1D02668002501E034469A
:108E90003668214640460135FFF7C6FBAF42F6D89B
:108EA000BDE8F08120682146BDE8F041FFF7BCBB7A
:108EB0002DE9F8438846C788417907FB01F1043959
:108EC00002EB030C1E1D6145154638BFCD1AB74293
:108ED0000446B6FBF7F207FB126002D8013A246899
:108EE000FCD13E1AAE4228BF2E469DB14FF000097C
:108EF0000430AD1B324608EB0901204405F094F91B
:108F0000AF42B14424683E464FF0000028BF2E46D1
:108F1000002DEDD1BDE8F8832DE9F8430446C7885C
:108F2000407907FB00F0043802EB030C1E1D60457E
:108F3000154638BFC51AB7428846B6FBF7F107FB9E
:108F4000116202D801392468FCD1BE1AAE4228BF92
:108F50002E469DB14FF00009111DAD1B3246214434
:108F600008EB090005F060F9AF42B14424683E46C1
:108F70004FF0000228BF2E46002DEDD1BDE8F8834A
:108F800033DF704741DF7047064A074B10B50024B6
:108F900014701C60BFF35F8F0449054800F088F926
:108FA000204610BD0D38002010380020B403030007
:108FB0000438002000B583B000230DF107008DF8C0
:108FC0000730FFF76FF8F1EE103A23F09F03E1EE60
:108FD000103ABFF35F8F0B4B4022C3F884219DF8FA
:108FE0000700FFF785F804F0E7FE28B920BF40BF6F
:108FF00020BF03B05DF804FB03B05DF804EBFFF79E
:10900000C1BF00BF00E100E070B5284E0446012159
:109010003046FFF789FABFF35F8FD0B9042C40D0F8
:10902000234B1A7862BB234D01222C701A70224CFC
:10903000636823B90EE000F045F9636853B11B681B
:109040002878984703462046002BF4D1BFF35F8F62
:10905000336070BDFEF748F8FDF778FA0028FBD1C1
:109060002B78023B012B0FD904F0A6FED8B94FF0A4
:1090700080430122C3F80025BFF34F8F20BFFDE7D7
:10908000BFF35F8F306070BDBFF34F8F0B490C4B48
:10909000CA6802F4E0621343CB60BFF34F8F00BF96
:1090A000FDE7044DC3E7FFF76BFFE0E71038002052
:1090B0000D3800200C3800200438002000ED00E0BE
:1090C0000400FA0570B5044682B000250DF10700D2
:1090D0000E468DF80750FEF7E5FF2368A268186872
:1090E0005968914238BF4D1CA84212D0586859683F
:1090F0008A420BD800225A60E268531E072B19D807
:10910000DFE803F04540183B181818330131596067
:10911000F2E7217C002941D158685D68AA423AD81B
:1091200059602268A16813688B4234BF0133002361
:109130001360E1E76368314600FB023005F074F824
:109140002268136851688B4282BFA06801300918F9
:10915000CB1A91689DF80700994238BF9360FEF7DB
:10916000C7FF0024204602B070BD636896ED007B07
:1091700003EBC00080ED007BE2E76368326843F8F0
:109180002020DDE76368328823F81020D8E7636881
:1091900032781A54D4E701355D60C2E79DF80700C4
:1091A000FEF7A6FF0424204602B070BD70B5044649
:1091B00082B000230DF107000D468DF807301646EA
:1091C000FEF770FF236818685968884211D0196843
:1091D0002EB91A68A068824238BF561C1E60E26829
:1091E000531E072B0DD8DFE803F0411A0C260C0C98
:1091F0000C329DF80700FEF77BFF0524204602B0E5
:1092000070BD6368284601FB023105F00DF89DF83A
:109210000700FEF76DFF0024204602B070BD6368B2
:109220009DF8070033F811302B80FEF761FF002412
:10923000204602B070BD63689DF8070053F82130E6
:109240002B60FEF755FF0024204602B070BD636816
:109250009DF8070003EBC101D1E90023C5E9002314
:10926000FEF746FF0024204602B070BD63689DF8FB
:1092700007005B5C2B70FEF73BFF0024204602B02A
:1092800070BD00BF036818685B68C01AB0FA80F050
:109290004009704782680023936082681361826886
:1092A00053618268D360826853608268136070473C
:1092B00001600B6843604A68934204BF0023436027
:1092C000704700BF436843B1026891680B44436034
:1092D0005268934204BF00234360704770B54468EE
:1092E000064620680D4618B908E02468206828B1B1
:1092F000B368294698470028F7D120682860256080
:1093000070BD00BF4368186808B102681A607047F2
:1093100043681868704700BF4368186818B908E0C8
:109320000346006828B18142FAD10A681A60012018
:10933000704770471049A1F5947205E052F8333038
:10934000984238BF61460CD2A1EB020C4FEADC73A5
:1093500003EBEC035B10914202EBC30CEED8074821
:10936000704702D90CF10802EEE7DCF80400034B69
:10937000002808BF18467047F4080300B807030028
:1093800070B5161E07DD0C468D1914F8010BFEF79B
:109390004FFEA542F9D1304670BD00BF10B50C4656
:1093A0002046FEF719FE0528FAD0012010BD00BFA7
:1093B00010B44FF08053D3F830315A1C04BF4FF033
:1093C000704393F8E03F062B08D14FF08053C24A18
:1093D000D3F82433C3F30423C2F840354FF070436D
:1093E00093F8E02F062A00F024814FF08053D3F841
:1093F00030315C1C04BF4FF0704393F8E03F062B04
:1094000009D14FF080534FF08042D3F84432C3F378
:109410004233C2F83C354FF0704393F8E02F062AF0
:1094200000F0F2804FF08053D3F83031581C04BF65
:109430004FF0704393F8E03F062B08D14FF0804384
:109440000022C3F80C21C3F81021C3F838254FF0CF
:10945000704393F8E02F062A00F0B3804FF080525B
:10946000D2F83031591C27D0062BD2F834212DD018
:109470009A4AD2F8883043F47003C2F88830BFF3B8
:109480004F8FBFF36F8F4FF08053D3F83021062AF0
:1094900000F0E0804FF01023D3F80022002AC0F241
:1094A0003B81D3F80432002BC0F236818C4B8D4ABD
:1094B0001A605DF8044B70474FF0704292F8E01F5D
:1094C000D2F8E82F0629D3D1C2F30312033A042AB3
:1094D00040F2DA804FF08053834AD3F80414C2F884
:1094E0002015D3F80814C2F82415D3F80C14C2F8C8
:1094F0002815D3F81014C2F82C15D3F81414C2F898
:109500003015D3F81814C2F83415D3F81C14C2F867
:109510004015D3F82014C2F84415D3F82414C2F827
:109520004815D3F82814C2F84C15D3F82C14C2F8F7
:109530005015D3F83014C2F85415D3F83414C2F8C7
:109540006015D3F83814C2F86415D3F83C14C2F887
:109550006815D3F84014C2F86C15D3F84414D3F846
:109560003031C2F870155C1C04BF4FF0704393F8A3
:10957000E03F062B7FF47CAF4FF080524FF08041EC
:10958000D2F85832D2F8302103F04F03501CC1F802
:10959000E43E7FD0062A7FF46BAFD1F80034DA07BF
:1095A00000F184804FF08053D3F83431033B042B17
:1095B00064D94E4AD2F83C3743F48063C2F83C3752
:1095C00056E7D3F8E83FC3F30313033B042B3FF6FE
:1095D00045AF474AD25C22B14FF080420321C2F826
:1095E000A015444AD35C002B3FF438AF424B05240E
:1095F000012000213F22C3F81046C3F88806C3F8B3
:109600001816C3F8142629E7D3F8E83FC3F3031369
:10961000033B042B3FF606AF384AD35C002B3FF4E4
:1096200001AF2E4AD2F8FC3023F08073C2F8FC3030
:10963000F8E6D3F8E83FC3F30313033B042B3FF6EC
:10964000D4AE2F4AD35C002B3FF4CFAE2D4B2E4A25
:109650005A67CAE6D3F83431033B042B08D94FF0DC
:1096600010224FF08043D2F80822C3F8582511E7A2
:10967000264AD35C002B3FF40DAFF0E7244AD35CBD
:10968000002B3FF4F5AE94E722498A5C002A3FF4B0
:109690006AAF1FE74FF0704393F8E03F062B7FF46B
:1096A000E7AED1F80034DB077FF5E2AE4FF0805330
:1096B0004FF08042D3F830316FF00101062BC2F831
:1096C00000147FF4D5AE4FF08053D3F83431033B10
:1096D000042B3FF66EAFD1E70030014000ED00E013
:1096E0006C2A00200090D00300C000400010004011
:1096F0000C0903000C090300005000400C09030092
:109700000C09030000C007400DF0ADBA04090300C6
:10971000FC080300F4080300184A0123C2F80435CA
:10972000D2F80034002BFBD04FF010231521134A40
:10973000C3F80012D2F80034002BFBD04FF01023F6
:1097400015210E4AC3F80412D2F80034002BFBD0C6
:1097500000230A49C2F80435D1F80034002BFBD0AD
:10976000BFF34F8F0649074BCA6802F4E062134308
:10977000CB60BFF34F8F00BFFDE700BF00E00140AB
:1097800000ED00E00400FA054FF0A042044B1B5C22
:10979000D2F80405D840C04300F00100704700BF74
:1097A00018090300044A115C01234FF0A0428B40CA
:1097B000C2F80C35704700BF18090300044A115C59
:1097C00001234FF0A0428B40C2F80835704700BF1C
:1097D000180903004FF0A04310B44FF480204FF459
:1097E00000344FF400214FF48012C3F80845C3F849
:1097F0000805C3F80815C3F808255DF8044B704741
:109800004FF0A04310B44FF480204FF400344FF4D5
:1098100000214FF48012C3F80C45C3F80C05C3F8BF
:109820000C15C3F80C255DF8044B7047074B4FF03F
:10983000A041185CD1F804350122824022EA0300DD
:109840001340C1F80805C1F80C357047180903002A
:109850004FF0A042044B1B5CD2F81005D840C04327
:1098600000F00100704700BF140903000D2809D063
:109870000E2809D00F2809D010280CBF03204FF064
:10988000FF3070470020704701207047022070476A
:10989000014B185C704700BF14090300C20710B4E5
:1098A0001AD54FF0A04303224FF40031C3F84427E8
:1098B0004FF48024C3F84827C3F84C27C3F8502737
:1098C000C3F808154FF480124FF40021C3F808457F
:1098D000C3F80815C3F8082583070AD54FF0A0433D
:1098E0000C22C3F83427C3F83827C3F83C27C3F841
:1098F00040275DF8044B704710B568B90E4CA3685B
:10990000012262703BB1D3E900230020A260984796
:10991000A368002BF7D110BD0128FCD1064C2369A8
:10992000A070002BF7D0D3E90023012022619847D3
:109930002369002BF7D110BD1438002070B910B581
:10994000074CA368012262703BB1D3E900230020D9
:10995000A2609847A368002BF7D110BD704700BFE5
:109960001438002030B5012883B004D0032821D05A
:10997000B0B103B030BD294C00230DF107008DF8C4
:109980000730FEF78FFB23786BB3E3689DF8070081
:1099900001221344E360A270FEF7AAFB03B030BDBE
:1099A0001F4B0122C3F88020BFF34F8FBFF36F8F8F
:1099B00003B030BD194C00F0B3F800230DF10700DF
:1099C0008DF80730FEF76EFBE368013BE360E36868
:1099D0001BB9144BD3F80054C5B19DF80700FEF72E
:1099E00087FB03B030BD10486360A3602361E36070
:1099F00000F08AF804F0E0F960B10A4A012323700C
:109A0000D2F80024002AC0D0A370BEE700F09AF874
:109A1000A570E2E700F084F8EFE700BF14380020FB
:109A200000E100E000000140F998020030B50A4B67
:109A30000A4C53F8213054F82110027885B0D0E94F
:109A400001548DF80020C26801958DF808400392FA
:109A50006846984705B030BD2C38002028380020D3
:109A600030B50A4B0A4C53F8213054F821100278D3
:109A700085B0D0E901548DF80020C26801958DF8B9
:109A8000084003926846984705B030BD2C38002046
:109A900028380020F0B5174B06784F7F43F8262072
:109AA0001446154B154A9F550546086942F826008D
:109AB0008C46BCE80F0089B0EE46AEE80F009CE88B
:109AC0000F008EE80F0004964FB1002C0C4A694637
:109AD00008BF2246281D01F027F809B0F0BD002C70
:109AE000084A694608BF224605F10C0000F06CFDEB
:109AF00009B0F0BD2C380020303800202838002074
:109B00002D9A0200619A0200044A137923B90121B7
:109B100010609180184670478520704734380020C7
:109B2000074B1A68D20704D4C02283F8002301220D
:109B30001A604FF080430122C3F81825704700BF18
:109B400000E100E04FF0804202210023C2F8081338
:109B500082B0C2F80431D2F8043101930123019993
:109B6000D360D2F81834DB03FBD402B0704700BFD7
:109B700010B54FF0804382B0D3F8002162B10021CC
:109B8000164AC3F80011D3F8001150790091012151
:109B9000009CC3F80813A8B14FF08043D3F8042108
:109BA000CAB10022C3F80421D3F804210192022192
:109BB0000A4A0198C3F808131368012002B0BDE8EF
:109BC000104018471368517198474FF08043D3F8FD
:109BD0000421002AE5D102B010BD00BF34380020B6
:109BE00030B5254C94F8583083B0002B40D16FF03D
:109BF0002F0004F1300304F1500C001B4FF0FF3133
:109C0000C21821FA02F2D20748BF19700133634526
:109C1000F6D14FF0FF304FF0FF314FF0FF33C4E982
:109C200000010422002115482365C4E90233C4E978
:109C30000433C4E90633C4E90833C4E90A3304F041
:109C40008DFB0F4BC02283F8062340221A600D4B78
:109C50000020C3F87C01D3F87C210192019D4FF0D4
:109C60000042012184F85810C3F8042303B030BD2A
:109C7000082003B030BD00BF4038002094380020D9
:109C800000E100E000600040034B93F8580000380A
:109C900018BF0120704700BF4038002070B5774BD7
:109CA00003EB000E9EF930C0BCF1000F01DB082071
:109CB00070BD91F802C01CF0020FCCF340055DD1DD
:109CC0001C6A013400F0D2805C6A013400F0C48068
:109CD0004FF00C0E4FF00A0C53F82C40013459D0C1
:109CE0000CF10104744547D253F82460013600F0AA
:109CF000AB800CF1020474453ED253F82460013667
:109D000000F0A2800CF10306764535D253F82640C8
:109D100001343ED00CF1040676452DD253F826408E
:109D2000013436D00CF10506764525D253F826408D
:109D300001342ED00CF1060676451DD253F826408C
:109D4000013426D00CF10706764515D253F826408B
:109D500001341ED00CF1080676450DD253F826408A
:109D6000013416D00CF1090CF44505D2DC6A01343B
:109D700008BF4FF00B0C0DD0042070BD1C680134DF
:109D800064D05C6801346ED04FF0080E4FF0020CC6
:109D9000A2E7B44643F82C201A184FFA8CFE82F83A
:109DA00030E015B99C448CF848008A78540715D4E3
:109DB000D50740D5820002F1A042D2F8004724F036
:109DC0000204C2F800472E4DC40800F0070C2E5DB7
:109DD000012202FA0CF232432A558A7812F002026A
:109DE0001CD04FEA8E0303F1804303F5C04309788A
:109DF000D3F8104524F4473424F44074C3F81045D4
:109E000002020904D3F8100501F4403102F4F852BB
:109E10000A430243C3F81025002070BDAEF1080EBE
:109E200043FA8EF30C7893F85010104641EA8412EE
:109E300083F8502070BD4A784FF0A04400F5E075DB
:109E4000920044F82520BEE7A446A3E71A6000224A
:109E50008EF830209646A8E74FF0090C8EF830C0F7
:109E60005A62E6469EE74FF0010C93E74FF0080C6C
:109E70008EF830C01A62E64694E700BF40380020F2
:109E80009438002030B42E4C04EB000C82B09CF9C6
:109E90003030072B1EDD083B44FA83F393F8503033
:109EA0009B09032B41D0012B0CBF4FF400334FF41F
:109EB0004033800000F1A040D0F8002722F4403267
:109EC000C0F80027D0F800271343C0F8003702B0CD
:109ED00030BC7047DAB2072AF9D8980000F1804008
:109EE00003F1400200F5C04052B29200D0F8105584
:109EF00092B202F1804202F5C04245F00105C0F87D
:109F000010550020106012680192019A0029DED0DD
:109F10009CF9302054F82220002AD8D00949012287
:109F200002FA03F3C1F80433D1E74FF0A043D3F8AA
:109F30001035C34003F0010302331B04B9E700BF2F
:109F400040380020006000404FF0A043D3F81035A7
:109F500023FA00F000F00100704700BFF0B585B0B3
:109F60001D4A00230193D2F80011012900F0E58178
:109F70001E46194BD3F80421012A00F0CF81164B5D
:109F8000D3F80821012A00F0B881134BD3F80C2133
:109F9000012A00F0A381104BD3F81021012A00F010
:109FA0008E810D4BD3F81421012A00F079810A4BE0
:109FB000D3F81821012A00F06481074BD3F81C2143
:109FC000012A0BD0044BD3F87C21012A00F0C28176
:109FD00026BB05B0F0BD00BF00600040D3F80423ED
:109FE0001206EFD50022C3F81C21D3F81C110291F0
:109FF000D3F87C110298012946F080060ED1C3F8EF
:10A000007C21D3F87C2103924FF0A043039AD3F82C
:10A0100020250192C3F8202546F00046BE4F0024BB
:10A020000125A30003F180432E4203F5C0434FEA0C
:10A0300045050BD0D3F8100557F82420D3F8101598
:10A04000C0F30420C1F3014102B190470134082C50
:10A05000E7D1002EBDDAB04C01254FF0A04694F9AF
:10A060005000471C3DD0C0F3C20310336B44C1B253
:10A0700013F80C2C00F0070305FA03F31A4200F062
:10A080003F002ED0830003F1A04305FA00F7D3F878
:10A090000027D3F800C72CF4403CC3F800C7C2F334
:10A0A0000142D3F800C7022A0CBF4FF4403E4FF4E0
:10A0B000003E4CEA0E0CC3F800C72318C6F8207502
:10A0C00093F9303054F823305BB18909032900F04B
:10A0D0006581022A00F05F81032A02D1022900F083
:10A0E0005D8194F95100411C3DD0C0F3C20310338F
:10A0F0006B44C1B213F80C2C00F0070305FA03F30C
:10A100001A4200F03F002ED0830003F1A04305FA6D
:10A1100000F7D3F80027D3F800C72CF4403CC3F86D
:10A1200000C7C2F30142D3F800E7022A0CBF4FF484
:10A13000403C4FF4003C4CEA0E0CC3F800C7231817
:10A14000C6F8207593F9303054F823305BB1890993
:10A15000032900F01981022A00F01381032A02D199
:10A16000022900F0118194F95200421C3DD0C0F345
:10A17000C20310336B44C1B213F80C2C00F0070378
:10A1800005FA03F31A4200F03F002ED0830003F1DA
:10A19000A04305FA00F7D3F80027D3F800C72CF442
:10A1A000403CC3F800C7C2F30142D3F800E7022ADB
:10A1B0000CBF4FF4403C4FF4003C4CEA0E0CC3F88B
:10A1C00000C72318C6F8207593F9303054F82330AF
:10A1D0005BB18909032900F0D280022A00F0CC800B
:10A1E000032A02D1022900F0CA8094F95300431CCB
:10A1F0003DD0C0F3C20310336B44C1B213F80C2C32
:10A2000000F0070305FA03F31A4200F03F002ED0D6
:10A21000830003F1A04305FA00F7D3F80027D3F831
:10A2200000C72CF4403CC3F800C7C2F30142D3F886
:10A2300000E7022A0CBF4FF4403C4FF4003C4CEACC
:10A240000E0CC3F800C72318C6F8207593F93030F8
:10A2500054F823305BB18909032900F09A80022A5F
:10A2600000F09480032A02D1022900F09280D6F8EF
:10A2700020350193C6F82035002B7FF4F0AE05B0F1
:10A28000F0BDD3F8042351067FF597AE0022C3F842
:10A290001821D3F818310293029B46F040068CE651
:10A2A000D3F8042390067FF582AE0022C3F8142170
:10A2B000D3F814310293029B46F0200677E6D3F8D8
:10A2C0000423D4067FF56DAE0022C3F81021D3F825
:10A2D00010310293029B46F0100662E6D3F8042385
:10A2E00015077FF558AE0022C3F80C21D3F80C31C6
:10A2F0000293029B46F008064DE6D3F80423570765
:10A300007FF543AE0022C3F80821D3F80831029349
:10A31000029B46F0040638E640380020D3F80423B8
:10A3200092077FF52CAE0022C3F80421D3F8043144
:10A330000293029B46F0020621E6D2F8046316F06F
:10A3400001063FF416AEC2F80031D2F80031029394
:10A35000029B0EE60022C3F87C21D3F87C210392F5
:10A360004FF0A043039AD3F820250192C3F820258B
:10A37000002E3FF470AE4FE601297FF436AF9847C8
:10A3800033E701297FF4EFAE9847ECE601297FF42B
:10A390006EAF98476BE701297FF4A3AE9847A0E61C
:10A3A000014B1B68184700BF9C380020104B984297
:10A3B0001BD130B583B000230DF107008DF80730B5
:10A3C0000D46FDF76FFE0B4B9DF807001C793CB95D
:10A3D00001221D601A71FDF78BFE204603B030BDCF
:10A3E000FDF786FE112003B030BD0020704700BF8E
:10A3F000002000409C38002010B5714AD2F8043388
:10A4000099058AB068D5D2F82431002B64D0002396
:10A41000C2F82431D2F8243101934FF40171694B11
:10A420000198C2F8081393F8291009B90121516065
:10A43000634902228DF81820D1F88024C1F88024C5
:10A440009FED5D7B9969D868CDE9081283ED067BA5
:10A45000D3E90012079006A89047594AD2F81C3158
:10A46000C3B1584B5869196A88426AD993F82810C1
:10A4700001F0FF00002964D1C2F81C01D2F81C11C0
:10A48000039103999C68186A196A205C013119626A
:10A49000C2F81C054A4AD2F84431DBB10021494BCD
:10A4A000C2F84411D2F8440193F8291000900098A2
:10A4B00009B1012111609A6962B1D8685C6A002112
:10A4C0000122CDE9070499618DF8182006A8D3E987
:10A4D000001290470AB010BD394AD2F804335B0726
:10A4E000BBD5D2F80831002BB7D0364B996900297B
:10A4F0003ED00021C2F80811D2F808110491049945
:10A50000D868596AD2F8182542545A6A99690132B2
:10A510005A625A6A8A42A0D1DA69002A31D09A6115
:10A520001A69D8685C6ADA60002101220894D9614E
:10A53000596207905C6819688DF8182006A8A04732
:10A540008BE71F4A0020C2F81C01D2F81C2102929E
:10A55000029A5A69002A9DD0D3E901215C698DF8DD
:10A560001800CDE907145861196806A8904791E7CB
:10A57000C2F80811D2F8080105900598D2F81825FC
:10A58000C7E793F8292012B90D4A012151600C4AFE
:10A590004FF40171C2F80813D8685C6A00210122E7
:10A5A00099618DF81820D3E90012CDE9070406A8B7
:10A5B000904752E7AFF30080000000000000000069
:10A5C00000200040A83800202DE9F041604E90F8AE
:10A5D00004802C2303FB086382B093F82A30002BFD
:10A5E00040F0898005460C4600685A491746FFF737
:10A5F000DDFE00287BD12368591C0CD04FF0A04110
:10A60000012202FA03F3C1F80835236803F5E07369
:10A61000032241F8232063685A1C06D003F5E07337
:10A620004FF0A042002142F823102B68A269C3F822
:10A630002425227D637D13432A68C2F86C35D4E952
:10A6400000122B68C3F81425C3F80C15237D012BC9
:10A650005CD02C2303FB08F3F21857602269F250F8
:10A6600097B32A68237F0021C2F81C11D2F81C215D
:10A670000092009A2A68C2F84411D2F8442101924B
:10A68000019A2A683449C2F804132A6842F3073150
:10A6900000294FEA123232DB01F160415B0101F522
:10A6A0006141DBB281F800332B6843F30732002AA3
:10A6B0004FEA133109DB294C5209012301F01F0134
:10A6C00003FA01F144F822102B680422C3F8002594
:10A6D0002C2303FB086601220023C6E9063386F813
:10A6E0002930736186F82A2002B0BDE8F08111207C
:10A6F00002B0BDE8F081082002B0BDE8F081184941
:10A7000002F00F025B01DBB28B54CDE7A368591C4A
:10A7100006D003F5E0734FF0A042002142F8231069
:10A72000E3685A1C0DD04FF0A041012202FA03F356
:10A73000C1F80835E36803F5E073032241F82320EC
:10A74000E3682A68A168C2F80835C2F8101580E7E6
:10A75000A8380020F9A302008000020000E100E018
:10A7600014ED00E02DE9F041334C90F804E02C2387
:10A7700003FB0E438446586984B000284ED15A61C9
:10A780009960186283F82800DCF80020C2F81C01E8
:10A79000D2F81C210292029ADCF80020012191607B
:10A7A000DCF800209D68C2F81C01D2F81C11019150
:10A7B0000199196A6E5C196A01311962C2F81C6547
:10A7C0005A6812B104B0BDE8F0815E691A6ADCF81B
:10A7D000001096421BD9074602E093F828200ABBD6
:10A7E000D1F81C21002AF8D0C1F81C71D1F81C2125
:10A7F0000392039A1A6A15F802801A6A01321A62E1
:10A80000C1F81C851A6A9642EAD8DCF80010D1F823
:10A810001C31002BFBD00123CB6004E0112004B0DD
:10A82000BDE8F0810F202C2303FB0E44002363615D
:10A8300004B0BDE8F08100BFA83800200279044BC5
:10A840002C2101FB02335869003818BF01207047E2
:10A85000A838002030B5554D90F804E02C2303FBB8
:10A860000E5387B05C68844624B103684FF40170CE
:10A87000C3F808032C2303FB0E53986998B1D869D9
:10A88000002840F083801961DA612C2202FB0E520D
:10A89000536853B3DCF800304FF40172C3F804235B
:10A8A000002007B030BD9A61D9605862D86193F832
:10A8B0002930002BE9D1DCF80020C2F82431D2F88D
:10A8C00024210192DCF800200199C2F80831D2F865
:10A8D00008310293DCF80030029901221A602C2220
:10A8E00002FB0E525368002BD4D1DCF80010C1F8E3
:10A8F0004431D1F844310393039BDCF80030D3F8A2
:10A900002411D3F80841D3F8440154B9002834D1B4
:10A910000029F4D02C2303FB0E550023AB61032048
:10A92000BFE70029F6D150BB9169C3F8080181B196
:10A93000D3F8081104910499D468516AD3F81835F2
:10A940006354536A916901335362536A9942D4D86C
:10A9500006E0D3F8081105910599D3F81835536A24
:10A960002C2303FB0E55002295F82930AA61B3B1C0
:10A97000DCF8003001221A6093E70029CAD12C23A9
:10A9800003FB0E550023AB610F208AE764B1DCF8AE
:10A9900000304FF40172C3F80423112081E7DCF882
:10A9A000003001225A607CE711207AE7A8380020A5
:10A9B00010B55B4BD3F824218AB0002A58D000226E
:10A9C000C3F82421D3F82411049102228DF8182011
:10A9D0000499544AD3F88014C3F880149FED4E7B39
:10A9E0000991D3F83C45D06882ED067BCDE9070498
:10A9F000D2E9001306A89847494BD3F8442152B135
:10AA00000021484AC3F84411D3F8440191690390E6
:10AA10000398002961D1424BD3F8202162B1002074
:10AA2000C3F82001D3F82021029201213D4A029C63
:10AA3000D9605169002943D1394BD3F85821AAB1C3
:10AA40000020C3F85801D3F85811364A01910199F2
:10AA5000516959B1D3F84C458DF81800D2E901314C
:10AA60005061CDE9071406A8116898470AB010BDD7
:10AA7000D3F810110029BFD0C3F81021D3F810115A
:10AA8000284C05910599A169D3F83C058842B3D1BA
:10AA9000E169002933D0C4E90612D3F8002222F07C
:10AAA0002002C3F80022E2680792012122698DF892
:10AAB0001810089063682168E26006A898479BE731
:10AAC000D3F84C458DF81800D2E901315061CDE939
:10AAD000071406A811689847AEE79FED0F7BD3F8DF
:10AAE0003C45D0684FF0010CCDE9070482ED067BB0
:10AAF000D2E900138DF818C006A898478BE7E268E2
:10AB0000A1610123CDE907208DF8183006A8D4E90A
:10AB10000013984770E700BF00000000000000002D
:10AB200000200040D83800202DE9F04307796D4E11
:10AB300007EBC70306EB830387B093F82030002BA5
:10AB400040F0A38004460D46006867499046FFF731
:10AB50002DFC002840F095802B68591C4FEAC7094E
:10AB60000CD04FF0A041012202FA03F3C1F80835DE
:10AB70002B6803F5E073032241F823206B685A1C0D
:10AB800006D003F5E0734FF0A042002142F82310F5
:10AB90002368AA69C3F824252B7D6A7D1A4323689C
:10ABA000C3F86C25D5E900312268C2F80C35C2F82B
:10ABB00014152B7D012B73D009EB070206EB8203E2
:10ABC000C3F804802B6946F82230B8F1000F47D053
:10ABD00021682B7F0022C1F81021D1F810110191BA
:10ABE00001992168C1F82021D1F820110291029920
:10ABF0002168C1F82421D1F8241103910399216817
:10AC0000C1F84421D1F84411049104992168C1F894
:10AC10005821D1F858210592059A22683349C2F883
:10AC20000413226842F3073100294FEA123230DB65
:10AC300001F160415B0101F56141DBB281F8003354
:10AC4000226842F30733002B4FEA123109DB284D0B
:10AC50005B09012201F01F0102FA01F145F82310FE
:10AC600022684F4406EB87060121002386F8201056
:10AC70000821C2F80015C6E90633736107B0BDE8C4
:10AC8000F083112007B0BDE8F083082007B0BDE8CD
:10AC9000F083184902F00F025B01DBB28B54CFE75F
:10ACA000AB68591C06D003F5E0734FF0A0420021B9
:10ACB00042F82310EB685A1C0DD04FF0A04101223E
:10ACC00002FA03F3C1F80835EB6803F5E0730322D9
:10ACD00041F82320EB682268A968C2F80835C2F859
:10ACE000101569E7D8380020B1A90200100342000E
:10ACF00000E100E014ED00E001F0604CBCF1005F09
:10AD000030D170B590F804E0264C0EEBCE0C04EB7D
:10AD10008C0C0346DCF8140082B04FEACE05002804
:10AD20003BD1CCF81420CCF808101A68C2F82001E6
:10AD3000D2F820210192019A1A68C2F85801D2F87B
:10AD400058210092009A1A68DCF81460C2F8441581
:10AD5000C2F848651A6801219160DCF804201AB134
:10AD600002B070BD102070471A6800E0C0B9D2F878
:10AD70002011D2F858010029F8D088B90121D160FA
:10AD80001B68D3F85821002AFBD005EB0E0304EB17
:10AD9000830300225A6102B070BD112002B070BD61
:10ADA0000F20F2E7D83800200379054A03EBC303EC
:10ADB00002EB83035869003818BF0120704700BFB9
:10ADC000D838002001F06043B3F1005F62D1F0B4E5
:10ADD00090F804C0484C0CEBCC0304EB830382B026
:10ADE0005E684FEACC0326B105684FF40477C5F8D6
:10ADF0000873634404EB83039D695DBB9A61DD6165
:10AE0000D9600368C3F81051D3F810310193019B46
:10AE10000368C3F84451D3F8443100930368009D9C
:10AE2000C3F83415C3F83825036801221A6090F876
:10AE300004C00CEBCC0304EB83034FEACC055B6846
:10AE400053B303684FF40472C3F80423002002B024
:10AE5000F0BC7047DD69002D37D11961DA610368F4
:10AE6000C3F81051D3F810310193019B0368C3F864
:10AE70004451D3F8443100930368009DC3F834155E
:10AE8000C3F838250268D2F8003243F02003C2F834
:10AE90000032CCE710207047036801E0E9B910BB2D
:10AEA000D3F81021D3F84411D3F82401002AF5D0A7
:10AEB000654400284FF0000304EB850418BF03200D
:10AEC0009942A36118BF0F20C1E796B103684FF400
:10AED0000472C3F804231120B9E7654404EB850428
:10AEE0000F20A261B3E7654404EB85040320A16150
:10AEF000ADE71120ABE700BFD83800200220FEF7F5
:10AF000095BC00BF2DE9F04706460D46FEF7AEFCA6
:10AF1000032805D8012D04461AD0022D27D00DB1E3
:10AF2000BDE8F0871B48FCF713FF1B4B1B4A04EBE3
:10AF300044010B44125D9D78AA42F1D1002DEFD05F
:10AF4000174B1B68002BEBD02846BDE8F04718478D
:10AF5000114F00EB4003FA18FD5C53784FEA4008AC
:10AF60005BB9A04447440D4BBA781A55E6E70A4B43
:10AF700000EB40041C446578E0E7DFF828900548C2
:10AF80004A464FF48041FCF787FE0028E9D189F852
:10AF90000060E6E7902A0020003900201C390020DC
:10AFA00014390020FC38002010B50078FEF75EFC54
:10AFB00003280BD8064B00EB40001844407828B11A
:10AFC000044B1B6813B1BDE81040184710BD00BF0B
:10AFD000003900201439002038B5BA4D2B780446CA
:10AFE0006BB1B94B1B7800202870002B4DD0FEF7B9
:10AFF000E5FB0120FEF7E2FB0320FEF7DFFB172C49
:10B0000000F25E81DFE814F0EB00630063009F0054
:10B01000AC00B900CB009700500044005000440041
:10B020007A0018001800180018001800D90018013C
:10B03000810000015C005C00A448FCF789FED4F1AB
:10B040001104054600F02681002840F02381012CE0
:10B0500014D0C82303FB04F429464FF400434FF4F3
:10B060007A70C4FB03014FF4FA62002304F01AFF64
:10B070002A4601469548FCF70FFE05460220FEF7DA
:10B0800091FB914B01221A701FE0FEF7A3FBB6E77C
:10B0900001202870FEF7CAFBBDE838408C4800222A
:10B0A0004FF40051FCF7F8BD01202870FEF7BEFBFD
:10B0B000BDE838408648002240F26661FCF7ECBDEE
:10B0C000FEF79EFB834B00251C70284638BD0020F0
:10B0D000FEF75AFB002840F0C380FEF763FB40F602
:10B0E000CD4141F69A13022C18BF1946794B1C70BA
:10B0F000BDE8384076480022FCF7CEBDFEF780FB65
:10B10000744B0C221A700025DFE76F4B1B78002B65
:10B1100000F0D3800020FEF751FB0120FEF74EFB2C
:10B120000320FEF74BFB0120FEF73CFB694B14228A
:10B130001A700025C9E70020FEF734FB654B072293
:10B140001A700025C1E70020FEF71EFB002840F022
:10B150009B80FEF727FB40F6CD415E4B0324C6E7FC
:10B160000020FEF711FB002840F08880FEF71AFB54
:10B1700041F69A11574B0424B9E70020FEF704FB6F
:10B18000002877D1FEF70EFB524B514805241C7066
:10B19000BDE83840002240F6CD41FCF77DBD0020DF
:10B1A000FEF744FB4B4B4A4806241C70BDE8384070
:10B1B000002240F26661FCF76FBD434B1B78002B09
:10B1C00078D00020FEF7FAFA0120FEF7F7FA032004
:10B1D000FEF7F4FA3F4B12221A70002575E73A4B3E
:10B1E0001B78002B60D00020FEF7E8FA0120FEF764
:10B1F000E5FA0320FEF7E2FA3548FCF7A9FD354BE6
:10B20000002205461A7060E72F4B1B78002B48D0B0
:10B210000020FEF7D3FA0120FEF7D0FA0320FEF754
:10B22000CDFA0020FEF7BEFA0120FEF7BBFA294B4B
:10B2300015221A70002548E7234B1B78BBB300206A
:10B24000FEF7BCFA0120FEF7B9FA0320FEF7B6FAC2
:10B250000020FEF7A7FA1F4B13221A70002534E7CF
:10B260000020FEF7ABFA022C47F2333118BF4FF43F
:10B2700080313BE70020FEF7A1FA85E70020FEF7CA
:10B280009DFA4FF4803175E70020FEF797FA43F2FC
:10B29000333162E70220FEF791FA0B4B00221A705D
:10B2A00013E7FEF797FABCE7FEF794FAA4E7FEF778
:10B2B00091FACDE7FEF78EFA8CE7FEF78BFA32E7CC
:10B2C000002502E710390020FD380020702A0020F8
:10B2D000B02A002018390020044B1B68DB0700D47B
:10B2E0007047034B1878FFF777BE00BF0C3900207A
:10B2F00018390020032801D900207047FEF7A8BAAA
:10B30000044B1B6813F0010301D118467047FFF787
:10B3100063BE00BF0C39002038B5244B244A1960A5
:10B3200081070446106004D410F001052CD1284692
:10B3300038BD204B20480E210F221970DA701021E1
:10B34000112299715A72042140F23332FCF798F9B4
:10B35000054630B1E207EAD50120FEF79FFA2846FC
:10B3600038BDFCF7E9F905460028F3D10146134A38
:10B370001348FCF779FCE3070546D8D50120FEF712
:10B380008DFA002DD3D102E00120FEF787FA0D4A95
:10B390000D480021FCF768FC05460028C7D1BDE830
:10B3A00038400A4A0A480121FCF75EBC14390020E3
:10B3B0000C3900200039002048090300A9AF020021
:10B3C0006C090300D9B2020070090300FDAE02004F
:10B3D00068090300032806D8012A06D001291BD0DA
:10B3E000022908D071B107207047012911D0022924
:10B3F0004FF00002F6D10B4B00EB4000034400205D
:10B400005A707047074B00EB4000034408469A709F
:10B41000704700F10E02D2B200EB40030149002058
:10B42000CA54704700390020032801D9062070470C
:10B4300008B5FEF72DFA800000F1A0430020D3F8F4
:10B44000002722F44032C3F80027D3F8002742F443
:10B450004032C3F8002708BD10B50388102B07D071
:10B46000112B04D1254B18680138186030B110BD7C
:10B47000224C216811B30131216010BD012202214B
:10B48000FFF7A8FF40B1072806D01D4B1B68002B13
:10B49000EDD0BDE810401847072202210120FFF738
:10B4A00099FF08B10728F0D100210A220846FFF7CA
:10B4B00091FF0028DBD00728E7D1D8E70122084612
:10B4C000FFF788FF38B1072805D00D4B1B6803B183
:10B4D00098472168CFE7072202210120FFF77AFF72
:10B4E00008B10728F1D1042202210020FFF772FFE2
:10B4F0000028EED00728E8D1EBE700BF2439002070
:10B500002039002008B50020FFF78EFF10B1062873
:10B5100000D008BD0120FFF787FF0028F9D00628DA
:10B5200008BF002008BD00BF184B10B5186031B12E
:10B5300001200C46FFF7DEFEF8B102232370144B06
:10B54000186808B1002010BD01220221FFF742FF58
:10B5500008B10728F7D1072202210120FFF73AFF9F
:10B5600008B10728EFD100210A220846FFF732FF71
:10B570000028E7D00728E5D010BDFFF7BBFE10B1CB
:10B580000B232370DBE72070D9E700BF20390020B0
:10B590002439002075DF704776DF70477FDF704702
:10B5A0008FDF7047FCF7DEB80146014802F032BA7F
:10B5B000AC3B002010B503883B2B82B004461CD85E
:10B5C0000F2B21D9103B2B2B1ED8DFE803F01F36A1
:10B5D0001D451D1D1D1D1D1D1D4E1D1D1D5E1D66B8
:10B5E0001D1D1D1D1D1D1D1D1D1D1D1D1D1D1D1D8B
:10B5F0001D1D1D1D1D1D1D1D1D18562B04D1A088B0
:10B600001321FFF7C9FF98B902B010BD81882C48FB
:10B61000002202F033FB00284ED10720FFF770FE16
:10B62000002846D1A188274800F0E4FF0028EBD08D
:10B6300002B0BDE81040FCF795B8234A2348237AAE
:10B640002349801AC008A288000440F0030002B019
:10B65000BDE81040FBF782BA002380881A46852196
:10B66000FFF79CFF0028CFD0E2E7037A022BCBD173
:10B67000154B16481749C01AC008000440F00300D3
:10B6800002B0BDE81040FBF72BBC808804F1080134
:10B69000FFF780FF0028B7D0CAE700238088ADF805
:10B6A000043001A9FFF77CFF0028ADD0FCF75AF861
:10B6B000AAE7FCF757F8B5E7FCF754F8ADE700BF89
:10B6C000AC3B0020E82A0020EC1303001414030014
:10B6D00074090300A409030070B50378012B044624
:10B6E00035D0022B24D003B170BD1D4C1D4D2088D8
:10B6F0002844FCF771FC2288013292B21544228062
:10B7000015F8013C0A2B05D00D2B03D0164B1B88D6
:10B710009342E9D8134E154D3146284602F05EFAA1
:10B72000082802D0132816D0B8B90023238070BD92
:10B730000F48104B1049C01AC008000440F0010027
:10B74000FBF7CEFB6068BDE87040FCF70BB808481B
:10B75000084B0A49EFE72288DEE7FCF703F8E4E745
:10B760001C3A002028390020E62A0020AC3B0020AB
:10B7700014140300EC130300C4090300F8090300C8
:10B7800010B504460020FFF7BBFD10B92CB1012015
:10B7900010BDFBF7E7FF002CF9D1FFF7B3FE00283F
:10B7A000F5D0FBF7DFFF012010BD00BF0A8840F68F
:10B7B00077239A4200D0704710B50D4B0D48C01A40
:10B7C000C00882B00C46000440F003000A49019012
:10B7D000FBF786FBA388094A09490198033B9BB202
:10B7E00013801A4602B0BDE81040FBF7B7B900BF9E
:10B7F000EC13030014140300240A0300E62A0020BB
:10B80000400A0300042805D00A2802D10020FDF7D1
:10B81000FBBB704708B5064B13215888FFF7BCFEE9
:10B8200030F0080300D108BDBDE80840FBF79ABF1F
:10B83000AC3B00200378052B07D010B5062B84B055
:10B840001ED0042B04D004B010BD4068B0B97047BE
:10B85000184B19481949C01AC008000440F00300E9
:10B86000FBF73EFB164801F0A1FF00BB0120FFF7EC
:10B8700047FD0028E7D004B0BDE81040FBF772BFD9
:10B8800041680D488C798B784A7803944C790294FE
:10B890000C790194CC780094064C0A49001BC0082E
:10B8A000000440F00300FAF781FF04B010BDFBF77D
:10B8B00059FFDBE7EC13030014140300980A03009C
:10B8C000D83B0020680A03002DE9F0470B78012BD4
:10B8D0000C4605D0022B74D0002B55D0BDE8F08764
:10B8E0008F89D1F80880002F00F08C80474B484AA0
:10B8F000DFF838A1A3EB02094FEAD9094FEA094959
:10B90000454649F0010900262878FCF791FB0446DA
:10B9100078BB0136BE4205F10105F5D17B1E18F852
:10B9200003300D2B1AD03B4D3A464146284602F0D3
:10B9300055F904460028D1D01128F5D0344B3348AE
:10B940003549C01AC0080004224640F00100FBF748
:10B95000E9F92046BDE8F047FBF704BF0A20FCF7F1
:10B9600067FB1128DFD10A20FCF762FB1128F5D014
:10B97000D9E7112C324651464846C5D0FBF7D2F9DB
:10B980002046FBF7EFFEC4E7214B204D2349ED1A7B
:10B99000ED082D0445F0030506462846FBF7A0FAFE
:10B9A000618804F10E02304602F068F938BB304677
:10B9B00002F0E0F800BB28461949BDE8F047FBF764
:10B9C0008FBA134B11481749C01AC008000440F041
:10B9D0000300FBF785FA144801F0E8FE48B901209E
:10B9E000FFF78EFC00283FF479AFBDE8F047FBF786
:10B9F000B9BEFBF7B7FEF2E7FBF7B4FEDBE7FBF7F8
:10BA0000B1FED4E74FF0FF3389E700BF1414030001
:10BA1000EC130300AC3B0020140B0300A80A030046
:10BA2000BC0A0300400B0300D83B0020EC0A0300D3
:10BA300008B50B490B4801F099FA28B90948F721D4
:10BA400001F0ACFA40B908BDFBF78CFE0548F721C0
:10BA500001F0A4FA0028F6D0BDE80840FBF782BE4A
:10BA6000ADB70200C43B002000B54FF480418BB05D
:10BA70000020FAF71BFD002840F09A80FAF706FD37
:10BA8000FCF7BAF8002840F0C080614C0FCC0DF1F3
:10BA9000100CACE80F0094E803008CE803005D494B
:10BAA0005D4B00934FF48074CDE901415B4A0394F0
:10BAB0000723694604A8FCF71BFA002840F0A2807F
:10BAC00057490120FFF728FC002840F0988004A97E
:10BAD0000020FFF729FD002840F08E800822002179
