:1000000000000120F902000021030000230300008A
:100010002503000027030000290300000000000062
:100020000000000000000000000000002B030000A2
:100030002D030000000000002F030000310300002A
:1000400033030000330300003303000033030000D8
:1000500033030000330300003303000033030000C8
:1000600033030000330300003303000033030000B8
:1000700033030000330300003303000033030000A8
:100080003303000033030000330300003303000098
:100090003303000033030000330300003303000088
:1000A0003303000033030000330300003303000078
:1000B00033030000330300000000000000000000D4
:1000C0003303000033030000330300003303000058
:1000D000330300003303000033030000000000007E
:1000E0000000000000000000000000000000000010
:1000F0000000000000000000000000000000000000
:1001000000000000000000000000000000000000EF
:1001100000000000000000000000000000000000DF
:1001200000000000000000000000000000000000CF
:1001300000000000000000000000000000000000BF
:1001400000000000000000000000000000000000AF
:10015000000000000000000000000000000000009F
:10016000000000000000000000000000000000008F
:10017000000000000000000000000000000000007F
:10018000000000000000000000000000000000006F
:10019000000000000000000000000000000000005F
:1001A000000000000000000000000000000000004F
:1001B000000000000000000000000000000000003F
:1001C000000000000000000000000000000000002F
:1001D000000000000000000000000000000000001F
:1001E000000000000000000000000000000000000F
:1001F00000000000000000000000000000000000FF
:100200000348044B834202D0034B03B118477047A5
:100210007000002070000020000000000548064922
:100220000B1AD90F01EBA301491002D0034B03B104
:100230001847704770000020700000200000000088
:1002400010B5064C237843B9FFF7DAFF044B13B11E
:100250000448AFF300800123237010BD700000201C
:1002600000000000CC0A000008B5044B1BB1044993
:100270000448AFF30080BDE80840CFE7000000006D
:1002800074000020CC0A0000A3F5803A704700BF3C
:10029000154B002B08BF114B9D46FFF7F5FF0021C2
:1002A0008B460F461148124A121A00F0DBFA0C4B2B
:1002B000002B00D098470B4B002B00D09847002014
:1002C000002104000D000B4800F078FA00F0A6FAB7
:1002D0002000290000F06EF800F076FA0000080017
:1002E000000000000000000000000120700000205D
:1002F0001C010020F10700000649074A074B9B1A22
:1003000003DD043BC858D050FBDC00F06BF8FFF76E
:10031000BFFF0000D80A000000000020700000208D
:10032000FEE7FEE7FEE7FEE7FEE7FEE7FEE7FEE7A5
:10033000FEE7FEE7074B4FF0A041185CD1F804350B
:100340000122824022EA03001340C1F80805C1F8E7
:100350000C357047980A0000C20710B41AD54FF048
:10036000A04303224FF40031C3F844274FF4802404
:10037000C3F84827C3F84C27C3F85027C3F808151B
:100380004FF480124FF40021C3F80845C3F8081554
:10039000C3F8082583070AD54FF0A0430C22C3F801
:1003A0003427C3F83827C3F83C27C3F840275DF843
:1003B000044B704770B50120094DFFF7CDFF45F0A4
:1003C000010500263046FFF7B5FF4FF4FA744FF4ED
:1003D0007A40A847013CFAD10136042EF2D1F0E769
:1003E000A00A000010B44FF08053D3F830315A1CEB
:1003F00004BF4FF0704393F8E03F062B08D14FF055
:100400008053C24AD3F82433C3F30423C2F84035DF
:100410004FF0704393F8E02F062A00F024814FF04C
:100420008053D3F830315C1C04BF4FF0704393F815
:10043000E03F062B09D14FF080534FF08042D3F8B4
:100440004432C3F34233C2F83C354FF0704393F863
:10045000E02F062A00F0F2804FF08053D3F83031BD
:10046000581C04BF4FF0704393F8E03F062B08D1AF
:100470004FF080430022C3F80C21C3F81021C3F8C9
:1004800038254FF0704393F8E02F062A00F0B38030
:100490004FF08052D2F83031591C27D0062BD2F8B9
:1004A00034212DD09A4AD2F8883043F47003C2F830
:1004B0008830BFF34F8FBFF36F8F4FF08053D3F867
:1004C0003021062A00F0E0804FF01023D3F80022FC
:1004D000002AC0F23B81D3F80432002BC0F23681EF
:1004E0008C4B8D4A1A605DF8044B70474FF0704298
:1004F00092F8E01FD2F8E82F0629D3D1C2F30312F5
:10050000033A042A40F2DA804FF08053834AD3F84A
:100510000414C2F82015D3F80814C2F82415D3F82F
:100520000C14C2F82815D3F81014C2F82C15D3F8FF
:100530001414C2F83015D3F81814C2F83415D3F8CF
:100540001C14C2F84015D3F82014C2F84415D3F88F
:100550002414C2F84815D3F82814C2F84C15D3F85F
:100560002C14C2F85015D3F83014C2F85415D3F82F
:100570003414C2F86015D3F83814C2F86415D3F8EF
:100580003C14C2F86815D3F84014C2F86C15D3F8BF
:100590004414D3F83031C2F870155C1C04BF4FF01E
:1005A000704393F8E03F062B7FF47CAF4FF080520E
:1005B0004FF08041D2F85832D2F8302103F04F0387
:1005C000501CC1F8E43E7FD0062A7FF46BAFD1F80F
:1005D0000034DA0700F184804FF08053D3F83431CF
:1005E000033B042B64D94E4AD2F83C3743F4806372
:1005F000C2F83C3756E7D3F8E83FC3F30313033B95
:10060000042B3FF645AF474AD25C22B14FF08042FF
:100610000321C2F8A015444AD35C002B3FF438AF45
:10062000424B0524012000213F22C3F81046C3F8A5
:100630008806C3F81816C3F8142629E7D3F8E83F4C
:10064000C3F30313033B042B3FF606AF384AD35CD6
:10065000002B3FF401AF2E4AD2F8FC3023F0807318
:10066000C2F8FC30F8E6D3F8E83FC3F30313033BCA
:10067000042B3FF6D4AE2F4AD35C002B3FF4CFAE11
:100680002D4B2E4A5A67CAE6D3F83431033B042B6C
:1006900008D94FF010224FF08043D2F80822C3F857
:1006A000582511E7264AD35C002B3FF40DAFF0E745
:1006B000244AD35C002B3FF4F5AE94E722498A5CD0
:1006C000002A3FF46AAF1FE74FF0704393F8E03F12
:1006D000062B7FF4E7AED1F80034DB077FF5E2AEFE
:1006E0004FF080534FF08042D3F830316FF001016A
:1006F000062BC2F800147FF4D5AE4FF08053D3F828
:100700003431033B042B3FF66EAFD1E7003001409C
:1007100000ED00E0000000200090D00300C0004089
:1007200000100040C00A0000C00A00000050004055
:10073000C00A0000C00A000000C007400DF0ADBABA
:10074000B80A0000B00A0000A80A0000184A0123F5
:10075000C2F80435D2F80034002BFBD04FF0102340
:100760001521134AC3F80012D2F80034002BFBD035
:100770004FF0102315210E4AC3F80412D2F80034AA
:10078000002BFBD000230A49C2F80435D1F800340D
:10079000002BFBD0BFF34F8F0649074BCA6802F40A
:1007A000E0621343CB60BFF34F8F00BFFDE700BF94
:1007B00000E0014000ED00E00400FA0500230146DE
:1007C0001A46184600F0A0B808B5074B044613B106
:1007D000002100F0EFF8054B1868836A03B19847D1
:1007E000204600F04BF900BFB5090000C80A000020
:1007F00038B5084B084D5B1B9C1007D0043B1D44CB
:10080000013C55F804399847002CF9D1BDE838402F
:1008100000F03CB9700000206C00002070B50D4E57
:100820000D4D761BB61006D0002455F8043B01345C
:100830009847A642F9D1094E094D761B00F020F9E0
:10084000B61006D0002455F8043B01349847A64260
:10085000F9D170BD68000020680000206C00002005
:1008600068000020830730B548D0541E002A3FD0CE
:10087000CAB2034601E0013C3AD303F8012B9D07BD
:10088000F9D1032C2DD9CDB245EA05250F2C45EA27
:10089000054536D9A4F1100222F00F0C03F1200E09
:1008A000E6444FEA121C03F1100242E9045542E902
:1008B000025510327245F8D10CF1010214F00C0F00
:1008C00003EB021204F00F0C13D0ACF1040323F07D
:1008D00003030433134442F8045B9342FBD10CF04E
:1008E00003042CB1CAB21C4403F8012B9C42FBD177
:1008F00030BD64461346002CF4D1F9E70346144694
:10090000BFE71A46A446E0E7F0B5264C256885B057
:10091000064605B36C681F2C41DCA6B1D5F88800EB
:1009200048B3D0F8007140F824204FF0010C0CFAC5
:1009300004FC00EB84024CEA0707022EC0F80071A9
:10094000C2F8803010D0A31C01346C6045F823102D
:10095000002005B0F0BD1448144D25600028D9D002
:100960000068C5F88800D5E7D0F8043143EA0C03E5
:10097000C0F80431E7E70E480191CDE9022370B1D8
:100980004FF48470AFF3008048B10027C0E940778E
:10099000DDE902236C680199C5F88800C3E74FF0D0
:1009A000FF30D6E718010020000000008C00002076
:1009B000000000002DE9F84FDFF8BCA0DAF8007065
:1009C0002DED028BE7B108EE100A89467D68D7F855
:1009D00088806C1E14D407EB8506043608EB850569
:1009E000B9F1000F10D0B8F1000F02D0EB6F4B45FA
:1009F0000AD0013C631CA5F10405A6F10406EFD161
:100A0000BDEC028BBDE8F88F7B683268013BA342E6
:100A100016BF00237C603360002AEAD0D7F804B008
:100A2000B8F1000F1AD0D8F80001012303FA04F13D
:100A3000014213D0D8F80401014218D155F8041C22
:100A400018EE100A90477A685A450BD1DAF8003050
:100A5000BB42CED01F46002FB8D1D1E790477A686D
:100A60005A45F3D0DAF80070002FAFD1C8E755F837
:100A7000040C9047E7E700BF18010020FEE700BF25
:100A8000F8B500BFF8BC08BC9E467047F8B500BF7B
:100A9000F8BC08BC9E4670471112131400000000F9
:100AA0000338FDD87047000000000101010000007C
:100AB0000000000101000000000000000100000033
:100AC00001000000000000000800002000000000FD
:080AD000B8F7FF7F01000000F0
:100AD8000090D00308000020000000000000000083
:100AE80000000000000000000000000000000000FE
:100AF80000000000000000000000000000000000EE
:100B080000000000000000000000000000000000DD
:100B180000000000000000000000000000000000CD
:100B280000000000000000000000000000000000BD
:100B380000000000000000006902000041020000FF
:04000003000002F9FE
:00000001FF
